{
	"CakeContract.sol": {
		"CakeContract": {
			"abi": [
				{
					"inputs": [
						{
							"internalType": "address",
							"name": "_cakeToken",
							"type": "address"
						}
					],
					"stateMutability": "nonpayable",
					"type": "constructor"
				},
				{
					"inputs": [
						{
							"internalType": "uint256",
							"name": "amount",
							"type": "uint256"
						}
					],
					"name": "approveToken",
					"outputs": [],
					"stateMutability": "nonpayable",
					"type": "function"
				},
				{
					"inputs": [
						{
							"internalType": "address",
							"name": "",
							"type": "address"
						}
					],
					"name": "balances",
					"outputs": [
						{
							"internalType": "uint256",
							"name": "",
							"type": "uint256"
						}
					],
					"stateMutability": "view",
					"type": "function"
				},
				{
					"inputs": [],
					"name": "cakeToken",
					"outputs": [
						{
							"internalType": "contract IBEP20",
							"name": "",
							"type": "address"
						}
					],
					"stateMutability": "view",
					"type": "function"
				},
				{
					"inputs": [
						{
							"internalType": "uint256",
							"name": "amount",
							"type": "uint256"
						}
					],
					"name": "deposit",
					"outputs": [],
					"stateMutability": "nonpayable",
					"type": "function"
				},
				{
					"inputs": [],
					"name": "getTransactions",
					"outputs": [
						{
							"components": [
								{
									"internalType": "address",
									"name": "sender",
									"type": "address"
								},
								{
									"internalType": "address",
									"name": "recipient",
									"type": "address"
								},
								{
									"internalType": "uint256",
									"name": "amount",
									"type": "uint256"
								},
								{
									"internalType": "uint256",
									"name": "timestamp",
									"type": "uint256"
								}
							],
							"internalType": "struct CakeContract.Transaction[]",
							"name": "",
							"type": "tuple[]"
						}
					],
					"stateMutability": "view",
					"type": "function"
				},
				{
					"inputs": [
						{
							"internalType": "address",
							"name": "addr",
							"type": "address"
						}
					],
					"name": "getTransactionsByAddress",
					"outputs": [
						{
							"components": [
								{
									"internalType": "address",
									"name": "sender",
									"type": "address"
								},
								{
									"internalType": "address",
									"name": "recipient",
									"type": "address"
								},
								{
									"internalType": "uint256",
									"name": "amount",
									"type": "uint256"
								},
								{
									"internalType": "uint256",
									"name": "timestamp",
									"type": "uint256"
								}
							],
							"internalType": "struct CakeContract.Transaction[]",
							"name": "",
							"type": "tuple[]"
						}
					],
					"stateMutability": "view",
					"type": "function"
				},
				{
					"inputs": [
						{
							"internalType": "uint256",
							"name": "",
							"type": "uint256"
						}
					],
					"name": "transactions",
					"outputs": [
						{
							"internalType": "address",
							"name": "sender",
							"type": "address"
						},
						{
							"internalType": "address",
							"name": "recipient",
							"type": "address"
						},
						{
							"internalType": "uint256",
							"name": "amount",
							"type": "uint256"
						},
						{
							"internalType": "uint256",
							"name": "timestamp",
							"type": "uint256"
						}
					],
					"stateMutability": "view",
					"type": "function"
				},
				{
					"inputs": [
						{
							"internalType": "address",
							"name": "to",
							"type": "address"
						},
						{
							"internalType": "uint256",
							"name": "amount",
							"type": "uint256"
						}
					],
					"name": "transfer",
					"outputs": [],
					"stateMutability": "nonpayable",
					"type": "function"
				},
				{
					"inputs": [
						{
							"internalType": "uint256",
							"name": "amount",
							"type": "uint256"
						}
					],
					"name": "withdraw",
					"outputs": [],
					"stateMutability": "nonpayable",
					"type": "function"
				}
			],
			"devdoc": {
				"kind": "dev",
				"methods": {},
				"version": 1
			},
			"evm": {
				"assembly": "    /* \"CakeContract.sol\":225:4378  contract CakeContract {... */\n  mstore(0x40, 0x80)\n    /* \"CakeContract.sol\":859:981  constructor(address _cakeToken ) {... */\n  callvalue\n  dup1\n  iszero\n  tag_1\n  jumpi\n  0x00\n  dup1\n  revert\ntag_1:\n  pop\n  mload(0x40)\n  sub(codesize, bytecodeSize)\n  dup1\n  bytecodeSize\n  dup4\n  codecopy\n  dup2\n  dup2\n  add\n  0x40\n  mstore\n  dup2\n  add\n  swap1\n  tag_2\n  swap2\n  swap1\n  tag_3\n  jump\t// in\ntag_2:\n    /* \"CakeContract.sol\":962:972  _cakeToken */\n  dup1\n    /* \"CakeContract.sol\":943:952  cakeToken */\n  0x00\n  dup1\n    /* \"CakeContract.sol\":943:973  cakeToken = IBEP20(_cakeToken) */\n  0x0100\n  exp\n  dup2\n  sload\n  dup2\n  0xffffffffffffffffffffffffffffffffffffffff\n  mul\n  not\n  and\n  swap1\n  dup4\n  0xffffffffffffffffffffffffffffffffffffffff\n  and\n  mul\n  or\n  swap1\n  sstore\n  pop\n    /* \"CakeContract.sol\":859:981  constructor(address _cakeToken ) {... */\n  pop\n    /* \"CakeContract.sol\":225:4378  contract CakeContract {... */\n  jump(tag_6)\n    /* \"#utility.yul\":88:205   */\ntag_8:\n    /* \"#utility.yul\":197:198   */\n  0x00\n    /* \"#utility.yul\":194:195   */\n  dup1\n    /* \"#utility.yul\":187:199   */\n  revert\n    /* \"#utility.yul\":334:460   */\ntag_10:\n    /* \"#utility.yul\":371:378   */\n  0x00\n    /* \"#utility.yul\":411:453   */\n  0xffffffffffffffffffffffffffffffffffffffff\n    /* \"#utility.yul\":404:409   */\n  dup3\n    /* \"#utility.yul\":400:454   */\n  and\n    /* \"#utility.yul\":389:454   */\n  swap1\n  pop\n    /* \"#utility.yul\":334:460   */\n  swap2\n  swap1\n  pop\n  jump\t// out\n    /* \"#utility.yul\":466:562   */\ntag_11:\n    /* \"#utility.yul\":503:510   */\n  0x00\n    /* \"#utility.yul\":532:556   */\n  tag_20\n    /* \"#utility.yul\":550:555   */\n  dup3\n    /* \"#utility.yul\":532:556   */\n  tag_10\n  jump\t// in\ntag_20:\n    /* \"#utility.yul\":521:556   */\n  swap1\n  pop\n    /* \"#utility.yul\":466:562   */\n  swap2\n  swap1\n  pop\n  jump\t// out\n    /* \"#utility.yul\":568:690   */\ntag_12:\n    /* \"#utility.yul\":641:665   */\n  tag_22\n    /* \"#utility.yul\":659:664   */\n  dup2\n    /* \"#utility.yul\":641:665   */\n  tag_11\n  jump\t// in\ntag_22:\n    /* \"#utility.yul\":634:639   */\n  dup2\n    /* \"#utility.yul\":631:666   */\n  eq\n    /* \"#utility.yul\":621:684   */\n  tag_23\n  jumpi\n    /* \"#utility.yul\":680:681   */\n  0x00\n    /* \"#utility.yul\":677:678   */\n  dup1\n    /* \"#utility.yul\":670:682   */\n  revert\n    /* \"#utility.yul\":621:684   */\ntag_23:\n    /* \"#utility.yul\":568:690   */\n  pop\n  jump\t// out\n    /* \"#utility.yul\":696:839   */\ntag_13:\n    /* \"#utility.yul\":753:758   */\n  0x00\n    /* \"#utility.yul\":784:790   */\n  dup2\n    /* \"#utility.yul\":778:791   */\n  mload\n    /* \"#utility.yul\":769:791   */\n  swap1\n  pop\n    /* \"#utility.yul\":800:833   */\n  tag_25\n    /* \"#utility.yul\":827:832   */\n  dup2\n    /* \"#utility.yul\":800:833   */\n  tag_12\n  jump\t// in\ntag_25:\n    /* \"#utility.yul\":696:839   */\n  swap3\n  swap2\n  pop\n  pop\n  jump\t// out\n    /* \"#utility.yul\":845:1196   */\ntag_3:\n    /* \"#utility.yul\":915:921   */\n  0x00\n    /* \"#utility.yul\":964:966   */\n  0x20\n    /* \"#utility.yul\":952:961   */\n  dup3\n    /* \"#utility.yul\":943:950   */\n  dup5\n    /* \"#utility.yul\":939:962   */\n  sub\n    /* \"#utility.yul\":935:967   */\n  slt\n    /* \"#utility.yul\":932:1051   */\n  iszero\n  tag_27\n  jumpi\n    /* \"#utility.yul\":970:1049   */\n  tag_28\n  tag_8\n  jump\t// in\ntag_28:\n    /* \"#utility.yul\":932:1051   */\ntag_27:\n    /* \"#utility.yul\":1090:1091   */\n  0x00\n    /* \"#utility.yul\":1115:1179   */\n  tag_29\n    /* \"#utility.yul\":1171:1178   */\n  dup5\n    /* \"#utility.yul\":1162:1168   */\n  dup3\n    /* \"#utility.yul\":1151:1160   */\n  dup6\n    /* \"#utility.yul\":1147:1169   */\n  add\n    /* \"#utility.yul\":1115:1179   */\n  tag_13\n  jump\t// in\ntag_29:\n    /* \"#utility.yul\":1105:1179   */\n  swap2\n  pop\n    /* \"#utility.yul\":1061:1189   */\n  pop\n    /* \"#utility.yul\":845:1196   */\n  swap3\n  swap2\n  pop\n  pop\n  jump\t// out\n    /* \"CakeContract.sol\":225:4378  contract CakeContract {... */\ntag_6:\n  dataSize(sub_0)\n  dup1\n  dataOffset(sub_0)\n  0x00\n  codecopy\n  0x00\n  return\nstop\n\nsub_0: assembly {\n        /* \"CakeContract.sol\":225:4378  contract CakeContract {... */\n      mstore(0x40, 0x80)\n      callvalue\n      dup1\n      iszero\n      tag_1\n      jumpi\n      0x00\n      dup1\n      revert\n    tag_1:\n      pop\n      jumpi(tag_2, lt(calldatasize, 0x04))\n      shr(0xe0, calldataload(0x00))\n      dup1\n      0x83920e90\n      gt\n      tag_12\n      jumpi\n      dup1\n      0x83920e90\n      eq\n      tag_7\n      jumpi\n      dup1\n      0x8904bf2f\n      eq\n      tag_8\n      jumpi\n      dup1\n      0x9ace38c2\n      eq\n      tag_9\n      jumpi\n      dup1\n      0xa9059cbb\n      eq\n      tag_10\n      jumpi\n      dup1\n      0xb6b55f25\n      eq\n      tag_11\n      jumpi\n      jump(tag_2)\n    tag_12:\n      dup1\n      0x0947b4dc\n      eq\n      tag_3\n      jumpi\n      dup1\n      0x27e235e3\n      eq\n      tag_4\n      jumpi\n      dup1\n      0x2e1a7d4d\n      eq\n      tag_5\n      jumpi\n      dup1\n      0x3ac9fc11\n      eq\n      tag_6\n      jumpi\n    tag_2:\n      0x00\n      dup1\n      revert\n        /* \"CakeContract.sol\":3650:4375  function getTransactionsByAddress(address addr) public view returns (Transaction[] memory) {... */\n    tag_3:\n      tag_13\n      0x04\n      dup1\n      calldatasize\n      sub\n      dup2\n      add\n      swap1\n      tag_14\n      swap2\n      swap1\n      tag_15\n      jump\t// in\n    tag_14:\n      tag_16\n      jump\t// in\n    tag_13:\n      mload(0x40)\n      tag_17\n      swap2\n      swap1\n      tag_18\n      jump\t// in\n    tag_17:\n      mload(0x40)\n      dup1\n      swap2\n      sub\n      swap1\n      return\n        /* \"CakeContract.sol\":696:739  mapping(address => uint256) public balances */\n    tag_4:\n      tag_19\n      0x04\n      dup1\n      calldatasize\n      sub\n      dup2\n      add\n      swap1\n      tag_20\n      swap2\n      swap1\n      tag_15\n      jump\t// in\n    tag_20:\n      tag_21\n      jump\t// in\n    tag_19:\n      mload(0x40)\n      tag_22\n      swap2\n      swap1\n      tag_23\n      jump\t// in\n    tag_22:\n      mload(0x40)\n      dup1\n      swap2\n      sub\n      swap1\n      return\n        /* \"CakeContract.sol\":2098:2663  function withdraw(uint256 amount) public {... */\n    tag_5:\n      tag_24\n      0x04\n      dup1\n      calldatasize\n      sub\n      dup2\n      add\n      swap1\n      tag_25\n      swap2\n      swap1\n      tag_26\n      jump\t// in\n    tag_25:\n      tag_27\n      jump\t// in\n    tag_24:\n      stop\n        /* \"CakeContract.sol\":1062:1285  function approveToken(uint256 amount) public {... */\n    tag_6:\n      tag_28\n      0x04\n      dup1\n      calldatasize\n      sub\n      dup2\n      add\n      swap1\n      tag_29\n      swap2\n      swap1\n      tag_26\n      jump\t// in\n    tag_29:\n      tag_30\n      jump\t// in\n    tag_28:\n      stop\n        /* \"CakeContract.sol\":3430:3538  function getTransactions() public view returns (Transaction[] memory) {... */\n    tag_7:\n      tag_31\n      tag_32\n      jump\t// in\n    tag_31:\n      mload(0x40)\n      tag_33\n      swap2\n      swap1\n      tag_18\n      jump\t// in\n    tag_33:\n      mload(0x40)\n      dup1\n      swap2\n      sub\n      swap1\n      return\n        /* \"CakeContract.sol\":287:310  IBEP20 public cakeToken */\n    tag_8:\n      tag_34\n      tag_35\n      jump\t// in\n    tag_34:\n      mload(0x40)\n      tag_36\n      swap2\n      swap1\n      tag_37\n      jump\t// in\n    tag_36:\n      mload(0x40)\n      dup1\n      swap2\n      sub\n      swap1\n      return\n        /* \"CakeContract.sol\":606:639  Transaction[] public transactions */\n    tag_9:\n      tag_38\n      0x04\n      dup1\n      calldatasize\n      sub\n      dup2\n      add\n      swap1\n      tag_39\n      swap2\n      swap1\n      tag_26\n      jump\t// in\n    tag_39:\n      tag_40\n      jump\t// in\n    tag_38:\n      mload(0x40)\n      tag_41\n      swap5\n      swap4\n      swap3\n      swap2\n      swap1\n      tag_42\n      jump\t// in\n    tag_41:\n      mload(0x40)\n      dup1\n      swap2\n      sub\n      swap1\n      return\n        /* \"CakeContract.sol\":2759:3338  function transfer(address to, uint256 amount) public {... */\n    tag_10:\n      tag_43\n      0x04\n      dup1\n      calldatasize\n      sub\n      dup2\n      add\n      swap1\n      tag_44\n      swap2\n      swap1\n      tag_45\n      jump\t// in\n    tag_44:\n      tag_46\n      jump\t// in\n    tag_43:\n      stop\n        /* \"CakeContract.sol\":1351:2011  function deposit(uint256 amount) public {... */\n    tag_11:\n      tag_47\n      0x04\n      dup1\n      calldatasize\n      sub\n      dup2\n      add\n      swap1\n      tag_48\n      swap2\n      swap1\n      tag_26\n      jump\t// in\n    tag_48:\n      tag_49\n      jump\t// in\n    tag_47:\n      stop\n        /* \"CakeContract.sol\":3650:4375  function getTransactionsByAddress(address addr) public view returns (Transaction[] memory) {... */\n    tag_16:\n        /* \"CakeContract.sol\":3719:3739  Transaction[] memory */\n      0x60\n        /* \"CakeContract.sol\":3831:3858  Transaction[] memory result */\n      0x00\n        /* \"CakeContract.sol\":3879:3891  transactions */\n      0x01\n        /* \"CakeContract.sol\":3879:3898  transactions.length */\n      dup1\n      sload\n      swap1\n      pop\n        /* \"CakeContract.sol\":3861:3899  new Transaction[](transactions.length) */\n      0xffffffffffffffff\n      dup2\n      gt\n      iszero\n      tag_51\n      jumpi\n      tag_52\n      tag_53\n      jump\t// in\n    tag_52:\n    tag_51:\n      mload(0x40)\n      swap1\n      dup1\n      dup3\n      mstore\n      dup1\n      0x20\n      mul\n      0x20\n      add\n      dup3\n      add\n      0x40\n      mstore\n      dup1\n      iszero\n      tag_54\n      jumpi\n      dup2\n      0x20\n      add\n    tag_55:\n      tag_56\n      tag_57\n      jump\t// in\n    tag_56:\n      dup2\n      mstore\n      0x20\n      add\n      swap1\n      0x01\n      swap1\n      sub\n      swap1\n      dup2\n      tag_55\n      jumpi\n      swap1\n      pop\n    tag_54:\n      pop\n        /* \"CakeContract.sol\":3831:3899  Transaction[] memory result = new Transaction[](transactions.length) */\n      swap1\n      pop\n        /* \"CakeContract.sol\":3910:3923  uint256 index */\n      0x00\n        /* \"CakeContract.sol\":4031:4040  uint256 i */\n      dup1\n        /* \"CakeContract.sol\":4026:4286  for (uint256 i = 0; i < transactions.length; i++) {... */\n    tag_58:\n        /* \"CakeContract.sol\":4050:4062  transactions */\n      0x01\n        /* \"CakeContract.sol\":4050:4069  transactions.length */\n      dup1\n      sload\n      swap1\n      pop\n        /* \"CakeContract.sol\":4046:4047  i */\n      dup2\n        /* \"CakeContract.sol\":4046:4069  i < transactions.length */\n      lt\n        /* \"CakeContract.sol\":4026:4286  for (uint256 i = 0; i < transactions.length; i++) {... */\n      iszero\n      tag_59\n      jumpi\n        /* \"CakeContract.sol\":4091:4113  Transaction memory _tx */\n      0x00\n        /* \"CakeContract.sol\":4116:4128  transactions */\n      0x01\n        /* \"CakeContract.sol\":4129:4130  i */\n      dup3\n        /* \"CakeContract.sol\":4116:4131  transactions[i] */\n      dup2\n      sload\n      dup2\n      lt\n      tag_61\n      jumpi\n      tag_62\n      tag_63\n      jump\t// in\n    tag_62:\n    tag_61:\n      swap1\n      0x00\n      mstore\n      keccak256(0x00, 0x20)\n      swap1\n      0x04\n      mul\n      add\n        /* \"CakeContract.sol\":4091:4131  Transaction memory _tx = transactions[i] */\n      mload(0x40)\n      dup1\n      0x80\n      add\n      0x40\n      mstore\n      swap1\n      dup2\n      0x00\n      dup3\n      add\n      0x00\n      swap1\n      sload\n      swap1\n      0x0100\n      exp\n      swap1\n      div\n      0xffffffffffffffffffffffffffffffffffffffff\n      and\n      0xffffffffffffffffffffffffffffffffffffffff\n      and\n      0xffffffffffffffffffffffffffffffffffffffff\n      and\n      dup2\n      mstore\n      0x20\n      add\n      0x01\n      dup3\n      add\n      0x00\n      swap1\n      sload\n      swap1\n      0x0100\n      exp\n      swap1\n      div\n      0xffffffffffffffffffffffffffffffffffffffff\n      and\n      0xffffffffffffffffffffffffffffffffffffffff\n      and\n      0xffffffffffffffffffffffffffffffffffffffff\n      and\n      dup2\n      mstore\n      0x20\n      add\n      0x02\n      dup3\n      add\n      sload\n      dup2\n      mstore\n      0x20\n      add\n      0x03\n      dup3\n      add\n      sload\n      dup2\n      mstore\n      pop\n      pop\n      swap1\n      pop\n        /* \"CakeContract.sol\":4164:4168  addr */\n      dup6\n        /* \"CakeContract.sol\":4150:4168  _tx.sender == addr */\n      0xffffffffffffffffffffffffffffffffffffffff\n      and\n        /* \"CakeContract.sol\":4150:4153  _tx */\n      dup2\n        /* \"CakeContract.sol\":4150:4160  _tx.sender */\n      0x00\n      add\n      mload\n        /* \"CakeContract.sol\":4150:4168  _tx.sender == addr */\n      0xffffffffffffffffffffffffffffffffffffffff\n      and\n      eq\n        /* \"CakeContract.sol\":4150:4193  _tx.sender == addr || _tx.recipient == addr */\n      dup1\n      tag_65\n      jumpi\n      pop\n        /* \"CakeContract.sol\":4189:4193  addr */\n      dup6\n        /* \"CakeContract.sol\":4172:4193  _tx.recipient == addr */\n      0xffffffffffffffffffffffffffffffffffffffff\n      and\n        /* \"CakeContract.sol\":4172:4175  _tx */\n      dup2\n        /* \"CakeContract.sol\":4172:4185  _tx.recipient */\n      0x20\n      add\n      mload\n        /* \"CakeContract.sol\":4172:4193  _tx.recipient == addr */\n      0xffffffffffffffffffffffffffffffffffffffff\n      and\n      eq\n        /* \"CakeContract.sol\":4150:4193  _tx.sender == addr || _tx.recipient == addr */\n    tag_65:\n        /* \"CakeContract.sol\":4146:4275  if (_tx.sender == addr || _tx.recipient == addr) {... */\n      iszero\n      tag_66\n      jumpi\n        /* \"CakeContract.sol\":4230:4233  _tx */\n      dup1\n        /* \"CakeContract.sol\":4214:4220  result */\n      dup5\n        /* \"CakeContract.sol\":4221:4226  index */\n      dup5\n        /* \"CakeContract.sol\":4214:4227  result[index] */\n      dup2\n      mload\n      dup2\n      lt\n      tag_67\n      jumpi\n      tag_68\n      tag_63\n      jump\t// in\n    tag_68:\n    tag_67:\n      0x20\n      mul\n      0x20\n      add\n      add\n        /* \"CakeContract.sol\":4214:4233  result[index] = _tx */\n      dup2\n      swap1\n      mstore\n      pop\n        /* \"CakeContract.sol\":4252:4259  index++ */\n      dup3\n      dup1\n      tag_69\n      swap1\n      tag_70\n      jump\t// in\n    tag_69:\n      swap4\n      pop\n      pop\n        /* \"CakeContract.sol\":4146:4275  if (_tx.sender == addr || _tx.recipient == addr) {... */\n    tag_66:\n        /* \"CakeContract.sol\":4076:4286  {... */\n      pop\n        /* \"CakeContract.sol\":4071:4074  i++ */\n      dup1\n      dup1\n      tag_71\n      swap1\n      tag_70\n      jump\t// in\n    tag_71:\n      swap2\n      pop\n      pop\n        /* \"CakeContract.sol\":4026:4286  for (uint256 i = 0; i < transactions.length; i++) {... */\n      jump(tag_58)\n    tag_59:\n      pop\n        /* \"CakeContract.sol\":4361:4367  result */\n      dup2\n        /* \"CakeContract.sol\":4354:4367  return result */\n      swap3\n      pop\n      pop\n      pop\n        /* \"CakeContract.sol\":3650:4375  function getTransactionsByAddress(address addr) public view returns (Transaction[] memory) {... */\n      swap2\n      swap1\n      pop\n      jump\t// out\n        /* \"CakeContract.sol\":696:739  mapping(address => uint256) public balances */\n    tag_21:\n      mstore(0x20, 0x02)\n      dup1\n      0x00\n      mstore\n      keccak256(0x00, 0x40)\n      0x00\n      swap2\n      pop\n      swap1\n      pop\n      sload\n      dup2\n      jump\t// out\n        /* \"CakeContract.sol\":2098:2663  function withdraw(uint256 amount) public {... */\n    tag_27:\n        /* \"CakeContract.sol\":2239:2245  amount */\n      dup1\n        /* \"CakeContract.sol\":2215:2223  balances */\n      0x02\n        /* \"CakeContract.sol\":2215:2235  balances[msg.sender] */\n      0x00\n        /* \"CakeContract.sol\":2224:2234  msg.sender */\n      caller\n        /* \"CakeContract.sol\":2215:2235  balances[msg.sender] */\n      0xffffffffffffffffffffffffffffffffffffffff\n      and\n      0xffffffffffffffffffffffffffffffffffffffff\n      and\n      dup2\n      mstore\n      0x20\n      add\n      swap1\n      dup2\n      mstore\n      0x20\n      add\n      0x00\n      keccak256\n      sload\n        /* \"CakeContract.sol\":2215:2245  balances[msg.sender] >= amount */\n      lt\n      iszero\n        /* \"CakeContract.sol\":2193:2307  require(... */\n      tag_73\n      jumpi\n      mload(0x40)\n      0x08c379a000000000000000000000000000000000000000000000000000000000\n      dup2\n      mstore\n      0x04\n      add\n      tag_74\n      swap1\n      tag_75\n      jump\t// in\n    tag_74:\n      mload(0x40)\n      dup1\n      swap2\n      sub\n      swap1\n      revert\n    tag_73:\n        /* \"CakeContract.sol\":2379:2385  amount */\n      dup1\n        /* \"CakeContract.sol\":2355:2363  balances */\n      0x02\n        /* \"CakeContract.sol\":2355:2375  balances[msg.sender] */\n      0x00\n        /* \"CakeContract.sol\":2364:2374  msg.sender */\n      caller\n        /* \"CakeContract.sol\":2355:2375  balances[msg.sender] */\n      0xffffffffffffffffffffffffffffffffffffffff\n      and\n      0xffffffffffffffffffffffffffffffffffffffff\n      and\n      dup2\n      mstore\n      0x20\n      add\n      swap1\n      dup2\n      mstore\n      0x20\n      add\n      0x00\n      keccak256\n      0x00\n        /* \"CakeContract.sol\":2355:2385  balances[msg.sender] -= amount */\n      dup3\n      dup3\n      sload\n      tag_76\n      swap2\n      swap1\n      tag_77\n      jump\t// in\n    tag_76:\n      swap3\n      pop\n      pop\n      dup2\n      swap1\n      sstore\n      pop\n        /* \"CakeContract.sol\":2457:2466  cakeToken */\n      0x00\n      dup1\n      sload\n      swap1\n      0x0100\n      exp\n      swap1\n      div\n      0xffffffffffffffffffffffffffffffffffffffff\n      and\n        /* \"CakeContract.sol\":2457:2475  cakeToken.transfer */\n      0xffffffffffffffffffffffffffffffffffffffff\n      and\n      0xa9059cbb\n        /* \"CakeContract.sol\":2476:2486  msg.sender */\n      caller\n        /* \"CakeContract.sol\":2488:2494  amount */\n      dup4\n        /* \"CakeContract.sol\":2457:2495  cakeToken.transfer(msg.sender, amount) */\n      mload(0x40)\n      dup4\n      0xffffffff\n      and\n      0xe0\n      shl\n      dup2\n      mstore\n      0x04\n      add\n      tag_78\n      swap3\n      swap2\n      swap1\n      tag_79\n      jump\t// in\n    tag_78:\n      0x20\n      mload(0x40)\n      dup1\n      dup4\n      sub\n      dup2\n      0x00\n      dup8\n      gas\n      call\n      iszero\n      dup1\n      iszero\n      tag_81\n      jumpi\n      returndatasize\n      0x00\n      dup1\n      returndatacopy\n      revert(0x00, returndatasize)\n    tag_81:\n      pop\n      pop\n      pop\n      pop\n      mload(0x40)\n      returndatasize\n      not(0x1f)\n      0x1f\n      dup3\n      add\n      and\n      dup3\n      add\n      dup1\n      0x40\n      mstore\n      pop\n      dup2\n      add\n      swap1\n      tag_82\n      swap2\n      swap1\n      tag_83\n      jump\t// in\n    tag_82:\n      pop\n        /* \"CakeContract.sol\":2549:2561  transactions */\n      0x01\n        /* \"CakeContract.sol\":2581:2644  Transaction(address(this), msg.sender, amount, block.timestamp) */\n      mload(0x40)\n      dup1\n      0x80\n      add\n      0x40\n      mstore\n      dup1\n        /* \"CakeContract.sol\":2601:2605  this */\n      address\n        /* \"CakeContract.sol\":2581:2644  Transaction(address(this), msg.sender, amount, block.timestamp) */\n      0xffffffffffffffffffffffffffffffffffffffff\n      and\n      dup2\n      mstore\n      0x20\n      add\n        /* \"CakeContract.sol\":2608:2618  msg.sender */\n      caller\n        /* \"CakeContract.sol\":2581:2644  Transaction(address(this), msg.sender, amount, block.timestamp) */\n      0xffffffffffffffffffffffffffffffffffffffff\n      and\n      dup2\n      mstore\n      0x20\n      add\n        /* \"CakeContract.sol\":2620:2626  amount */\n      dup4\n        /* \"CakeContract.sol\":2581:2644  Transaction(address(this), msg.sender, amount, block.timestamp) */\n      dup2\n      mstore\n      0x20\n      add\n        /* \"CakeContract.sol\":2628:2643  block.timestamp */\n      timestamp\n        /* \"CakeContract.sol\":2581:2644  Transaction(address(this), msg.sender, amount, block.timestamp) */\n      dup2\n      mstore\n      pop\n        /* \"CakeContract.sol\":2549:2655  transactions.push(... */\n      swap1\n      dup1\n      0x01\n      dup2\n      sload\n      add\n      dup1\n      dup3\n      sstore\n      dup1\n      swap2\n      pop\n      pop\n      0x01\n      swap1\n      sub\n      swap1\n      0x00\n      mstore\n      keccak256(0x00, 0x20)\n      swap1\n      0x04\n      mul\n      add\n      0x00\n      swap1\n      swap2\n      swap1\n      swap2\n      swap1\n      swap2\n      pop\n      0x00\n      dup3\n      add\n      mload\n      dup2\n      0x00\n      add\n      exp(0x0100, 0x00)\n      dup2\n      sload\n      dup2\n      0xffffffffffffffffffffffffffffffffffffffff\n      mul\n      not\n      and\n      swap1\n      dup4\n      0xffffffffffffffffffffffffffffffffffffffff\n      and\n      mul\n      or\n      swap1\n      sstore\n      pop\n      0x20\n      dup3\n      add\n      mload\n      dup2\n      0x01\n      add\n      exp(0x0100, 0x00)\n      dup2\n      sload\n      dup2\n      0xffffffffffffffffffffffffffffffffffffffff\n      mul\n      not\n      and\n      swap1\n      dup4\n      0xffffffffffffffffffffffffffffffffffffffff\n      and\n      mul\n      or\n      swap1\n      sstore\n      pop\n      0x40\n      dup3\n      add\n      mload\n      dup2\n      0x02\n      add\n      sstore\n      0x60\n      dup3\n      add\n      mload\n      dup2\n      0x03\n      add\n      sstore\n      pop\n      pop\n        /* \"CakeContract.sol\":2098:2663  function withdraw(uint256 amount) public {... */\n      pop\n      jump\t// out\n        /* \"CakeContract.sol\":1062:1285  function approveToken(uint256 amount) public {... */\n    tag_30:\n        /* \"CakeContract.sol\":1237:1246  cakeToken */\n      0x00\n      dup1\n      sload\n      swap1\n      0x0100\n      exp\n      swap1\n      div\n      0xffffffffffffffffffffffffffffffffffffffff\n      and\n        /* \"CakeContract.sol\":1237:1254  cakeToken.approve */\n      0xffffffffffffffffffffffffffffffffffffffff\n      and\n      0x095ea7b3\n        /* \"CakeContract.sol\":1263:1267  this */\n      address\n        /* \"CakeContract.sol\":1270:1276  amount */\n      dup4\n        /* \"CakeContract.sol\":1237:1277  cakeToken.approve(address(this), amount) */\n      mload(0x40)\n      dup4\n      0xffffffff\n      and\n      0xe0\n      shl\n      dup2\n      mstore\n      0x04\n      add\n      tag_86\n      swap3\n      swap2\n      swap1\n      tag_79\n      jump\t// in\n    tag_86:\n      0x20\n      mload(0x40)\n      dup1\n      dup4\n      sub\n      dup2\n      0x00\n      dup8\n      gas\n      call\n      iszero\n      dup1\n      iszero\n      tag_88\n      jumpi\n      returndatasize\n      0x00\n      dup1\n      returndatacopy\n      revert(0x00, returndatasize)\n    tag_88:\n      pop\n      pop\n      pop\n      pop\n      mload(0x40)\n      returndatasize\n      not(0x1f)\n      0x1f\n      dup3\n      add\n      and\n      dup3\n      add\n      dup1\n      0x40\n      mstore\n      pop\n      dup2\n      add\n      swap1\n      tag_89\n      swap2\n      swap1\n      tag_83\n      jump\t// in\n    tag_89:\n      pop\n        /* \"CakeContract.sol\":1062:1285  function approveToken(uint256 amount) public {... */\n      pop\n      jump\t// out\n        /* \"CakeContract.sol\":3430:3538  function getTransactions() public view returns (Transaction[] memory) {... */\n    tag_32:\n        /* \"CakeContract.sol\":3478:3498  Transaction[] memory */\n      0x60\n        /* \"CakeContract.sol\":3518:3530  transactions */\n      0x01\n        /* \"CakeContract.sol\":3511:3530  return transactions */\n      dup1\n      sload\n      dup1\n      0x20\n      mul\n      0x20\n      add\n      mload(0x40)\n      swap1\n      dup2\n      add\n      0x40\n      mstore\n      dup1\n      swap3\n      swap2\n      swap1\n      dup2\n      dup2\n      mstore\n      0x20\n      add\n      0x00\n      swap1\n    tag_91:\n      dup3\n      dup3\n      lt\n      iszero\n      tag_92\n      jumpi\n      dup4\n      dup3\n      swap1\n      0x00\n      mstore\n      keccak256(0x00, 0x20)\n      swap1\n      0x04\n      mul\n      add\n      mload(0x40)\n      dup1\n      0x80\n      add\n      0x40\n      mstore\n      swap1\n      dup2\n      0x00\n      dup3\n      add\n      0x00\n      swap1\n      sload\n      swap1\n      0x0100\n      exp\n      swap1\n      div\n      0xffffffffffffffffffffffffffffffffffffffff\n      and\n      0xffffffffffffffffffffffffffffffffffffffff\n      and\n      0xffffffffffffffffffffffffffffffffffffffff\n      and\n      dup2\n      mstore\n      0x20\n      add\n      0x01\n      dup3\n      add\n      0x00\n      swap1\n      sload\n      swap1\n      0x0100\n      exp\n      swap1\n      div\n      0xffffffffffffffffffffffffffffffffffffffff\n      and\n      0xffffffffffffffffffffffffffffffffffffffff\n      and\n      0xffffffffffffffffffffffffffffffffffffffff\n      and\n      dup2\n      mstore\n      0x20\n      add\n      0x02\n      dup3\n      add\n      sload\n      dup2\n      mstore\n      0x20\n      add\n      0x03\n      dup3\n      add\n      sload\n      dup2\n      mstore\n      pop\n      pop\n      dup2\n      mstore\n      0x20\n      add\n      swap1\n      0x01\n      add\n      swap1\n      jump(tag_91)\n    tag_92:\n      pop\n      pop\n      pop\n      pop\n      swap1\n      pop\n        /* \"CakeContract.sol\":3430:3538  function getTransactions() public view returns (Transaction[] memory) {... */\n      swap1\n      jump\t// out\n        /* \"CakeContract.sol\":287:310  IBEP20 public cakeToken */\n    tag_35:\n      0x00\n      dup1\n      sload\n      swap1\n      0x0100\n      exp\n      swap1\n      div\n      0xffffffffffffffffffffffffffffffffffffffff\n      and\n      dup2\n      jump\t// out\n        /* \"CakeContract.sol\":606:639  Transaction[] public transactions */\n    tag_40:\n      0x01\n      dup2\n      dup2\n      sload\n      dup2\n      lt\n      tag_94\n      jumpi\n      0x00\n      dup1\n      revert\n    tag_94:\n      swap1\n      0x00\n      mstore\n      keccak256(0x00, 0x20)\n      swap1\n      0x04\n      mul\n      add\n      0x00\n      swap2\n      pop\n      swap1\n      pop\n      dup1\n      0x00\n      add\n      0x00\n      swap1\n      sload\n      swap1\n      0x0100\n      exp\n      swap1\n      div\n      0xffffffffffffffffffffffffffffffffffffffff\n      and\n      swap1\n      dup1\n      0x01\n      add\n      0x00\n      swap1\n      sload\n      swap1\n      0x0100\n      exp\n      swap1\n      div\n      0xffffffffffffffffffffffffffffffffffffffff\n      and\n      swap1\n      dup1\n      0x02\n      add\n      sload\n      swap1\n      dup1\n      0x03\n      add\n      sload\n      swap1\n      pop\n      dup5\n      jump\t// out\n        /* \"CakeContract.sol\":2759:3338  function transfer(address to, uint256 amount) public {... */\n    tag_46:\n        /* \"CakeContract.sol\":2912:2918  amount */\n      dup1\n        /* \"CakeContract.sol\":2888:2896  balances */\n      0x02\n        /* \"CakeContract.sol\":2888:2908  balances[msg.sender] */\n      0x00\n        /* \"CakeContract.sol\":2897:2907  msg.sender */\n      caller\n        /* \"CakeContract.sol\":2888:2908  balances[msg.sender] */\n      0xffffffffffffffffffffffffffffffffffffffff\n      and\n      0xffffffffffffffffffffffffffffffffffffffff\n      and\n      dup2\n      mstore\n      0x20\n      add\n      swap1\n      dup2\n      mstore\n      0x20\n      add\n      0x00\n      keccak256\n      sload\n        /* \"CakeContract.sol\":2888:2918  balances[msg.sender] >= amount */\n      lt\n      iszero\n        /* \"CakeContract.sol\":2866:2980  require(... */\n      tag_97\n      jumpi\n      mload(0x40)\n      0x08c379a000000000000000000000000000000000000000000000000000000000\n      dup2\n      mstore\n      0x04\n      add\n      tag_98\n      swap1\n      tag_75\n      jump\t// in\n    tag_98:\n      mload(0x40)\n      dup1\n      swap2\n      sub\n      swap1\n      revert\n    tag_97:\n        /* \"CakeContract.sol\":3067:3073  amount */\n      dup1\n        /* \"CakeContract.sol\":3043:3051  balances */\n      0x02\n        /* \"CakeContract.sol\":3043:3063  balances[msg.sender] */\n      0x00\n        /* \"CakeContract.sol\":3052:3062  msg.sender */\n      caller\n        /* \"CakeContract.sol\":3043:3063  balances[msg.sender] */\n      0xffffffffffffffffffffffffffffffffffffffff\n      and\n      0xffffffffffffffffffffffffffffffffffffffff\n      and\n      dup2\n      mstore\n      0x20\n      add\n      swap1\n      dup2\n      mstore\n      0x20\n      add\n      0x00\n      keccak256\n      0x00\n        /* \"CakeContract.sol\":3043:3073  balances[msg.sender] -= amount */\n      dup3\n      dup3\n      sload\n      tag_99\n      swap2\n      swap1\n      tag_77\n      jump\t// in\n    tag_99:\n      swap3\n      pop\n      pop\n      dup2\n      swap1\n      sstore\n      pop\n        /* \"CakeContract.sol\":3100:3106  amount */\n      dup1\n        /* \"CakeContract.sol\":3084:3092  balances */\n      0x02\n        /* \"CakeContract.sol\":3084:3096  balances[to] */\n      0x00\n        /* \"CakeContract.sol\":3093:3095  to */\n      dup5\n        /* \"CakeContract.sol\":3084:3096  balances[to] */\n      0xffffffffffffffffffffffffffffffffffffffff\n      and\n      0xffffffffffffffffffffffffffffffffffffffff\n      and\n      dup2\n      mstore\n      0x20\n      add\n      swap1\n      dup2\n      mstore\n      0x20\n      add\n      0x00\n      keccak256\n      0x00\n        /* \"CakeContract.sol\":3084:3106  balances[to] += amount */\n      dup3\n      dup3\n      sload\n      tag_100\n      swap2\n      swap1\n      tag_101\n      jump\t// in\n    tag_100:\n      swap3\n      pop\n      pop\n      dup2\n      swap1\n      sstore\n      pop\n        /* \"CakeContract.sol\":3175:3184  cakeToken */\n      0x00\n      dup1\n      sload\n      swap1\n      0x0100\n      exp\n      swap1\n      div\n      0xffffffffffffffffffffffffffffffffffffffff\n      and\n        /* \"CakeContract.sol\":3175:3193  cakeToken.transfer */\n      0xffffffffffffffffffffffffffffffffffffffff\n      and\n      0xa9059cbb\n        /* \"CakeContract.sol\":3194:3196  to */\n      dup4\n        /* \"CakeContract.sol\":3198:3204  amount */\n      dup4\n        /* \"CakeContract.sol\":3175:3205  cakeToken.transfer(to, amount) */\n      mload(0x40)\n      dup4\n      0xffffffff\n      and\n      0xe0\n      shl\n      dup2\n      mstore\n      0x04\n      add\n      tag_102\n      swap3\n      swap2\n      swap1\n      tag_79\n      jump\t// in\n    tag_102:\n      0x20\n      mload(0x40)\n      dup1\n      dup4\n      sub\n      dup2\n      0x00\n      dup8\n      gas\n      call\n      iszero\n      dup1\n      iszero\n      tag_104\n      jumpi\n      returndatasize\n      0x00\n      dup1\n      returndatacopy\n      revert(0x00, returndatasize)\n    tag_104:\n      pop\n      pop\n      pop\n      pop\n      mload(0x40)\n      returndatasize\n      not(0x1f)\n      0x1f\n      dup3\n      add\n      and\n      dup3\n      add\n      dup1\n      0x40\n      mstore\n      pop\n      dup2\n      add\n      swap1\n      tag_105\n      swap2\n      swap1\n      tag_83\n      jump\t// in\n    tag_105:\n      pop\n        /* \"CakeContract.sol\":3259:3271  transactions */\n      0x01\n        /* \"CakeContract.sol\":3277:3329  Transaction(msg.sender, to, amount, block.timestamp) */\n      mload(0x40)\n      dup1\n      0x80\n      add\n      0x40\n      mstore\n      dup1\n        /* \"CakeContract.sol\":3289:3299  msg.sender */\n      caller\n        /* \"CakeContract.sol\":3277:3329  Transaction(msg.sender, to, amount, block.timestamp) */\n      0xffffffffffffffffffffffffffffffffffffffff\n      and\n      dup2\n      mstore\n      0x20\n      add\n        /* \"CakeContract.sol\":3301:3303  to */\n      dup5\n        /* \"CakeContract.sol\":3277:3329  Transaction(msg.sender, to, amount, block.timestamp) */\n      0xffffffffffffffffffffffffffffffffffffffff\n      and\n      dup2\n      mstore\n      0x20\n      add\n        /* \"CakeContract.sol\":3305:3311  amount */\n      dup4\n        /* \"CakeContract.sol\":3277:3329  Transaction(msg.sender, to, amount, block.timestamp) */\n      dup2\n      mstore\n      0x20\n      add\n        /* \"CakeContract.sol\":3313:3328  block.timestamp */\n      timestamp\n        /* \"CakeContract.sol\":3277:3329  Transaction(msg.sender, to, amount, block.timestamp) */\n      dup2\n      mstore\n      pop\n        /* \"CakeContract.sol\":3259:3330  transactions.push(Transaction(msg.sender, to, amount, block.timestamp)) */\n      swap1\n      dup1\n      0x01\n      dup2\n      sload\n      add\n      dup1\n      dup3\n      sstore\n      dup1\n      swap2\n      pop\n      pop\n      0x01\n      swap1\n      sub\n      swap1\n      0x00\n      mstore\n      keccak256(0x00, 0x20)\n      swap1\n      0x04\n      mul\n      add\n      0x00\n      swap1\n      swap2\n      swap1\n      swap2\n      swap1\n      swap2\n      pop\n      0x00\n      dup3\n      add\n      mload\n      dup2\n      0x00\n      add\n      exp(0x0100, 0x00)\n      dup2\n      sload\n      dup2\n      0xffffffffffffffffffffffffffffffffffffffff\n      mul\n      not\n      and\n      swap1\n      dup4\n      0xffffffffffffffffffffffffffffffffffffffff\n      and\n      mul\n      or\n      swap1\n      sstore\n      pop\n      0x20\n      dup3\n      add\n      mload\n      dup2\n      0x01\n      add\n      exp(0x0100, 0x00)\n      dup2\n      sload\n      dup2\n      0xffffffffffffffffffffffffffffffffffffffff\n      mul\n      not\n      and\n      swap1\n      dup4\n      0xffffffffffffffffffffffffffffffffffffffff\n      and\n      mul\n      or\n      swap1\n      sstore\n      pop\n      0x40\n      dup3\n      add\n      mload\n      dup2\n      0x02\n      add\n      sstore\n      0x60\n      dup3\n      add\n      mload\n      dup2\n      0x03\n      add\n      sstore\n      pop\n      pop\n        /* \"CakeContract.sol\":2759:3338  function transfer(address to, uint256 amount) public {... */\n      pop\n      pop\n      jump\t// out\n        /* \"CakeContract.sol\":1351:2011  function deposit(uint256 amount) public {... */\n    tag_49:\n        /* \"CakeContract.sol\":1541:1547  amount */\n      dup1\n        /* \"CakeContract.sol\":1491:1500  cakeToken */\n      0x00\n      dup1\n      sload\n      swap1\n      0x0100\n      exp\n      swap1\n      div\n      0xffffffffffffffffffffffffffffffffffffffff\n      and\n        /* \"CakeContract.sol\":1491:1510  cakeToken.allowance */\n      0xffffffffffffffffffffffffffffffffffffffff\n      and\n      0xdd62ed3e\n        /* \"CakeContract.sol\":1511:1521  msg.sender */\n      caller\n        /* \"CakeContract.sol\":1531:1535  this */\n      address\n        /* \"CakeContract.sol\":1491:1537  cakeToken.allowance(msg.sender, address(this)) */\n      mload(0x40)\n      dup4\n      0xffffffff\n      and\n      0xe0\n      shl\n      dup2\n      mstore\n      0x04\n      add\n      tag_108\n      swap3\n      swap2\n      swap1\n      tag_109\n      jump\t// in\n    tag_108:\n      0x20\n      mload(0x40)\n      dup1\n      dup4\n      sub\n      dup2\n      dup7\n      gas\n      staticcall\n      iszero\n      dup1\n      iszero\n      tag_111\n      jumpi\n      returndatasize\n      0x00\n      dup1\n      returndatacopy\n      revert(0x00, returndatasize)\n    tag_111:\n      pop\n      pop\n      pop\n      pop\n      mload(0x40)\n      returndatasize\n      not(0x1f)\n      0x1f\n      dup3\n      add\n      and\n      dup3\n      add\n      dup1\n      0x40\n      mstore\n      pop\n      dup2\n      add\n      swap1\n      tag_112\n      swap2\n      swap1\n      tag_113\n      jump\t// in\n    tag_112:\n        /* \"CakeContract.sol\":1491:1547  cakeToken.allowance(msg.sender, address(this)) >= amount */\n      lt\n      iszero\n        /* \"CakeContract.sol\":1469:1609  require(... */\n      tag_114\n      jumpi\n      mload(0x40)\n      0x08c379a000000000000000000000000000000000000000000000000000000000\n      dup2\n      mstore\n      0x04\n      add\n      tag_115\n      swap1\n      tag_116\n      jump\t// in\n    tag_115:\n      mload(0x40)\n      dup1\n      swap2\n      sub\n      swap1\n      revert\n    tag_114:\n        /* \"CakeContract.sol\":1693:1702  cakeToken */\n      0x00\n      dup1\n      sload\n      swap1\n      0x0100\n      exp\n      swap1\n      div\n      0xffffffffffffffffffffffffffffffffffffffff\n      and\n        /* \"CakeContract.sol\":1693:1715  cakeToken.transferFrom */\n      0xffffffffffffffffffffffffffffffffffffffff\n      and\n      0x23b872dd\n        /* \"CakeContract.sol\":1716:1726  msg.sender */\n      caller\n        /* \"CakeContract.sol\":1736:1740  this */\n      address\n        /* \"CakeContract.sol\":1743:1749  amount */\n      dup5\n        /* \"CakeContract.sol\":1693:1750  cakeToken.transferFrom(msg.sender, address(this), amount) */\n      mload(0x40)\n      dup5\n      0xffffffff\n      and\n      0xe0\n      shl\n      dup2\n      mstore\n      0x04\n      add\n      tag_117\n      swap4\n      swap3\n      swap2\n      swap1\n      tag_118\n      jump\t// in\n    tag_117:\n      0x20\n      mload(0x40)\n      dup1\n      dup4\n      sub\n      dup2\n      0x00\n      dup8\n      gas\n      call\n      iszero\n      dup1\n      iszero\n      tag_120\n      jumpi\n      returndatasize\n      0x00\n      dup1\n      returndatacopy\n      revert(0x00, returndatasize)\n    tag_120:\n      pop\n      pop\n      pop\n      pop\n      mload(0x40)\n      returndatasize\n      not(0x1f)\n      0x1f\n      dup3\n      add\n      and\n      dup3\n      add\n      dup1\n      0x40\n      mstore\n      pop\n      dup2\n      add\n      swap1\n      tag_121\n      swap2\n      swap1\n      tag_83\n      jump\t// in\n    tag_121:\n      pop\n        /* \"CakeContract.sol\":1837:1843  amount */\n      dup1\n        /* \"CakeContract.sol\":1813:1821  balances */\n      0x02\n        /* \"CakeContract.sol\":1813:1833  balances[msg.sender] */\n      0x00\n        /* \"CakeContract.sol\":1822:1832  msg.sender */\n      caller\n        /* \"CakeContract.sol\":1813:1833  balances[msg.sender] */\n      0xffffffffffffffffffffffffffffffffffffffff\n      and\n      0xffffffffffffffffffffffffffffffffffffffff\n      and\n      dup2\n      mstore\n      0x20\n      add\n      swap1\n      dup2\n      mstore\n      0x20\n      add\n      0x00\n      keccak256\n      0x00\n        /* \"CakeContract.sol\":1813:1843  balances[msg.sender] += amount */\n      dup3\n      dup3\n      sload\n      tag_122\n      swap2\n      swap1\n      tag_101\n      jump\t// in\n    tag_122:\n      swap3\n      pop\n      pop\n      dup2\n      swap1\n      sstore\n      pop\n        /* \"CakeContract.sol\":1897:1909  transactions */\n      0x01\n        /* \"CakeContract.sol\":1929:1992  Transaction(msg.sender, address(this), amount, block.timestamp) */\n      mload(0x40)\n      dup1\n      0x80\n      add\n      0x40\n      mstore\n      dup1\n        /* \"CakeContract.sol\":1941:1951  msg.sender */\n      caller\n        /* \"CakeContract.sol\":1929:1992  Transaction(msg.sender, address(this), amount, block.timestamp) */\n      0xffffffffffffffffffffffffffffffffffffffff\n      and\n      dup2\n      mstore\n      0x20\n      add\n        /* \"CakeContract.sol\":1961:1965  this */\n      address\n        /* \"CakeContract.sol\":1929:1992  Transaction(msg.sender, address(this), amount, block.timestamp) */\n      0xffffffffffffffffffffffffffffffffffffffff\n      and\n      dup2\n      mstore\n      0x20\n      add\n        /* \"CakeContract.sol\":1968:1974  amount */\n      dup4\n        /* \"CakeContract.sol\":1929:1992  Transaction(msg.sender, address(this), amount, block.timestamp) */\n      dup2\n      mstore\n      0x20\n      add\n        /* \"CakeContract.sol\":1976:1991  block.timestamp */\n      timestamp\n        /* \"CakeContract.sol\":1929:1992  Transaction(msg.sender, address(this), amount, block.timestamp) */\n      dup2\n      mstore\n      pop\n        /* \"CakeContract.sol\":1897:2003  transactions.push(... */\n      swap1\n      dup1\n      0x01\n      dup2\n      sload\n      add\n      dup1\n      dup3\n      sstore\n      dup1\n      swap2\n      pop\n      pop\n      0x01\n      swap1\n      sub\n      swap1\n      0x00\n      mstore\n      keccak256(0x00, 0x20)\n      swap1\n      0x04\n      mul\n      add\n      0x00\n      swap1\n      swap2\n      swap1\n      swap2\n      swap1\n      swap2\n      pop\n      0x00\n      dup3\n      add\n      mload\n      dup2\n      0x00\n      add\n      exp(0x0100, 0x00)\n      dup2\n      sload\n      dup2\n      0xffffffffffffffffffffffffffffffffffffffff\n      mul\n      not\n      and\n      swap1\n      dup4\n      0xffffffffffffffffffffffffffffffffffffffff\n      and\n      mul\n      or\n      swap1\n      sstore\n      pop\n      0x20\n      dup3\n      add\n      mload\n      dup2\n      0x01\n      add\n      exp(0x0100, 0x00)\n      dup2\n      sload\n      dup2\n      0xffffffffffffffffffffffffffffffffffffffff\n      mul\n      not\n      and\n      swap1\n      dup4\n      0xffffffffffffffffffffffffffffffffffffffff\n      and\n      mul\n      or\n      swap1\n      sstore\n      pop\n      0x40\n      dup3\n      add\n      mload\n      dup2\n      0x02\n      add\n      sstore\n      0x60\n      dup3\n      add\n      mload\n      dup2\n      0x03\n      add\n      sstore\n      pop\n      pop\n        /* \"CakeContract.sol\":1351:2011  function deposit(uint256 amount) public {... */\n      pop\n      jump\t// out\n    tag_57:\n      mload(0x40)\n      dup1\n      0x80\n      add\n      0x40\n      mstore\n      dup1\n      and(0xffffffffffffffffffffffffffffffffffffffff, 0x00)\n      dup2\n      mstore\n      0x20\n      add\n      and(0xffffffffffffffffffffffffffffffffffffffff, 0x00)\n      dup2\n      mstore\n      0x20\n      add\n      0x00\n      dup2\n      mstore\n      0x20\n      add\n      0x00\n      dup2\n      mstore\n      pop\n      swap1\n      jump\t// out\n        /* \"#utility.yul\":88:205   */\n    tag_125:\n        /* \"#utility.yul\":197:198   */\n      0x00\n        /* \"#utility.yul\":194:195   */\n      dup1\n        /* \"#utility.yul\":187:199   */\n      revert\n        /* \"#utility.yul\":334:460   */\n    tag_127:\n        /* \"#utility.yul\":371:378   */\n      0x00\n        /* \"#utility.yul\":411:453   */\n      0xffffffffffffffffffffffffffffffffffffffff\n        /* \"#utility.yul\":404:409   */\n      dup3\n        /* \"#utility.yul\":400:454   */\n      and\n        /* \"#utility.yul\":389:454   */\n      swap1\n      pop\n        /* \"#utility.yul\":334:460   */\n      swap2\n      swap1\n      pop\n      jump\t// out\n        /* \"#utility.yul\":466:562   */\n    tag_128:\n        /* \"#utility.yul\":503:510   */\n      0x00\n        /* \"#utility.yul\":532:556   */\n      tag_166\n        /* \"#utility.yul\":550:555   */\n      dup3\n        /* \"#utility.yul\":532:556   */\n      tag_127\n      jump\t// in\n    tag_166:\n        /* \"#utility.yul\":521:556   */\n      swap1\n      pop\n        /* \"#utility.yul\":466:562   */\n      swap2\n      swap1\n      pop\n      jump\t// out\n        /* \"#utility.yul\":568:690   */\n    tag_129:\n        /* \"#utility.yul\":641:665   */\n      tag_168\n        /* \"#utility.yul\":659:664   */\n      dup2\n        /* \"#utility.yul\":641:665   */\n      tag_128\n      jump\t// in\n    tag_168:\n        /* \"#utility.yul\":634:639   */\n      dup2\n        /* \"#utility.yul\":631:666   */\n      eq\n        /* \"#utility.yul\":621:684   */\n      tag_169\n      jumpi\n        /* \"#utility.yul\":680:681   */\n      0x00\n        /* \"#utility.yul\":677:678   */\n      dup1\n        /* \"#utility.yul\":670:682   */\n      revert\n        /* \"#utility.yul\":621:684   */\n    tag_169:\n        /* \"#utility.yul\":568:690   */\n      pop\n      jump\t// out\n        /* \"#utility.yul\":696:835   */\n    tag_130:\n        /* \"#utility.yul\":742:747   */\n      0x00\n        /* \"#utility.yul\":780:786   */\n      dup2\n        /* \"#utility.yul\":767:787   */\n      calldataload\n        /* \"#utility.yul\":758:787   */\n      swap1\n      pop\n        /* \"#utility.yul\":796:829   */\n      tag_171\n        /* \"#utility.yul\":823:828   */\n      dup2\n        /* \"#utility.yul\":796:829   */\n      tag_129\n      jump\t// in\n    tag_171:\n        /* \"#utility.yul\":696:835   */\n      swap3\n      swap2\n      pop\n      pop\n      jump\t// out\n        /* \"#utility.yul\":841:1170   */\n    tag_15:\n        /* \"#utility.yul\":900:906   */\n      0x00\n        /* \"#utility.yul\":949:951   */\n      0x20\n        /* \"#utility.yul\":937:946   */\n      dup3\n        /* \"#utility.yul\":928:935   */\n      dup5\n        /* \"#utility.yul\":924:947   */\n      sub\n        /* \"#utility.yul\":920:952   */\n      slt\n        /* \"#utility.yul\":917:1036   */\n      iszero\n      tag_173\n      jumpi\n        /* \"#utility.yul\":955:1034   */\n      tag_174\n      tag_125\n      jump\t// in\n    tag_174:\n        /* \"#utility.yul\":917:1036   */\n    tag_173:\n        /* \"#utility.yul\":1075:1076   */\n      0x00\n        /* \"#utility.yul\":1100:1153   */\n      tag_175\n        /* \"#utility.yul\":1145:1152   */\n      dup5\n        /* \"#utility.yul\":1136:1142   */\n      dup3\n        /* \"#utility.yul\":1125:1134   */\n      dup6\n        /* \"#utility.yul\":1121:1143   */\n      add\n        /* \"#utility.yul\":1100:1153   */\n      tag_130\n      jump\t// in\n    tag_175:\n        /* \"#utility.yul\":1090:1153   */\n      swap2\n      pop\n        /* \"#utility.yul\":1046:1163   */\n      pop\n        /* \"#utility.yul\":841:1170   */\n      swap3\n      swap2\n      pop\n      pop\n      jump\t// out\n        /* \"#utility.yul\":1176:1318   */\n    tag_131:\n        /* \"#utility.yul\":1271:1277   */\n      0x00\n        /* \"#utility.yul\":1305:1310   */\n      dup2\n        /* \"#utility.yul\":1299:1311   */\n      mload\n        /* \"#utility.yul\":1289:1311   */\n      swap1\n      pop\n        /* \"#utility.yul\":1176:1318   */\n      swap2\n      swap1\n      pop\n      jump\t// out\n        /* \"#utility.yul\":1324:1536   */\n    tag_132:\n        /* \"#utility.yul\":1451:1462   */\n      0x00\n        /* \"#utility.yul\":1485:1491   */\n      dup3\n        /* \"#utility.yul\":1480:1483   */\n      dup3\n        /* \"#utility.yul\":1473:1492   */\n      mstore\n        /* \"#utility.yul\":1525:1529   */\n      0x20\n        /* \"#utility.yul\":1520:1523   */\n      dup3\n        /* \"#utility.yul\":1516:1530   */\n      add\n        /* \"#utility.yul\":1501:1530   */\n      swap1\n      pop\n        /* \"#utility.yul\":1324:1536   */\n      swap3\n      swap2\n      pop\n      pop\n      jump\t// out\n        /* \"#utility.yul\":1542:1702   */\n    tag_133:\n        /* \"#utility.yul\":1637:1641   */\n      0x00\n        /* \"#utility.yul\":1660:1663   */\n      dup2\n        /* \"#utility.yul\":1652:1663   */\n      swap1\n      pop\n        /* \"#utility.yul\":1690:1694   */\n      0x20\n        /* \"#utility.yul\":1685:1688   */\n      dup3\n        /* \"#utility.yul\":1681:1695   */\n      add\n        /* \"#utility.yul\":1673:1695   */\n      swap1\n      pop\n        /* \"#utility.yul\":1542:1702   */\n      swap2\n      swap1\n      pop\n      jump\t// out\n        /* \"#utility.yul\":1708:1816   */\n    tag_134:\n        /* \"#utility.yul\":1785:1809   */\n      tag_180\n        /* \"#utility.yul\":1803:1808   */\n      dup2\n        /* \"#utility.yul\":1785:1809   */\n      tag_128\n      jump\t// in\n    tag_180:\n        /* \"#utility.yul\":1780:1783   */\n      dup3\n        /* \"#utility.yul\":1773:1810   */\n      mstore\n        /* \"#utility.yul\":1708:1816   */\n      pop\n      pop\n      jump\t// out\n        /* \"#utility.yul\":1822:1899   */\n    tag_135:\n        /* \"#utility.yul\":1859:1866   */\n      0x00\n        /* \"#utility.yul\":1888:1893   */\n      dup2\n        /* \"#utility.yul\":1877:1893   */\n      swap1\n      pop\n        /* \"#utility.yul\":1822:1899   */\n      swap2\n      swap1\n      pop\n      jump\t// out\n        /* \"#utility.yul\":1905:2013   */\n    tag_136:\n        /* \"#utility.yul\":1982:2006   */\n      tag_183\n        /* \"#utility.yul\":2000:2005   */\n      dup2\n        /* \"#utility.yul\":1982:2006   */\n      tag_135\n      jump\t// in\n    tag_183:\n        /* \"#utility.yul\":1977:1980   */\n      dup3\n        /* \"#utility.yul\":1970:2007   */\n      mstore\n        /* \"#utility.yul\":1905:2013   */\n      pop\n      pop\n      jump\t// out\n        /* \"#utility.yul\":2093:2958   */\n    tag_137:\n        /* \"#utility.yul\":2236:2240   */\n      0x80\n        /* \"#utility.yul\":2231:2234   */\n      dup3\n        /* \"#utility.yul\":2227:2241   */\n      add\n        /* \"#utility.yul\":2325:2329   */\n      0x00\n        /* \"#utility.yul\":2318:2323   */\n      dup3\n        /* \"#utility.yul\":2314:2330   */\n      add\n        /* \"#utility.yul\":2308:2331   */\n      mload\n        /* \"#utility.yul\":2344:2407   */\n      tag_185\n        /* \"#utility.yul\":2401:2405   */\n      0x00\n        /* \"#utility.yul\":2396:2399   */\n      dup6\n        /* \"#utility.yul\":2392:2406   */\n      add\n        /* \"#utility.yul\":2378:2390   */\n      dup3\n        /* \"#utility.yul\":2344:2407   */\n      tag_134\n      jump\t// in\n    tag_185:\n        /* \"#utility.yul\":2251:2417   */\n      pop\n        /* \"#utility.yul\":2504:2508   */\n      0x20\n        /* \"#utility.yul\":2497:2502   */\n      dup3\n        /* \"#utility.yul\":2493:2509   */\n      add\n        /* \"#utility.yul\":2487:2510   */\n      mload\n        /* \"#utility.yul\":2523:2586   */\n      tag_186\n        /* \"#utility.yul\":2580:2584   */\n      0x20\n        /* \"#utility.yul\":2575:2578   */\n      dup6\n        /* \"#utility.yul\":2571:2585   */\n      add\n        /* \"#utility.yul\":2557:2569   */\n      dup3\n        /* \"#utility.yul\":2523:2586   */\n      tag_134\n      jump\t// in\n    tag_186:\n        /* \"#utility.yul\":2427:2596   */\n      pop\n        /* \"#utility.yul\":2680:2684   */\n      0x40\n        /* \"#utility.yul\":2673:2678   */\n      dup3\n        /* \"#utility.yul\":2669:2685   */\n      add\n        /* \"#utility.yul\":2663:2686   */\n      mload\n        /* \"#utility.yul\":2699:2762   */\n      tag_187\n        /* \"#utility.yul\":2756:2760   */\n      0x40\n        /* \"#utility.yul\":2751:2754   */\n      dup6\n        /* \"#utility.yul\":2747:2761   */\n      add\n        /* \"#utility.yul\":2733:2745   */\n      dup3\n        /* \"#utility.yul\":2699:2762   */\n      tag_136\n      jump\t// in\n    tag_187:\n        /* \"#utility.yul\":2606:2772   */\n      pop\n        /* \"#utility.yul\":2859:2863   */\n      0x60\n        /* \"#utility.yul\":2852:2857   */\n      dup3\n        /* \"#utility.yul\":2848:2864   */\n      add\n        /* \"#utility.yul\":2842:2865   */\n      mload\n        /* \"#utility.yul\":2878:2941   */\n      tag_188\n        /* \"#utility.yul\":2935:2939   */\n      0x60\n        /* \"#utility.yul\":2930:2933   */\n      dup6\n        /* \"#utility.yul\":2926:2940   */\n      add\n        /* \"#utility.yul\":2912:2924   */\n      dup3\n        /* \"#utility.yul\":2878:2941   */\n      tag_136\n      jump\t// in\n    tag_188:\n        /* \"#utility.yul\":2782:2951   */\n      pop\n        /* \"#utility.yul\":2205:2958   */\n      pop\n        /* \"#utility.yul\":2093:2958   */\n      pop\n      pop\n      jump\t// out\n        /* \"#utility.yul\":2964:3255   */\n    tag_138:\n        /* \"#utility.yul\":3089:3099   */\n      0x00\n        /* \"#utility.yul\":3110:3212   */\n      tag_190\n        /* \"#utility.yul\":3208:3211   */\n      dup4\n        /* \"#utility.yul\":3200:3206   */\n      dup4\n        /* \"#utility.yul\":3110:3212   */\n      tag_137\n      jump\t// in\n    tag_190:\n        /* \"#utility.yul\":3244:3248   */\n      0x80\n        /* \"#utility.yul\":3239:3242   */\n      dup4\n        /* \"#utility.yul\":3235:3249   */\n      add\n        /* \"#utility.yul\":3221:3249   */\n      swap1\n      pop\n        /* \"#utility.yul\":2964:3255   */\n      swap3\n      swap2\n      pop\n      pop\n      jump\t// out\n        /* \"#utility.yul\":3261:3402   */\n    tag_139:\n        /* \"#utility.yul\":3359:3363   */\n      0x00\n        /* \"#utility.yul\":3391:3395   */\n      0x20\n        /* \"#utility.yul\":3386:3389   */\n      dup3\n        /* \"#utility.yul\":3382:3396   */\n      add\n        /* \"#utility.yul\":3374:3396   */\n      swap1\n      pop\n        /* \"#utility.yul\":3261:3402   */\n      swap2\n      swap1\n      pop\n      jump\t// out\n        /* \"#utility.yul\":3486:4442   */\n    tag_140:\n        /* \"#utility.yul\":3661:3664   */\n      0x00\n        /* \"#utility.yul\":3690:3772   */\n      tag_193\n        /* \"#utility.yul\":3766:3771   */\n      dup3\n        /* \"#utility.yul\":3690:3772   */\n      tag_131\n      jump\t// in\n    tag_193:\n        /* \"#utility.yul\":3788:3902   */\n      tag_194\n        /* \"#utility.yul\":3895:3901   */\n      dup2\n        /* \"#utility.yul\":3890:3893   */\n      dup6\n        /* \"#utility.yul\":3788:3902   */\n      tag_132\n      jump\t// in\n    tag_194:\n        /* \"#utility.yul\":3781:3902   */\n      swap4\n      pop\n        /* \"#utility.yul\":3926:4010   */\n      tag_195\n        /* \"#utility.yul\":4004:4009   */\n      dup4\n        /* \"#utility.yul\":3926:4010   */\n      tag_133\n      jump\t// in\n    tag_195:\n        /* \"#utility.yul\":4033:4040   */\n      dup1\n        /* \"#utility.yul\":4064:4065   */\n      0x00\n        /* \"#utility.yul\":4049:4417   */\n    tag_196:\n        /* \"#utility.yul\":4074:4080   */\n      dup4\n        /* \"#utility.yul\":4071:4072   */\n      dup2\n        /* \"#utility.yul\":4068:4081   */\n      lt\n        /* \"#utility.yul\":4049:4417   */\n      iszero\n      tag_198\n      jumpi\n        /* \"#utility.yul\":4150:4156   */\n      dup2\n        /* \"#utility.yul\":4144:4157   */\n      mload\n        /* \"#utility.yul\":4177:4296   */\n      tag_199\n        /* \"#utility.yul\":4292:4295   */\n      dup9\n        /* \"#utility.yul\":4277:4290   */\n      dup3\n        /* \"#utility.yul\":4177:4296   */\n      tag_138\n      jump\t// in\n    tag_199:\n        /* \"#utility.yul\":4170:4296   */\n      swap8\n      pop\n        /* \"#utility.yul\":4319:4407   */\n      tag_200\n        /* \"#utility.yul\":4400:4406   */\n      dup4\n        /* \"#utility.yul\":4319:4407   */\n      tag_139\n      jump\t// in\n    tag_200:\n        /* \"#utility.yul\":4309:4407   */\n      swap3\n      pop\n        /* \"#utility.yul\":4109:4417   */\n      pop\n        /* \"#utility.yul\":4096:4097   */\n      0x01\n        /* \"#utility.yul\":4093:4094   */\n      dup2\n        /* \"#utility.yul\":4089:4098   */\n      add\n        /* \"#utility.yul\":4084:4098   */\n      swap1\n      pop\n        /* \"#utility.yul\":4049:4417   */\n      jump(tag_196)\n    tag_198:\n        /* \"#utility.yul\":4053:4067   */\n      pop\n        /* \"#utility.yul\":4433:4436   */\n      dup6\n        /* \"#utility.yul\":4426:4436   */\n      swap4\n      pop\n        /* \"#utility.yul\":3666:4442   */\n      pop\n      pop\n      pop\n        /* \"#utility.yul\":3486:4442   */\n      swap3\n      swap2\n      pop\n      pop\n      jump\t// out\n        /* \"#utility.yul\":4448:4933   */\n    tag_18:\n        /* \"#utility.yul\":4647:4651   */\n      0x00\n        /* \"#utility.yul\":4685:4687   */\n      0x20\n        /* \"#utility.yul\":4674:4683   */\n      dup3\n        /* \"#utility.yul\":4670:4688   */\n      add\n        /* \"#utility.yul\":4662:4688   */\n      swap1\n      pop\n        /* \"#utility.yul\":4734:4743   */\n      dup2\n        /* \"#utility.yul\":4728:4732   */\n      dup2\n        /* \"#utility.yul\":4724:4744   */\n      sub\n        /* \"#utility.yul\":4720:4721   */\n      0x00\n        /* \"#utility.yul\":4709:4718   */\n      dup4\n        /* \"#utility.yul\":4705:4722   */\n      add\n        /* \"#utility.yul\":4698:4745   */\n      mstore\n        /* \"#utility.yul\":4762:4926   */\n      tag_202\n        /* \"#utility.yul\":4921:4925   */\n      dup2\n        /* \"#utility.yul\":4912:4918   */\n      dup5\n        /* \"#utility.yul\":4762:4926   */\n      tag_140\n      jump\t// in\n    tag_202:\n        /* \"#utility.yul\":4754:4926   */\n      swap1\n      pop\n        /* \"#utility.yul\":4448:4933   */\n      swap3\n      swap2\n      pop\n      pop\n      jump\t// out\n        /* \"#utility.yul\":4939:5057   */\n    tag_141:\n        /* \"#utility.yul\":5026:5050   */\n      tag_204\n        /* \"#utility.yul\":5044:5049   */\n      dup2\n        /* \"#utility.yul\":5026:5050   */\n      tag_135\n      jump\t// in\n    tag_204:\n        /* \"#utility.yul\":5021:5024   */\n      dup3\n        /* \"#utility.yul\":5014:5051   */\n      mstore\n        /* \"#utility.yul\":4939:5057   */\n      pop\n      pop\n      jump\t// out\n        /* \"#utility.yul\":5063:5285   */\n    tag_23:\n        /* \"#utility.yul\":5156:5160   */\n      0x00\n        /* \"#utility.yul\":5194:5196   */\n      0x20\n        /* \"#utility.yul\":5183:5192   */\n      dup3\n        /* \"#utility.yul\":5179:5197   */\n      add\n        /* \"#utility.yul\":5171:5197   */\n      swap1\n      pop\n        /* \"#utility.yul\":5207:5278   */\n      tag_206\n        /* \"#utility.yul\":5275:5276   */\n      0x00\n        /* \"#utility.yul\":5264:5273   */\n      dup4\n        /* \"#utility.yul\":5260:5277   */\n      add\n        /* \"#utility.yul\":5251:5257   */\n      dup5\n        /* \"#utility.yul\":5207:5278   */\n      tag_141\n      jump\t// in\n    tag_206:\n        /* \"#utility.yul\":5063:5285   */\n      swap3\n      swap2\n      pop\n      pop\n      jump\t// out\n        /* \"#utility.yul\":5291:5413   */\n    tag_142:\n        /* \"#utility.yul\":5364:5388   */\n      tag_208\n        /* \"#utility.yul\":5382:5387   */\n      dup2\n        /* \"#utility.yul\":5364:5388   */\n      tag_135\n      jump\t// in\n    tag_208:\n        /* \"#utility.yul\":5357:5362   */\n      dup2\n        /* \"#utility.yul\":5354:5389   */\n      eq\n        /* \"#utility.yul\":5344:5407   */\n      tag_209\n      jumpi\n        /* \"#utility.yul\":5403:5404   */\n      0x00\n        /* \"#utility.yul\":5400:5401   */\n      dup1\n        /* \"#utility.yul\":5393:5405   */\n      revert\n        /* \"#utility.yul\":5344:5407   */\n    tag_209:\n        /* \"#utility.yul\":5291:5413   */\n      pop\n      jump\t// out\n        /* \"#utility.yul\":5419:5558   */\n    tag_143:\n        /* \"#utility.yul\":5465:5470   */\n      0x00\n        /* \"#utility.yul\":5503:5509   */\n      dup2\n        /* \"#utility.yul\":5490:5510   */\n      calldataload\n        /* \"#utility.yul\":5481:5510   */\n      swap1\n      pop\n        /* \"#utility.yul\":5519:5552   */\n      tag_211\n        /* \"#utility.yul\":5546:5551   */\n      dup2\n        /* \"#utility.yul\":5519:5552   */\n      tag_142\n      jump\t// in\n    tag_211:\n        /* \"#utility.yul\":5419:5558   */\n      swap3\n      swap2\n      pop\n      pop\n      jump\t// out\n        /* \"#utility.yul\":5564:5893   */\n    tag_26:\n        /* \"#utility.yul\":5623:5629   */\n      0x00\n        /* \"#utility.yul\":5672:5674   */\n      0x20\n        /* \"#utility.yul\":5660:5669   */\n      dup3\n        /* \"#utility.yul\":5651:5658   */\n      dup5\n        /* \"#utility.yul\":5647:5670   */\n      sub\n        /* \"#utility.yul\":5643:5675   */\n      slt\n        /* \"#utility.yul\":5640:5759   */\n      iszero\n      tag_213\n      jumpi\n        /* \"#utility.yul\":5678:5757   */\n      tag_214\n      tag_125\n      jump\t// in\n    tag_214:\n        /* \"#utility.yul\":5640:5759   */\n    tag_213:\n        /* \"#utility.yul\":5798:5799   */\n      0x00\n        /* \"#utility.yul\":5823:5876   */\n      tag_215\n        /* \"#utility.yul\":5868:5875   */\n      dup5\n        /* \"#utility.yul\":5859:5865   */\n      dup3\n        /* \"#utility.yul\":5848:5857   */\n      dup6\n        /* \"#utility.yul\":5844:5866   */\n      add\n        /* \"#utility.yul\":5823:5876   */\n      tag_143\n      jump\t// in\n    tag_215:\n        /* \"#utility.yul\":5813:5876   */\n      swap2\n      pop\n        /* \"#utility.yul\":5769:5886   */\n      pop\n        /* \"#utility.yul\":5564:5893   */\n      swap3\n      swap2\n      pop\n      pop\n      jump\t// out\n        /* \"#utility.yul\":5899:5959   */\n    tag_144:\n        /* \"#utility.yul\":5927:5930   */\n      0x00\n        /* \"#utility.yul\":5948:5953   */\n      dup2\n        /* \"#utility.yul\":5941:5953   */\n      swap1\n      pop\n        /* \"#utility.yul\":5899:5959   */\n      swap2\n      swap1\n      pop\n      jump\t// out\n        /* \"#utility.yul\":5965:6107   */\n    tag_145:\n        /* \"#utility.yul\":6015:6024   */\n      0x00\n        /* \"#utility.yul\":6048:6101   */\n      tag_218\n        /* \"#utility.yul\":6066:6100   */\n      tag_219\n        /* \"#utility.yul\":6075:6099   */\n      tag_220\n        /* \"#utility.yul\":6093:6098   */\n      dup5\n        /* \"#utility.yul\":6075:6099   */\n      tag_127\n      jump\t// in\n    tag_220:\n        /* \"#utility.yul\":6066:6100   */\n      tag_144\n      jump\t// in\n    tag_219:\n        /* \"#utility.yul\":6048:6101   */\n      tag_127\n      jump\t// in\n    tag_218:\n        /* \"#utility.yul\":6035:6101   */\n      swap1\n      pop\n        /* \"#utility.yul\":5965:6107   */\n      swap2\n      swap1\n      pop\n      jump\t// out\n        /* \"#utility.yul\":6113:6239   */\n    tag_146:\n        /* \"#utility.yul\":6163:6172   */\n      0x00\n        /* \"#utility.yul\":6196:6233   */\n      tag_222\n        /* \"#utility.yul\":6227:6232   */\n      dup3\n        /* \"#utility.yul\":6196:6233   */\n      tag_145\n      jump\t// in\n    tag_222:\n        /* \"#utility.yul\":6183:6233   */\n      swap1\n      pop\n        /* \"#utility.yul\":6113:6239   */\n      swap2\n      swap1\n      pop\n      jump\t// out\n        /* \"#utility.yul\":6245:6385   */\n    tag_147:\n        /* \"#utility.yul\":6309:6318   */\n      0x00\n        /* \"#utility.yul\":6342:6379   */\n      tag_224\n        /* \"#utility.yul\":6373:6378   */\n      dup3\n        /* \"#utility.yul\":6342:6379   */\n      tag_146\n      jump\t// in\n    tag_224:\n        /* \"#utility.yul\":6329:6379   */\n      swap1\n      pop\n        /* \"#utility.yul\":6245:6385   */\n      swap2\n      swap1\n      pop\n      jump\t// out\n        /* \"#utility.yul\":6391:6550   */\n    tag_148:\n        /* \"#utility.yul\":6492:6543   */\n      tag_226\n        /* \"#utility.yul\":6537:6542   */\n      dup2\n        /* \"#utility.yul\":6492:6543   */\n      tag_147\n      jump\t// in\n    tag_226:\n        /* \"#utility.yul\":6487:6490   */\n      dup3\n        /* \"#utility.yul\":6480:6544   */\n      mstore\n        /* \"#utility.yul\":6391:6550   */\n      pop\n      pop\n      jump\t// out\n        /* \"#utility.yul\":6556:6806   */\n    tag_37:\n        /* \"#utility.yul\":6663:6667   */\n      0x00\n        /* \"#utility.yul\":6701:6703   */\n      0x20\n        /* \"#utility.yul\":6690:6699   */\n      dup3\n        /* \"#utility.yul\":6686:6704   */\n      add\n        /* \"#utility.yul\":6678:6704   */\n      swap1\n      pop\n        /* \"#utility.yul\":6714:6799   */\n      tag_228\n        /* \"#utility.yul\":6796:6797   */\n      0x00\n        /* \"#utility.yul\":6785:6794   */\n      dup4\n        /* \"#utility.yul\":6781:6798   */\n      add\n        /* \"#utility.yul\":6772:6778   */\n      dup5\n        /* \"#utility.yul\":6714:6799   */\n      tag_148\n      jump\t// in\n    tag_228:\n        /* \"#utility.yul\":6556:6806   */\n      swap3\n      swap2\n      pop\n      pop\n      jump\t// out\n        /* \"#utility.yul\":6812:6930   */\n    tag_149:\n        /* \"#utility.yul\":6899:6923   */\n      tag_230\n        /* \"#utility.yul\":6917:6922   */\n      dup2\n        /* \"#utility.yul\":6899:6923   */\n      tag_128\n      jump\t// in\n    tag_230:\n        /* \"#utility.yul\":6894:6897   */\n      dup3\n        /* \"#utility.yul\":6887:6924   */\n      mstore\n        /* \"#utility.yul\":6812:6930   */\n      pop\n      pop\n      jump\t// out\n        /* \"#utility.yul\":6936:7489   */\n    tag_42:\n        /* \"#utility.yul\":7113:7117   */\n      0x00\n        /* \"#utility.yul\":7151:7154   */\n      0x80\n        /* \"#utility.yul\":7140:7149   */\n      dup3\n        /* \"#utility.yul\":7136:7155   */\n      add\n        /* \"#utility.yul\":7128:7155   */\n      swap1\n      pop\n        /* \"#utility.yul\":7165:7236   */\n      tag_232\n        /* \"#utility.yul\":7233:7234   */\n      0x00\n        /* \"#utility.yul\":7222:7231   */\n      dup4\n        /* \"#utility.yul\":7218:7235   */\n      add\n        /* \"#utility.yul\":7209:7215   */\n      dup8\n        /* \"#utility.yul\":7165:7236   */\n      tag_149\n      jump\t// in\n    tag_232:\n        /* \"#utility.yul\":7246:7318   */\n      tag_233\n        /* \"#utility.yul\":7314:7316   */\n      0x20\n        /* \"#utility.yul\":7303:7312   */\n      dup4\n        /* \"#utility.yul\":7299:7317   */\n      add\n        /* \"#utility.yul\":7290:7296   */\n      dup7\n        /* \"#utility.yul\":7246:7318   */\n      tag_149\n      jump\t// in\n    tag_233:\n        /* \"#utility.yul\":7328:7400   */\n      tag_234\n        /* \"#utility.yul\":7396:7398   */\n      0x40\n        /* \"#utility.yul\":7385:7394   */\n      dup4\n        /* \"#utility.yul\":7381:7399   */\n      add\n        /* \"#utility.yul\":7372:7378   */\n      dup6\n        /* \"#utility.yul\":7328:7400   */\n      tag_141\n      jump\t// in\n    tag_234:\n        /* \"#utility.yul\":7410:7482   */\n      tag_235\n        /* \"#utility.yul\":7478:7480   */\n      0x60\n        /* \"#utility.yul\":7467:7476   */\n      dup4\n        /* \"#utility.yul\":7463:7481   */\n      add\n        /* \"#utility.yul\":7454:7460   */\n      dup5\n        /* \"#utility.yul\":7410:7482   */\n      tag_141\n      jump\t// in\n    tag_235:\n        /* \"#utility.yul\":6936:7489   */\n      swap6\n      swap5\n      pop\n      pop\n      pop\n      pop\n      pop\n      jump\t// out\n        /* \"#utility.yul\":7495:7969   */\n    tag_45:\n        /* \"#utility.yul\":7563:7569   */\n      0x00\n        /* \"#utility.yul\":7571:7577   */\n      dup1\n        /* \"#utility.yul\":7620:7622   */\n      0x40\n        /* \"#utility.yul\":7608:7617   */\n      dup4\n        /* \"#utility.yul\":7599:7606   */\n      dup6\n        /* \"#utility.yul\":7595:7618   */\n      sub\n        /* \"#utility.yul\":7591:7623   */\n      slt\n        /* \"#utility.yul\":7588:7707   */\n      iszero\n      tag_237\n      jumpi\n        /* \"#utility.yul\":7626:7705   */\n      tag_238\n      tag_125\n      jump\t// in\n    tag_238:\n        /* \"#utility.yul\":7588:7707   */\n    tag_237:\n        /* \"#utility.yul\":7746:7747   */\n      0x00\n        /* \"#utility.yul\":7771:7824   */\n      tag_239\n        /* \"#utility.yul\":7816:7823   */\n      dup6\n        /* \"#utility.yul\":7807:7813   */\n      dup3\n        /* \"#utility.yul\":7796:7805   */\n      dup7\n        /* \"#utility.yul\":7792:7814   */\n      add\n        /* \"#utility.yul\":7771:7824   */\n      tag_130\n      jump\t// in\n    tag_239:\n        /* \"#utility.yul\":7761:7824   */\n      swap3\n      pop\n        /* \"#utility.yul\":7717:7834   */\n      pop\n        /* \"#utility.yul\":7873:7875   */\n      0x20\n        /* \"#utility.yul\":7899:7952   */\n      tag_240\n        /* \"#utility.yul\":7944:7951   */\n      dup6\n        /* \"#utility.yul\":7935:7941   */\n      dup3\n        /* \"#utility.yul\":7924:7933   */\n      dup7\n        /* \"#utility.yul\":7920:7942   */\n      add\n        /* \"#utility.yul\":7899:7952   */\n      tag_143\n      jump\t// in\n    tag_240:\n        /* \"#utility.yul\":7889:7952   */\n      swap2\n      pop\n        /* \"#utility.yul\":7844:7962   */\n      pop\n        /* \"#utility.yul\":7495:7969   */\n      swap3\n      pop\n      swap3\n      swap1\n      pop\n      jump\t// out\n        /* \"#utility.yul\":7975:8155   */\n    tag_53:\n        /* \"#utility.yul\":8023:8100   */\n      0x4e487b7100000000000000000000000000000000000000000000000000000000\n        /* \"#utility.yul\":8020:8021   */\n      0x00\n        /* \"#utility.yul\":8013:8101   */\n      mstore\n        /* \"#utility.yul\":8120:8124   */\n      0x41\n        /* \"#utility.yul\":8117:8118   */\n      0x04\n        /* \"#utility.yul\":8110:8125   */\n      mstore\n        /* \"#utility.yul\":8144:8148   */\n      0x24\n        /* \"#utility.yul\":8141:8142   */\n      0x00\n        /* \"#utility.yul\":8134:8149   */\n      revert\n        /* \"#utility.yul\":8161:8341   */\n    tag_63:\n        /* \"#utility.yul\":8209:8286   */\n      0x4e487b7100000000000000000000000000000000000000000000000000000000\n        /* \"#utility.yul\":8206:8207   */\n      0x00\n        /* \"#utility.yul\":8199:8287   */\n      mstore\n        /* \"#utility.yul\":8306:8310   */\n      0x32\n        /* \"#utility.yul\":8303:8304   */\n      0x04\n        /* \"#utility.yul\":8296:8311   */\n      mstore\n        /* \"#utility.yul\":8330:8334   */\n      0x24\n        /* \"#utility.yul\":8327:8328   */\n      0x00\n        /* \"#utility.yul\":8320:8335   */\n      revert\n        /* \"#utility.yul\":8347:8527   */\n    tag_150:\n        /* \"#utility.yul\":8395:8472   */\n      0x4e487b7100000000000000000000000000000000000000000000000000000000\n        /* \"#utility.yul\":8392:8393   */\n      0x00\n        /* \"#utility.yul\":8385:8473   */\n      mstore\n        /* \"#utility.yul\":8492:8496   */\n      0x11\n        /* \"#utility.yul\":8489:8490   */\n      0x04\n        /* \"#utility.yul\":8482:8497   */\n      mstore\n        /* \"#utility.yul\":8516:8520   */\n      0x24\n        /* \"#utility.yul\":8513:8514   */\n      0x00\n        /* \"#utility.yul\":8506:8521   */\n      revert\n        /* \"#utility.yul\":8533:8766   */\n    tag_70:\n        /* \"#utility.yul\":8572:8575   */\n      0x00\n        /* \"#utility.yul\":8595:8619   */\n      tag_245\n        /* \"#utility.yul\":8613:8618   */\n      dup3\n        /* \"#utility.yul\":8595:8619   */\n      tag_135\n      jump\t// in\n    tag_245:\n        /* \"#utility.yul\":8586:8619   */\n      swap2\n      pop\n        /* \"#utility.yul\":8641:8707   */\n      0xffffffffffffffffffffffffffffffffffffffffffffffffffffffffffffffff\n        /* \"#utility.yul\":8634:8639   */\n      dup3\n        /* \"#utility.yul\":8631:8708   */\n      sub\n        /* \"#utility.yul\":8628:8731   */\n      tag_246\n      jumpi\n        /* \"#utility.yul\":8711:8729   */\n      tag_247\n      tag_150\n      jump\t// in\n    tag_247:\n        /* \"#utility.yul\":8628:8731   */\n    tag_246:\n        /* \"#utility.yul\":8758:8759   */\n      0x01\n        /* \"#utility.yul\":8751:8756   */\n      dup3\n        /* \"#utility.yul\":8747:8760   */\n      add\n        /* \"#utility.yul\":8740:8760   */\n      swap1\n      pop\n        /* \"#utility.yul\":8533:8766   */\n      swap2\n      swap1\n      pop\n      jump\t// out\n        /* \"#utility.yul\":8772:8941   */\n    tag_151:\n        /* \"#utility.yul\":8856:8867   */\n      0x00\n        /* \"#utility.yul\":8890:8896   */\n      dup3\n        /* \"#utility.yul\":8885:8888   */\n      dup3\n        /* \"#utility.yul\":8878:8897   */\n      mstore\n        /* \"#utility.yul\":8930:8934   */\n      0x20\n        /* \"#utility.yul\":8925:8928   */\n      dup3\n        /* \"#utility.yul\":8921:8935   */\n      add\n        /* \"#utility.yul\":8906:8935   */\n      swap1\n      pop\n        /* \"#utility.yul\":8772:8941   */\n      swap3\n      swap2\n      pop\n      pop\n      jump\t// out\n        /* \"#utility.yul\":8947:9168   */\n    tag_152:\n        /* \"#utility.yul\":9087:9121   */\n      0x43616b65436f6e74726163743a20496e73756666696369656e742062616c616e\n        /* \"#utility.yul\":9083:9084   */\n      0x00\n        /* \"#utility.yul\":9075:9081   */\n      dup3\n        /* \"#utility.yul\":9071:9085   */\n      add\n        /* \"#utility.yul\":9064:9122   */\n      mstore\n        /* \"#utility.yul\":9156:9160   */\n      0x6365000000000000000000000000000000000000000000000000000000000000\n        /* \"#utility.yul\":9151:9153   */\n      0x20\n        /* \"#utility.yul\":9143:9149   */\n      dup3\n        /* \"#utility.yul\":9139:9154   */\n      add\n        /* \"#utility.yul\":9132:9161   */\n      mstore\n        /* \"#utility.yul\":8947:9168   */\n      pop\n      jump\t// out\n        /* \"#utility.yul\":9174:9540   */\n    tag_153:\n        /* \"#utility.yul\":9316:9319   */\n      0x00\n        /* \"#utility.yul\":9337:9404   */\n      tag_251\n        /* \"#utility.yul\":9401:9403   */\n      0x22\n        /* \"#utility.yul\":9396:9399   */\n      dup4\n        /* \"#utility.yul\":9337:9404   */\n      tag_151\n      jump\t// in\n    tag_251:\n        /* \"#utility.yul\":9330:9404   */\n      swap2\n      pop\n        /* \"#utility.yul\":9413:9506   */\n      tag_252\n        /* \"#utility.yul\":9502:9505   */\n      dup3\n        /* \"#utility.yul\":9413:9506   */\n      tag_152\n      jump\t// in\n    tag_252:\n        /* \"#utility.yul\":9531:9533   */\n      0x40\n        /* \"#utility.yul\":9526:9529   */\n      dup3\n        /* \"#utility.yul\":9522:9534   */\n      add\n        /* \"#utility.yul\":9515:9534   */\n      swap1\n      pop\n        /* \"#utility.yul\":9174:9540   */\n      swap2\n      swap1\n      pop\n      jump\t// out\n        /* \"#utility.yul\":9546:9965   */\n    tag_75:\n        /* \"#utility.yul\":9712:9716   */\n      0x00\n        /* \"#utility.yul\":9750:9752   */\n      0x20\n        /* \"#utility.yul\":9739:9748   */\n      dup3\n        /* \"#utility.yul\":9735:9753   */\n      add\n        /* \"#utility.yul\":9727:9753   */\n      swap1\n      pop\n        /* \"#utility.yul\":9799:9808   */\n      dup2\n        /* \"#utility.yul\":9793:9797   */\n      dup2\n        /* \"#utility.yul\":9789:9809   */\n      sub\n        /* \"#utility.yul\":9785:9786   */\n      0x00\n        /* \"#utility.yul\":9774:9783   */\n      dup4\n        /* \"#utility.yul\":9770:9787   */\n      add\n        /* \"#utility.yul\":9763:9810   */\n      mstore\n        /* \"#utility.yul\":9827:9958   */\n      tag_254\n        /* \"#utility.yul\":9953:9957   */\n      dup2\n        /* \"#utility.yul\":9827:9958   */\n      tag_153\n      jump\t// in\n    tag_254:\n        /* \"#utility.yul\":9819:9958   */\n      swap1\n      pop\n        /* \"#utility.yul\":9546:9965   */\n      swap2\n      swap1\n      pop\n      jump\t// out\n        /* \"#utility.yul\":9971:10165   */\n    tag_77:\n        /* \"#utility.yul\":10011:10015   */\n      0x00\n        /* \"#utility.yul\":10031:10051   */\n      tag_256\n        /* \"#utility.yul\":10049:10050   */\n      dup3\n        /* \"#utility.yul\":10031:10051   */\n      tag_135\n      jump\t// in\n    tag_256:\n        /* \"#utility.yul\":10026:10051   */\n      swap2\n      pop\n        /* \"#utility.yul\":10065:10085   */\n      tag_257\n        /* \"#utility.yul\":10083:10084   */\n      dup4\n        /* \"#utility.yul\":10065:10085   */\n      tag_135\n      jump\t// in\n    tag_257:\n        /* \"#utility.yul\":10060:10085   */\n      swap3\n      pop\n        /* \"#utility.yul\":10109:10110   */\n      dup3\n        /* \"#utility.yul\":10106:10107   */\n      dup3\n        /* \"#utility.yul\":10102:10111   */\n      sub\n        /* \"#utility.yul\":10094:10111   */\n      swap1\n      pop\n        /* \"#utility.yul\":10133:10134   */\n      dup2\n        /* \"#utility.yul\":10127:10131   */\n      dup2\n        /* \"#utility.yul\":10124:10135   */\n      gt\n        /* \"#utility.yul\":10121:10158   */\n      iszero\n      tag_258\n      jumpi\n        /* \"#utility.yul\":10138:10156   */\n      tag_259\n      tag_150\n      jump\t// in\n    tag_259:\n        /* \"#utility.yul\":10121:10158   */\n    tag_258:\n        /* \"#utility.yul\":9971:10165   */\n      swap3\n      swap2\n      pop\n      pop\n      jump\t// out\n        /* \"#utility.yul\":10171:10503   */\n    tag_79:\n        /* \"#utility.yul\":10292:10296   */\n      0x00\n        /* \"#utility.yul\":10330:10332   */\n      0x40\n        /* \"#utility.yul\":10319:10328   */\n      dup3\n        /* \"#utility.yul\":10315:10333   */\n      add\n        /* \"#utility.yul\":10307:10333   */\n      swap1\n      pop\n        /* \"#utility.yul\":10343:10414   */\n      tag_261\n        /* \"#utility.yul\":10411:10412   */\n      0x00\n        /* \"#utility.yul\":10400:10409   */\n      dup4\n        /* \"#utility.yul\":10396:10413   */\n      add\n        /* \"#utility.yul\":10387:10393   */\n      dup6\n        /* \"#utility.yul\":10343:10414   */\n      tag_149\n      jump\t// in\n    tag_261:\n        /* \"#utility.yul\":10424:10496   */\n      tag_262\n        /* \"#utility.yul\":10492:10494   */\n      0x20\n        /* \"#utility.yul\":10481:10490   */\n      dup4\n        /* \"#utility.yul\":10477:10495   */\n      add\n        /* \"#utility.yul\":10468:10474   */\n      dup5\n        /* \"#utility.yul\":10424:10496   */\n      tag_141\n      jump\t// in\n    tag_262:\n        /* \"#utility.yul\":10171:10503   */\n      swap4\n      swap3\n      pop\n      pop\n      pop\n      jump\t// out\n        /* \"#utility.yul\":10509:10599   */\n    tag_154:\n        /* \"#utility.yul\":10543:10550   */\n      0x00\n        /* \"#utility.yul\":10586:10591   */\n      dup2\n        /* \"#utility.yul\":10579:10592   */\n      iszero\n        /* \"#utility.yul\":10572:10593   */\n      iszero\n        /* \"#utility.yul\":10561:10593   */\n      swap1\n      pop\n        /* \"#utility.yul\":10509:10599   */\n      swap2\n      swap1\n      pop\n      jump\t// out\n        /* \"#utility.yul\":10605:10721   */\n    tag_155:\n        /* \"#utility.yul\":10675:10696   */\n      tag_265\n        /* \"#utility.yul\":10690:10695   */\n      dup2\n        /* \"#utility.yul\":10675:10696   */\n      tag_154\n      jump\t// in\n    tag_265:\n        /* \"#utility.yul\":10668:10673   */\n      dup2\n        /* \"#utility.yul\":10665:10697   */\n      eq\n        /* \"#utility.yul\":10655:10715   */\n      tag_266\n      jumpi\n        /* \"#utility.yul\":10711:10712   */\n      0x00\n        /* \"#utility.yul\":10708:10709   */\n      dup1\n        /* \"#utility.yul\":10701:10713   */\n      revert\n        /* \"#utility.yul\":10655:10715   */\n    tag_266:\n        /* \"#utility.yul\":10605:10721   */\n      pop\n      jump\t// out\n        /* \"#utility.yul\":10727:10864   */\n    tag_156:\n        /* \"#utility.yul\":10781:10786   */\n      0x00\n        /* \"#utility.yul\":10812:10818   */\n      dup2\n        /* \"#utility.yul\":10806:10819   */\n      mload\n        /* \"#utility.yul\":10797:10819   */\n      swap1\n      pop\n        /* \"#utility.yul\":10828:10858   */\n      tag_268\n        /* \"#utility.yul\":10852:10857   */\n      dup2\n        /* \"#utility.yul\":10828:10858   */\n      tag_155\n      jump\t// in\n    tag_268:\n        /* \"#utility.yul\":10727:10864   */\n      swap3\n      swap2\n      pop\n      pop\n      jump\t// out\n        /* \"#utility.yul\":10870:11215   */\n    tag_83:\n        /* \"#utility.yul\":10937:10943   */\n      0x00\n        /* \"#utility.yul\":10986:10988   */\n      0x20\n        /* \"#utility.yul\":10974:10983   */\n      dup3\n        /* \"#utility.yul\":10965:10972   */\n      dup5\n        /* \"#utility.yul\":10961:10984   */\n      sub\n        /* \"#utility.yul\":10957:10989   */\n      slt\n        /* \"#utility.yul\":10954:11073   */\n      iszero\n      tag_270\n      jumpi\n        /* \"#utility.yul\":10992:11071   */\n      tag_271\n      tag_125\n      jump\t// in\n    tag_271:\n        /* \"#utility.yul\":10954:11073   */\n    tag_270:\n        /* \"#utility.yul\":11112:11113   */\n      0x00\n        /* \"#utility.yul\":11137:11198   */\n      tag_272\n        /* \"#utility.yul\":11190:11197   */\n      dup5\n        /* \"#utility.yul\":11181:11187   */\n      dup3\n        /* \"#utility.yul\":11170:11179   */\n      dup6\n        /* \"#utility.yul\":11166:11188   */\n      add\n        /* \"#utility.yul\":11137:11198   */\n      tag_156\n      jump\t// in\n    tag_272:\n        /* \"#utility.yul\":11127:11198   */\n      swap2\n      pop\n        /* \"#utility.yul\":11083:11208   */\n      pop\n        /* \"#utility.yul\":10870:11215   */\n      swap3\n      swap2\n      pop\n      pop\n      jump\t// out\n        /* \"#utility.yul\":11221:11412   */\n    tag_101:\n        /* \"#utility.yul\":11261:11264   */\n      0x00\n        /* \"#utility.yul\":11280:11300   */\n      tag_274\n        /* \"#utility.yul\":11298:11299   */\n      dup3\n        /* \"#utility.yul\":11280:11300   */\n      tag_135\n      jump\t// in\n    tag_274:\n        /* \"#utility.yul\":11275:11300   */\n      swap2\n      pop\n        /* \"#utility.yul\":11314:11334   */\n      tag_275\n        /* \"#utility.yul\":11332:11333   */\n      dup4\n        /* \"#utility.yul\":11314:11334   */\n      tag_135\n      jump\t// in\n    tag_275:\n        /* \"#utility.yul\":11309:11334   */\n      swap3\n      pop\n        /* \"#utility.yul\":11357:11358   */\n      dup3\n        /* \"#utility.yul\":11354:11355   */\n      dup3\n        /* \"#utility.yul\":11350:11359   */\n      add\n        /* \"#utility.yul\":11343:11359   */\n      swap1\n      pop\n        /* \"#utility.yul\":11378:11381   */\n      dup1\n        /* \"#utility.yul\":11375:11376   */\n      dup3\n        /* \"#utility.yul\":11372:11382   */\n      gt\n        /* \"#utility.yul\":11369:11405   */\n      iszero\n      tag_276\n      jumpi\n        /* \"#utility.yul\":11385:11403   */\n      tag_277\n      tag_150\n      jump\t// in\n    tag_277:\n        /* \"#utility.yul\":11369:11405   */\n    tag_276:\n        /* \"#utility.yul\":11221:11412   */\n      swap3\n      swap2\n      pop\n      pop\n      jump\t// out\n        /* \"#utility.yul\":11418:11750   */\n    tag_109:\n        /* \"#utility.yul\":11539:11543   */\n      0x00\n        /* \"#utility.yul\":11577:11579   */\n      0x40\n        /* \"#utility.yul\":11566:11575   */\n      dup3\n        /* \"#utility.yul\":11562:11580   */\n      add\n        /* \"#utility.yul\":11554:11580   */\n      swap1\n      pop\n        /* \"#utility.yul\":11590:11661   */\n      tag_279\n        /* \"#utility.yul\":11658:11659   */\n      0x00\n        /* \"#utility.yul\":11647:11656   */\n      dup4\n        /* \"#utility.yul\":11643:11660   */\n      add\n        /* \"#utility.yul\":11634:11640   */\n      dup6\n        /* \"#utility.yul\":11590:11661   */\n      tag_149\n      jump\t// in\n    tag_279:\n        /* \"#utility.yul\":11671:11743   */\n      tag_280\n        /* \"#utility.yul\":11739:11741   */\n      0x20\n        /* \"#utility.yul\":11728:11737   */\n      dup4\n        /* \"#utility.yul\":11724:11742   */\n      add\n        /* \"#utility.yul\":11715:11721   */\n      dup5\n        /* \"#utility.yul\":11671:11743   */\n      tag_149\n      jump\t// in\n    tag_280:\n        /* \"#utility.yul\":11418:11750   */\n      swap4\n      swap3\n      pop\n      pop\n      pop\n      jump\t// out\n        /* \"#utility.yul\":11756:11899   */\n    tag_157:\n        /* \"#utility.yul\":11813:11818   */\n      0x00\n        /* \"#utility.yul\":11844:11850   */\n      dup2\n        /* \"#utility.yul\":11838:11851   */\n      mload\n        /* \"#utility.yul\":11829:11851   */\n      swap1\n      pop\n        /* \"#utility.yul\":11860:11893   */\n      tag_282\n        /* \"#utility.yul\":11887:11892   */\n      dup2\n        /* \"#utility.yul\":11860:11893   */\n      tag_142\n      jump\t// in\n    tag_282:\n        /* \"#utility.yul\":11756:11899   */\n      swap3\n      swap2\n      pop\n      pop\n      jump\t// out\n        /* \"#utility.yul\":11905:12256   */\n    tag_113:\n        /* \"#utility.yul\":11975:11981   */\n      0x00\n        /* \"#utility.yul\":12024:12026   */\n      0x20\n        /* \"#utility.yul\":12012:12021   */\n      dup3\n        /* \"#utility.yul\":12003:12010   */\n      dup5\n        /* \"#utility.yul\":11999:12022   */\n      sub\n        /* \"#utility.yul\":11995:12027   */\n      slt\n        /* \"#utility.yul\":11992:12111   */\n      iszero\n      tag_284\n      jumpi\n        /* \"#utility.yul\":12030:12109   */\n      tag_285\n      tag_125\n      jump\t// in\n    tag_285:\n        /* \"#utility.yul\":11992:12111   */\n    tag_284:\n        /* \"#utility.yul\":12150:12151   */\n      0x00\n        /* \"#utility.yul\":12175:12239   */\n      tag_286\n        /* \"#utility.yul\":12231:12238   */\n      dup5\n        /* \"#utility.yul\":12222:12228   */\n      dup3\n        /* \"#utility.yul\":12211:12220   */\n      dup6\n        /* \"#utility.yul\":12207:12229   */\n      add\n        /* \"#utility.yul\":12175:12239   */\n      tag_157\n      jump\t// in\n    tag_286:\n        /* \"#utility.yul\":12165:12239   */\n      swap2\n      pop\n        /* \"#utility.yul\":12121:12249   */\n      pop\n        /* \"#utility.yul\":11905:12256   */\n      swap3\n      swap2\n      pop\n      pop\n      jump\t// out\n        /* \"#utility.yul\":12262:12483   */\n    tag_158:\n        /* \"#utility.yul\":12402:12436   */\n      0x43616b65436f6e74726163743a20416c6c6f77616e6365206e6f7420656e6f75\n        /* \"#utility.yul\":12398:12399   */\n      0x00\n        /* \"#utility.yul\":12390:12396   */\n      dup3\n        /* \"#utility.yul\":12386:12400   */\n      add\n        /* \"#utility.yul\":12379:12437   */\n      mstore\n        /* \"#utility.yul\":12471:12475   */\n      0x6768000000000000000000000000000000000000000000000000000000000000\n        /* \"#utility.yul\":12466:12468   */\n      0x20\n        /* \"#utility.yul\":12458:12464   */\n      dup3\n        /* \"#utility.yul\":12454:12469   */\n      add\n        /* \"#utility.yul\":12447:12476   */\n      mstore\n        /* \"#utility.yul\":12262:12483   */\n      pop\n      jump\t// out\n        /* \"#utility.yul\":12489:12855   */\n    tag_159:\n        /* \"#utility.yul\":12631:12634   */\n      0x00\n        /* \"#utility.yul\":12652:12719   */\n      tag_289\n        /* \"#utility.yul\":12716:12718   */\n      0x22\n        /* \"#utility.yul\":12711:12714   */\n      dup4\n        /* \"#utility.yul\":12652:12719   */\n      tag_151\n      jump\t// in\n    tag_289:\n        /* \"#utility.yul\":12645:12719   */\n      swap2\n      pop\n        /* \"#utility.yul\":12728:12821   */\n      tag_290\n        /* \"#utility.yul\":12817:12820   */\n      dup3\n        /* \"#utility.yul\":12728:12821   */\n      tag_158\n      jump\t// in\n    tag_290:\n        /* \"#utility.yul\":12846:12848   */\n      0x40\n        /* \"#utility.yul\":12841:12844   */\n      dup3\n        /* \"#utility.yul\":12837:12849   */\n      add\n        /* \"#utility.yul\":12830:12849   */\n      swap1\n      pop\n        /* \"#utility.yul\":12489:12855   */\n      swap2\n      swap1\n      pop\n      jump\t// out\n        /* \"#utility.yul\":12861:13280   */\n    tag_116:\n        /* \"#utility.yul\":13027:13031   */\n      0x00\n        /* \"#utility.yul\":13065:13067   */\n      0x20\n        /* \"#utility.yul\":13054:13063   */\n      dup3\n        /* \"#utility.yul\":13050:13068   */\n      add\n        /* \"#utility.yul\":13042:13068   */\n      swap1\n      pop\n        /* \"#utility.yul\":13114:13123   */\n      dup2\n        /* \"#utility.yul\":13108:13112   */\n      dup2\n        /* \"#utility.yul\":13104:13124   */\n      sub\n        /* \"#utility.yul\":13100:13101   */\n      0x00\n        /* \"#utility.yul\":13089:13098   */\n      dup4\n        /* \"#utility.yul\":13085:13102   */\n      add\n        /* \"#utility.yul\":13078:13125   */\n      mstore\n        /* \"#utility.yul\":13142:13273   */\n      tag_292\n        /* \"#utility.yul\":13268:13272   */\n      dup2\n        /* \"#utility.yul\":13142:13273   */\n      tag_159\n      jump\t// in\n    tag_292:\n        /* \"#utility.yul\":13134:13273   */\n      swap1\n      pop\n        /* \"#utility.yul\":12861:13280   */\n      swap2\n      swap1\n      pop\n      jump\t// out\n        /* \"#utility.yul\":13286:13728   */\n    tag_118:\n        /* \"#utility.yul\":13435:13439   */\n      0x00\n        /* \"#utility.yul\":13473:13475   */\n      0x60\n        /* \"#utility.yul\":13462:13471   */\n      dup3\n        /* \"#utility.yul\":13458:13476   */\n      add\n        /* \"#utility.yul\":13450:13476   */\n      swap1\n      pop\n        /* \"#utility.yul\":13486:13557   */\n      tag_294\n        /* \"#utility.yul\":13554:13555   */\n      0x00\n        /* \"#utility.yul\":13543:13552   */\n      dup4\n        /* \"#utility.yul\":13539:13556   */\n      add\n        /* \"#utility.yul\":13530:13536   */\n      dup7\n        /* \"#utility.yul\":13486:13557   */\n      tag_149\n      jump\t// in\n    tag_294:\n        /* \"#utility.yul\":13567:13639   */\n      tag_295\n        /* \"#utility.yul\":13635:13637   */\n      0x20\n        /* \"#utility.yul\":13624:13633   */\n      dup4\n        /* \"#utility.yul\":13620:13638   */\n      add\n        /* \"#utility.yul\":13611:13617   */\n      dup6\n        /* \"#utility.yul\":13567:13639   */\n      tag_149\n      jump\t// in\n    tag_295:\n        /* \"#utility.yul\":13649:13721   */\n      tag_296\n        /* \"#utility.yul\":13717:13719   */\n      0x40\n        /* \"#utility.yul\":13706:13715   */\n      dup4\n        /* \"#utility.yul\":13702:13720   */\n      add\n        /* \"#utility.yul\":13693:13699   */\n      dup5\n        /* \"#utility.yul\":13649:13721   */\n      tag_141\n      jump\t// in\n    tag_296:\n        /* \"#utility.yul\":13286:13728   */\n      swap5\n      swap4\n      pop\n      pop\n      pop\n      pop\n      jump\t// out\n\n    auxdata: 0xa2646970667358221220467c1abdaa070d90e425e40ecf5f71e14a87ca0160719feef01210321b5ed49664736f6c63430008120033\n}\n",
				"bytecode": {
					"linkReferences": {},
					"object": "60806040523480156200001157600080fd5b50604051620017b0380380620017b08339818101604052810190620000379190620000e8565b806000806101000a81548173ffffffffffffffffffffffffffffffffffffffff021916908373ffffffffffffffffffffffffffffffffffffffff160217905550506200011a565b600080fd5b600073ffffffffffffffffffffffffffffffffffffffff82169050919050565b6000620000b08262000083565b9050919050565b620000c281620000a3565b8114620000ce57600080fd5b50565b600081519050620000e281620000b7565b92915050565b6000602082840312156200010157620001006200007e565b5b60006200011184828501620000d1565b91505092915050565b611686806200012a6000396000f3fe608060405234801561001057600080fd5b50600436106100935760003560e01c806383920e901161006657806383920e90146101305780638904bf2f1461014e5780639ace38c21461016c578063a9059cbb1461019f578063b6b55f25146101bb57610093565b80630947b4dc1461009857806327e235e3146100c85780632e1a7d4d146100f85780633ac9fc1114610114575b600080fd5b6100b260048036038101906100ad9190610fa2565b6101d7565b6040516100bf91906110fb565b60405180910390f35b6100e260048036038101906100dd9190610fa2565b6103f7565b6040516100ef919061112c565b60405180910390f35b610112600480360381019061010d9190611173565b61040f565b005b61012e60048036038101906101299190611173565b6106a5565b005b610138610747565b60405161014591906110fb565b60405180910390f35b610156610866565b60405161016391906111ff565b60405180910390f35b61018660048036038101906101819190611173565b61088a565b6040516101969493929190611229565b60405180910390f35b6101b960048036038101906101b4919061126e565b61090a565b005b6101d560048036038101906101d09190611173565b610bf7565b005b6060600060018054905067ffffffffffffffff8111156101fa576101f96112ae565b5b60405190808252806020026020018201604052801561023357816020015b610220610eeb565b8152602001906001900390816102185790505b5090506000805b6001805490508110156103ec5760006001828154811061025d5761025c6112dd565b5b90600052602060002090600402016040518060800160405290816000820160009054906101000a900473ffffffffffffffffffffffffffffffffffffffff1673ffffffffffffffffffffffffffffffffffffffff1673ffffffffffffffffffffffffffffffffffffffff1681526020016001820160009054906101000a900473ffffffffffffffffffffffffffffffffffffffff1673ffffffffffffffffffffffffffffffffffffffff1673ffffffffffffffffffffffffffffffffffffffff1681526020016002820154815260200160038201548152505090508573ffffffffffffffffffffffffffffffffffffffff16816000015173ffffffffffffffffffffffffffffffffffffffff1614806103a557508573ffffffffffffffffffffffffffffffffffffffff16816020015173ffffffffffffffffffffffffffffffffffffffff16145b156103d857808484815181106103be576103bd6112dd565b5b602002602001018190525082806103d49061133b565b9350505b5080806103e49061133b565b91505061023a565b508192505050919050565b60026020528060005260406000206000915090505481565b80600260003373ffffffffffffffffffffffffffffffffffffffff1673ffffffffffffffffffffffffffffffffffffffff168152602001908152602001600020541015610491576040517f08c379a000000000000000000000000000000000000000000000000000000000815260040161048890611406565b60405180910390fd5b80600260003373ffffffffffffffffffffffffffffffffffffffff1673ffffffffffffffffffffffffffffffffffffffff16815260200190815260200160002060008282546104e09190611426565b9250508190555060008054906101000a900473ffffffffffffffffffffffffffffffffffffffff1673ffffffffffffffffffffffffffffffffffffffff1663a9059cbb33836040518363ffffffff1660e01b815260040161054292919061145a565b6020604051808303816000875af1158015610561573d6000803e3d6000fd5b505050506040513d601f19601f8201168201806040525081019061058591906114bb565b50600160405180608001604052803073ffffffffffffffffffffffffffffffffffffffff1681526020013373ffffffffffffffffffffffffffffffffffffffff16815260200183815260200142815250908060018154018082558091505060019003906000526020600020906004020160009091909190915060008201518160000160006101000a81548173ffffffffffffffffffffffffffffffffffffffff021916908373ffffffffffffffffffffffffffffffffffffffff16021790555060208201518160010160006101000a81548173ffffffffffffffffffffffffffffffffffffffff021916908373ffffffffffffffffffffffffffffffffffffffff1602179055506040820151816002015560608201518160030155505050565b60008054906101000a900473ffffffffffffffffffffffffffffffffffffffff1673ffffffffffffffffffffffffffffffffffffffff1663095ea7b330836040518363ffffffff1660e01b815260040161070092919061145a565b6020604051808303816000875af115801561071f573d6000803e3d6000fd5b505050506040513d601f19601f8201168201806040525081019061074391906114bb565b5050565b60606001805480602002602001604051908101604052809291908181526020016000905b8282101561085d57838290600052602060002090600402016040518060800160405290816000820160009054906101000a900473ffffffffffffffffffffffffffffffffffffffff1673ffffffffffffffffffffffffffffffffffffffff1673ffffffffffffffffffffffffffffffffffffffff1681526020016001820160009054906101000a900473ffffffffffffffffffffffffffffffffffffffff1673ffffffffffffffffffffffffffffffffffffffff1673ffffffffffffffffffffffffffffffffffffffff168152602001600282015481526020016003820154815250508152602001906001019061076b565b50505050905090565b60008054906101000a900473ffffffffffffffffffffffffffffffffffffffff1681565b6001818154811061089a57600080fd5b90600052602060002090600402016000915090508060000160009054906101000a900473ffffffffffffffffffffffffffffffffffffffff16908060010160009054906101000a900473ffffffffffffffffffffffffffffffffffffffff16908060020154908060030154905084565b80600260003373ffffffffffffffffffffffffffffffffffffffff1673ffffffffffffffffffffffffffffffffffffffff16815260200190815260200160002054101561098c576040517f08c379a000000000000000000000000000000000000000000000000000000000815260040161098390611406565b60405180910390fd5b80600260003373ffffffffffffffffffffffffffffffffffffffff1673ffffffffffffffffffffffffffffffffffffffff16815260200190815260200160002060008282546109db9190611426565b9250508190555080600260008473ffffffffffffffffffffffffffffffffffffffff1673ffffffffffffffffffffffffffffffffffffffff1681526020019081526020016000206000828254610a3191906114e8565b9250508190555060008054906101000a900473ffffffffffffffffffffffffffffffffffffffff1673ffffffffffffffffffffffffffffffffffffffff1663a9059cbb83836040518363ffffffff1660e01b8152600401610a9392919061145a565b6020604051808303816000875af1158015610ab2573d6000803e3d6000fd5b505050506040513d601f19601f82011682018060405250810190610ad691906114bb565b50600160405180608001604052803373ffffffffffffffffffffffffffffffffffffffff1681526020018473ffffffffffffffffffffffffffffffffffffffff16815260200183815260200142815250908060018154018082558091505060019003906000526020600020906004020160009091909190915060008201518160000160006101000a81548173ffffffffffffffffffffffffffffffffffffffff021916908373ffffffffffffffffffffffffffffffffffffffff16021790555060208201518160010160006101000a81548173ffffffffffffffffffffffffffffffffffffffff021916908373ffffffffffffffffffffffffffffffffffffffff160217905550604082015181600201556060820151816003015550505050565b8060008054906101000a900473ffffffffffffffffffffffffffffffffffffffff1673ffffffffffffffffffffffffffffffffffffffff1663dd62ed3e33306040518363ffffffff1660e01b8152600401610c5392919061151c565b602060405180830381865afa158015610c70573d6000803e3d6000fd5b505050506040513d601f19601f82011682018060405250810190610c94919061155a565b1015610cd5576040517f08c379a0000000000000000000000000000000000000000000000000000000008152600401610ccc906115f9565b60405180910390fd5b60008054906101000a900473ffffffffffffffffffffffffffffffffffffffff1673ffffffffffffffffffffffffffffffffffffffff166323b872dd3330846040518463ffffffff1660e01b8152600401610d3293929190611619565b6020604051808303816000875af1158015610d51573d6000803e3d6000fd5b505050506040513d601f19601f82011682018060405250810190610d7591906114bb565b5080600260003373ffffffffffffffffffffffffffffffffffffffff1673ffffffffffffffffffffffffffffffffffffffff1681526020019081526020016000206000828254610dc591906114e8565b92505081905550600160405180608001604052803373ffffffffffffffffffffffffffffffffffffffff1681526020013073ffffffffffffffffffffffffffffffffffffffff16815260200183815260200142815250908060018154018082558091505060019003906000526020600020906004020160009091909190915060008201518160000160006101000a81548173ffffffffffffffffffffffffffffffffffffffff021916908373ffffffffffffffffffffffffffffffffffffffff16021790555060208201518160010160006101000a81548173ffffffffffffffffffffffffffffffffffffffff021916908373ffffffffffffffffffffffffffffffffffffffff1602179055506040820151816002015560608201518160030155505050565b6040518060800160405280600073ffffffffffffffffffffffffffffffffffffffff168152602001600073ffffffffffffffffffffffffffffffffffffffff16815260200160008152602001600081525090565b600080fd5b600073ffffffffffffffffffffffffffffffffffffffff82169050919050565b6000610f6f82610f44565b9050919050565b610f7f81610f64565b8114610f8a57600080fd5b50565b600081359050610f9c81610f76565b92915050565b600060208284031215610fb857610fb7610f3f565b5b6000610fc684828501610f8d565b91505092915050565b600081519050919050565b600082825260208201905092915050565b6000819050602082019050919050565b61100481610f64565b82525050565b6000819050919050565b61101d8161100a565b82525050565b6080820160008201516110396000850182610ffb565b50602082015161104c6020850182610ffb565b50604082015161105f6040850182611014565b5060608201516110726060850182611014565b50505050565b60006110848383611023565b60808301905092915050565b6000602082019050919050565b60006110a882610fcf565b6110b28185610fda565b93506110bd83610feb565b8060005b838110156110ee5781516110d58882611078565b97506110e083611090565b9250506001810190506110c1565b5085935050505092915050565b60006020820190508181036000830152611115818461109d565b905092915050565b6111268161100a565b82525050565b6000602082019050611141600083018461111d565b92915050565b6111508161100a565b811461115b57600080fd5b50565b60008135905061116d81611147565b92915050565b60006020828403121561118957611188610f3f565b5b60006111978482850161115e565b91505092915050565b6000819050919050565b60006111c56111c06111bb84610f44565b6111a0565b610f44565b9050919050565b60006111d7826111aa565b9050919050565b60006111e9826111cc565b9050919050565b6111f9816111de565b82525050565b600060208201905061121460008301846111f0565b92915050565b61122381610f64565b82525050565b600060808201905061123e600083018761121a565b61124b602083018661121a565b611258604083018561111d565b611265606083018461111d565b95945050505050565b6000806040838503121561128557611284610f3f565b5b600061129385828601610f8d565b92505060206112a48582860161115e565b9150509250929050565b7f4e487b7100000000000000000000000000000000000000000000000000000000600052604160045260246000fd5b7f4e487b7100000000000000000000000000000000000000000000000000000000600052603260045260246000fd5b7f4e487b7100000000000000000000000000000000000000000000000000000000600052601160045260246000fd5b60006113468261100a565b91507fffffffffffffffffffffffffffffffffffffffffffffffffffffffffffffffff82036113785761137761130c565b5b600182019050919050565b600082825260208201905092915050565b7f43616b65436f6e74726163743a20496e73756666696369656e742062616c616e60008201527f6365000000000000000000000000000000000000000000000000000000000000602082015250565b60006113f0602283611383565b91506113fb82611394565b604082019050919050565b6000602082019050818103600083015261141f816113e3565b9050919050565b60006114318261100a565b915061143c8361100a565b92508282039050818111156114545761145361130c565b5b92915050565b600060408201905061146f600083018561121a565b61147c602083018461111d565b9392505050565b60008115159050919050565b61149881611483565b81146114a357600080fd5b50565b6000815190506114b58161148f565b92915050565b6000602082840312156114d1576114d0610f3f565b5b60006114df848285016114a6565b91505092915050565b60006114f38261100a565b91506114fe8361100a565b92508282019050808211156115165761151561130c565b5b92915050565b6000604082019050611531600083018561121a565b61153e602083018461121a565b9392505050565b60008151905061155481611147565b92915050565b6000602082840312156115705761156f610f3f565b5b600061157e84828501611545565b91505092915050565b7f43616b65436f6e74726163743a20416c6c6f77616e6365206e6f7420656e6f7560008201527f6768000000000000000000000000000000000000000000000000000000000000602082015250565b60006115e3602283611383565b91506115ee82611587565b604082019050919050565b60006020820190508181036000830152611612816115d6565b9050919050565b600060608201905061162e600083018661121a565b61163b602083018561121a565b611648604083018461111d565b94935050505056fea2646970667358221220467c1abdaa070d90e425e40ecf5f71e14a87ca0160719feef01210321b5ed49664736f6c63430008120033",
					"opcodes": "PUSH1 0x80 PUSH1 0x40 MSTORE CALLVALUE DUP1 ISZERO PUSH3 0x11 JUMPI PUSH1 0x0 DUP1 REVERT JUMPDEST POP PUSH1 0x40 MLOAD PUSH3 0x17B0 CODESIZE SUB DUP1 PUSH3 0x17B0 DUP4 CODECOPY DUP2 DUP2 ADD PUSH1 0x40 MSTORE DUP2 ADD SWAP1 PUSH3 0x37 SWAP2 SWAP1 PUSH3 0xE8 JUMP JUMPDEST DUP1 PUSH1 0x0 DUP1 PUSH2 0x100 EXP DUP2 SLOAD DUP2 PUSH20 0xFFFFFFFFFFFFFFFFFFFFFFFFFFFFFFFFFFFFFFFF MUL NOT AND SWAP1 DUP4 PUSH20 0xFFFFFFFFFFFFFFFFFFFFFFFFFFFFFFFFFFFFFFFF AND MUL OR SWAP1 SSTORE POP POP PUSH3 0x11A JUMP JUMPDEST PUSH1 0x0 DUP1 REVERT JUMPDEST PUSH1 0x0 PUSH20 0xFFFFFFFFFFFFFFFFFFFFFFFFFFFFFFFFFFFFFFFF DUP3 AND SWAP1 POP SWAP2 SWAP1 POP JUMP JUMPDEST PUSH1 0x0 PUSH3 0xB0 DUP3 PUSH3 0x83 JUMP JUMPDEST SWAP1 POP SWAP2 SWAP1 POP JUMP JUMPDEST PUSH3 0xC2 DUP2 PUSH3 0xA3 JUMP JUMPDEST DUP2 EQ PUSH3 0xCE JUMPI PUSH1 0x0 DUP1 REVERT JUMPDEST POP JUMP JUMPDEST PUSH1 0x0 DUP2 MLOAD SWAP1 POP PUSH3 0xE2 DUP2 PUSH3 0xB7 JUMP JUMPDEST SWAP3 SWAP2 POP POP JUMP JUMPDEST PUSH1 0x0 PUSH1 0x20 DUP3 DUP5 SUB SLT ISZERO PUSH3 0x101 JUMPI PUSH3 0x100 PUSH3 0x7E JUMP JUMPDEST JUMPDEST PUSH1 0x0 PUSH3 0x111 DUP5 DUP3 DUP6 ADD PUSH3 0xD1 JUMP JUMPDEST SWAP2 POP POP SWAP3 SWAP2 POP POP JUMP JUMPDEST PUSH2 0x1686 DUP1 PUSH3 0x12A PUSH1 0x0 CODECOPY PUSH1 0x0 RETURN INVALID PUSH1 0x80 PUSH1 0x40 MSTORE CALLVALUE DUP1 ISZERO PUSH2 0x10 JUMPI PUSH1 0x0 DUP1 REVERT JUMPDEST POP PUSH1 0x4 CALLDATASIZE LT PUSH2 0x93 JUMPI PUSH1 0x0 CALLDATALOAD PUSH1 0xE0 SHR DUP1 PUSH4 0x83920E90 GT PUSH2 0x66 JUMPI DUP1 PUSH4 0x83920E90 EQ PUSH2 0x130 JUMPI DUP1 PUSH4 0x8904BF2F EQ PUSH2 0x14E JUMPI DUP1 PUSH4 0x9ACE38C2 EQ PUSH2 0x16C JUMPI DUP1 PUSH4 0xA9059CBB EQ PUSH2 0x19F JUMPI DUP1 PUSH4 0xB6B55F25 EQ PUSH2 0x1BB JUMPI PUSH2 0x93 JUMP JUMPDEST DUP1 PUSH4 0x947B4DC EQ PUSH2 0x98 JUMPI DUP1 PUSH4 0x27E235E3 EQ PUSH2 0xC8 JUMPI DUP1 PUSH4 0x2E1A7D4D EQ PUSH2 0xF8 JUMPI DUP1 PUSH4 0x3AC9FC11 EQ PUSH2 0x114 JUMPI JUMPDEST PUSH1 0x0 DUP1 REVERT JUMPDEST PUSH2 0xB2 PUSH1 0x4 DUP1 CALLDATASIZE SUB DUP2 ADD SWAP1 PUSH2 0xAD SWAP2 SWAP1 PUSH2 0xFA2 JUMP JUMPDEST PUSH2 0x1D7 JUMP JUMPDEST PUSH1 0x40 MLOAD PUSH2 0xBF SWAP2 SWAP1 PUSH2 0x10FB JUMP JUMPDEST PUSH1 0x40 MLOAD DUP1 SWAP2 SUB SWAP1 RETURN JUMPDEST PUSH2 0xE2 PUSH1 0x4 DUP1 CALLDATASIZE SUB DUP2 ADD SWAP1 PUSH2 0xDD SWAP2 SWAP1 PUSH2 0xFA2 JUMP JUMPDEST PUSH2 0x3F7 JUMP JUMPDEST PUSH1 0x40 MLOAD PUSH2 0xEF SWAP2 SWAP1 PUSH2 0x112C JUMP JUMPDEST PUSH1 0x40 MLOAD DUP1 SWAP2 SUB SWAP1 RETURN JUMPDEST PUSH2 0x112 PUSH1 0x4 DUP1 CALLDATASIZE SUB DUP2 ADD SWAP1 PUSH2 0x10D SWAP2 SWAP1 PUSH2 0x1173 JUMP JUMPDEST PUSH2 0x40F JUMP JUMPDEST STOP JUMPDEST PUSH2 0x12E PUSH1 0x4 DUP1 CALLDATASIZE SUB DUP2 ADD SWAP1 PUSH2 0x129 SWAP2 SWAP1 PUSH2 0x1173 JUMP JUMPDEST PUSH2 0x6A5 JUMP JUMPDEST STOP JUMPDEST PUSH2 0x138 PUSH2 0x747 JUMP JUMPDEST PUSH1 0x40 MLOAD PUSH2 0x145 SWAP2 SWAP1 PUSH2 0x10FB JUMP JUMPDEST PUSH1 0x40 MLOAD DUP1 SWAP2 SUB SWAP1 RETURN JUMPDEST PUSH2 0x156 PUSH2 0x866 JUMP JUMPDEST PUSH1 0x40 MLOAD PUSH2 0x163 SWAP2 SWAP1 PUSH2 0x11FF JUMP JUMPDEST PUSH1 0x40 MLOAD DUP1 SWAP2 SUB SWAP1 RETURN JUMPDEST PUSH2 0x186 PUSH1 0x4 DUP1 CALLDATASIZE SUB DUP2 ADD SWAP1 PUSH2 0x181 SWAP2 SWAP1 PUSH2 0x1173 JUMP JUMPDEST PUSH2 0x88A JUMP JUMPDEST PUSH1 0x40 MLOAD PUSH2 0x196 SWAP5 SWAP4 SWAP3 SWAP2 SWAP1 PUSH2 0x1229 JUMP JUMPDEST PUSH1 0x40 MLOAD DUP1 SWAP2 SUB SWAP1 RETURN JUMPDEST PUSH2 0x1B9 PUSH1 0x4 DUP1 CALLDATASIZE SUB DUP2 ADD SWAP1 PUSH2 0x1B4 SWAP2 SWAP1 PUSH2 0x126E JUMP JUMPDEST PUSH2 0x90A JUMP JUMPDEST STOP JUMPDEST PUSH2 0x1D5 PUSH1 0x4 DUP1 CALLDATASIZE SUB DUP2 ADD SWAP1 PUSH2 0x1D0 SWAP2 SWAP1 PUSH2 0x1173 JUMP JUMPDEST PUSH2 0xBF7 JUMP JUMPDEST STOP JUMPDEST PUSH1 0x60 PUSH1 0x0 PUSH1 0x1 DUP1 SLOAD SWAP1 POP PUSH8 0xFFFFFFFFFFFFFFFF DUP2 GT ISZERO PUSH2 0x1FA JUMPI PUSH2 0x1F9 PUSH2 0x12AE JUMP JUMPDEST JUMPDEST PUSH1 0x40 MLOAD SWAP1 DUP1 DUP3 MSTORE DUP1 PUSH1 0x20 MUL PUSH1 0x20 ADD DUP3 ADD PUSH1 0x40 MSTORE DUP1 ISZERO PUSH2 0x233 JUMPI DUP2 PUSH1 0x20 ADD JUMPDEST PUSH2 0x220 PUSH2 0xEEB JUMP JUMPDEST DUP2 MSTORE PUSH1 0x20 ADD SWAP1 PUSH1 0x1 SWAP1 SUB SWAP1 DUP2 PUSH2 0x218 JUMPI SWAP1 POP JUMPDEST POP SWAP1 POP PUSH1 0x0 DUP1 JUMPDEST PUSH1 0x1 DUP1 SLOAD SWAP1 POP DUP2 LT ISZERO PUSH2 0x3EC JUMPI PUSH1 0x0 PUSH1 0x1 DUP3 DUP2 SLOAD DUP2 LT PUSH2 0x25D JUMPI PUSH2 0x25C PUSH2 0x12DD JUMP JUMPDEST JUMPDEST SWAP1 PUSH1 0x0 MSTORE PUSH1 0x20 PUSH1 0x0 KECCAK256 SWAP1 PUSH1 0x4 MUL ADD PUSH1 0x40 MLOAD DUP1 PUSH1 0x80 ADD PUSH1 0x40 MSTORE SWAP1 DUP2 PUSH1 0x0 DUP3 ADD PUSH1 0x0 SWAP1 SLOAD SWAP1 PUSH2 0x100 EXP SWAP1 DIV PUSH20 0xFFFFFFFFFFFFFFFFFFFFFFFFFFFFFFFFFFFFFFFF AND PUSH20 0xFFFFFFFFFFFFFFFFFFFFFFFFFFFFFFFFFFFFFFFF AND PUSH20 0xFFFFFFFFFFFFFFFFFFFFFFFFFFFFFFFFFFFFFFFF AND DUP2 MSTORE PUSH1 0x20 ADD PUSH1 0x1 DUP3 ADD PUSH1 0x0 SWAP1 SLOAD SWAP1 PUSH2 0x100 EXP SWAP1 DIV PUSH20 0xFFFFFFFFFFFFFFFFFFFFFFFFFFFFFFFFFFFFFFFF AND PUSH20 0xFFFFFFFFFFFFFFFFFFFFFFFFFFFFFFFFFFFFFFFF AND PUSH20 0xFFFFFFFFFFFFFFFFFFFFFFFFFFFFFFFFFFFFFFFF AND DUP2 MSTORE PUSH1 0x20 ADD PUSH1 0x2 DUP3 ADD SLOAD DUP2 MSTORE PUSH1 0x20 ADD PUSH1 0x3 DUP3 ADD SLOAD DUP2 MSTORE POP POP SWAP1 POP DUP6 PUSH20 0xFFFFFFFFFFFFFFFFFFFFFFFFFFFFFFFFFFFFFFFF AND DUP2 PUSH1 0x0 ADD MLOAD PUSH20 0xFFFFFFFFFFFFFFFFFFFFFFFFFFFFFFFFFFFFFFFF AND EQ DUP1 PUSH2 0x3A5 JUMPI POP DUP6 PUSH20 0xFFFFFFFFFFFFFFFFFFFFFFFFFFFFFFFFFFFFFFFF AND DUP2 PUSH1 0x20 ADD MLOAD PUSH20 0xFFFFFFFFFFFFFFFFFFFFFFFFFFFFFFFFFFFFFFFF AND EQ JUMPDEST ISZERO PUSH2 0x3D8 JUMPI DUP1 DUP5 DUP5 DUP2 MLOAD DUP2 LT PUSH2 0x3BE JUMPI PUSH2 0x3BD PUSH2 0x12DD JUMP JUMPDEST JUMPDEST PUSH1 0x20 MUL PUSH1 0x20 ADD ADD DUP2 SWAP1 MSTORE POP DUP3 DUP1 PUSH2 0x3D4 SWAP1 PUSH2 0x133B JUMP JUMPDEST SWAP4 POP POP JUMPDEST POP DUP1 DUP1 PUSH2 0x3E4 SWAP1 PUSH2 0x133B JUMP JUMPDEST SWAP2 POP POP PUSH2 0x23A JUMP JUMPDEST POP DUP2 SWAP3 POP POP POP SWAP2 SWAP1 POP JUMP JUMPDEST PUSH1 0x2 PUSH1 0x20 MSTORE DUP1 PUSH1 0x0 MSTORE PUSH1 0x40 PUSH1 0x0 KECCAK256 PUSH1 0x0 SWAP2 POP SWAP1 POP SLOAD DUP2 JUMP JUMPDEST DUP1 PUSH1 0x2 PUSH1 0x0 CALLER PUSH20 0xFFFFFFFFFFFFFFFFFFFFFFFFFFFFFFFFFFFFFFFF AND PUSH20 0xFFFFFFFFFFFFFFFFFFFFFFFFFFFFFFFFFFFFFFFF AND DUP2 MSTORE PUSH1 0x20 ADD SWAP1 DUP2 MSTORE PUSH1 0x20 ADD PUSH1 0x0 KECCAK256 SLOAD LT ISZERO PUSH2 0x491 JUMPI PUSH1 0x40 MLOAD PUSH32 0x8C379A000000000000000000000000000000000000000000000000000000000 DUP2 MSTORE PUSH1 0x4 ADD PUSH2 0x488 SWAP1 PUSH2 0x1406 JUMP JUMPDEST PUSH1 0x40 MLOAD DUP1 SWAP2 SUB SWAP1 REVERT JUMPDEST DUP1 PUSH1 0x2 PUSH1 0x0 CALLER PUSH20 0xFFFFFFFFFFFFFFFFFFFFFFFFFFFFFFFFFFFFFFFF AND PUSH20 0xFFFFFFFFFFFFFFFFFFFFFFFFFFFFFFFFFFFFFFFF AND DUP2 MSTORE PUSH1 0x20 ADD SWAP1 DUP2 MSTORE PUSH1 0x20 ADD PUSH1 0x0 KECCAK256 PUSH1 0x0 DUP3 DUP3 SLOAD PUSH2 0x4E0 SWAP2 SWAP1 PUSH2 0x1426 JUMP JUMPDEST SWAP3 POP POP DUP2 SWAP1 SSTORE POP PUSH1 0x0 DUP1 SLOAD SWAP1 PUSH2 0x100 EXP SWAP1 DIV PUSH20 0xFFFFFFFFFFFFFFFFFFFFFFFFFFFFFFFFFFFFFFFF AND PUSH20 0xFFFFFFFFFFFFFFFFFFFFFFFFFFFFFFFFFFFFFFFF AND PUSH4 0xA9059CBB CALLER DUP4 PUSH1 0x40 MLOAD DUP4 PUSH4 0xFFFFFFFF AND PUSH1 0xE0 SHL DUP2 MSTORE PUSH1 0x4 ADD PUSH2 0x542 SWAP3 SWAP2 SWAP1 PUSH2 0x145A JUMP JUMPDEST PUSH1 0x20 PUSH1 0x40 MLOAD DUP1 DUP4 SUB DUP2 PUSH1 0x0 DUP8 GAS CALL ISZERO DUP1 ISZERO PUSH2 0x561 JUMPI RETURNDATASIZE PUSH1 0x0 DUP1 RETURNDATACOPY RETURNDATASIZE PUSH1 0x0 REVERT JUMPDEST POP POP POP POP PUSH1 0x40 MLOAD RETURNDATASIZE PUSH1 0x1F NOT PUSH1 0x1F DUP3 ADD AND DUP3 ADD DUP1 PUSH1 0x40 MSTORE POP DUP2 ADD SWAP1 PUSH2 0x585 SWAP2 SWAP1 PUSH2 0x14BB JUMP JUMPDEST POP PUSH1 0x1 PUSH1 0x40 MLOAD DUP1 PUSH1 0x80 ADD PUSH1 0x40 MSTORE DUP1 ADDRESS PUSH20 0xFFFFFFFFFFFFFFFFFFFFFFFFFFFFFFFFFFFFFFFF AND DUP2 MSTORE PUSH1 0x20 ADD CALLER PUSH20 0xFFFFFFFFFFFFFFFFFFFFFFFFFFFFFFFFFFFFFFFF AND DUP2 MSTORE PUSH1 0x20 ADD DUP4 DUP2 MSTORE PUSH1 0x20 ADD TIMESTAMP DUP2 MSTORE POP SWAP1 DUP1 PUSH1 0x1 DUP2 SLOAD ADD DUP1 DUP3 SSTORE DUP1 SWAP2 POP POP PUSH1 0x1 SWAP1 SUB SWAP1 PUSH1 0x0 MSTORE PUSH1 0x20 PUSH1 0x0 KECCAK256 SWAP1 PUSH1 0x4 MUL ADD PUSH1 0x0 SWAP1 SWAP2 SWAP1 SWAP2 SWAP1 SWAP2 POP PUSH1 0x0 DUP3 ADD MLOAD DUP2 PUSH1 0x0 ADD PUSH1 0x0 PUSH2 0x100 EXP DUP2 SLOAD DUP2 PUSH20 0xFFFFFFFFFFFFFFFFFFFFFFFFFFFFFFFFFFFFFFFF MUL NOT AND SWAP1 DUP4 PUSH20 0xFFFFFFFFFFFFFFFFFFFFFFFFFFFFFFFFFFFFFFFF AND MUL OR SWAP1 SSTORE POP PUSH1 0x20 DUP3 ADD MLOAD DUP2 PUSH1 0x1 ADD PUSH1 0x0 PUSH2 0x100 EXP DUP2 SLOAD DUP2 PUSH20 0xFFFFFFFFFFFFFFFFFFFFFFFFFFFFFFFFFFFFFFFF MUL NOT AND SWAP1 DUP4 PUSH20 0xFFFFFFFFFFFFFFFFFFFFFFFFFFFFFFFFFFFFFFFF AND MUL OR SWAP1 SSTORE POP PUSH1 0x40 DUP3 ADD MLOAD DUP2 PUSH1 0x2 ADD SSTORE PUSH1 0x60 DUP3 ADD MLOAD DUP2 PUSH1 0x3 ADD SSTORE POP POP POP JUMP JUMPDEST PUSH1 0x0 DUP1 SLOAD SWAP1 PUSH2 0x100 EXP SWAP1 DIV PUSH20 0xFFFFFFFFFFFFFFFFFFFFFFFFFFFFFFFFFFFFFFFF AND PUSH20 0xFFFFFFFFFFFFFFFFFFFFFFFFFFFFFFFFFFFFFFFF AND PUSH4 0x95EA7B3 ADDRESS DUP4 PUSH1 0x40 MLOAD DUP4 PUSH4 0xFFFFFFFF AND PUSH1 0xE0 SHL DUP2 MSTORE PUSH1 0x4 ADD PUSH2 0x700 SWAP3 SWAP2 SWAP1 PUSH2 0x145A JUMP JUMPDEST PUSH1 0x20 PUSH1 0x40 MLOAD DUP1 DUP4 SUB DUP2 PUSH1 0x0 DUP8 GAS CALL ISZERO DUP1 ISZERO PUSH2 0x71F JUMPI RETURNDATASIZE PUSH1 0x0 DUP1 RETURNDATACOPY RETURNDATASIZE PUSH1 0x0 REVERT JUMPDEST POP POP POP POP PUSH1 0x40 MLOAD RETURNDATASIZE PUSH1 0x1F NOT PUSH1 0x1F DUP3 ADD AND DUP3 ADD DUP1 PUSH1 0x40 MSTORE POP DUP2 ADD SWAP1 PUSH2 0x743 SWAP2 SWAP1 PUSH2 0x14BB JUMP JUMPDEST POP POP JUMP JUMPDEST PUSH1 0x60 PUSH1 0x1 DUP1 SLOAD DUP1 PUSH1 0x20 MUL PUSH1 0x20 ADD PUSH1 0x40 MLOAD SWAP1 DUP2 ADD PUSH1 0x40 MSTORE DUP1 SWAP3 SWAP2 SWAP1 DUP2 DUP2 MSTORE PUSH1 0x20 ADD PUSH1 0x0 SWAP1 JUMPDEST DUP3 DUP3 LT ISZERO PUSH2 0x85D JUMPI DUP4 DUP3 SWAP1 PUSH1 0x0 MSTORE PUSH1 0x20 PUSH1 0x0 KECCAK256 SWAP1 PUSH1 0x4 MUL ADD PUSH1 0x40 MLOAD DUP1 PUSH1 0x80 ADD PUSH1 0x40 MSTORE SWAP1 DUP2 PUSH1 0x0 DUP3 ADD PUSH1 0x0 SWAP1 SLOAD SWAP1 PUSH2 0x100 EXP SWAP1 DIV PUSH20 0xFFFFFFFFFFFFFFFFFFFFFFFFFFFFFFFFFFFFFFFF AND PUSH20 0xFFFFFFFFFFFFFFFFFFFFFFFFFFFFFFFFFFFFFFFF AND PUSH20 0xFFFFFFFFFFFFFFFFFFFFFFFFFFFFFFFFFFFFFFFF AND DUP2 MSTORE PUSH1 0x20 ADD PUSH1 0x1 DUP3 ADD PUSH1 0x0 SWAP1 SLOAD SWAP1 PUSH2 0x100 EXP SWAP1 DIV PUSH20 0xFFFFFFFFFFFFFFFFFFFFFFFFFFFFFFFFFFFFFFFF AND PUSH20 0xFFFFFFFFFFFFFFFFFFFFFFFFFFFFFFFFFFFFFFFF AND PUSH20 0xFFFFFFFFFFFFFFFFFFFFFFFFFFFFFFFFFFFFFFFF AND DUP2 MSTORE PUSH1 0x20 ADD PUSH1 0x2 DUP3 ADD SLOAD DUP2 MSTORE PUSH1 0x20 ADD PUSH1 0x3 DUP3 ADD SLOAD DUP2 MSTORE POP POP DUP2 MSTORE PUSH1 0x20 ADD SWAP1 PUSH1 0x1 ADD SWAP1 PUSH2 0x76B JUMP JUMPDEST POP POP POP POP SWAP1 POP SWAP1 JUMP JUMPDEST PUSH1 0x0 DUP1 SLOAD SWAP1 PUSH2 0x100 EXP SWAP1 DIV PUSH20 0xFFFFFFFFFFFFFFFFFFFFFFFFFFFFFFFFFFFFFFFF AND DUP2 JUMP JUMPDEST PUSH1 0x1 DUP2 DUP2 SLOAD DUP2 LT PUSH2 0x89A JUMPI PUSH1 0x0 DUP1 REVERT JUMPDEST SWAP1 PUSH1 0x0 MSTORE PUSH1 0x20 PUSH1 0x0 KECCAK256 SWAP1 PUSH1 0x4 MUL ADD PUSH1 0x0 SWAP2 POP SWAP1 POP DUP1 PUSH1 0x0 ADD PUSH1 0x0 SWAP1 SLOAD SWAP1 PUSH2 0x100 EXP SWAP1 DIV PUSH20 0xFFFFFFFFFFFFFFFFFFFFFFFFFFFFFFFFFFFFFFFF AND SWAP1 DUP1 PUSH1 0x1 ADD PUSH1 0x0 SWAP1 SLOAD SWAP1 PUSH2 0x100 EXP SWAP1 DIV PUSH20 0xFFFFFFFFFFFFFFFFFFFFFFFFFFFFFFFFFFFFFFFF AND SWAP1 DUP1 PUSH1 0x2 ADD SLOAD SWAP1 DUP1 PUSH1 0x3 ADD SLOAD SWAP1 POP DUP5 JUMP JUMPDEST DUP1 PUSH1 0x2 PUSH1 0x0 CALLER PUSH20 0xFFFFFFFFFFFFFFFFFFFFFFFFFFFFFFFFFFFFFFFF AND PUSH20 0xFFFFFFFFFFFFFFFFFFFFFFFFFFFFFFFFFFFFFFFF AND DUP2 MSTORE PUSH1 0x20 ADD SWAP1 DUP2 MSTORE PUSH1 0x20 ADD PUSH1 0x0 KECCAK256 SLOAD LT ISZERO PUSH2 0x98C JUMPI PUSH1 0x40 MLOAD PUSH32 0x8C379A000000000000000000000000000000000000000000000000000000000 DUP2 MSTORE PUSH1 0x4 ADD PUSH2 0x983 SWAP1 PUSH2 0x1406 JUMP JUMPDEST PUSH1 0x40 MLOAD DUP1 SWAP2 SUB SWAP1 REVERT JUMPDEST DUP1 PUSH1 0x2 PUSH1 0x0 CALLER PUSH20 0xFFFFFFFFFFFFFFFFFFFFFFFFFFFFFFFFFFFFFFFF AND PUSH20 0xFFFFFFFFFFFFFFFFFFFFFFFFFFFFFFFFFFFFFFFF AND DUP2 MSTORE PUSH1 0x20 ADD SWAP1 DUP2 MSTORE PUSH1 0x20 ADD PUSH1 0x0 KECCAK256 PUSH1 0x0 DUP3 DUP3 SLOAD PUSH2 0x9DB SWAP2 SWAP1 PUSH2 0x1426 JUMP JUMPDEST SWAP3 POP POP DUP2 SWAP1 SSTORE POP DUP1 PUSH1 0x2 PUSH1 0x0 DUP5 PUSH20 0xFFFFFFFFFFFFFFFFFFFFFFFFFFFFFFFFFFFFFFFF AND PUSH20 0xFFFFFFFFFFFFFFFFFFFFFFFFFFFFFFFFFFFFFFFF AND DUP2 MSTORE PUSH1 0x20 ADD SWAP1 DUP2 MSTORE PUSH1 0x20 ADD PUSH1 0x0 KECCAK256 PUSH1 0x0 DUP3 DUP3 SLOAD PUSH2 0xA31 SWAP2 SWAP1 PUSH2 0x14E8 JUMP JUMPDEST SWAP3 POP POP DUP2 SWAP1 SSTORE POP PUSH1 0x0 DUP1 SLOAD SWAP1 PUSH2 0x100 EXP SWAP1 DIV PUSH20 0xFFFFFFFFFFFFFFFFFFFFFFFFFFFFFFFFFFFFFFFF AND PUSH20 0xFFFFFFFFFFFFFFFFFFFFFFFFFFFFFFFFFFFFFFFF AND PUSH4 0xA9059CBB DUP4 DUP4 PUSH1 0x40 MLOAD DUP4 PUSH4 0xFFFFFFFF AND PUSH1 0xE0 SHL DUP2 MSTORE PUSH1 0x4 ADD PUSH2 0xA93 SWAP3 SWAP2 SWAP1 PUSH2 0x145A JUMP JUMPDEST PUSH1 0x20 PUSH1 0x40 MLOAD DUP1 DUP4 SUB DUP2 PUSH1 0x0 DUP8 GAS CALL ISZERO DUP1 ISZERO PUSH2 0xAB2 JUMPI RETURNDATASIZE PUSH1 0x0 DUP1 RETURNDATACOPY RETURNDATASIZE PUSH1 0x0 REVERT JUMPDEST POP POP POP POP PUSH1 0x40 MLOAD RETURNDATASIZE PUSH1 0x1F NOT PUSH1 0x1F DUP3 ADD AND DUP3 ADD DUP1 PUSH1 0x40 MSTORE POP DUP2 ADD SWAP1 PUSH2 0xAD6 SWAP2 SWAP1 PUSH2 0x14BB JUMP JUMPDEST POP PUSH1 0x1 PUSH1 0x40 MLOAD DUP1 PUSH1 0x80 ADD PUSH1 0x40 MSTORE DUP1 CALLER PUSH20 0xFFFFFFFFFFFFFFFFFFFFFFFFFFFFFFFFFFFFFFFF AND DUP2 MSTORE PUSH1 0x20 ADD DUP5 PUSH20 0xFFFFFFFFFFFFFFFFFFFFFFFFFFFFFFFFFFFFFFFF AND DUP2 MSTORE PUSH1 0x20 ADD DUP4 DUP2 MSTORE PUSH1 0x20 ADD TIMESTAMP DUP2 MSTORE POP SWAP1 DUP1 PUSH1 0x1 DUP2 SLOAD ADD DUP1 DUP3 SSTORE DUP1 SWAP2 POP POP PUSH1 0x1 SWAP1 SUB SWAP1 PUSH1 0x0 MSTORE PUSH1 0x20 PUSH1 0x0 KECCAK256 SWAP1 PUSH1 0x4 MUL ADD PUSH1 0x0 SWAP1 SWAP2 SWAP1 SWAP2 SWAP1 SWAP2 POP PUSH1 0x0 DUP3 ADD MLOAD DUP2 PUSH1 0x0 ADD PUSH1 0x0 PUSH2 0x100 EXP DUP2 SLOAD DUP2 PUSH20 0xFFFFFFFFFFFFFFFFFFFFFFFFFFFFFFFFFFFFFFFF MUL NOT AND SWAP1 DUP4 PUSH20 0xFFFFFFFFFFFFFFFFFFFFFFFFFFFFFFFFFFFFFFFF AND MUL OR SWAP1 SSTORE POP PUSH1 0x20 DUP3 ADD MLOAD DUP2 PUSH1 0x1 ADD PUSH1 0x0 PUSH2 0x100 EXP DUP2 SLOAD DUP2 PUSH20 0xFFFFFFFFFFFFFFFFFFFFFFFFFFFFFFFFFFFFFFFF MUL NOT AND SWAP1 DUP4 PUSH20 0xFFFFFFFFFFFFFFFFFFFFFFFFFFFFFFFFFFFFFFFF AND MUL OR SWAP1 SSTORE POP PUSH1 0x40 DUP3 ADD MLOAD DUP2 PUSH1 0x2 ADD SSTORE PUSH1 0x60 DUP3 ADD MLOAD DUP2 PUSH1 0x3 ADD SSTORE POP POP POP POP JUMP JUMPDEST DUP1 PUSH1 0x0 DUP1 SLOAD SWAP1 PUSH2 0x100 EXP SWAP1 DIV PUSH20 0xFFFFFFFFFFFFFFFFFFFFFFFFFFFFFFFFFFFFFFFF AND PUSH20 0xFFFFFFFFFFFFFFFFFFFFFFFFFFFFFFFFFFFFFFFF AND PUSH4 0xDD62ED3E CALLER ADDRESS PUSH1 0x40 MLOAD DUP4 PUSH4 0xFFFFFFFF AND PUSH1 0xE0 SHL DUP2 MSTORE PUSH1 0x4 ADD PUSH2 0xC53 SWAP3 SWAP2 SWAP1 PUSH2 0x151C JUMP JUMPDEST PUSH1 0x20 PUSH1 0x40 MLOAD DUP1 DUP4 SUB DUP2 DUP7 GAS STATICCALL ISZERO DUP1 ISZERO PUSH2 0xC70 JUMPI RETURNDATASIZE PUSH1 0x0 DUP1 RETURNDATACOPY RETURNDATASIZE PUSH1 0x0 REVERT JUMPDEST POP POP POP POP PUSH1 0x40 MLOAD RETURNDATASIZE PUSH1 0x1F NOT PUSH1 0x1F DUP3 ADD AND DUP3 ADD DUP1 PUSH1 0x40 MSTORE POP DUP2 ADD SWAP1 PUSH2 0xC94 SWAP2 SWAP1 PUSH2 0x155A JUMP JUMPDEST LT ISZERO PUSH2 0xCD5 JUMPI PUSH1 0x40 MLOAD PUSH32 0x8C379A000000000000000000000000000000000000000000000000000000000 DUP2 MSTORE PUSH1 0x4 ADD PUSH2 0xCCC SWAP1 PUSH2 0x15F9 JUMP JUMPDEST PUSH1 0x40 MLOAD DUP1 SWAP2 SUB SWAP1 REVERT JUMPDEST PUSH1 0x0 DUP1 SLOAD SWAP1 PUSH2 0x100 EXP SWAP1 DIV PUSH20 0xFFFFFFFFFFFFFFFFFFFFFFFFFFFFFFFFFFFFFFFF AND PUSH20 0xFFFFFFFFFFFFFFFFFFFFFFFFFFFFFFFFFFFFFFFF AND PUSH4 0x23B872DD CALLER ADDRESS DUP5 PUSH1 0x40 MLOAD DUP5 PUSH4 0xFFFFFFFF AND PUSH1 0xE0 SHL DUP2 MSTORE PUSH1 0x4 ADD PUSH2 0xD32 SWAP4 SWAP3 SWAP2 SWAP1 PUSH2 0x1619 JUMP JUMPDEST PUSH1 0x20 PUSH1 0x40 MLOAD DUP1 DUP4 SUB DUP2 PUSH1 0x0 DUP8 GAS CALL ISZERO DUP1 ISZERO PUSH2 0xD51 JUMPI RETURNDATASIZE PUSH1 0x0 DUP1 RETURNDATACOPY RETURNDATASIZE PUSH1 0x0 REVERT JUMPDEST POP POP POP POP PUSH1 0x40 MLOAD RETURNDATASIZE PUSH1 0x1F NOT PUSH1 0x1F DUP3 ADD AND DUP3 ADD DUP1 PUSH1 0x40 MSTORE POP DUP2 ADD SWAP1 PUSH2 0xD75 SWAP2 SWAP1 PUSH2 0x14BB JUMP JUMPDEST POP DUP1 PUSH1 0x2 PUSH1 0x0 CALLER PUSH20 0xFFFFFFFFFFFFFFFFFFFFFFFFFFFFFFFFFFFFFFFF AND PUSH20 0xFFFFFFFFFFFFFFFFFFFFFFFFFFFFFFFFFFFFFFFF AND DUP2 MSTORE PUSH1 0x20 ADD SWAP1 DUP2 MSTORE PUSH1 0x20 ADD PUSH1 0x0 KECCAK256 PUSH1 0x0 DUP3 DUP3 SLOAD PUSH2 0xDC5 SWAP2 SWAP1 PUSH2 0x14E8 JUMP JUMPDEST SWAP3 POP POP DUP2 SWAP1 SSTORE POP PUSH1 0x1 PUSH1 0x40 MLOAD DUP1 PUSH1 0x80 ADD PUSH1 0x40 MSTORE DUP1 CALLER PUSH20 0xFFFFFFFFFFFFFFFFFFFFFFFFFFFFFFFFFFFFFFFF AND DUP2 MSTORE PUSH1 0x20 ADD ADDRESS PUSH20 0xFFFFFFFFFFFFFFFFFFFFFFFFFFFFFFFFFFFFFFFF AND DUP2 MSTORE PUSH1 0x20 ADD DUP4 DUP2 MSTORE PUSH1 0x20 ADD TIMESTAMP DUP2 MSTORE POP SWAP1 DUP1 PUSH1 0x1 DUP2 SLOAD ADD DUP1 DUP3 SSTORE DUP1 SWAP2 POP POP PUSH1 0x1 SWAP1 SUB SWAP1 PUSH1 0x0 MSTORE PUSH1 0x20 PUSH1 0x0 KECCAK256 SWAP1 PUSH1 0x4 MUL ADD PUSH1 0x0 SWAP1 SWAP2 SWAP1 SWAP2 SWAP1 SWAP2 POP PUSH1 0x0 DUP3 ADD MLOAD DUP2 PUSH1 0x0 ADD PUSH1 0x0 PUSH2 0x100 EXP DUP2 SLOAD DUP2 PUSH20 0xFFFFFFFFFFFFFFFFFFFFFFFFFFFFFFFFFFFFFFFF MUL NOT AND SWAP1 DUP4 PUSH20 0xFFFFFFFFFFFFFFFFFFFFFFFFFFFFFFFFFFFFFFFF AND MUL OR SWAP1 SSTORE POP PUSH1 0x20 DUP3 ADD MLOAD DUP2 PUSH1 0x1 ADD PUSH1 0x0 PUSH2 0x100 EXP DUP2 SLOAD DUP2 PUSH20 0xFFFFFFFFFFFFFFFFFFFFFFFFFFFFFFFFFFFFFFFF MUL NOT AND SWAP1 DUP4 PUSH20 0xFFFFFFFFFFFFFFFFFFFFFFFFFFFFFFFFFFFFFFFF AND MUL OR SWAP1 SSTORE POP PUSH1 0x40 DUP3 ADD MLOAD DUP2 PUSH1 0x2 ADD SSTORE PUSH1 0x60 DUP3 ADD MLOAD DUP2 PUSH1 0x3 ADD SSTORE POP POP POP JUMP JUMPDEST PUSH1 0x40 MLOAD DUP1 PUSH1 0x80 ADD PUSH1 0x40 MSTORE DUP1 PUSH1 0x0 PUSH20 0xFFFFFFFFFFFFFFFFFFFFFFFFFFFFFFFFFFFFFFFF AND DUP2 MSTORE PUSH1 0x20 ADD PUSH1 0x0 PUSH20 0xFFFFFFFFFFFFFFFFFFFFFFFFFFFFFFFFFFFFFFFF AND DUP2 MSTORE PUSH1 0x20 ADD PUSH1 0x0 DUP2 MSTORE PUSH1 0x20 ADD PUSH1 0x0 DUP2 MSTORE POP SWAP1 JUMP JUMPDEST PUSH1 0x0 DUP1 REVERT JUMPDEST PUSH1 0x0 PUSH20 0xFFFFFFFFFFFFFFFFFFFFFFFFFFFFFFFFFFFFFFFF DUP3 AND SWAP1 POP SWAP2 SWAP1 POP JUMP JUMPDEST PUSH1 0x0 PUSH2 0xF6F DUP3 PUSH2 0xF44 JUMP JUMPDEST SWAP1 POP SWAP2 SWAP1 POP JUMP JUMPDEST PUSH2 0xF7F DUP2 PUSH2 0xF64 JUMP JUMPDEST DUP2 EQ PUSH2 0xF8A JUMPI PUSH1 0x0 DUP1 REVERT JUMPDEST POP JUMP JUMPDEST PUSH1 0x0 DUP2 CALLDATALOAD SWAP1 POP PUSH2 0xF9C DUP2 PUSH2 0xF76 JUMP JUMPDEST SWAP3 SWAP2 POP POP JUMP JUMPDEST PUSH1 0x0 PUSH1 0x20 DUP3 DUP5 SUB SLT ISZERO PUSH2 0xFB8 JUMPI PUSH2 0xFB7 PUSH2 0xF3F JUMP JUMPDEST JUMPDEST PUSH1 0x0 PUSH2 0xFC6 DUP5 DUP3 DUP6 ADD PUSH2 0xF8D JUMP JUMPDEST SWAP2 POP POP SWAP3 SWAP2 POP POP JUMP JUMPDEST PUSH1 0x0 DUP2 MLOAD SWAP1 POP SWAP2 SWAP1 POP JUMP JUMPDEST PUSH1 0x0 DUP3 DUP3 MSTORE PUSH1 0x20 DUP3 ADD SWAP1 POP SWAP3 SWAP2 POP POP JUMP JUMPDEST PUSH1 0x0 DUP2 SWAP1 POP PUSH1 0x20 DUP3 ADD SWAP1 POP SWAP2 SWAP1 POP JUMP JUMPDEST PUSH2 0x1004 DUP2 PUSH2 0xF64 JUMP JUMPDEST DUP3 MSTORE POP POP JUMP JUMPDEST PUSH1 0x0 DUP2 SWAP1 POP SWAP2 SWAP1 POP JUMP JUMPDEST PUSH2 0x101D DUP2 PUSH2 0x100A JUMP JUMPDEST DUP3 MSTORE POP POP JUMP JUMPDEST PUSH1 0x80 DUP3 ADD PUSH1 0x0 DUP3 ADD MLOAD PUSH2 0x1039 PUSH1 0x0 DUP6 ADD DUP3 PUSH2 0xFFB JUMP JUMPDEST POP PUSH1 0x20 DUP3 ADD MLOAD PUSH2 0x104C PUSH1 0x20 DUP6 ADD DUP3 PUSH2 0xFFB JUMP JUMPDEST POP PUSH1 0x40 DUP3 ADD MLOAD PUSH2 0x105F PUSH1 0x40 DUP6 ADD DUP3 PUSH2 0x1014 JUMP JUMPDEST POP PUSH1 0x60 DUP3 ADD MLOAD PUSH2 0x1072 PUSH1 0x60 DUP6 ADD DUP3 PUSH2 0x1014 JUMP JUMPDEST POP POP POP POP JUMP JUMPDEST PUSH1 0x0 PUSH2 0x1084 DUP4 DUP4 PUSH2 0x1023 JUMP JUMPDEST PUSH1 0x80 DUP4 ADD SWAP1 POP SWAP3 SWAP2 POP POP JUMP JUMPDEST PUSH1 0x0 PUSH1 0x20 DUP3 ADD SWAP1 POP SWAP2 SWAP1 POP JUMP JUMPDEST PUSH1 0x0 PUSH2 0x10A8 DUP3 PUSH2 0xFCF JUMP JUMPDEST PUSH2 0x10B2 DUP2 DUP6 PUSH2 0xFDA JUMP JUMPDEST SWAP4 POP PUSH2 0x10BD DUP4 PUSH2 0xFEB JUMP JUMPDEST DUP1 PUSH1 0x0 JUMPDEST DUP4 DUP2 LT ISZERO PUSH2 0x10EE JUMPI DUP2 MLOAD PUSH2 0x10D5 DUP9 DUP3 PUSH2 0x1078 JUMP JUMPDEST SWAP8 POP PUSH2 0x10E0 DUP4 PUSH2 0x1090 JUMP JUMPDEST SWAP3 POP POP PUSH1 0x1 DUP2 ADD SWAP1 POP PUSH2 0x10C1 JUMP JUMPDEST POP DUP6 SWAP4 POP POP POP POP SWAP3 SWAP2 POP POP JUMP JUMPDEST PUSH1 0x0 PUSH1 0x20 DUP3 ADD SWAP1 POP DUP2 DUP2 SUB PUSH1 0x0 DUP4 ADD MSTORE PUSH2 0x1115 DUP2 DUP5 PUSH2 0x109D JUMP JUMPDEST SWAP1 POP SWAP3 SWAP2 POP POP JUMP JUMPDEST PUSH2 0x1126 DUP2 PUSH2 0x100A JUMP JUMPDEST DUP3 MSTORE POP POP JUMP JUMPDEST PUSH1 0x0 PUSH1 0x20 DUP3 ADD SWAP1 POP PUSH2 0x1141 PUSH1 0x0 DUP4 ADD DUP5 PUSH2 0x111D JUMP JUMPDEST SWAP3 SWAP2 POP POP JUMP JUMPDEST PUSH2 0x1150 DUP2 PUSH2 0x100A JUMP JUMPDEST DUP2 EQ PUSH2 0x115B JUMPI PUSH1 0x0 DUP1 REVERT JUMPDEST POP JUMP JUMPDEST PUSH1 0x0 DUP2 CALLDATALOAD SWAP1 POP PUSH2 0x116D DUP2 PUSH2 0x1147 JUMP JUMPDEST SWAP3 SWAP2 POP POP JUMP JUMPDEST PUSH1 0x0 PUSH1 0x20 DUP3 DUP5 SUB SLT ISZERO PUSH2 0x1189 JUMPI PUSH2 0x1188 PUSH2 0xF3F JUMP JUMPDEST JUMPDEST PUSH1 0x0 PUSH2 0x1197 DUP5 DUP3 DUP6 ADD PUSH2 0x115E JUMP JUMPDEST SWAP2 POP POP SWAP3 SWAP2 POP POP JUMP JUMPDEST PUSH1 0x0 DUP2 SWAP1 POP SWAP2 SWAP1 POP JUMP JUMPDEST PUSH1 0x0 PUSH2 0x11C5 PUSH2 0x11C0 PUSH2 0x11BB DUP5 PUSH2 0xF44 JUMP JUMPDEST PUSH2 0x11A0 JUMP JUMPDEST PUSH2 0xF44 JUMP JUMPDEST SWAP1 POP SWAP2 SWAP1 POP JUMP JUMPDEST PUSH1 0x0 PUSH2 0x11D7 DUP3 PUSH2 0x11AA JUMP JUMPDEST SWAP1 POP SWAP2 SWAP1 POP JUMP JUMPDEST PUSH1 0x0 PUSH2 0x11E9 DUP3 PUSH2 0x11CC JUMP JUMPDEST SWAP1 POP SWAP2 SWAP1 POP JUMP JUMPDEST PUSH2 0x11F9 DUP2 PUSH2 0x11DE JUMP JUMPDEST DUP3 MSTORE POP POP JUMP JUMPDEST PUSH1 0x0 PUSH1 0x20 DUP3 ADD SWAP1 POP PUSH2 0x1214 PUSH1 0x0 DUP4 ADD DUP5 PUSH2 0x11F0 JUMP JUMPDEST SWAP3 SWAP2 POP POP JUMP JUMPDEST PUSH2 0x1223 DUP2 PUSH2 0xF64 JUMP JUMPDEST DUP3 MSTORE POP POP JUMP JUMPDEST PUSH1 0x0 PUSH1 0x80 DUP3 ADD SWAP1 POP PUSH2 0x123E PUSH1 0x0 DUP4 ADD DUP8 PUSH2 0x121A JUMP JUMPDEST PUSH2 0x124B PUSH1 0x20 DUP4 ADD DUP7 PUSH2 0x121A JUMP JUMPDEST PUSH2 0x1258 PUSH1 0x40 DUP4 ADD DUP6 PUSH2 0x111D JUMP JUMPDEST PUSH2 0x1265 PUSH1 0x60 DUP4 ADD DUP5 PUSH2 0x111D JUMP JUMPDEST SWAP6 SWAP5 POP POP POP POP POP JUMP JUMPDEST PUSH1 0x0 DUP1 PUSH1 0x40 DUP4 DUP6 SUB SLT ISZERO PUSH2 0x1285 JUMPI PUSH2 0x1284 PUSH2 0xF3F JUMP JUMPDEST JUMPDEST PUSH1 0x0 PUSH2 0x1293 DUP6 DUP3 DUP7 ADD PUSH2 0xF8D JUMP JUMPDEST SWAP3 POP POP PUSH1 0x20 PUSH2 0x12A4 DUP6 DUP3 DUP7 ADD PUSH2 0x115E JUMP JUMPDEST SWAP2 POP POP SWAP3 POP SWAP3 SWAP1 POP JUMP JUMPDEST PUSH32 0x4E487B7100000000000000000000000000000000000000000000000000000000 PUSH1 0x0 MSTORE PUSH1 0x41 PUSH1 0x4 MSTORE PUSH1 0x24 PUSH1 0x0 REVERT JUMPDEST PUSH32 0x4E487B7100000000000000000000000000000000000000000000000000000000 PUSH1 0x0 MSTORE PUSH1 0x32 PUSH1 0x4 MSTORE PUSH1 0x24 PUSH1 0x0 REVERT JUMPDEST PUSH32 0x4E487B7100000000000000000000000000000000000000000000000000000000 PUSH1 0x0 MSTORE PUSH1 0x11 PUSH1 0x4 MSTORE PUSH1 0x24 PUSH1 0x0 REVERT JUMPDEST PUSH1 0x0 PUSH2 0x1346 DUP3 PUSH2 0x100A JUMP JUMPDEST SWAP2 POP PUSH32 0xFFFFFFFFFFFFFFFFFFFFFFFFFFFFFFFFFFFFFFFFFFFFFFFFFFFFFFFFFFFFFFFF DUP3 SUB PUSH2 0x1378 JUMPI PUSH2 0x1377 PUSH2 0x130C JUMP JUMPDEST JUMPDEST PUSH1 0x1 DUP3 ADD SWAP1 POP SWAP2 SWAP1 POP JUMP JUMPDEST PUSH1 0x0 DUP3 DUP3 MSTORE PUSH1 0x20 DUP3 ADD SWAP1 POP SWAP3 SWAP2 POP POP JUMP JUMPDEST PUSH32 0x43616B65436F6E74726163743A20496E73756666696369656E742062616C616E PUSH1 0x0 DUP3 ADD MSTORE PUSH32 0x6365000000000000000000000000000000000000000000000000000000000000 PUSH1 0x20 DUP3 ADD MSTORE POP JUMP JUMPDEST PUSH1 0x0 PUSH2 0x13F0 PUSH1 0x22 DUP4 PUSH2 0x1383 JUMP JUMPDEST SWAP2 POP PUSH2 0x13FB DUP3 PUSH2 0x1394 JUMP JUMPDEST PUSH1 0x40 DUP3 ADD SWAP1 POP SWAP2 SWAP1 POP JUMP JUMPDEST PUSH1 0x0 PUSH1 0x20 DUP3 ADD SWAP1 POP DUP2 DUP2 SUB PUSH1 0x0 DUP4 ADD MSTORE PUSH2 0x141F DUP2 PUSH2 0x13E3 JUMP JUMPDEST SWAP1 POP SWAP2 SWAP1 POP JUMP JUMPDEST PUSH1 0x0 PUSH2 0x1431 DUP3 PUSH2 0x100A JUMP JUMPDEST SWAP2 POP PUSH2 0x143C DUP4 PUSH2 0x100A JUMP JUMPDEST SWAP3 POP DUP3 DUP3 SUB SWAP1 POP DUP2 DUP2 GT ISZERO PUSH2 0x1454 JUMPI PUSH2 0x1453 PUSH2 0x130C JUMP JUMPDEST JUMPDEST SWAP3 SWAP2 POP POP JUMP JUMPDEST PUSH1 0x0 PUSH1 0x40 DUP3 ADD SWAP1 POP PUSH2 0x146F PUSH1 0x0 DUP4 ADD DUP6 PUSH2 0x121A JUMP JUMPDEST PUSH2 0x147C PUSH1 0x20 DUP4 ADD DUP5 PUSH2 0x111D JUMP JUMPDEST SWAP4 SWAP3 POP POP POP JUMP JUMPDEST PUSH1 0x0 DUP2 ISZERO ISZERO SWAP1 POP SWAP2 SWAP1 POP JUMP JUMPDEST PUSH2 0x1498 DUP2 PUSH2 0x1483 JUMP JUMPDEST DUP2 EQ PUSH2 0x14A3 JUMPI PUSH1 0x0 DUP1 REVERT JUMPDEST POP JUMP JUMPDEST PUSH1 0x0 DUP2 MLOAD SWAP1 POP PUSH2 0x14B5 DUP2 PUSH2 0x148F JUMP JUMPDEST SWAP3 SWAP2 POP POP JUMP JUMPDEST PUSH1 0x0 PUSH1 0x20 DUP3 DUP5 SUB SLT ISZERO PUSH2 0x14D1 JUMPI PUSH2 0x14D0 PUSH2 0xF3F JUMP JUMPDEST JUMPDEST PUSH1 0x0 PUSH2 0x14DF DUP5 DUP3 DUP6 ADD PUSH2 0x14A6 JUMP JUMPDEST SWAP2 POP POP SWAP3 SWAP2 POP POP JUMP JUMPDEST PUSH1 0x0 PUSH2 0x14F3 DUP3 PUSH2 0x100A JUMP JUMPDEST SWAP2 POP PUSH2 0x14FE DUP4 PUSH2 0x100A JUMP JUMPDEST SWAP3 POP DUP3 DUP3 ADD SWAP1 POP DUP1 DUP3 GT ISZERO PUSH2 0x1516 JUMPI PUSH2 0x1515 PUSH2 0x130C JUMP JUMPDEST JUMPDEST SWAP3 SWAP2 POP POP JUMP JUMPDEST PUSH1 0x0 PUSH1 0x40 DUP3 ADD SWAP1 POP PUSH2 0x1531 PUSH1 0x0 DUP4 ADD DUP6 PUSH2 0x121A JUMP JUMPDEST PUSH2 0x153E PUSH1 0x20 DUP4 ADD DUP5 PUSH2 0x121A JUMP JUMPDEST SWAP4 SWAP3 POP POP POP JUMP JUMPDEST PUSH1 0x0 DUP2 MLOAD SWAP1 POP PUSH2 0x1554 DUP2 PUSH2 0x1147 JUMP JUMPDEST SWAP3 SWAP2 POP POP JUMP JUMPDEST PUSH1 0x0 PUSH1 0x20 DUP3 DUP5 SUB SLT ISZERO PUSH2 0x1570 JUMPI PUSH2 0x156F PUSH2 0xF3F JUMP JUMPDEST JUMPDEST PUSH1 0x0 PUSH2 0x157E DUP5 DUP3 DUP6 ADD PUSH2 0x1545 JUMP JUMPDEST SWAP2 POP POP SWAP3 SWAP2 POP POP JUMP JUMPDEST PUSH32 0x43616B65436F6E74726163743A20416C6C6F77616E6365206E6F7420656E6F75 PUSH1 0x0 DUP3 ADD MSTORE PUSH32 0x6768000000000000000000000000000000000000000000000000000000000000 PUSH1 0x20 DUP3 ADD MSTORE POP JUMP JUMPDEST PUSH1 0x0 PUSH2 0x15E3 PUSH1 0x22 DUP4 PUSH2 0x1383 JUMP JUMPDEST SWAP2 POP PUSH2 0x15EE DUP3 PUSH2 0x1587 JUMP JUMPDEST PUSH1 0x40 DUP3 ADD SWAP1 POP SWAP2 SWAP1 POP JUMP JUMPDEST PUSH1 0x0 PUSH1 0x20 DUP3 ADD SWAP1 POP DUP2 DUP2 SUB PUSH1 0x0 DUP4 ADD MSTORE PUSH2 0x1612 DUP2 PUSH2 0x15D6 JUMP JUMPDEST SWAP1 POP SWAP2 SWAP1 POP JUMP JUMPDEST PUSH1 0x0 PUSH1 0x60 DUP3 ADD SWAP1 POP PUSH2 0x162E PUSH1 0x0 DUP4 ADD DUP7 PUSH2 0x121A JUMP JUMPDEST PUSH2 0x163B PUSH1 0x20 DUP4 ADD DUP6 PUSH2 0x121A JUMP JUMPDEST PUSH2 0x1648 PUSH1 0x40 DUP4 ADD DUP5 PUSH2 0x111D JUMP JUMPDEST SWAP5 SWAP4 POP POP POP POP JUMP INVALID LOG2 PUSH5 0x6970667358 0x22 SLT KECCAK256 CHAINID PUSH29 0x1ABDAA070D90E425E40ECF5F71E14A87CA0160719FEEF01210321B5ED4 SWAP7 PUSH5 0x736F6C6343 STOP ADDMOD SLT STOP CALLER "
				},
				"gasEstimates": {
					"creation": {
						"codeDepositCost": "1153200",
						"executionCost": "infinite",
						"totalCost": "infinite"
					},
					"external": {
						"approveToken(uint256)": "infinite",
						"balances(address)": "2837",
						"cakeToken()": "infinite",
						"deposit(uint256)": "infinite",
						"getTransactions()": "infinite",
						"getTransactionsByAddress(address)": "infinite",
						"transactions(uint256)": "infinite",
						"transfer(address,uint256)": "infinite",
						"withdraw(uint256)": "infinite"
					}
				},
				"methodIdentifiers": {
					"approveToken(uint256)": "3ac9fc11",
					"balances(address)": "27e235e3",
					"cakeToken()": "8904bf2f",
					"deposit(uint256)": "b6b55f25",
					"getTransactions()": "83920e90",
					"getTransactionsByAddress(address)": "0947b4dc",
					"transactions(uint256)": "9ace38c2",
					"transfer(address,uint256)": "a9059cbb",
					"withdraw(uint256)": "2e1a7d4d"
				}
			},
			"storageLayout": {
				"storage": [
					{
						"astId": 106,
						"contract": "CakeContract.sol:CakeContract",
						"label": "cakeToken",
						"offset": 0,
						"slot": "0",
						"type": "t_contract(IBEP20)100"
					},
					{
						"astId": 119,
						"contract": "CakeContract.sol:CakeContract",
						"label": "transactions",
						"offset": 0,
						"slot": "1",
						"type": "t_array(t_struct(Transaction)115_storage)dyn_storage"
					},
					{
						"astId": 123,
						"contract": "CakeContract.sol:CakeContract",
						"label": "balances",
						"offset": 0,
						"slot": "2",
						"type": "t_mapping(t_address,t_uint256)"
					}
				],
				"types": {
					"t_address": {
						"encoding": "inplace",
						"label": "address",
						"numberOfBytes": "20"
					},
					"t_array(t_struct(Transaction)115_storage)dyn_storage": {
						"base": "t_struct(Transaction)115_storage",
						"encoding": "dynamic_array",
						"label": "struct CakeContract.Transaction[]",
						"numberOfBytes": "32"
					},
					"t_contract(IBEP20)100": {
						"encoding": "inplace",
						"label": "contract IBEP20",
						"numberOfBytes": "20"
					},
					"t_mapping(t_address,t_uint256)": {
						"encoding": "mapping",
						"key": "t_address",
						"label": "mapping(address => uint256)",
						"numberOfBytes": "32",
						"value": "t_uint256"
					},
					"t_struct(Transaction)115_storage": {
						"encoding": "inplace",
						"label": "struct CakeContract.Transaction",
						"members": [
							{
								"astId": 108,
								"contract": "CakeContract.sol:CakeContract",
								"label": "sender",
								"offset": 0,
								"slot": "0",
								"type": "t_address"
							},
							{
								"astId": 110,
								"contract": "CakeContract.sol:CakeContract",
								"label": "recipient",
								"offset": 0,
								"slot": "1",
								"type": "t_address"
							},
							{
								"astId": 112,
								"contract": "CakeContract.sol:CakeContract",
								"label": "amount",
								"offset": 0,
								"slot": "2",
								"type": "t_uint256"
							},
							{
								"astId": 114,
								"contract": "CakeContract.sol:CakeContract",
								"label": "timestamp",
								"offset": 0,
								"slot": "3",
								"type": "t_uint256"
							}
						],
						"numberOfBytes": "128"
					},
					"t_uint256": {
						"encoding": "inplace",
						"label": "uint256",
						"numberOfBytes": "32"
					}
				}
			},
			"userdoc": {
				"kind": "user",
				"methods": {},
				"version": 1
			}
		}
	}
}