{
	"MGAS/BEP20TokenImplementation.sol": {
		"BEP20TokenImplementation": {
			"abi": [
				{
					"inputs": [],
					"stateMutability": "nonpayable",
					"type": "constructor"
				},
				{
					"anonymous": false,
					"inputs": [
						{
							"indexed": true,
							"internalType": "address",
							"name": "owner",
							"type": "address"
						},
						{
							"indexed": true,
							"internalType": "address",
							"name": "spender",
							"type": "address"
						},
						{
							"indexed": false,
							"internalType": "uint256",
							"name": "value",
							"type": "uint256"
						}
					],
					"name": "Approval",
					"type": "event"
				},
				{
					"anonymous": false,
					"inputs": [
						{
							"indexed": true,
							"internalType": "address",
							"name": "previousOwner",
							"type": "address"
						},
						{
							"indexed": true,
							"internalType": "address",
							"name": "newOwner",
							"type": "address"
						}
					],
					"name": "OwnershipTransferred",
					"type": "event"
				},
				{
					"anonymous": false,
					"inputs": [
						{
							"indexed": true,
							"internalType": "address",
							"name": "from",
							"type": "address"
						},
						{
							"indexed": true,
							"internalType": "address",
							"name": "to",
							"type": "address"
						},
						{
							"indexed": false,
							"internalType": "uint256",
							"name": "value",
							"type": "uint256"
						}
					],
					"name": "Transfer",
					"type": "event"
				},
				{
					"inputs": [
						{
							"internalType": "address",
							"name": "owner",
							"type": "address"
						},
						{
							"internalType": "address",
							"name": "spender",
							"type": "address"
						}
					],
					"name": "allowance",
					"outputs": [
						{
							"internalType": "uint256",
							"name": "",
							"type": "uint256"
						}
					],
					"stateMutability": "view",
					"type": "function"
				},
				{
					"inputs": [
						{
							"internalType": "address",
							"name": "spender",
							"type": "address"
						},
						{
							"internalType": "uint256",
							"name": "amount",
							"type": "uint256"
						}
					],
					"name": "approve",
					"outputs": [
						{
							"internalType": "bool",
							"name": "",
							"type": "bool"
						}
					],
					"stateMutability": "nonpayable",
					"type": "function"
				},
				{
					"inputs": [
						{
							"internalType": "address",
							"name": "account",
							"type": "address"
						}
					],
					"name": "balanceOf",
					"outputs": [
						{
							"internalType": "uint256",
							"name": "",
							"type": "uint256"
						}
					],
					"stateMutability": "view",
					"type": "function"
				},
				{
					"inputs": [
						{
							"internalType": "uint256",
							"name": "amount",
							"type": "uint256"
						}
					],
					"name": "burn",
					"outputs": [
						{
							"internalType": "bool",
							"name": "",
							"type": "bool"
						}
					],
					"stateMutability": "nonpayable",
					"type": "function"
				},
				{
					"inputs": [],
					"name": "decimals",
					"outputs": [
						{
							"internalType": "uint8",
							"name": "",
							"type": "uint8"
						}
					],
					"stateMutability": "view",
					"type": "function"
				},
				{
					"inputs": [
						{
							"internalType": "address",
							"name": "spender",
							"type": "address"
						},
						{
							"internalType": "uint256",
							"name": "subtractedValue",
							"type": "uint256"
						}
					],
					"name": "decreaseAllowance",
					"outputs": [
						{
							"internalType": "bool",
							"name": "",
							"type": "bool"
						}
					],
					"stateMutability": "nonpayable",
					"type": "function"
				},
				{
					"inputs": [
						{
							"internalType": "uint256",
							"name": "_tokenAmount",
							"type": "uint256"
						}
					],
					"name": "getETHValue",
					"outputs": [
						{
							"internalType": "uint256",
							"name": "ethValue",
							"type": "uint256"
						}
					],
					"stateMutability": "view",
					"type": "function"
				},
				{
					"inputs": [],
					"name": "getOwner",
					"outputs": [
						{
							"internalType": "address",
							"name": "",
							"type": "address"
						}
					],
					"stateMutability": "view",
					"type": "function"
				},
				{
					"inputs": [
						{
							"internalType": "address",
							"name": "spender",
							"type": "address"
						},
						{
							"internalType": "uint256",
							"name": "addedValue",
							"type": "uint256"
						}
					],
					"name": "increaseAllowance",
					"outputs": [
						{
							"internalType": "bool",
							"name": "",
							"type": "bool"
						}
					],
					"stateMutability": "nonpayable",
					"type": "function"
				},
				{
					"inputs": [
						{
							"internalType": "uint256",
							"name": "amount",
							"type": "uint256"
						}
					],
					"name": "mint",
					"outputs": [
						{
							"internalType": "bool",
							"name": "",
							"type": "bool"
						}
					],
					"stateMutability": "nonpayable",
					"type": "function"
				},
				{
					"inputs": [
						{
							"internalType": "uint256",
							"name": "amount",
							"type": "uint256"
						},
						{
							"internalType": "address",
							"name": "recipient",
							"type": "address"
						}
					],
					"name": "mintTo",
					"outputs": [
						{
							"internalType": "bool",
							"name": "",
							"type": "bool"
						}
					],
					"stateMutability": "nonpayable",
					"type": "function"
				},
				{
					"inputs": [],
					"name": "mintable",
					"outputs": [
						{
							"internalType": "bool",
							"name": "",
							"type": "bool"
						}
					],
					"stateMutability": "view",
					"type": "function"
				},
				{
					"inputs": [],
					"name": "name",
					"outputs": [
						{
							"internalType": "string",
							"name": "",
							"type": "string"
						}
					],
					"stateMutability": "view",
					"type": "function"
				},
				{
					"inputs": [],
					"name": "pricePerToken",
					"outputs": [
						{
							"internalType": "uint256",
							"name": "",
							"type": "uint256"
						}
					],
					"stateMutability": "view",
					"type": "function"
				},
				{
					"inputs": [],
					"name": "renounceOwnership",
					"outputs": [],
					"stateMutability": "nonpayable",
					"type": "function"
				},
				{
					"inputs": [],
					"name": "symbol",
					"outputs": [
						{
							"internalType": "string",
							"name": "",
							"type": "string"
						}
					],
					"stateMutability": "view",
					"type": "function"
				},
				{
					"inputs": [],
					"name": "totalSupply",
					"outputs": [
						{
							"internalType": "uint256",
							"name": "",
							"type": "uint256"
						}
					],
					"stateMutability": "view",
					"type": "function"
				},
				{
					"inputs": [
						{
							"internalType": "address",
							"name": "recipient",
							"type": "address"
						},
						{
							"internalType": "uint256",
							"name": "amount",
							"type": "uint256"
						}
					],
					"name": "transfer",
					"outputs": [
						{
							"internalType": "bool",
							"name": "",
							"type": "bool"
						}
					],
					"stateMutability": "nonpayable",
					"type": "function"
				},
				{
					"inputs": [
						{
							"internalType": "address",
							"name": "sender",
							"type": "address"
						},
						{
							"internalType": "address",
							"name": "recipient",
							"type": "address"
						},
						{
							"internalType": "uint256",
							"name": "amount",
							"type": "uint256"
						}
					],
					"name": "transferFrom",
					"outputs": [
						{
							"internalType": "bool",
							"name": "",
							"type": "bool"
						}
					],
					"stateMutability": "nonpayable",
					"type": "function"
				},
				{
					"inputs": [
						{
							"internalType": "address",
							"name": "newOwner",
							"type": "address"
						}
					],
					"name": "transferOwnership",
					"outputs": [],
					"stateMutability": "nonpayable",
					"type": "function"
				}
			],
			"devdoc": {
				"events": {
					"Approval(address,address,uint256)": {
						"details": "Emitted when the allowance of a `spender` for an `owner` is set by a call to {approve}. `value` is the new allowance."
					},
					"Transfer(address,address,uint256)": {
						"details": "Emitted when `value` tokens are moved from one account (`from`) to another (`to`). Note that `value` may be zero."
					}
				},
				"kind": "dev",
				"methods": {
					"allowance(address,address)": {
						"details": "See {BEP20-allowance}."
					},
					"approve(address,uint256)": {
						"details": "See {BEP20-approve}. Requirements: - `spender` cannot be the zero address."
					},
					"balanceOf(address)": {
						"details": "See {BEP20-balanceOf}."
					},
					"burn(uint256)": {
						"details": "Burn `amount` tokens and decreasing the total supply."
					},
					"decimals()": {
						"details": "Returns the token decimals."
					},
					"decreaseAllowance(address,uint256)": {
						"details": "Atomically decreases the allowance granted to `spender` by the caller. This is an alternative to {approve} that can be used as a mitigation for problems described in {BEP20-approve}. Emits an {Approval} event indicating the updated allowance. Requirements: - `spender` cannot be the zero address. - `spender` must have allowance for the caller of at least `subtractedValue`."
					},
					"getOwner()": {
						"details": "Returns the bep token owner."
					},
					"increaseAllowance(address,uint256)": {
						"details": "Atomically increases the allowance granted to `spender` by the caller. This is an alternative to {approve} that can be used as a mitigation for problems described in {BEP20-approve}. Emits an {Approval} event indicating the updated allowance. Requirements: - `spender` cannot be the zero address."
					},
					"mint(uint256)": {
						"details": "Creates `amount` tokens and assigns them to `msg.sender`, increasing the total supply. Requirements - `msg.sender` must be the token owner - `_mintable` must be true"
					},
					"mintTo(uint256,address)": {
						"details": "Creates `amount` tokens and assigns them to `recipient`, increasing the total supply. Requirements - `msg.sender` must be the token owner - `_mintable` must be true"
					},
					"mintable()": {
						"details": "Returns if the token is mintable or not"
					},
					"name()": {
						"details": "Returns the token name."
					},
					"renounceOwnership()": {
						"details": "Leaves the contract without owner. It will not be possible to call `onlyOwner` functions anymore. Can only be called by the current owner. NOTE: Renouncing ownership will leave the contract without an owner, thereby removing any functionality that is only available to the owner."
					},
					"symbol()": {
						"details": "Returns the token symbol."
					},
					"totalSupply()": {
						"details": "See {BEP20-totalSupply}."
					},
					"transfer(address,uint256)": {
						"details": "See {BEP20-transfer}. Requirements: - `recipient` cannot be the zero address. - the caller must have a balance of at least `amount`."
					},
					"transferFrom(address,address,uint256)": {
						"details": "See {BEP20-transferFrom}. Emits an {Approval} event indicating the updated allowance. This is not required by the EIP. See the note at the beginning of {BEP20}; Requirements: - `sender` and `recipient` cannot be the zero address. - `sender` must have a balance of at least `amount`. - the caller must have allowance for `sender`'s tokens of at least `amount`."
					},
					"transferOwnership(address)": {
						"details": "Transfers ownership of the contract to a new account (`newOwner`). Can only be called by the current owner."
					}
				},
				"version": 1
			},
			"evm": {
				"assembly": "    /* \"MGAS/BEP20TokenImplementation.sol\":216:11419  contract BEP20TokenImplementation is Context, IBEP20, ISwap, Initializable {... */\n  mstore(0x40, 0x80)\n    /* \"MGAS/BEP20TokenImplementation.sol\":493:520  100000000000000000000000000 */\n  0x52b7d2dcc80cd2e4000000\n    /* \"MGAS/BEP20TokenImplementation.sol\":462:520  uint256 private _totalSupply = 100000000000000000000000000 */\n  0x03\n  sstore\n    /* \"MGAS/BEP20TokenImplementation.sol\":527:556  string private _name = \"MGAS\" */\n  mload(0x40)\n  dup1\n  0x40\n  add\n  0x40\n  mstore\n  dup1\n  0x04\n  dup2\n  mstore\n  0x20\n  add\n  0x4d47415300000000000000000000000000000000000000000000000000000000\n  dup2\n  mstore\n  pop\n  0x04\n  swap1\n  dup2\n  tag_1\n  swap2\n  swap1\n  tag_2\n  jump\t// in\ntag_1:\n  pop\n    /* \"MGAS/BEP20TokenImplementation.sol\":563:594  string private _symbol = \"MGAS\" */\n  mload(0x40)\n  dup1\n  0x40\n  add\n  0x40\n  mstore\n  dup1\n  0x04\n  dup2\n  mstore\n  0x20\n  add\n  0x4d47415300000000000000000000000000000000000000000000000000000000\n  dup2\n  mstore\n  pop\n  0x05\n  swap1\n  dup2\n  tag_3\n  swap2\n  swap1\n  tag_2\n  jump\t// in\ntag_3:\n  pop\n    /* \"MGAS/BEP20TokenImplementation.sol\":627:629  18 */\n  0x12\n    /* \"MGAS/BEP20TokenImplementation.sol\":601:629  uint8 private _decimals = 18 */\n  0x06\n  exp(0x0100, 0x00)\n  dup2\n  sload\n  dup2\n  0xff\n  mul\n  not\n  and\n  swap1\n  dup4\n  0xff\n  and\n  mul\n  or\n  swap1\n  sstore\n  pop\n    /* \"MGAS/BEP20TokenImplementation.sol\":699:741  0xCEd67D1115F1503e6dE2464C378f446b2bD8298C */\n  0xced67d1115f1503e6de2464c378f446b2bd8298c\n    /* \"MGAS/BEP20TokenImplementation.sol\":674:741  address private _owner = 0xCEd67D1115F1503e6dE2464C378f446b2bD8298C */\n  0x08\n  exp(0x0100, 0x00)\n  dup2\n  sload\n  dup2\n  0xffffffffffffffffffffffffffffffffffffffff\n  mul\n  not\n  and\n  swap1\n  dup4\n  0xffffffffffffffffffffffffffffffffffffffff\n  and\n  mul\n  or\n  swap1\n  sstore\n  pop\n    /* \"MGAS/BEP20TokenImplementation.sol\":871:969  constructor()  {... */\n  callvalue\n  dup1\n  iszero\n  tag_4\n  jumpi\n  0x00\n  dup1\n  revert\ntag_4:\n  pop\n    /* \"MGAS/BEP20TokenImplementation.sol\":921:933  _totalSupply */\n  sload(0x03)\n    /* \"MGAS/BEP20TokenImplementation.sol\":897:906  _balances */\n  0x01\n    /* \"MGAS/BEP20TokenImplementation.sol\":897:918  _balances[msg.sender] */\n  0x00\n    /* \"MGAS/BEP20TokenImplementation.sol\":907:917  msg.sender */\n  caller\n    /* \"MGAS/BEP20TokenImplementation.sol\":897:918  _balances[msg.sender] */\n  0xffffffffffffffffffffffffffffffffffffffff\n  and\n  0xffffffffffffffffffffffffffffffffffffffff\n  and\n  dup2\n  mstore\n  0x20\n  add\n  swap1\n  dup2\n  mstore\n  0x20\n  add\n  0x00\n  keccak256\n    /* \"MGAS/BEP20TokenImplementation.sol\":897:933  _balances[msg.sender] = _totalSupply */\n  dup2\n  swap1\n  sstore\n  pop\n    /* \"MGAS/BEP20TokenImplementation.sol\":960:961  5 */\n  0x05\n    /* \"MGAS/BEP20TokenImplementation.sol\":944:957  pricePerToken */\n  0x07\n    /* \"MGAS/BEP20TokenImplementation.sol\":944:961  pricePerToken = 5 */\n  dup2\n  swap1\n  sstore\n  pop\n    /* \"MGAS/BEP20TokenImplementation.sol\":216:11419  contract BEP20TokenImplementation is Context, IBEP20, ISwap, Initializable {... */\n  jump(tag_7)\n    /* \"#utility.yul\":7:106   */\ntag_8:\n    /* \"#utility.yul\":59:65   */\n  0x00\n    /* \"#utility.yul\":93:98   */\n  dup2\n    /* \"#utility.yul\":87:99   */\n  mload\n    /* \"#utility.yul\":77:99   */\n  swap1\n  pop\n    /* \"#utility.yul\":7:106   */\n  swap2\n  swap1\n  pop\n  jump\t// out\n    /* \"#utility.yul\":112:292   */\ntag_9:\n    /* \"#utility.yul\":160:237   */\n  0x4e487b7100000000000000000000000000000000000000000000000000000000\n    /* \"#utility.yul\":157:158   */\n  0x00\n    /* \"#utility.yul\":150:238   */\n  mstore\n    /* \"#utility.yul\":257:261   */\n  0x41\n    /* \"#utility.yul\":254:255   */\n  0x04\n    /* \"#utility.yul\":247:262   */\n  mstore\n    /* \"#utility.yul\":281:285   */\n  0x24\n    /* \"#utility.yul\":278:279   */\n  0x00\n    /* \"#utility.yul\":271:286   */\n  revert\n    /* \"#utility.yul\":298:478   */\ntag_10:\n    /* \"#utility.yul\":346:423   */\n  0x4e487b7100000000000000000000000000000000000000000000000000000000\n    /* \"#utility.yul\":343:344   */\n  0x00\n    /* \"#utility.yul\":336:424   */\n  mstore\n    /* \"#utility.yul\":443:447   */\n  0x22\n    /* \"#utility.yul\":440:441   */\n  0x04\n    /* \"#utility.yul\":433:448   */\n  mstore\n    /* \"#utility.yul\":467:471   */\n  0x24\n    /* \"#utility.yul\":464:465   */\n  0x00\n    /* \"#utility.yul\":457:472   */\n  revert\n    /* \"#utility.yul\":484:804   */\ntag_11:\n    /* \"#utility.yul\":528:534   */\n  0x00\n    /* \"#utility.yul\":565:566   */\n  0x02\n    /* \"#utility.yul\":559:563   */\n  dup3\n    /* \"#utility.yul\":555:567   */\n  div\n    /* \"#utility.yul\":545:567   */\n  swap1\n  pop\n    /* \"#utility.yul\":612:613   */\n  0x01\n    /* \"#utility.yul\":606:610   */\n  dup3\n    /* \"#utility.yul\":602:614   */\n  and\n    /* \"#utility.yul\":633:651   */\n  dup1\n    /* \"#utility.yul\":623:704   */\n  tag_33\n  jumpi\n    /* \"#utility.yul\":689:693   */\n  0x7f\n    /* \"#utility.yul\":681:687   */\n  dup3\n    /* \"#utility.yul\":677:694   */\n  and\n    /* \"#utility.yul\":667:694   */\n  swap2\n  pop\n    /* \"#utility.yul\":623:704   */\ntag_33:\n    /* \"#utility.yul\":751:753   */\n  0x20\n    /* \"#utility.yul\":743:749   */\n  dup3\n    /* \"#utility.yul\":740:754   */\n  lt\n    /* \"#utility.yul\":720:738   */\n  dup2\n    /* \"#utility.yul\":717:755   */\n  sub\n    /* \"#utility.yul\":714:798   */\n  tag_34\n  jumpi\n    /* \"#utility.yul\":770:788   */\n  tag_35\n  tag_10\n  jump\t// in\ntag_35:\n    /* \"#utility.yul\":714:798   */\ntag_34:\n    /* \"#utility.yul\":535:804   */\n  pop\n    /* \"#utility.yul\":484:804   */\n  swap2\n  swap1\n  pop\n  jump\t// out\n    /* \"#utility.yul\":810:951   */\ntag_12:\n    /* \"#utility.yul\":859:863   */\n  0x00\n    /* \"#utility.yul\":882:885   */\n  dup2\n    /* \"#utility.yul\":874:885   */\n  swap1\n  pop\n    /* \"#utility.yul\":905:908   */\n  dup2\n    /* \"#utility.yul\":902:903   */\n  0x00\n    /* \"#utility.yul\":895:909   */\n  mstore\n    /* \"#utility.yul\":939:943   */\n  0x20\n    /* \"#utility.yul\":936:937   */\n  0x00\n    /* \"#utility.yul\":926:944   */\n  keccak256\n    /* \"#utility.yul\":918:944   */\n  swap1\n  pop\n    /* \"#utility.yul\":810:951   */\n  swap2\n  swap1\n  pop\n  jump\t// out\n    /* \"#utility.yul\":957:1050   */\ntag_13:\n    /* \"#utility.yul\":994:1000   */\n  0x00\n    /* \"#utility.yul\":1041:1043   */\n  0x20\n    /* \"#utility.yul\":1036:1038   */\n  0x1f\n    /* \"#utility.yul\":1029:1034   */\n  dup4\n    /* \"#utility.yul\":1025:1039   */\n  add\n    /* \"#utility.yul\":1021:1044   */\n  div\n    /* \"#utility.yul\":1011:1044   */\n  swap1\n  pop\n    /* \"#utility.yul\":957:1050   */\n  swap2\n  swap1\n  pop\n  jump\t// out\n    /* \"#utility.yul\":1056:1163   */\ntag_14:\n    /* \"#utility.yul\":1100:1108   */\n  0x00\n    /* \"#utility.yul\":1150:1155   */\n  dup3\n    /* \"#utility.yul\":1144:1148   */\n  dup3\n    /* \"#utility.yul\":1140:1156   */\n  shl\n    /* \"#utility.yul\":1119:1156   */\n  swap1\n  pop\n    /* \"#utility.yul\":1056:1163   */\n  swap3\n  swap2\n  pop\n  pop\n  jump\t// out\n    /* \"#utility.yul\":1169:1562   */\ntag_15:\n    /* \"#utility.yul\":1238:1244   */\n  0x00\n    /* \"#utility.yul\":1288:1289   */\n  0x08\n    /* \"#utility.yul\":1276:1286   */\n  dup4\n    /* \"#utility.yul\":1272:1290   */\n  mul\n    /* \"#utility.yul\":1311:1408   */\n  tag_40\n    /* \"#utility.yul\":1341:1407   */\n  0xffffffffffffffffffffffffffffffffffffffffffffffffffffffffffffffff\n    /* \"#utility.yul\":1330:1339   */\n  dup3\n    /* \"#utility.yul\":1311:1408   */\n  tag_14\n  jump\t// in\ntag_40:\n    /* \"#utility.yul\":1429:1468   */\n  tag_41\n    /* \"#utility.yul\":1459:1467   */\n  dup7\n    /* \"#utility.yul\":1448:1457   */\n  dup4\n    /* \"#utility.yul\":1429:1468   */\n  tag_14\n  jump\t// in\ntag_41:\n    /* \"#utility.yul\":1417:1468   */\n  swap6\n  pop\n    /* \"#utility.yul\":1501:1505   */\n  dup1\n    /* \"#utility.yul\":1497:1506   */\n  not\n    /* \"#utility.yul\":1490:1495   */\n  dup5\n    /* \"#utility.yul\":1486:1507   */\n  and\n    /* \"#utility.yul\":1477:1507   */\n  swap4\n  pop\n    /* \"#utility.yul\":1550:1554   */\n  dup1\n    /* \"#utility.yul\":1540:1548   */\n  dup7\n    /* \"#utility.yul\":1536:1555   */\n  and\n    /* \"#utility.yul\":1529:1534   */\n  dup5\n    /* \"#utility.yul\":1526:1556   */\n  or\n    /* \"#utility.yul\":1516:1556   */\n  swap3\n  pop\n    /* \"#utility.yul\":1245:1562   */\n  pop\n  pop\n    /* \"#utility.yul\":1169:1562   */\n  swap4\n  swap3\n  pop\n  pop\n  pop\n  jump\t// out\n    /* \"#utility.yul\":1568:1645   */\ntag_16:\n    /* \"#utility.yul\":1605:1612   */\n  0x00\n    /* \"#utility.yul\":1634:1639   */\n  dup2\n    /* \"#utility.yul\":1623:1639   */\n  swap1\n  pop\n    /* \"#utility.yul\":1568:1645   */\n  swap2\n  swap1\n  pop\n  jump\t// out\n    /* \"#utility.yul\":1651:1711   */\ntag_17:\n    /* \"#utility.yul\":1679:1682   */\n  0x00\n    /* \"#utility.yul\":1700:1705   */\n  dup2\n    /* \"#utility.yul\":1693:1705   */\n  swap1\n  pop\n    /* \"#utility.yul\":1651:1711   */\n  swap2\n  swap1\n  pop\n  jump\t// out\n    /* \"#utility.yul\":1717:1859   */\ntag_18:\n    /* \"#utility.yul\":1767:1776   */\n  0x00\n    /* \"#utility.yul\":1800:1853   */\n  tag_45\n    /* \"#utility.yul\":1818:1852   */\n  tag_46\n    /* \"#utility.yul\":1827:1851   */\n  tag_47\n    /* \"#utility.yul\":1845:1850   */\n  dup5\n    /* \"#utility.yul\":1827:1851   */\n  tag_16\n  jump\t// in\ntag_47:\n    /* \"#utility.yul\":1818:1852   */\n  tag_17\n  jump\t// in\ntag_46:\n    /* \"#utility.yul\":1800:1853   */\n  tag_16\n  jump\t// in\ntag_45:\n    /* \"#utility.yul\":1787:1853   */\n  swap1\n  pop\n    /* \"#utility.yul\":1717:1859   */\n  swap2\n  swap1\n  pop\n  jump\t// out\n    /* \"#utility.yul\":1865:1940   */\ntag_19:\n    /* \"#utility.yul\":1908:1911   */\n  0x00\n    /* \"#utility.yul\":1929:1934   */\n  dup2\n    /* \"#utility.yul\":1922:1934   */\n  swap1\n  pop\n    /* \"#utility.yul\":1865:1940   */\n  swap2\n  swap1\n  pop\n  jump\t// out\n    /* \"#utility.yul\":1946:2215   */\ntag_20:\n    /* \"#utility.yul\":2056:2095   */\n  tag_50\n    /* \"#utility.yul\":2087:2094   */\n  dup4\n    /* \"#utility.yul\":2056:2095   */\n  tag_18\n  jump\t// in\ntag_50:\n    /* \"#utility.yul\":2117:2208   */\n  tag_51\n    /* \"#utility.yul\":2166:2207   */\n  tag_52\n    /* \"#utility.yul\":2190:2206   */\n  dup3\n    /* \"#utility.yul\":2166:2207   */\n  tag_19\n  jump\t// in\ntag_52:\n    /* \"#utility.yul\":2158:2164   */\n  dup5\n    /* \"#utility.yul\":2151:2155   */\n  dup5\n    /* \"#utility.yul\":2145:2156   */\n  sload\n    /* \"#utility.yul\":2117:2208   */\n  tag_15\n  jump\t// in\ntag_51:\n    /* \"#utility.yul\":2111:2115   */\n  dup3\n    /* \"#utility.yul\":2104:2209   */\n  sstore\n    /* \"#utility.yul\":2022:2215   */\n  pop\n    /* \"#utility.yul\":1946:2215   */\n  pop\n  pop\n  pop\n  jump\t// out\n    /* \"#utility.yul\":2221:2294   */\ntag_21:\n    /* \"#utility.yul\":2266:2269   */\n  0x00\n    /* \"#utility.yul\":2221:2294   */\n  swap1\n  jump\t// out\n    /* \"#utility.yul\":2300:2489   */\ntag_22:\n    /* \"#utility.yul\":2377:2409   */\n  tag_55\n  tag_21\n  jump\t// in\ntag_55:\n    /* \"#utility.yul\":2418:2483   */\n  tag_56\n    /* \"#utility.yul\":2476:2482   */\n  dup2\n    /* \"#utility.yul\":2468:2474   */\n  dup5\n    /* \"#utility.yul\":2462:2466   */\n  dup5\n    /* \"#utility.yul\":2418:2483   */\n  tag_20\n  jump\t// in\ntag_56:\n    /* \"#utility.yul\":2353:2489   */\n  pop\n    /* \"#utility.yul\":2300:2489   */\n  pop\n  pop\n  jump\t// out\n    /* \"#utility.yul\":2495:2681   */\ntag_23:\n    /* \"#utility.yul\":2555:2675   */\ntag_58:\n    /* \"#utility.yul\":2572:2575   */\n  dup2\n    /* \"#utility.yul\":2565:2570   */\n  dup2\n    /* \"#utility.yul\":2562:2576   */\n  lt\n    /* \"#utility.yul\":2555:2675   */\n  iszero\n  tag_60\n  jumpi\n    /* \"#utility.yul\":2626:2665   */\n  tag_61\n    /* \"#utility.yul\":2663:2664   */\n  0x00\n    /* \"#utility.yul\":2656:2661   */\n  dup3\n    /* \"#utility.yul\":2626:2665   */\n  tag_22\n  jump\t// in\ntag_61:\n    /* \"#utility.yul\":2599:2600   */\n  0x01\n    /* \"#utility.yul\":2592:2597   */\n  dup2\n    /* \"#utility.yul\":2588:2601   */\n  add\n    /* \"#utility.yul\":2579:2601   */\n  swap1\n  pop\n    /* \"#utility.yul\":2555:2675   */\n  jump(tag_58)\ntag_60:\n    /* \"#utility.yul\":2495:2681   */\n  pop\n  pop\n  jump\t// out\n    /* \"#utility.yul\":2687:3230   */\ntag_24:\n    /* \"#utility.yul\":2788:2790   */\n  0x1f\n    /* \"#utility.yul\":2783:2786   */\n  dup3\n    /* \"#utility.yul\":2780:2791   */\n  gt\n    /* \"#utility.yul\":2777:3223   */\n  iszero\n  tag_63\n  jumpi\n    /* \"#utility.yul\":2822:2860   */\n  tag_64\n    /* \"#utility.yul\":2854:2859   */\n  dup2\n    /* \"#utility.yul\":2822:2860   */\n  tag_12\n  jump\t// in\ntag_64:\n    /* \"#utility.yul\":2906:2935   */\n  tag_65\n    /* \"#utility.yul\":2924:2934   */\n  dup5\n    /* \"#utility.yul\":2906:2935   */\n  tag_13\n  jump\t// in\ntag_65:\n    /* \"#utility.yul\":2896:2904   */\n  dup2\n    /* \"#utility.yul\":2892:2936   */\n  add\n    /* \"#utility.yul\":3089:3091   */\n  0x20\n    /* \"#utility.yul\":3077:3087   */\n  dup6\n    /* \"#utility.yul\":3074:3092   */\n  lt\n    /* \"#utility.yul\":3071:3120   */\n  iszero\n  tag_66\n  jumpi\n    /* \"#utility.yul\":3110:3118   */\n  dup2\n    /* \"#utility.yul\":3095:3118   */\n  swap1\n  pop\n    /* \"#utility.yul\":3071:3120   */\ntag_66:\n    /* \"#utility.yul\":3133:3213   */\n  tag_67\n    /* \"#utility.yul\":3189:3211   */\n  tag_68\n    /* \"#utility.yul\":3207:3210   */\n  dup6\n    /* \"#utility.yul\":3189:3211   */\n  tag_13\n  jump\t// in\ntag_68:\n    /* \"#utility.yul\":3179:3187   */\n  dup4\n    /* \"#utility.yul\":3175:3212   */\n  add\n    /* \"#utility.yul\":3162:3173   */\n  dup3\n    /* \"#utility.yul\":3133:3213   */\n  tag_23\n  jump\t// in\ntag_67:\n    /* \"#utility.yul\":2792:3223   */\n  pop\n  pop\n    /* \"#utility.yul\":2777:3223   */\ntag_63:\n    /* \"#utility.yul\":2687:3230   */\n  pop\n  pop\n  pop\n  jump\t// out\n    /* \"#utility.yul\":3236:3353   */\ntag_25:\n    /* \"#utility.yul\":3290:3298   */\n  0x00\n    /* \"#utility.yul\":3340:3345   */\n  dup3\n    /* \"#utility.yul\":3334:3338   */\n  dup3\n    /* \"#utility.yul\":3330:3346   */\n  shr\n    /* \"#utility.yul\":3309:3346   */\n  swap1\n  pop\n    /* \"#utility.yul\":3236:3353   */\n  swap3\n  swap2\n  pop\n  pop\n  jump\t// out\n    /* \"#utility.yul\":3359:3528   */\ntag_26:\n    /* \"#utility.yul\":3403:3409   */\n  0x00\n    /* \"#utility.yul\":3436:3487   */\n  tag_71\n    /* \"#utility.yul\":3484:3485   */\n  0x00\n    /* \"#utility.yul\":3480:3486   */\n  not\n    /* \"#utility.yul\":3472:3477   */\n  dup5\n    /* \"#utility.yul\":3469:3470   */\n  0x08\n    /* \"#utility.yul\":3465:3478   */\n  mul\n    /* \"#utility.yul\":3436:3487   */\n  tag_25\n  jump\t// in\ntag_71:\n    /* \"#utility.yul\":3432:3488   */\n  not\n    /* \"#utility.yul\":3517:3521   */\n  dup1\n    /* \"#utility.yul\":3511:3515   */\n  dup4\n    /* \"#utility.yul\":3507:3522   */\n  and\n    /* \"#utility.yul\":3497:3522   */\n  swap2\n  pop\n    /* \"#utility.yul\":3410:3528   */\n  pop\n    /* \"#utility.yul\":3359:3528   */\n  swap3\n  swap2\n  pop\n  pop\n  jump\t// out\n    /* \"#utility.yul\":3533:3828   */\ntag_27:\n    /* \"#utility.yul\":3609:3613   */\n  0x00\n    /* \"#utility.yul\":3755:3784   */\n  tag_73\n    /* \"#utility.yul\":3780:3783   */\n  dup4\n    /* \"#utility.yul\":3774:3778   */\n  dup4\n    /* \"#utility.yul\":3755:3784   */\n  tag_26\n  jump\t// in\ntag_73:\n    /* \"#utility.yul\":3747:3784   */\n  swap2\n  pop\n    /* \"#utility.yul\":3817:3820   */\n  dup3\n    /* \"#utility.yul\":3814:3815   */\n  0x02\n    /* \"#utility.yul\":3810:3821   */\n  mul\n    /* \"#utility.yul\":3804:3808   */\n  dup3\n    /* \"#utility.yul\":3801:3822   */\n  or\n    /* \"#utility.yul\":3793:3822   */\n  swap1\n  pop\n    /* \"#utility.yul\":3533:3828   */\n  swap3\n  swap2\n  pop\n  pop\n  jump\t// out\n    /* \"#utility.yul\":3833:5228   */\ntag_2:\n    /* \"#utility.yul\":3950:3987   */\n  tag_75\n    /* \"#utility.yul\":3983:3986   */\n  dup3\n    /* \"#utility.yul\":3950:3987   */\n  tag_8\n  jump\t// in\ntag_75:\n    /* \"#utility.yul\":4052:4070   */\n  0xffffffffffffffff\n    /* \"#utility.yul\":4044:4050   */\n  dup2\n    /* \"#utility.yul\":4041:4071   */\n  gt\n    /* \"#utility.yul\":4038:4094   */\n  iszero\n  tag_76\n  jumpi\n    /* \"#utility.yul\":4074:4092   */\n  tag_77\n  tag_9\n  jump\t// in\ntag_77:\n    /* \"#utility.yul\":4038:4094   */\ntag_76:\n    /* \"#utility.yul\":4118:4156   */\n  tag_78\n    /* \"#utility.yul\":4150:4154   */\n  dup3\n    /* \"#utility.yul\":4144:4155   */\n  sload\n    /* \"#utility.yul\":4118:4156   */\n  tag_11\n  jump\t// in\ntag_78:\n    /* \"#utility.yul\":4203:4270   */\n  tag_79\n    /* \"#utility.yul\":4263:4269   */\n  dup3\n    /* \"#utility.yul\":4255:4261   */\n  dup3\n    /* \"#utility.yul\":4249:4253   */\n  dup6\n    /* \"#utility.yul\":4203:4270   */\n  tag_24\n  jump\t// in\ntag_79:\n    /* \"#utility.yul\":4297:4298   */\n  0x00\n    /* \"#utility.yul\":4321:4325   */\n  0x20\n    /* \"#utility.yul\":4308:4325   */\n  swap1\n  pop\n    /* \"#utility.yul\":4353:4355   */\n  0x1f\n    /* \"#utility.yul\":4345:4351   */\n  dup4\n    /* \"#utility.yul\":4342:4356   */\n  gt\n    /* \"#utility.yul\":4370:4371   */\n  0x01\n    /* \"#utility.yul\":4365:4983   */\n  dup2\n  eq\n  tag_81\n  jumpi\n    /* \"#utility.yul\":5027:5028   */\n  0x00\n    /* \"#utility.yul\":5044:5050   */\n  dup5\n    /* \"#utility.yul\":5041:5118   */\n  iszero\n  tag_82\n  jumpi\n    /* \"#utility.yul\":5093:5102   */\n  dup3\n    /* \"#utility.yul\":5088:5091   */\n  dup8\n    /* \"#utility.yul\":5084:5103   */\n  add\n    /* \"#utility.yul\":5078:5104   */\n  mload\n    /* \"#utility.yul\":5069:5104   */\n  swap1\n  pop\n    /* \"#utility.yul\":5041:5118   */\ntag_82:\n    /* \"#utility.yul\":5144:5211   */\n  tag_83\n    /* \"#utility.yul\":5204:5210   */\n  dup6\n    /* \"#utility.yul\":5197:5202   */\n  dup3\n    /* \"#utility.yul\":5144:5211   */\n  tag_27\n  jump\t// in\ntag_83:\n    /* \"#utility.yul\":5138:5142   */\n  dup7\n    /* \"#utility.yul\":5131:5212   */\n  sstore\n    /* \"#utility.yul\":5000:5222   */\n  pop\n    /* \"#utility.yul\":4335:5222   */\n  jump(tag_80)\n    /* \"#utility.yul\":4365:4983   */\ntag_81:\n    /* \"#utility.yul\":4417:4421   */\n  0x1f\n    /* \"#utility.yul\":4413:4422   */\n  not\n    /* \"#utility.yul\":4405:4411   */\n  dup5\n    /* \"#utility.yul\":4401:4423   */\n  and\n    /* \"#utility.yul\":4451:4488   */\n  tag_84\n    /* \"#utility.yul\":4483:4487   */\n  dup7\n    /* \"#utility.yul\":4451:4488   */\n  tag_12\n  jump\t// in\ntag_84:\n    /* \"#utility.yul\":4510:4511   */\n  0x00\n    /* \"#utility.yul\":4524:4732   */\ntag_85:\n    /* \"#utility.yul\":4538:4545   */\n  dup3\n    /* \"#utility.yul\":4535:4536   */\n  dup2\n    /* \"#utility.yul\":4532:4546   */\n  lt\n    /* \"#utility.yul\":4524:4732   */\n  iszero\n  tag_87\n  jumpi\n    /* \"#utility.yul\":4617:4626   */\n  dup5\n    /* \"#utility.yul\":4612:4615   */\n  dup10\n    /* \"#utility.yul\":4608:4627   */\n  add\n    /* \"#utility.yul\":4602:4628   */\n  mload\n    /* \"#utility.yul\":4594:4600   */\n  dup3\n    /* \"#utility.yul\":4587:4629   */\n  sstore\n    /* \"#utility.yul\":4668:4669   */\n  0x01\n    /* \"#utility.yul\":4660:4666   */\n  dup3\n    /* \"#utility.yul\":4656:4670   */\n  add\n    /* \"#utility.yul\":4646:4670   */\n  swap2\n  pop\n    /* \"#utility.yul\":4715:4717   */\n  0x20\n    /* \"#utility.yul\":4704:4713   */\n  dup6\n    /* \"#utility.yul\":4700:4718   */\n  add\n    /* \"#utility.yul\":4687:4718   */\n  swap5\n  pop\n    /* \"#utility.yul\":4561:4565   */\n  0x20\n    /* \"#utility.yul\":4558:4559   */\n  dup2\n    /* \"#utility.yul\":4554:4566   */\n  add\n    /* \"#utility.yul\":4549:4566   */\n  swap1\n  pop\n    /* \"#utility.yul\":4524:4732   */\n  jump(tag_85)\ntag_87:\n    /* \"#utility.yul\":4760:4766   */\n  dup7\n    /* \"#utility.yul\":4751:4758   */\n  dup4\n    /* \"#utility.yul\":4748:4767   */\n  lt\n    /* \"#utility.yul\":4745:4924   */\n  iszero\n  tag_88\n  jumpi\n    /* \"#utility.yul\":4818:4827   */\n  dup5\n    /* \"#utility.yul\":4813:4816   */\n  dup10\n    /* \"#utility.yul\":4809:4828   */\n  add\n    /* \"#utility.yul\":4803:4829   */\n  mload\n    /* \"#utility.yul\":4861:4909   */\n  tag_89\n    /* \"#utility.yul\":4903:4907   */\n  0x1f\n    /* \"#utility.yul\":4895:4901   */\n  dup10\n    /* \"#utility.yul\":4891:4908   */\n  and\n    /* \"#utility.yul\":4880:4889   */\n  dup3\n    /* \"#utility.yul\":4861:4909   */\n  tag_26\n  jump\t// in\ntag_89:\n    /* \"#utility.yul\":4853:4859   */\n  dup4\n    /* \"#utility.yul\":4846:4910   */\n  sstore\n    /* \"#utility.yul\":4768:4924   */\n  pop\n    /* \"#utility.yul\":4745:4924   */\ntag_88:\n    /* \"#utility.yul\":4970:4971   */\n  0x01\n    /* \"#utility.yul\":4966:4967   */\n  0x02\n    /* \"#utility.yul\":4958:4964   */\n  dup9\n    /* \"#utility.yul\":4954:4968   */\n  mul\n    /* \"#utility.yul\":4950:4972   */\n  add\n    /* \"#utility.yul\":4944:4948   */\n  dup9\n    /* \"#utility.yul\":4937:4973   */\n  sstore\n    /* \"#utility.yul\":4372:4983   */\n  pop\n  pop\n  pop\n    /* \"#utility.yul\":4335:5222   */\ntag_80:\n  pop\n    /* \"#utility.yul\":3925:5228   */\n  pop\n  pop\n  pop\n    /* \"#utility.yul\":3833:5228   */\n  pop\n  pop\n  jump\t// out\n    /* \"MGAS/BEP20TokenImplementation.sol\":216:11419  contract BEP20TokenImplementation is Context, IBEP20, ISwap, Initializable {... */\ntag_7:\n  dataSize(sub_0)\n  dup1\n  dataOffset(sub_0)\n  0x00\n  codecopy\n  0x00\n  return\nstop\n\nsub_0: assembly {\n        /* \"MGAS/BEP20TokenImplementation.sol\":216:11419  contract BEP20TokenImplementation is Context, IBEP20, ISwap, Initializable {... */\n      mstore(0x40, 0x80)\n      callvalue\n      dup1\n      iszero\n      tag_1\n      jumpi\n      0x00\n      dup1\n      revert\n    tag_1:\n      pop\n      jumpi(tag_2, lt(calldatasize, 0x04))\n      shr(0xe0, calldataload(0x00))\n      dup1\n      0x7b1b1de6\n      gt\n      tag_23\n      jumpi\n      dup1\n      0xa9059cbb\n      gt\n      tag_24\n      jumpi\n      dup1\n      0xa9059cbb\n      eq\n      tag_18\n      jumpi\n      dup1\n      0xb723b34e\n      eq\n      tag_19\n      jumpi\n      dup1\n      0xd5bda32d\n      eq\n      tag_20\n      jumpi\n      dup1\n      0xdd62ed3e\n      eq\n      tag_21\n      jumpi\n      dup1\n      0xf2fde38b\n      eq\n      tag_22\n      jumpi\n      jump(tag_2)\n    tag_24:\n      dup1\n      0x7b1b1de6\n      eq\n      tag_13\n      jumpi\n      dup1\n      0x893d20e8\n      eq\n      tag_14\n      jumpi\n      dup1\n      0x95d89b41\n      eq\n      tag_15\n      jumpi\n      dup1\n      0xa0712d68\n      eq\n      tag_16\n      jumpi\n      dup1\n      0xa457c2d7\n      eq\n      tag_17\n      jumpi\n      jump(tag_2)\n    tag_23:\n      dup1\n      0x39509351\n      gt\n      tag_25\n      jumpi\n      dup1\n      0x39509351\n      eq\n      tag_8\n      jumpi\n      dup1\n      0x42966c68\n      eq\n      tag_9\n      jumpi\n      dup1\n      0x4bf365df\n      eq\n      tag_10\n      jumpi\n      dup1\n      0x70a08231\n      eq\n      tag_11\n      jumpi\n      dup1\n      0x715018a6\n      eq\n      tag_12\n      jumpi\n      jump(tag_2)\n    tag_25:\n      dup1\n      0x06fdde03\n      eq\n      tag_3\n      jumpi\n      dup1\n      0x095ea7b3\n      eq\n      tag_4\n      jumpi\n      dup1\n      0x18160ddd\n      eq\n      tag_5\n      jumpi\n      dup1\n      0x23b872dd\n      eq\n      tag_6\n      jumpi\n      dup1\n      0x313ce567\n      eq\n      tag_7\n      jumpi\n    tag_2:\n      0x00\n      dup1\n      revert\n        /* \"MGAS/BEP20TokenImplementation.sol\":3347:3441  function name() external override view returns (string memory) {... */\n    tag_3:\n      tag_26\n      tag_27\n      jump\t// in\n    tag_26:\n      mload(0x40)\n      tag_28\n      swap2\n      swap1\n      tag_29\n      jump\t// in\n    tag_28:\n      mload(0x40)\n      dup1\n      swap2\n      sub\n      swap1\n      return\n        /* \"MGAS/BEP20TokenImplementation.sol\":4524:4687  function approve(address spender, uint256 amount) external override returns (bool) {... */\n    tag_4:\n      tag_30\n      0x04\n      dup1\n      calldatasize\n      sub\n      dup2\n      add\n      swap1\n      tag_31\n      swap2\n      swap1\n      tag_32\n      jump\t// in\n    tag_31:\n      tag_33\n      jump\t// in\n    tag_30:\n      mload(0x40)\n      tag_34\n      swap2\n      swap1\n      tag_35\n      jump\t// in\n    tag_34:\n      mload(0x40)\n      dup1\n      swap2\n      sub\n      swap1\n      return\n        /* \"MGAS/BEP20TokenImplementation.sol\":3505:3607  function totalSupply() external override view returns (uint256) {... */\n    tag_5:\n      tag_36\n      tag_37\n      jump\t// in\n    tag_36:\n      mload(0x40)\n      tag_38\n      swap2\n      swap1\n      tag_39\n      jump\t// in\n    tag_38:\n      mload(0x40)\n      dup1\n      swap2\n      sub\n      swap1\n      return\n        /* \"MGAS/BEP20TokenImplementation.sol\":5158:5473  function transferFrom(address sender, address recipient, uint256 amount) external override returns (bool) {... */\n    tag_6:\n      tag_40\n      0x04\n      dup1\n      calldatasize\n      sub\n      dup2\n      add\n      swap1\n      tag_41\n      swap2\n      swap1\n      tag_42\n      jump\t// in\n    tag_41:\n      tag_43\n      jump\t// in\n    tag_40:\n      mload(0x40)\n      tag_44\n      swap2\n      swap1\n      tag_35\n      jump\t// in\n    tag_44:\n      mload(0x40)\n      dup1\n      swap2\n      sub\n      swap1\n      return\n        /* \"MGAS/BEP20TokenImplementation.sol\":3029:3123  function decimals() external override view returns (uint8) {... */\n    tag_7:\n      tag_45\n      tag_46\n      jump\t// in\n    tag_45:\n      mload(0x40)\n      tag_47\n      swap2\n      swap1\n      tag_48\n      jump\t// in\n    tag_47:\n      mload(0x40)\n      dup1\n      swap2\n      sub\n      swap1\n      return\n        /* \"MGAS/BEP20TokenImplementation.sol\":5881:6091  function increaseAllowance(address spender, uint256 addedValue) public returns (bool) {... */\n    tag_8:\n      tag_49\n      0x04\n      dup1\n      calldatasize\n      sub\n      dup2\n      add\n      swap1\n      tag_50\n      swap2\n      swap1\n      tag_32\n      jump\t// in\n    tag_50:\n      tag_51\n      jump\t// in\n    tag_49:\n      mload(0x40)\n      tag_52\n      swap2\n      swap1\n      tag_35\n      jump\t// in\n    tag_52:\n      mload(0x40)\n      dup1\n      swap2\n      sub\n      swap1\n      return\n        /* \"MGAS/BEP20TokenImplementation.sol\":7859:7990  function burn(uint256 amount) override external returns (bool) {... */\n    tag_9:\n      tag_53\n      0x04\n      dup1\n      calldatasize\n      sub\n      dup2\n      add\n      swap1\n      tag_54\n      swap2\n      swap1\n      tag_55\n      jump\t// in\n    tag_54:\n      tag_56\n      jump\t// in\n    tag_53:\n      mload(0x40)\n      tag_57\n      swap2\n      swap1\n      tag_35\n      jump\t// in\n    tag_57:\n      mload(0x40)\n      dup1\n      swap2\n      sub\n      swap1\n      return\n        /* \"MGAS/BEP20TokenImplementation.sol\":2717:2801  function mintable() external view returns (bool) {... */\n    tag_10:\n      tag_58\n      tag_59\n      jump\t// in\n    tag_58:\n      mload(0x40)\n      tag_60\n      swap2\n      swap1\n      tag_35\n      jump\t// in\n    tag_60:\n      mload(0x40)\n      dup1\n      swap2\n      sub\n      swap1\n      return\n        /* \"MGAS/BEP20TokenImplementation.sol\":3669:3790  function balanceOf(address account) external override view returns (uint256) {... */\n    tag_11:\n      tag_61\n      0x04\n      dup1\n      calldatasize\n      sub\n      dup2\n      add\n      swap1\n      tag_62\n      swap2\n      swap1\n      tag_63\n      jump\t// in\n    tag_62:\n      tag_64\n      jump\t// in\n    tag_61:\n      mload(0x40)\n      tag_65\n      swap2\n      swap1\n      tag_39\n      jump\t// in\n    tag_65:\n      mload(0x40)\n      dup1\n      swap2\n      sub\n      swap1\n      return\n        /* \"MGAS/BEP20TokenImplementation.sol\":2107:2247  function renounceOwnership() public onlyOwner {... */\n    tag_12:\n      tag_66\n      tag_67\n      jump\t// in\n    tag_66:\n      stop\n        /* \"MGAS/BEP20TokenImplementation.sol\":636:664  uint256 public pricePerToken */\n    tag_13:\n      tag_68\n      tag_69\n      jump\t// in\n    tag_68:\n      mload(0x40)\n      tag_70\n      swap2\n      swap1\n      tag_39\n      jump\t// in\n    tag_70:\n      mload(0x40)\n      dup1\n      swap2\n      sub\n      swap1\n      return\n        /* \"MGAS/BEP20TokenImplementation.sol\":2869:2962  function getOwner() external override view returns (address) {... */\n    tag_14:\n      tag_71\n      tag_72\n      jump\t// in\n    tag_71:\n      mload(0x40)\n      tag_73\n      swap2\n      swap1\n      tag_74\n      jump\t// in\n    tag_73:\n      mload(0x40)\n      dup1\n      swap2\n      sub\n      swap1\n      return\n        /* \"MGAS/BEP20TokenImplementation.sol\":3188:3286  function symbol() external override view returns (string memory) {... */\n    tag_15:\n      tag_75\n      tag_76\n      jump\t// in\n    tag_75:\n      mload(0x40)\n      tag_77\n      swap2\n      swap1\n      tag_29\n      jump\t// in\n    tag_77:\n      mload(0x40)\n      dup1\n      swap2\n      sub\n      swap1\n      return\n        /* \"MGAS/BEP20TokenImplementation.sol\":7107:7296  function mint(uint256 amount) public onlyOwner returns (bool) {... */\n    tag_16:\n      tag_78\n      0x04\n      dup1\n      calldatasize\n      sub\n      dup2\n      add\n      swap1\n      tag_79\n      swap2\n      swap1\n      tag_55\n      jump\t// in\n    tag_79:\n      tag_80\n      jump\t// in\n    tag_78:\n      mload(0x40)\n      tag_81\n      swap2\n      swap1\n      tag_35\n      jump\t// in\n    tag_81:\n      mload(0x40)\n      dup1\n      swap2\n      sub\n      swap1\n      return\n        /* \"MGAS/BEP20TokenImplementation.sol\":6593:6854  function decreaseAllowance(address spender, uint256 subtractedValue) public returns (bool) {... */\n    tag_17:\n      tag_82\n      0x04\n      dup1\n      calldatasize\n      sub\n      dup2\n      add\n      swap1\n      tag_83\n      swap2\n      swap1\n      tag_32\n      jump\t// in\n    tag_83:\n      tag_84\n      jump\t// in\n    tag_82:\n      mload(0x40)\n      tag_85\n      swap2\n      swap1\n      tag_35\n      jump\t// in\n    tag_85:\n      mload(0x40)\n      dup1\n      swap2\n      sub\n      swap1\n      return\n        /* \"MGAS/BEP20TokenImplementation.sol\":4002:4171  function transfer(address recipient, uint256 amount) external override returns (bool) {... */\n    tag_18:\n      tag_86\n      0x04\n      dup1\n      calldatasize\n      sub\n      dup2\n      add\n      swap1\n      tag_87\n      swap2\n      swap1\n      tag_32\n      jump\t// in\n    tag_87:\n      tag_88\n      jump\t// in\n    tag_86:\n      mload(0x40)\n      tag_89\n      swap2\n      swap1\n      tag_35\n      jump\t// in\n    tag_89:\n      mload(0x40)\n      dup1\n      swap2\n      sub\n      swap1\n      return\n        /* \"MGAS/BEP20TokenImplementation.sol\":7548:7766  function mintTo(uint256 amount, address recipient) override external onlyOwner returns (bool) {... */\n    tag_19:\n      tag_90\n      0x04\n      dup1\n      calldatasize\n      sub\n      dup2\n      add\n      swap1\n      tag_91\n      swap2\n      swap1\n      tag_92\n      jump\t// in\n    tag_91:\n      tag_93\n      jump\t// in\n    tag_90:\n      mload(0x40)\n      tag_94\n      swap2\n      swap1\n      tag_35\n      jump\t// in\n    tag_94:\n      mload(0x40)\n      dup1\n      swap2\n      sub\n      swap1\n      return\n        /* \"MGAS/BEP20TokenImplementation.sol\":977:1113  function getETHValue(uint256 _tokenAmount) public view returns (uint256 ethValue) {... */\n    tag_20:\n      tag_95\n      0x04\n      dup1\n      calldatasize\n      sub\n      dup2\n      add\n      swap1\n      tag_96\n      swap2\n      swap1\n      tag_55\n      jump\t// in\n    tag_96:\n      tag_97\n      jump\t// in\n    tag_95:\n      mload(0x40)\n      tag_98\n      swap2\n      swap1\n      tag_39\n      jump\t// in\n    tag_98:\n      mload(0x40)\n      dup1\n      swap2\n      sub\n      swap1\n      return\n        /* \"MGAS/BEP20TokenImplementation.sol\":4233:4378  function allowance(address owner, address spender) external override view returns (uint256) {... */\n    tag_21:\n      tag_99\n      0x04\n      dup1\n      calldatasize\n      sub\n      dup2\n      add\n      swap1\n      tag_100\n      swap2\n      swap1\n      tag_101\n      jump\t// in\n    tag_100:\n      tag_102\n      jump\t// in\n    tag_99:\n      mload(0x40)\n      tag_103\n      swap2\n      swap1\n      tag_39\n      jump\t// in\n    tag_103:\n      mload(0x40)\n      dup1\n      swap2\n      sub\n      swap1\n      return\n        /* \"MGAS/BEP20TokenImplementation.sol\":2402:2638  function transferOwnership(address newOwner) public onlyOwner {... */\n    tag_22:\n      tag_104\n      0x04\n      dup1\n      calldatasize\n      sub\n      dup2\n      add\n      swap1\n      tag_105\n      swap2\n      swap1\n      tag_63\n      jump\t// in\n    tag_105:\n      tag_106\n      jump\t// in\n    tag_104:\n      stop\n        /* \"MGAS/BEP20TokenImplementation.sol\":3347:3441  function name() external override view returns (string memory) {... */\n    tag_27:\n        /* \"MGAS/BEP20TokenImplementation.sol\":3395:3408  string memory */\n      0x60\n        /* \"MGAS/BEP20TokenImplementation.sol\":3428:3433  _name */\n      0x04\n        /* \"MGAS/BEP20TokenImplementation.sol\":3421:3433  return _name */\n      dup1\n      sload\n      tag_108\n      swap1\n      tag_109\n      jump\t// in\n    tag_108:\n      dup1\n      0x1f\n      add\n      0x20\n      dup1\n      swap2\n      div\n      mul\n      0x20\n      add\n      mload(0x40)\n      swap1\n      dup2\n      add\n      0x40\n      mstore\n      dup1\n      swap3\n      swap2\n      swap1\n      dup2\n      dup2\n      mstore\n      0x20\n      add\n      dup3\n      dup1\n      sload\n      tag_110\n      swap1\n      tag_109\n      jump\t// in\n    tag_110:\n      dup1\n      iszero\n      tag_111\n      jumpi\n      dup1\n      0x1f\n      lt\n      tag_112\n      jumpi\n      0x0100\n      dup1\n      dup4\n      sload\n      div\n      mul\n      dup4\n      mstore\n      swap2\n      0x20\n      add\n      swap2\n      jump(tag_111)\n    tag_112:\n      dup3\n      add\n      swap2\n      swap1\n      0x00\n      mstore\n      keccak256(0x00, 0x20)\n      swap1\n    tag_113:\n      dup2\n      sload\n      dup2\n      mstore\n      swap1\n      0x01\n      add\n      swap1\n      0x20\n      add\n      dup1\n      dup4\n      gt\n      tag_113\n      jumpi\n      dup3\n      swap1\n      sub\n      0x1f\n      and\n      dup3\n      add\n      swap2\n    tag_111:\n      pop\n      pop\n      pop\n      pop\n      pop\n      swap1\n      pop\n        /* \"MGAS/BEP20TokenImplementation.sol\":3347:3441  function name() external override view returns (string memory) {... */\n      swap1\n      jump\t// out\n        /* \"MGAS/BEP20TokenImplementation.sol\":4524:4687  function approve(address spender, uint256 amount) external override returns (bool) {... */\n    tag_33:\n        /* \"MGAS/BEP20TokenImplementation.sol\":4601:4605  bool */\n      0x00\n        /* \"MGAS/BEP20TokenImplementation.sol\":4618:4657  _approve(_msgSender(), spender, amount) */\n      tag_115\n        /* \"MGAS/BEP20TokenImplementation.sol\":4627:4639  _msgSender() */\n      tag_116\n        /* \"MGAS/BEP20TokenImplementation.sol\":4627:4637  _msgSender */\n      tag_117\n        /* \"MGAS/BEP20TokenImplementation.sol\":4627:4639  _msgSender() */\n      jump\t// in\n    tag_116:\n        /* \"MGAS/BEP20TokenImplementation.sol\":4641:4648  spender */\n      dup5\n        /* \"MGAS/BEP20TokenImplementation.sol\":4650:4656  amount */\n      dup5\n        /* \"MGAS/BEP20TokenImplementation.sol\":4618:4626  _approve */\n      tag_118\n        /* \"MGAS/BEP20TokenImplementation.sol\":4618:4657  _approve(_msgSender(), spender, amount) */\n      jump\t// in\n    tag_115:\n        /* \"MGAS/BEP20TokenImplementation.sol\":4675:4679  true */\n      0x01\n        /* \"MGAS/BEP20TokenImplementation.sol\":4668:4679  return true */\n      swap1\n      pop\n        /* \"MGAS/BEP20TokenImplementation.sol\":4524:4687  function approve(address spender, uint256 amount) external override returns (bool) {... */\n      swap3\n      swap2\n      pop\n      pop\n      jump\t// out\n        /* \"MGAS/BEP20TokenImplementation.sol\":3505:3607  function totalSupply() external override view returns (uint256) {... */\n    tag_37:\n        /* \"MGAS/BEP20TokenImplementation.sol\":3560:3567  uint256 */\n      0x00\n        /* \"MGAS/BEP20TokenImplementation.sol\":3587:3599  _totalSupply */\n      sload(0x03)\n        /* \"MGAS/BEP20TokenImplementation.sol\":3580:3599  return _totalSupply */\n      swap1\n      pop\n        /* \"MGAS/BEP20TokenImplementation.sol\":3505:3607  function totalSupply() external override view returns (uint256) {... */\n      swap1\n      jump\t// out\n        /* \"MGAS/BEP20TokenImplementation.sol\":5158:5473  function transferFrom(address sender, address recipient, uint256 amount) external override returns (bool) {... */\n    tag_43:\n        /* \"MGAS/BEP20TokenImplementation.sol\":5258:5262  bool */\n      0x00\n        /* \"MGAS/BEP20TokenImplementation.sol\":5275:5311  _transfer(sender, recipient, amount) */\n      tag_121\n        /* \"MGAS/BEP20TokenImplementation.sol\":5285:5291  sender */\n      dup5\n        /* \"MGAS/BEP20TokenImplementation.sol\":5293:5302  recipient */\n      dup5\n        /* \"MGAS/BEP20TokenImplementation.sol\":5304:5310  amount */\n      dup5\n        /* \"MGAS/BEP20TokenImplementation.sol\":5275:5284  _transfer */\n      tag_122\n        /* \"MGAS/BEP20TokenImplementation.sol\":5275:5311  _transfer(sender, recipient, amount) */\n      jump\t// in\n    tag_121:\n        /* \"MGAS/BEP20TokenImplementation.sol\":5322:5443  _approve(sender, _msgSender(), _allowances[sender][_msgSender()].sub(amount, \"BEP20: transfer amount exceeds allowance\")) */\n      tag_123\n        /* \"MGAS/BEP20TokenImplementation.sol\":5331:5337  sender */\n      dup5\n        /* \"MGAS/BEP20TokenImplementation.sol\":5339:5351  _msgSender() */\n      tag_124\n        /* \"MGAS/BEP20TokenImplementation.sol\":5339:5349  _msgSender */\n      tag_117\n        /* \"MGAS/BEP20TokenImplementation.sol\":5339:5351  _msgSender() */\n      jump\t// in\n    tag_124:\n        /* \"MGAS/BEP20TokenImplementation.sol\":5353:5442  _allowances[sender][_msgSender()].sub(amount, \"BEP20: transfer amount exceeds allowance\") */\n      tag_125\n        /* \"MGAS/BEP20TokenImplementation.sol\":5391:5397  amount */\n      dup6\n        /* \"MGAS/BEP20TokenImplementation.sol\":5353:5442  _allowances[sender][_msgSender()].sub(amount, \"BEP20: transfer amount exceeds allowance\") */\n      mload(0x40)\n      dup1\n      0x60\n      add\n      0x40\n      mstore\n      dup1\n      0x28\n      dup2\n      mstore\n      0x20\n      add\n      data_4f3506f4ba71c79c3cbd442a3afeb30e9b27af2d84e116a4385b34e267d2287e\n      0x28\n      swap2\n      codecopy\n        /* \"MGAS/BEP20TokenImplementation.sol\":5353:5364  _allowances */\n      0x02\n        /* \"MGAS/BEP20TokenImplementation.sol\":5353:5372  _allowances[sender] */\n      0x00\n        /* \"MGAS/BEP20TokenImplementation.sol\":5365:5371  sender */\n      dup12\n        /* \"MGAS/BEP20TokenImplementation.sol\":5353:5372  _allowances[sender] */\n      0xffffffffffffffffffffffffffffffffffffffff\n      and\n      0xffffffffffffffffffffffffffffffffffffffff\n      and\n      dup2\n      mstore\n      0x20\n      add\n      swap1\n      dup2\n      mstore\n      0x20\n      add\n      0x00\n      keccak256\n        /* \"MGAS/BEP20TokenImplementation.sol\":5353:5386  _allowances[sender][_msgSender()] */\n      0x00\n        /* \"MGAS/BEP20TokenImplementation.sol\":5373:5385  _msgSender() */\n      tag_126\n        /* \"MGAS/BEP20TokenImplementation.sol\":5373:5383  _msgSender */\n      tag_117\n        /* \"MGAS/BEP20TokenImplementation.sol\":5373:5385  _msgSender() */\n      jump\t// in\n    tag_126:\n        /* \"MGAS/BEP20TokenImplementation.sol\":5353:5386  _allowances[sender][_msgSender()] */\n      0xffffffffffffffffffffffffffffffffffffffff\n      and\n      0xffffffffffffffffffffffffffffffffffffffff\n      and\n      dup2\n      mstore\n      0x20\n      add\n      swap1\n      dup2\n      mstore\n      0x20\n      add\n      0x00\n      keccak256\n      sload\n        /* \"MGAS/BEP20TokenImplementation.sol\":5353:5390  _allowances[sender][_msgSender()].sub */\n      tag_127\n      swap1\n        /* \"MGAS/BEP20TokenImplementation.sol\":5353:5442  _allowances[sender][_msgSender()].sub(amount, \"BEP20: transfer amount exceeds allowance\") */\n      swap3\n      swap2\n      swap1\n      0xffffffff\n      and\n      jump\t// in\n    tag_125:\n        /* \"MGAS/BEP20TokenImplementation.sol\":5322:5330  _approve */\n      tag_118\n        /* \"MGAS/BEP20TokenImplementation.sol\":5322:5443  _approve(sender, _msgSender(), _allowances[sender][_msgSender()].sub(amount, \"BEP20: transfer amount exceeds allowance\")) */\n      jump\t// in\n    tag_123:\n        /* \"MGAS/BEP20TokenImplementation.sol\":5461:5465  true */\n      0x01\n        /* \"MGAS/BEP20TokenImplementation.sol\":5454:5465  return true */\n      swap1\n      pop\n        /* \"MGAS/BEP20TokenImplementation.sol\":5158:5473  function transferFrom(address sender, address recipient, uint256 amount) external override returns (bool) {... */\n      swap4\n      swap3\n      pop\n      pop\n      pop\n      jump\t// out\n        /* \"MGAS/BEP20TokenImplementation.sol\":3029:3123  function decimals() external override view returns (uint8) {... */\n    tag_46:\n        /* \"MGAS/BEP20TokenImplementation.sol\":3081:3086  uint8 */\n      0x00\n        /* \"MGAS/BEP20TokenImplementation.sol\":3106:3115  _decimals */\n      0x06\n      0x00\n      swap1\n      sload\n      swap1\n      0x0100\n      exp\n      swap1\n      div\n      0xff\n      and\n        /* \"MGAS/BEP20TokenImplementation.sol\":3099:3115  return _decimals */\n      swap1\n      pop\n        /* \"MGAS/BEP20TokenImplementation.sol\":3029:3123  function decimals() external override view returns (uint8) {... */\n      swap1\n      jump\t// out\n        /* \"MGAS/BEP20TokenImplementation.sol\":5881:6091  function increaseAllowance(address spender, uint256 addedValue) public returns (bool) {... */\n    tag_51:\n        /* \"MGAS/BEP20TokenImplementation.sol\":5961:5965  bool */\n      0x00\n        /* \"MGAS/BEP20TokenImplementation.sol\":5978:6061  _approve(_msgSender(), spender, _allowances[_msgSender()][spender].add(addedValue)) */\n      tag_130\n        /* \"MGAS/BEP20TokenImplementation.sol\":5987:5999  _msgSender() */\n      tag_131\n        /* \"MGAS/BEP20TokenImplementation.sol\":5987:5997  _msgSender */\n      tag_117\n        /* \"MGAS/BEP20TokenImplementation.sol\":5987:5999  _msgSender() */\n      jump\t// in\n    tag_131:\n        /* \"MGAS/BEP20TokenImplementation.sol\":6001:6008  spender */\n      dup5\n        /* \"MGAS/BEP20TokenImplementation.sol\":6010:6060  _allowances[_msgSender()][spender].add(addedValue) */\n      tag_132\n        /* \"MGAS/BEP20TokenImplementation.sol\":6049:6059  addedValue */\n      dup6\n        /* \"MGAS/BEP20TokenImplementation.sol\":6010:6021  _allowances */\n      0x02\n        /* \"MGAS/BEP20TokenImplementation.sol\":6010:6035  _allowances[_msgSender()] */\n      0x00\n        /* \"MGAS/BEP20TokenImplementation.sol\":6022:6034  _msgSender() */\n      tag_133\n        /* \"MGAS/BEP20TokenImplementation.sol\":6022:6032  _msgSender */\n      tag_117\n        /* \"MGAS/BEP20TokenImplementation.sol\":6022:6034  _msgSender() */\n      jump\t// in\n    tag_133:\n        /* \"MGAS/BEP20TokenImplementation.sol\":6010:6035  _allowances[_msgSender()] */\n      0xffffffffffffffffffffffffffffffffffffffff\n      and\n      0xffffffffffffffffffffffffffffffffffffffff\n      and\n      dup2\n      mstore\n      0x20\n      add\n      swap1\n      dup2\n      mstore\n      0x20\n      add\n      0x00\n      keccak256\n        /* \"MGAS/BEP20TokenImplementation.sol\":6010:6044  _allowances[_msgSender()][spender] */\n      0x00\n        /* \"MGAS/BEP20TokenImplementation.sol\":6036:6043  spender */\n      dup10\n        /* \"MGAS/BEP20TokenImplementation.sol\":6010:6044  _allowances[_msgSender()][spender] */\n      0xffffffffffffffffffffffffffffffffffffffff\n      and\n      0xffffffffffffffffffffffffffffffffffffffff\n      and\n      dup2\n      mstore\n      0x20\n      add\n      swap1\n      dup2\n      mstore\n      0x20\n      add\n      0x00\n      keccak256\n      sload\n        /* \"MGAS/BEP20TokenImplementation.sol\":6010:6048  _allowances[_msgSender()][spender].add */\n      tag_134\n      swap1\n        /* \"MGAS/BEP20TokenImplementation.sol\":6010:6060  _allowances[_msgSender()][spender].add(addedValue) */\n      swap2\n      swap1\n      0xffffffff\n      and\n      jump\t// in\n    tag_132:\n        /* \"MGAS/BEP20TokenImplementation.sol\":5978:5986  _approve */\n      tag_118\n        /* \"MGAS/BEP20TokenImplementation.sol\":5978:6061  _approve(_msgSender(), spender, _allowances[_msgSender()][spender].add(addedValue)) */\n      jump\t// in\n    tag_130:\n        /* \"MGAS/BEP20TokenImplementation.sol\":6079:6083  true */\n      0x01\n        /* \"MGAS/BEP20TokenImplementation.sol\":6072:6083  return true */\n      swap1\n      pop\n        /* \"MGAS/BEP20TokenImplementation.sol\":5881:6091  function increaseAllowance(address spender, uint256 addedValue) public returns (bool) {... */\n      swap3\n      swap2\n      pop\n      pop\n      jump\t// out\n        /* \"MGAS/BEP20TokenImplementation.sol\":7859:7990  function burn(uint256 amount) override external returns (bool) {... */\n    tag_56:\n        /* \"MGAS/BEP20TokenImplementation.sol\":7916:7920  bool */\n      0x00\n        /* \"MGAS/BEP20TokenImplementation.sol\":7933:7960  _burn(_msgSender(), amount) */\n      tag_136\n        /* \"MGAS/BEP20TokenImplementation.sol\":7939:7951  _msgSender() */\n      tag_137\n        /* \"MGAS/BEP20TokenImplementation.sol\":7939:7949  _msgSender */\n      tag_117\n        /* \"MGAS/BEP20TokenImplementation.sol\":7939:7951  _msgSender() */\n      jump\t// in\n    tag_137:\n        /* \"MGAS/BEP20TokenImplementation.sol\":7953:7959  amount */\n      dup4\n        /* \"MGAS/BEP20TokenImplementation.sol\":7933:7938  _burn */\n      tag_138\n        /* \"MGAS/BEP20TokenImplementation.sol\":7933:7960  _burn(_msgSender(), amount) */\n      jump\t// in\n    tag_136:\n        /* \"MGAS/BEP20TokenImplementation.sol\":7978:7982  true */\n      0x01\n        /* \"MGAS/BEP20TokenImplementation.sol\":7971:7982  return true */\n      swap1\n      pop\n        /* \"MGAS/BEP20TokenImplementation.sol\":7859:7990  function burn(uint256 amount) override external returns (bool) {... */\n      swap2\n      swap1\n      pop\n      jump\t// out\n        /* \"MGAS/BEP20TokenImplementation.sol\":2717:2801  function mintable() external view returns (bool) {... */\n    tag_59:\n        /* \"MGAS/BEP20TokenImplementation.sol\":2760:2764  bool */\n      0x00\n        /* \"MGAS/BEP20TokenImplementation.sol\":2784:2793  _mintable */\n      0x08\n      0x14\n      swap1\n      sload\n      swap1\n      0x0100\n      exp\n      swap1\n      div\n      0xff\n      and\n        /* \"MGAS/BEP20TokenImplementation.sol\":2777:2793  return _mintable */\n      swap1\n      pop\n        /* \"MGAS/BEP20TokenImplementation.sol\":2717:2801  function mintable() external view returns (bool) {... */\n      swap1\n      jump\t// out\n        /* \"MGAS/BEP20TokenImplementation.sol\":3669:3790  function balanceOf(address account) external override view returns (uint256) {... */\n    tag_64:\n        /* \"MGAS/BEP20TokenImplementation.sol\":3737:3744  uint256 */\n      0x00\n        /* \"MGAS/BEP20TokenImplementation.sol\":3764:3773  _balances */\n      0x01\n        /* \"MGAS/BEP20TokenImplementation.sol\":3764:3782  _balances[account] */\n      0x00\n        /* \"MGAS/BEP20TokenImplementation.sol\":3774:3781  account */\n      dup4\n        /* \"MGAS/BEP20TokenImplementation.sol\":3764:3782  _balances[account] */\n      0xffffffffffffffffffffffffffffffffffffffff\n      and\n      0xffffffffffffffffffffffffffffffffffffffff\n      and\n      dup2\n      mstore\n      0x20\n      add\n      swap1\n      dup2\n      mstore\n      0x20\n      add\n      0x00\n      keccak256\n      sload\n        /* \"MGAS/BEP20TokenImplementation.sol\":3757:3782  return _balances[account] */\n      swap1\n      pop\n        /* \"MGAS/BEP20TokenImplementation.sol\":3669:3790  function balanceOf(address account) external override view returns (uint256) {... */\n      swap2\n      swap1\n      pop\n      jump\t// out\n        /* \"MGAS/BEP20TokenImplementation.sol\":2107:2247  function renounceOwnership() public onlyOwner {... */\n    tag_67:\n        /* \"MGAS/BEP20TokenImplementation.sol\":1258:1270  _msgSender() */\n      tag_142\n        /* \"MGAS/BEP20TokenImplementation.sol\":1258:1268  _msgSender */\n      tag_117\n        /* \"MGAS/BEP20TokenImplementation.sol\":1258:1270  _msgSender() */\n      jump\t// in\n    tag_142:\n        /* \"MGAS/BEP20TokenImplementation.sol\":1248:1270  _owner == _msgSender() */\n      0xffffffffffffffffffffffffffffffffffffffff\n      and\n        /* \"MGAS/BEP20TokenImplementation.sol\":1248:1254  _owner */\n      0x08\n      0x00\n      swap1\n      sload\n      swap1\n      0x0100\n      exp\n      swap1\n      div\n      0xffffffffffffffffffffffffffffffffffffffff\n      and\n        /* \"MGAS/BEP20TokenImplementation.sol\":1248:1270  _owner == _msgSender() */\n      0xffffffffffffffffffffffffffffffffffffffff\n      and\n      eq\n        /* \"MGAS/BEP20TokenImplementation.sol\":1240:1307  require(_owner == _msgSender(), \"Ownable: caller is not the owner\") */\n      tag_143\n      jumpi\n      mload(0x40)\n      0x08c379a000000000000000000000000000000000000000000000000000000000\n      dup2\n      mstore\n      0x04\n      add\n      tag_144\n      swap1\n      tag_145\n      jump\t// in\n    tag_144:\n      mload(0x40)\n      dup1\n      swap2\n      sub\n      swap1\n      revert\n    tag_143:\n        /* \"MGAS/BEP20TokenImplementation.sol\":2206:2207  0 */\n      0x00\n        /* \"MGAS/BEP20TokenImplementation.sol\":2169:2209  OwnershipTransferred(_owner, address(0)) */\n      0xffffffffffffffffffffffffffffffffffffffff\n      and\n        /* \"MGAS/BEP20TokenImplementation.sol\":2190:2196  _owner */\n      0x08\n      0x00\n      swap1\n      sload\n      swap1\n      0x0100\n      exp\n      swap1\n      div\n      0xffffffffffffffffffffffffffffffffffffffff\n      and\n        /* \"MGAS/BEP20TokenImplementation.sol\":2169:2209  OwnershipTransferred(_owner, address(0)) */\n      0xffffffffffffffffffffffffffffffffffffffff\n      and\n      0x8be0079c531659141344cd1fd0a4f28419497f9722a3daafe3b4186f6b6457e0\n      mload(0x40)\n      mload(0x40)\n      dup1\n      swap2\n      sub\n      swap1\n      log3\n        /* \"MGAS/BEP20TokenImplementation.sol\":2237:2238  0 */\n      0x00\n        /* \"MGAS/BEP20TokenImplementation.sol\":2220:2226  _owner */\n      0x08\n      0x00\n        /* \"MGAS/BEP20TokenImplementation.sol\":2220:2239  _owner = address(0) */\n      0x0100\n      exp\n      dup2\n      sload\n      dup2\n      0xffffffffffffffffffffffffffffffffffffffff\n      mul\n      not\n      and\n      swap1\n      dup4\n      0xffffffffffffffffffffffffffffffffffffffff\n      and\n      mul\n      or\n      swap1\n      sstore\n      pop\n        /* \"MGAS/BEP20TokenImplementation.sol\":2107:2247  function renounceOwnership() public onlyOwner {... */\n      jump\t// out\n        /* \"MGAS/BEP20TokenImplementation.sol\":636:664  uint256 public pricePerToken */\n    tag_69:\n      sload(0x07)\n      dup2\n      jump\t// out\n        /* \"MGAS/BEP20TokenImplementation.sol\":2869:2962  function getOwner() external override view returns (address) {... */\n    tag_72:\n        /* \"MGAS/BEP20TokenImplementation.sol\":2921:2928  address */\n      0x00\n        /* \"MGAS/BEP20TokenImplementation.sol\":2948:2954  _owner */\n      0x08\n      0x00\n      swap1\n      sload\n      swap1\n      0x0100\n      exp\n      swap1\n      div\n      0xffffffffffffffffffffffffffffffffffffffff\n      and\n        /* \"MGAS/BEP20TokenImplementation.sol\":2941:2954  return _owner */\n      swap1\n      pop\n        /* \"MGAS/BEP20TokenImplementation.sol\":2869:2962  function getOwner() external override view returns (address) {... */\n      swap1\n      jump\t// out\n        /* \"MGAS/BEP20TokenImplementation.sol\":3188:3286  function symbol() external override view returns (string memory) {... */\n    tag_76:\n        /* \"MGAS/BEP20TokenImplementation.sol\":3238:3251  string memory */\n      0x60\n        /* \"MGAS/BEP20TokenImplementation.sol\":3271:3278  _symbol */\n      0x05\n        /* \"MGAS/BEP20TokenImplementation.sol\":3264:3278  return _symbol */\n      dup1\n      sload\n      tag_149\n      swap1\n      tag_109\n      jump\t// in\n    tag_149:\n      dup1\n      0x1f\n      add\n      0x20\n      dup1\n      swap2\n      div\n      mul\n      0x20\n      add\n      mload(0x40)\n      swap1\n      dup2\n      add\n      0x40\n      mstore\n      dup1\n      swap3\n      swap2\n      swap1\n      dup2\n      dup2\n      mstore\n      0x20\n      add\n      dup3\n      dup1\n      sload\n      tag_150\n      swap1\n      tag_109\n      jump\t// in\n    tag_150:\n      dup1\n      iszero\n      tag_151\n      jumpi\n      dup1\n      0x1f\n      lt\n      tag_152\n      jumpi\n      0x0100\n      dup1\n      dup4\n      sload\n      div\n      mul\n      dup4\n      mstore\n      swap2\n      0x20\n      add\n      swap2\n      jump(tag_151)\n    tag_152:\n      dup3\n      add\n      swap2\n      swap1\n      0x00\n      mstore\n      keccak256(0x00, 0x20)\n      swap1\n    tag_153:\n      dup2\n      sload\n      dup2\n      mstore\n      swap1\n      0x01\n      add\n      swap1\n      0x20\n      add\n      dup1\n      dup4\n      gt\n      tag_153\n      jumpi\n      dup3\n      swap1\n      sub\n      0x1f\n      and\n      dup3\n      add\n      swap2\n    tag_151:\n      pop\n      pop\n      pop\n      pop\n      pop\n      swap1\n      pop\n        /* \"MGAS/BEP20TokenImplementation.sol\":3188:3286  function symbol() external override view returns (string memory) {... */\n      swap1\n      jump\t// out\n        /* \"MGAS/BEP20TokenImplementation.sol\":7107:7296  function mint(uint256 amount) public onlyOwner returns (bool) {... */\n    tag_80:\n        /* \"MGAS/BEP20TokenImplementation.sol\":7163:7167  bool */\n      0x00\n        /* \"MGAS/BEP20TokenImplementation.sol\":1258:1270  _msgSender() */\n      tag_155\n        /* \"MGAS/BEP20TokenImplementation.sol\":1258:1268  _msgSender */\n      tag_117\n        /* \"MGAS/BEP20TokenImplementation.sol\":1258:1270  _msgSender() */\n      jump\t// in\n    tag_155:\n        /* \"MGAS/BEP20TokenImplementation.sol\":1248:1270  _owner == _msgSender() */\n      0xffffffffffffffffffffffffffffffffffffffff\n      and\n        /* \"MGAS/BEP20TokenImplementation.sol\":1248:1254  _owner */\n      0x08\n      0x00\n      swap1\n      sload\n      swap1\n      0x0100\n      exp\n      swap1\n      div\n      0xffffffffffffffffffffffffffffffffffffffff\n      and\n        /* \"MGAS/BEP20TokenImplementation.sol\":1248:1270  _owner == _msgSender() */\n      0xffffffffffffffffffffffffffffffffffffffff\n      and\n      eq\n        /* \"MGAS/BEP20TokenImplementation.sol\":1240:1307  require(_owner == _msgSender(), \"Ownable: caller is not the owner\") */\n      tag_156\n      jumpi\n      mload(0x40)\n      0x08c379a000000000000000000000000000000000000000000000000000000000\n      dup2\n      mstore\n      0x04\n      add\n      tag_157\n      swap1\n      tag_145\n      jump\t// in\n    tag_157:\n      mload(0x40)\n      dup1\n      swap2\n      sub\n      swap1\n      revert\n    tag_156:\n        /* \"MGAS/BEP20TokenImplementation.sol\":7188:7197  _mintable */\n      0x08\n      0x14\n      swap1\n      sload\n      swap1\n      0x0100\n      exp\n      swap1\n      div\n      0xff\n      and\n        /* \"MGAS/BEP20TokenImplementation.sol\":7180:7228  require(_mintable, \"this token is not mintable\") */\n      tag_159\n      jumpi\n      mload(0x40)\n      0x08c379a000000000000000000000000000000000000000000000000000000000\n      dup2\n      mstore\n      0x04\n      add\n      tag_160\n      swap1\n      tag_161\n      jump\t// in\n    tag_160:\n      mload(0x40)\n      dup1\n      swap2\n      sub\n      swap1\n      revert\n    tag_159:\n        /* \"MGAS/BEP20TokenImplementation.sol\":7239:7266  _mint(_msgSender(), amount) */\n      tag_162\n        /* \"MGAS/BEP20TokenImplementation.sol\":7245:7257  _msgSender() */\n      tag_163\n        /* \"MGAS/BEP20TokenImplementation.sol\":7245:7255  _msgSender */\n      tag_117\n        /* \"MGAS/BEP20TokenImplementation.sol\":7245:7257  _msgSender() */\n      jump\t// in\n    tag_163:\n        /* \"MGAS/BEP20TokenImplementation.sol\":7259:7265  amount */\n      dup4\n        /* \"MGAS/BEP20TokenImplementation.sol\":7239:7244  _mint */\n      tag_164\n        /* \"MGAS/BEP20TokenImplementation.sol\":7239:7266  _mint(_msgSender(), amount) */\n      jump\t// in\n    tag_162:\n        /* \"MGAS/BEP20TokenImplementation.sol\":7284:7288  true */\n      0x01\n        /* \"MGAS/BEP20TokenImplementation.sol\":7277:7288  return true */\n      swap1\n      pop\n        /* \"MGAS/BEP20TokenImplementation.sol\":7107:7296  function mint(uint256 amount) public onlyOwner returns (bool) {... */\n      swap2\n      swap1\n      pop\n      jump\t// out\n        /* \"MGAS/BEP20TokenImplementation.sol\":6593:6854  function decreaseAllowance(address spender, uint256 subtractedValue) public returns (bool) {... */\n    tag_84:\n        /* \"MGAS/BEP20TokenImplementation.sol\":6678:6682  bool */\n      0x00\n        /* \"MGAS/BEP20TokenImplementation.sol\":6695:6824  _approve(_msgSender(), spender, _allowances[_msgSender()][spender].sub(subtractedValue, \"BEP20: decreased allowance below zero\")) */\n      tag_166\n        /* \"MGAS/BEP20TokenImplementation.sol\":6704:6716  _msgSender() */\n      tag_167\n        /* \"MGAS/BEP20TokenImplementation.sol\":6704:6714  _msgSender */\n      tag_117\n        /* \"MGAS/BEP20TokenImplementation.sol\":6704:6716  _msgSender() */\n      jump\t// in\n    tag_167:\n        /* \"MGAS/BEP20TokenImplementation.sol\":6718:6725  spender */\n      dup5\n        /* \"MGAS/BEP20TokenImplementation.sol\":6727:6823  _allowances[_msgSender()][spender].sub(subtractedValue, \"BEP20: decreased allowance below zero\") */\n      tag_168\n        /* \"MGAS/BEP20TokenImplementation.sol\":6766:6781  subtractedValue */\n      dup6\n        /* \"MGAS/BEP20TokenImplementation.sol\":6727:6823  _allowances[_msgSender()][spender].sub(subtractedValue, \"BEP20: decreased allowance below zero\") */\n      mload(0x40)\n      dup1\n      0x60\n      add\n      0x40\n      mstore\n      dup1\n      0x25\n      dup2\n      mstore\n      0x20\n      add\n      data_b7060b3538dcd3ddc8a941c91636a8115a1aa46914747fd9809d543bbb46cd22\n      0x25\n      swap2\n      codecopy\n        /* \"MGAS/BEP20TokenImplementation.sol\":6727:6738  _allowances */\n      0x02\n        /* \"MGAS/BEP20TokenImplementation.sol\":6727:6752  _allowances[_msgSender()] */\n      0x00\n        /* \"MGAS/BEP20TokenImplementation.sol\":6739:6751  _msgSender() */\n      tag_169\n        /* \"MGAS/BEP20TokenImplementation.sol\":6739:6749  _msgSender */\n      tag_117\n        /* \"MGAS/BEP20TokenImplementation.sol\":6739:6751  _msgSender() */\n      jump\t// in\n    tag_169:\n        /* \"MGAS/BEP20TokenImplementation.sol\":6727:6752  _allowances[_msgSender()] */\n      0xffffffffffffffffffffffffffffffffffffffff\n      and\n      0xffffffffffffffffffffffffffffffffffffffff\n      and\n      dup2\n      mstore\n      0x20\n      add\n      swap1\n      dup2\n      mstore\n      0x20\n      add\n      0x00\n      keccak256\n        /* \"MGAS/BEP20TokenImplementation.sol\":6727:6761  _allowances[_msgSender()][spender] */\n      0x00\n        /* \"MGAS/BEP20TokenImplementation.sol\":6753:6760  spender */\n      dup11\n        /* \"MGAS/BEP20TokenImplementation.sol\":6727:6761  _allowances[_msgSender()][spender] */\n      0xffffffffffffffffffffffffffffffffffffffff\n      and\n      0xffffffffffffffffffffffffffffffffffffffff\n      and\n      dup2\n      mstore\n      0x20\n      add\n      swap1\n      dup2\n      mstore\n      0x20\n      add\n      0x00\n      keccak256\n      sload\n        /* \"MGAS/BEP20TokenImplementation.sol\":6727:6765  _allowances[_msgSender()][spender].sub */\n      tag_127\n      swap1\n        /* \"MGAS/BEP20TokenImplementation.sol\":6727:6823  _allowances[_msgSender()][spender].sub(subtractedValue, \"BEP20: decreased allowance below zero\") */\n      swap3\n      swap2\n      swap1\n      0xffffffff\n      and\n      jump\t// in\n    tag_168:\n        /* \"MGAS/BEP20TokenImplementation.sol\":6695:6703  _approve */\n      tag_118\n        /* \"MGAS/BEP20TokenImplementation.sol\":6695:6824  _approve(_msgSender(), spender, _allowances[_msgSender()][spender].sub(subtractedValue, \"BEP20: decreased allowance below zero\")) */\n      jump\t// in\n    tag_166:\n        /* \"MGAS/BEP20TokenImplementation.sol\":6842:6846  true */\n      0x01\n        /* \"MGAS/BEP20TokenImplementation.sol\":6835:6846  return true */\n      swap1\n      pop\n        /* \"MGAS/BEP20TokenImplementation.sol\":6593:6854  function decreaseAllowance(address spender, uint256 subtractedValue) public returns (bool) {... */\n      swap3\n      swap2\n      pop\n      pop\n      jump\t// out\n        /* \"MGAS/BEP20TokenImplementation.sol\":4002:4171  function transfer(address recipient, uint256 amount) external override returns (bool) {... */\n    tag_88:\n        /* \"MGAS/BEP20TokenImplementation.sol\":4082:4086  bool */\n      0x00\n        /* \"MGAS/BEP20TokenImplementation.sol\":4099:4141  _transfer(_msgSender(), recipient, amount) */\n      tag_171\n        /* \"MGAS/BEP20TokenImplementation.sol\":4109:4121  _msgSender() */\n      tag_172\n        /* \"MGAS/BEP20TokenImplementation.sol\":4109:4119  _msgSender */\n      tag_117\n        /* \"MGAS/BEP20TokenImplementation.sol\":4109:4121  _msgSender() */\n      jump\t// in\n    tag_172:\n        /* \"MGAS/BEP20TokenImplementation.sol\":4123:4132  recipient */\n      dup5\n        /* \"MGAS/BEP20TokenImplementation.sol\":4134:4140  amount */\n      dup5\n        /* \"MGAS/BEP20TokenImplementation.sol\":4099:4108  _transfer */\n      tag_122\n        /* \"MGAS/BEP20TokenImplementation.sol\":4099:4141  _transfer(_msgSender(), recipient, amount) */\n      jump\t// in\n    tag_171:\n        /* \"MGAS/BEP20TokenImplementation.sol\":4159:4163  true */\n      0x01\n        /* \"MGAS/BEP20TokenImplementation.sol\":4152:4163  return true */\n      swap1\n      pop\n        /* \"MGAS/BEP20TokenImplementation.sol\":4002:4171  function transfer(address recipient, uint256 amount) external override returns (bool) {... */\n      swap3\n      swap2\n      pop\n      pop\n      jump\t// out\n        /* \"MGAS/BEP20TokenImplementation.sol\":7548:7766  function mintTo(uint256 amount, address recipient) override external onlyOwner returns (bool) {... */\n    tag_93:\n        /* \"MGAS/BEP20TokenImplementation.sol\":7636:7640  bool */\n      0x00\n        /* \"MGAS/BEP20TokenImplementation.sol\":1258:1270  _msgSender() */\n      tag_174\n        /* \"MGAS/BEP20TokenImplementation.sol\":1258:1268  _msgSender */\n      tag_117\n        /* \"MGAS/BEP20TokenImplementation.sol\":1258:1270  _msgSender() */\n      jump\t// in\n    tag_174:\n        /* \"MGAS/BEP20TokenImplementation.sol\":1248:1270  _owner == _msgSender() */\n      0xffffffffffffffffffffffffffffffffffffffff\n      and\n        /* \"MGAS/BEP20TokenImplementation.sol\":1248:1254  _owner */\n      0x08\n      0x00\n      swap1\n      sload\n      swap1\n      0x0100\n      exp\n      swap1\n      div\n      0xffffffffffffffffffffffffffffffffffffffff\n      and\n        /* \"MGAS/BEP20TokenImplementation.sol\":1248:1270  _owner == _msgSender() */\n      0xffffffffffffffffffffffffffffffffffffffff\n      and\n      eq\n        /* \"MGAS/BEP20TokenImplementation.sol\":1240:1307  require(_owner == _msgSender(), \"Ownable: caller is not the owner\") */\n      tag_175\n      jumpi\n      mload(0x40)\n      0x08c379a000000000000000000000000000000000000000000000000000000000\n      dup2\n      mstore\n      0x04\n      add\n      tag_176\n      swap1\n      tag_145\n      jump\t// in\n    tag_176:\n      mload(0x40)\n      dup1\n      swap2\n      sub\n      swap1\n      revert\n    tag_175:\n        /* \"MGAS/BEP20TokenImplementation.sol\":7661:7670  _mintable */\n      0x08\n      0x14\n      swap1\n      sload\n      swap1\n      0x0100\n      exp\n      swap1\n      div\n      0xff\n      and\n        /* \"MGAS/BEP20TokenImplementation.sol\":7653:7701  require(_mintable, \"this token is not mintable\") */\n      tag_178\n      jumpi\n      mload(0x40)\n      0x08c379a000000000000000000000000000000000000000000000000000000000\n      dup2\n      mstore\n      0x04\n      add\n      tag_179\n      swap1\n      tag_161\n      jump\t// in\n    tag_179:\n      mload(0x40)\n      dup1\n      swap2\n      sub\n      swap1\n      revert\n    tag_178:\n        /* \"MGAS/BEP20TokenImplementation.sol\":7712:7736  _mint(recipient, amount) */\n      tag_180\n        /* \"MGAS/BEP20TokenImplementation.sol\":7718:7727  recipient */\n      dup3\n        /* \"MGAS/BEP20TokenImplementation.sol\":7729:7735  amount */\n      dup5\n        /* \"MGAS/BEP20TokenImplementation.sol\":7712:7717  _mint */\n      tag_164\n        /* \"MGAS/BEP20TokenImplementation.sol\":7712:7736  _mint(recipient, amount) */\n      jump\t// in\n    tag_180:\n        /* \"MGAS/BEP20TokenImplementation.sol\":7754:7758  true */\n      0x01\n        /* \"MGAS/BEP20TokenImplementation.sol\":7747:7758  return true */\n      swap1\n      pop\n        /* \"MGAS/BEP20TokenImplementation.sol\":7548:7766  function mintTo(uint256 amount, address recipient) override external onlyOwner returns (bool) {... */\n      swap3\n      swap2\n      pop\n      pop\n      jump\t// out\n        /* \"MGAS/BEP20TokenImplementation.sol\":977:1113  function getETHValue(uint256 _tokenAmount) public view returns (uint256 ethValue) {... */\n    tag_97:\n        /* \"MGAS/BEP20TokenImplementation.sol\":1041:1057  uint256 ethValue */\n      0x00\n        /* \"MGAS/BEP20TokenImplementation.sol\":1092:1105  pricePerToken */\n      sload(0x07)\n        /* \"MGAS/BEP20TokenImplementation.sol\":1077:1089  _tokenAmount */\n      dup3\n        /* \"MGAS/BEP20TokenImplementation.sol\":1077:1105  _tokenAmount * pricePerToken */\n      tag_182\n      swap2\n      swap1\n      tag_183\n      jump\t// in\n    tag_182:\n        /* \"MGAS/BEP20TokenImplementation.sol\":1070:1105  return _tokenAmount * pricePerToken */\n      swap1\n      pop\n        /* \"MGAS/BEP20TokenImplementation.sol\":977:1113  function getETHValue(uint256 _tokenAmount) public view returns (uint256 ethValue) {... */\n      swap2\n      swap1\n      pop\n      jump\t// out\n        /* \"MGAS/BEP20TokenImplementation.sol\":4233:4378  function allowance(address owner, address spender) external override view returns (uint256) {... */\n    tag_102:\n        /* \"MGAS/BEP20TokenImplementation.sol\":4316:4323  uint256 */\n      0x00\n        /* \"MGAS/BEP20TokenImplementation.sol\":4343:4354  _allowances */\n      0x02\n        /* \"MGAS/BEP20TokenImplementation.sol\":4343:4361  _allowances[owner] */\n      0x00\n        /* \"MGAS/BEP20TokenImplementation.sol\":4355:4360  owner */\n      dup5\n        /* \"MGAS/BEP20TokenImplementation.sol\":4343:4361  _allowances[owner] */\n      0xffffffffffffffffffffffffffffffffffffffff\n      and\n      0xffffffffffffffffffffffffffffffffffffffff\n      and\n      dup2\n      mstore\n      0x20\n      add\n      swap1\n      dup2\n      mstore\n      0x20\n      add\n      0x00\n      keccak256\n        /* \"MGAS/BEP20TokenImplementation.sol\":4343:4370  _allowances[owner][spender] */\n      0x00\n        /* \"MGAS/BEP20TokenImplementation.sol\":4362:4369  spender */\n      dup4\n        /* \"MGAS/BEP20TokenImplementation.sol\":4343:4370  _allowances[owner][spender] */\n      0xffffffffffffffffffffffffffffffffffffffff\n      and\n      0xffffffffffffffffffffffffffffffffffffffff\n      and\n      dup2\n      mstore\n      0x20\n      add\n      swap1\n      dup2\n      mstore\n      0x20\n      add\n      0x00\n      keccak256\n      sload\n        /* \"MGAS/BEP20TokenImplementation.sol\":4336:4370  return _allowances[owner][spender] */\n      swap1\n      pop\n        /* \"MGAS/BEP20TokenImplementation.sol\":4233:4378  function allowance(address owner, address spender) external override view returns (uint256) {... */\n      swap3\n      swap2\n      pop\n      pop\n      jump\t// out\n        /* \"MGAS/BEP20TokenImplementation.sol\":2402:2638  function transferOwnership(address newOwner) public onlyOwner {... */\n    tag_106:\n        /* \"MGAS/BEP20TokenImplementation.sol\":1258:1270  _msgSender() */\n      tag_186\n        /* \"MGAS/BEP20TokenImplementation.sol\":1258:1268  _msgSender */\n      tag_117\n        /* \"MGAS/BEP20TokenImplementation.sol\":1258:1270  _msgSender() */\n      jump\t// in\n    tag_186:\n        /* \"MGAS/BEP20TokenImplementation.sol\":1248:1270  _owner == _msgSender() */\n      0xffffffffffffffffffffffffffffffffffffffff\n      and\n        /* \"MGAS/BEP20TokenImplementation.sol\":1248:1254  _owner */\n      0x08\n      0x00\n      swap1\n      sload\n      swap1\n      0x0100\n      exp\n      swap1\n      div\n      0xffffffffffffffffffffffffffffffffffffffff\n      and\n        /* \"MGAS/BEP20TokenImplementation.sol\":1248:1270  _owner == _msgSender() */\n      0xffffffffffffffffffffffffffffffffffffffff\n      and\n      eq\n        /* \"MGAS/BEP20TokenImplementation.sol\":1240:1307  require(_owner == _msgSender(), \"Ownable: caller is not the owner\") */\n      tag_187\n      jumpi\n      mload(0x40)\n      0x08c379a000000000000000000000000000000000000000000000000000000000\n      dup2\n      mstore\n      0x04\n      add\n      tag_188\n      swap1\n      tag_145\n      jump\t// in\n    tag_188:\n      mload(0x40)\n      dup1\n      swap2\n      sub\n      swap1\n      revert\n    tag_187:\n        /* \"MGAS/BEP20TokenImplementation.sol\":2503:2504  0 */\n      0x00\n        /* \"MGAS/BEP20TokenImplementation.sol\":2483:2505  newOwner != address(0) */\n      0xffffffffffffffffffffffffffffffffffffffff\n      and\n        /* \"MGAS/BEP20TokenImplementation.sol\":2483:2491  newOwner */\n      dup2\n        /* \"MGAS/BEP20TokenImplementation.sol\":2483:2505  newOwner != address(0) */\n      0xffffffffffffffffffffffffffffffffffffffff\n      and\n      sub\n        /* \"MGAS/BEP20TokenImplementation.sol\":2475:2548  require(newOwner != address(0), \"Ownable: new owner is the zero address\") */\n      tag_190\n      jumpi\n      mload(0x40)\n      0x08c379a000000000000000000000000000000000000000000000000000000000\n      dup2\n      mstore\n      0x04\n      add\n      tag_191\n      swap1\n      tag_192\n      jump\t// in\n    tag_191:\n      mload(0x40)\n      dup1\n      swap2\n      sub\n      swap1\n      revert\n    tag_190:\n        /* \"MGAS/BEP20TokenImplementation.sol\":2593:2601  newOwner */\n      dup1\n        /* \"MGAS/BEP20TokenImplementation.sol\":2564:2602  OwnershipTransferred(_owner, newOwner) */\n      0xffffffffffffffffffffffffffffffffffffffff\n      and\n        /* \"MGAS/BEP20TokenImplementation.sol\":2585:2591  _owner */\n      0x08\n      0x00\n      swap1\n      sload\n      swap1\n      0x0100\n      exp\n      swap1\n      div\n      0xffffffffffffffffffffffffffffffffffffffff\n      and\n        /* \"MGAS/BEP20TokenImplementation.sol\":2564:2602  OwnershipTransferred(_owner, newOwner) */\n      0xffffffffffffffffffffffffffffffffffffffff\n      and\n      0x8be0079c531659141344cd1fd0a4f28419497f9722a3daafe3b4186f6b6457e0\n      mload(0x40)\n      mload(0x40)\n      dup1\n      swap2\n      sub\n      swap1\n      log3\n        /* \"MGAS/BEP20TokenImplementation.sol\":2622:2630  newOwner */\n      dup1\n        /* \"MGAS/BEP20TokenImplementation.sol\":2613:2619  _owner */\n      0x08\n      0x00\n        /* \"MGAS/BEP20TokenImplementation.sol\":2613:2630  _owner = newOwner */\n      0x0100\n      exp\n      dup2\n      sload\n      dup2\n      0xffffffffffffffffffffffffffffffffffffffff\n      mul\n      not\n      and\n      swap1\n      dup4\n      0xffffffffffffffffffffffffffffffffffffffff\n      and\n      mul\n      or\n      swap1\n      sstore\n      pop\n        /* \"MGAS/BEP20TokenImplementation.sol\":2402:2638  function transferOwnership(address newOwner) public onlyOwner {... */\n      pop\n      jump\t// out\n        /* \"MGAS/Context.sol\":619:717  function _msgSender() internal view virtual returns (address) {... */\n    tag_117:\n        /* \"MGAS/Context.sol\":672:679  address */\n      0x00\n        /* \"MGAS/Context.sol\":699:709  msg.sender */\n      caller\n        /* \"MGAS/Context.sol\":692:709  return msg.sender */\n      swap1\n      pop\n        /* \"MGAS/Context.sol\":619:717  function _msgSender() internal view virtual returns (address) {... */\n      swap1\n      jump\t// out\n        /* \"MGAS/BEP20TokenImplementation.sol\":10660:10998  function _approve(address owner, address spender, uint256 amount) internal {... */\n    tag_118:\n        /* \"MGAS/BEP20TokenImplementation.sol\":10771:10772  0 */\n      0x00\n        /* \"MGAS/BEP20TokenImplementation.sol\":10754:10773  owner != address(0) */\n      0xffffffffffffffffffffffffffffffffffffffff\n      and\n        /* \"MGAS/BEP20TokenImplementation.sol\":10754:10759  owner */\n      dup4\n        /* \"MGAS/BEP20TokenImplementation.sol\":10754:10773  owner != address(0) */\n      0xffffffffffffffffffffffffffffffffffffffff\n      and\n      sub\n        /* \"MGAS/BEP20TokenImplementation.sol\":10746:10814  require(owner != address(0), \"BEP20: approve from the zero address\") */\n      tag_195\n      jumpi\n      mload(0x40)\n      0x08c379a000000000000000000000000000000000000000000000000000000000\n      dup2\n      mstore\n      0x04\n      add\n      tag_196\n      swap1\n      tag_197\n      jump\t// in\n    tag_196:\n      mload(0x40)\n      dup1\n      swap2\n      sub\n      swap1\n      revert\n    tag_195:\n        /* \"MGAS/BEP20TokenImplementation.sol\":10852:10853  0 */\n      0x00\n        /* \"MGAS/BEP20TokenImplementation.sol\":10833:10854  spender != address(0) */\n      0xffffffffffffffffffffffffffffffffffffffff\n      and\n        /* \"MGAS/BEP20TokenImplementation.sol\":10833:10840  spender */\n      dup3\n        /* \"MGAS/BEP20TokenImplementation.sol\":10833:10854  spender != address(0) */\n      0xffffffffffffffffffffffffffffffffffffffff\n      and\n      sub\n        /* \"MGAS/BEP20TokenImplementation.sol\":10825:10893  require(spender != address(0), \"BEP20: approve to the zero address\") */\n      tag_198\n      jumpi\n      mload(0x40)\n      0x08c379a000000000000000000000000000000000000000000000000000000000\n      dup2\n      mstore\n      0x04\n      add\n      tag_199\n      swap1\n      tag_200\n      jump\t// in\n    tag_199:\n      mload(0x40)\n      dup1\n      swap2\n      sub\n      swap1\n      revert\n    tag_198:\n        /* \"MGAS/BEP20TokenImplementation.sol\":10936:10942  amount */\n      dup1\n        /* \"MGAS/BEP20TokenImplementation.sol\":10906:10917  _allowances */\n      0x02\n        /* \"MGAS/BEP20TokenImplementation.sol\":10906:10924  _allowances[owner] */\n      0x00\n        /* \"MGAS/BEP20TokenImplementation.sol\":10918:10923  owner */\n      dup6\n        /* \"MGAS/BEP20TokenImplementation.sol\":10906:10924  _allowances[owner] */\n      0xffffffffffffffffffffffffffffffffffffffff\n      and\n      0xffffffffffffffffffffffffffffffffffffffff\n      and\n      dup2\n      mstore\n      0x20\n      add\n      swap1\n      dup2\n      mstore\n      0x20\n      add\n      0x00\n      keccak256\n        /* \"MGAS/BEP20TokenImplementation.sol\":10906:10933  _allowances[owner][spender] */\n      0x00\n        /* \"MGAS/BEP20TokenImplementation.sol\":10925:10932  spender */\n      dup5\n        /* \"MGAS/BEP20TokenImplementation.sol\":10906:10933  _allowances[owner][spender] */\n      0xffffffffffffffffffffffffffffffffffffffff\n      and\n      0xffffffffffffffffffffffffffffffffffffffff\n      and\n      dup2\n      mstore\n      0x20\n      add\n      swap1\n      dup2\n      mstore\n      0x20\n      add\n      0x00\n      keccak256\n        /* \"MGAS/BEP20TokenImplementation.sol\":10906:10942  _allowances[owner][spender] = amount */\n      dup2\n      swap1\n      sstore\n      pop\n        /* \"MGAS/BEP20TokenImplementation.sol\":10974:10981  spender */\n      dup2\n        /* \"MGAS/BEP20TokenImplementation.sol\":10958:10990  Approval(owner, spender, amount) */\n      0xffffffffffffffffffffffffffffffffffffffff\n      and\n        /* \"MGAS/BEP20TokenImplementation.sol\":10967:10972  owner */\n      dup4\n        /* \"MGAS/BEP20TokenImplementation.sol\":10958:10990  Approval(owner, spender, amount) */\n      0xffffffffffffffffffffffffffffffffffffffff\n      and\n      0x8c5be1e5ebec7d5bd14f71427d1e84f3dd0314c0f7b2291e5b200ac8c7c3b925\n        /* \"MGAS/BEP20TokenImplementation.sol\":10983:10989  amount */\n      dup4\n        /* \"MGAS/BEP20TokenImplementation.sol\":10958:10990  Approval(owner, spender, amount) */\n      mload(0x40)\n      tag_201\n      swap2\n      swap1\n      tag_39\n      jump\t// in\n    tag_201:\n      mload(0x40)\n      dup1\n      swap2\n      sub\n      swap1\n      log3\n        /* \"MGAS/BEP20TokenImplementation.sol\":10660:10998  function _approve(address owner, address spender, uint256 amount) internal {... */\n      pop\n      pop\n      pop\n      jump\t// out\n        /* \"MGAS/BEP20TokenImplementation.sol\":8480:8951  function _transfer(address sender, address recipient, uint256 amount) internal {... */\n    tag_122:\n        /* \"MGAS/BEP20TokenImplementation.sol\":8596:8597  0 */\n      0x00\n        /* \"MGAS/BEP20TokenImplementation.sol\":8578:8598  sender != address(0) */\n      0xffffffffffffffffffffffffffffffffffffffff\n      and\n        /* \"MGAS/BEP20TokenImplementation.sol\":8578:8584  sender */\n      dup4\n        /* \"MGAS/BEP20TokenImplementation.sol\":8578:8598  sender != address(0) */\n      0xffffffffffffffffffffffffffffffffffffffff\n      and\n      sub\n        /* \"MGAS/BEP20TokenImplementation.sol\":8570:8640  require(sender != address(0), \"BEP20: transfer from the zero address\") */\n      tag_203\n      jumpi\n      mload(0x40)\n      0x08c379a000000000000000000000000000000000000000000000000000000000\n      dup2\n      mstore\n      0x04\n      add\n      tag_204\n      swap1\n      tag_205\n      jump\t// in\n    tag_204:\n      mload(0x40)\n      dup1\n      swap2\n      sub\n      swap1\n      revert\n    tag_203:\n        /* \"MGAS/BEP20TokenImplementation.sol\":8680:8681  0 */\n      0x00\n        /* \"MGAS/BEP20TokenImplementation.sol\":8659:8682  recipient != address(0) */\n      0xffffffffffffffffffffffffffffffffffffffff\n      and\n        /* \"MGAS/BEP20TokenImplementation.sol\":8659:8668  recipient */\n      dup3\n        /* \"MGAS/BEP20TokenImplementation.sol\":8659:8682  recipient != address(0) */\n      0xffffffffffffffffffffffffffffffffffffffff\n      and\n      sub\n        /* \"MGAS/BEP20TokenImplementation.sol\":8651:8722  require(recipient != address(0), \"BEP20: transfer to the zero address\") */\n      tag_206\n      jumpi\n      mload(0x40)\n      0x08c379a000000000000000000000000000000000000000000000000000000000\n      dup2\n      mstore\n      0x04\n      add\n      tag_207\n      swap1\n      tag_208\n      jump\t// in\n    tag_207:\n      mload(0x40)\n      dup1\n      swap2\n      sub\n      swap1\n      revert\n    tag_206:\n        /* \"MGAS/BEP20TokenImplementation.sol\":8755:8826  _balances[sender].sub(amount, \"BEP20: transfer amount exceeds balance\") */\n      tag_209\n        /* \"MGAS/BEP20TokenImplementation.sol\":8777:8783  amount */\n      dup2\n        /* \"MGAS/BEP20TokenImplementation.sol\":8755:8826  _balances[sender].sub(amount, \"BEP20: transfer amount exceeds balance\") */\n      mload(0x40)\n      dup1\n      0x60\n      add\n      0x40\n      mstore\n      dup1\n      0x26\n      dup2\n      mstore\n      0x20\n      add\n      data_a91efd7a65ef5b4ae4d6568d674798b78a5a89184dd296c100513251c22d3e73\n      0x26\n      swap2\n      codecopy\n        /* \"MGAS/BEP20TokenImplementation.sol\":8755:8764  _balances */\n      0x01\n        /* \"MGAS/BEP20TokenImplementation.sol\":8755:8772  _balances[sender] */\n      0x00\n        /* \"MGAS/BEP20TokenImplementation.sol\":8765:8771  sender */\n      dup8\n        /* \"MGAS/BEP20TokenImplementation.sol\":8755:8772  _balances[sender] */\n      0xffffffffffffffffffffffffffffffffffffffff\n      and\n      0xffffffffffffffffffffffffffffffffffffffff\n      and\n      dup2\n      mstore\n      0x20\n      add\n      swap1\n      dup2\n      mstore\n      0x20\n      add\n      0x00\n      keccak256\n      sload\n        /* \"MGAS/BEP20TokenImplementation.sol\":8755:8776  _balances[sender].sub */\n      tag_127\n      swap1\n        /* \"MGAS/BEP20TokenImplementation.sol\":8755:8826  _balances[sender].sub(amount, \"BEP20: transfer amount exceeds balance\") */\n      swap3\n      swap2\n      swap1\n      0xffffffff\n      and\n      jump\t// in\n    tag_209:\n        /* \"MGAS/BEP20TokenImplementation.sol\":8735:8744  _balances */\n      0x01\n        /* \"MGAS/BEP20TokenImplementation.sol\":8735:8752  _balances[sender] */\n      0x00\n        /* \"MGAS/BEP20TokenImplementation.sol\":8745:8751  sender */\n      dup6\n        /* \"MGAS/BEP20TokenImplementation.sol\":8735:8752  _balances[sender] */\n      0xffffffffffffffffffffffffffffffffffffffff\n      and\n      0xffffffffffffffffffffffffffffffffffffffff\n      and\n      dup2\n      mstore\n      0x20\n      add\n      swap1\n      dup2\n      mstore\n      0x20\n      add\n      0x00\n      keccak256\n        /* \"MGAS/BEP20TokenImplementation.sol\":8735:8826  _balances[sender] = _balances[sender].sub(amount, \"BEP20: transfer amount exceeds balance\") */\n      dup2\n      swap1\n      sstore\n      pop\n        /* \"MGAS/BEP20TokenImplementation.sol\":8860:8892  _balances[recipient].add(amount) */\n      tag_210\n        /* \"MGAS/BEP20TokenImplementation.sol\":8885:8891  amount */\n      dup2\n        /* \"MGAS/BEP20TokenImplementation.sol\":8860:8869  _balances */\n      0x01\n        /* \"MGAS/BEP20TokenImplementation.sol\":8860:8880  _balances[recipient] */\n      0x00\n        /* \"MGAS/BEP20TokenImplementation.sol\":8870:8879  recipient */\n      dup6\n        /* \"MGAS/BEP20TokenImplementation.sol\":8860:8880  _balances[recipient] */\n      0xffffffffffffffffffffffffffffffffffffffff\n      and\n      0xffffffffffffffffffffffffffffffffffffffff\n      and\n      dup2\n      mstore\n      0x20\n      add\n      swap1\n      dup2\n      mstore\n      0x20\n      add\n      0x00\n      keccak256\n      sload\n        /* \"MGAS/BEP20TokenImplementation.sol\":8860:8884  _balances[recipient].add */\n      tag_134\n      swap1\n        /* \"MGAS/BEP20TokenImplementation.sol\":8860:8892  _balances[recipient].add(amount) */\n      swap2\n      swap1\n      0xffffffff\n      and\n      jump\t// in\n    tag_210:\n        /* \"MGAS/BEP20TokenImplementation.sol\":8837:8846  _balances */\n      0x01\n        /* \"MGAS/BEP20TokenImplementation.sol\":8837:8857  _balances[recipient] */\n      0x00\n        /* \"MGAS/BEP20TokenImplementation.sol\":8847:8856  recipient */\n      dup5\n        /* \"MGAS/BEP20TokenImplementation.sol\":8837:8857  _balances[recipient] */\n      0xffffffffffffffffffffffffffffffffffffffff\n      and\n      0xffffffffffffffffffffffffffffffffffffffff\n      and\n      dup2\n      mstore\n      0x20\n      add\n      swap1\n      dup2\n      mstore\n      0x20\n      add\n      0x00\n      keccak256\n        /* \"MGAS/BEP20TokenImplementation.sol\":8837:8892  _balances[recipient] = _balances[recipient].add(amount) */\n      dup2\n      swap1\n      sstore\n      pop\n        /* \"MGAS/BEP20TokenImplementation.sol\":8925:8934  recipient */\n      dup2\n        /* \"MGAS/BEP20TokenImplementation.sol\":8908:8943  Transfer(sender, recipient, amount) */\n      0xffffffffffffffffffffffffffffffffffffffff\n      and\n        /* \"MGAS/BEP20TokenImplementation.sol\":8917:8923  sender */\n      dup4\n        /* \"MGAS/BEP20TokenImplementation.sol\":8908:8943  Transfer(sender, recipient, amount) */\n      0xffffffffffffffffffffffffffffffffffffffff\n      and\n      0xddf252ad1be2c89b69c2b068fc378daa952ba7f163c4a11628f55a4df523b3ef\n        /* \"MGAS/BEP20TokenImplementation.sol\":8936:8942  amount */\n      dup4\n        /* \"MGAS/BEP20TokenImplementation.sol\":8908:8943  Transfer(sender, recipient, amount) */\n      mload(0x40)\n      tag_211\n      swap2\n      swap1\n      tag_39\n      jump\t// in\n    tag_211:\n      mload(0x40)\n      dup1\n      swap2\n      sub\n      swap1\n      log3\n        /* \"MGAS/BEP20TokenImplementation.sol\":8480:8951  function _transfer(address sender, address recipient, uint256 amount) internal {... */\n      pop\n      pop\n      pop\n      jump\t// out\n        /* \"MGAS/SafeMath.sol\":1817:2009  function sub(uint256 a, uint256 b, string memory errorMessage) internal pure returns (uint256) {... */\n    tag_127:\n        /* \"MGAS/SafeMath.sol\":1903:1910  uint256 */\n      0x00\n        /* \"MGAS/SafeMath.sol\":1936:1937  a */\n      dup4\n        /* \"MGAS/SafeMath.sol\":1931:1932  b */\n      dup4\n        /* \"MGAS/SafeMath.sol\":1931:1937  b <= a */\n      gt\n      iszero\n        /* \"MGAS/SafeMath.sol\":1939:1951  errorMessage */\n      dup3\n        /* \"MGAS/SafeMath.sol\":1923:1952  require(b <= a, errorMessage) */\n      swap1\n      tag_213\n      jumpi\n      mload(0x40)\n      0x08c379a000000000000000000000000000000000000000000000000000000000\n      dup2\n      mstore\n      0x04\n      add\n      tag_214\n      swap2\n      swap1\n      tag_29\n      jump\t// in\n    tag_214:\n      mload(0x40)\n      dup1\n      swap2\n      sub\n      swap1\n      revert\n    tag_213:\n      pop\n        /* \"MGAS/SafeMath.sol\":1963:1972  uint256 c */\n      0x00\n        /* \"MGAS/SafeMath.sol\":1979:1980  b */\n      dup4\n        /* \"MGAS/SafeMath.sol\":1975:1976  a */\n      dup6\n        /* \"MGAS/SafeMath.sol\":1975:1980  a - b */\n      tag_215\n      swap2\n      swap1\n      tag_216\n      jump\t// in\n    tag_215:\n        /* \"MGAS/SafeMath.sol\":1963:1980  uint256 c = a - b */\n      swap1\n      pop\n        /* \"MGAS/SafeMath.sol\":2000:2001  c */\n      dup1\n        /* \"MGAS/SafeMath.sol\":1993:2001  return c */\n      swap2\n      pop\n      pop\n        /* \"MGAS/SafeMath.sol\":1817:2009  function sub(uint256 a, uint256 b, string memory errorMessage) internal pure returns (uint256) {... */\n      swap4\n      swap3\n      pop\n      pop\n      pop\n      jump\t// out\n        /* \"MGAS/SafeMath.sol\":914:1095  function add(uint256 a, uint256 b) internal pure returns (uint256) {... */\n    tag_134:\n        /* \"MGAS/SafeMath.sol\":972:979  uint256 */\n      0x00\n        /* \"MGAS/SafeMath.sol\":992:1001  uint256 c */\n      dup1\n        /* \"MGAS/SafeMath.sol\":1008:1009  b */\n      dup3\n        /* \"MGAS/SafeMath.sol\":1004:1005  a */\n      dup5\n        /* \"MGAS/SafeMath.sol\":1004:1009  a + b */\n      tag_218\n      swap2\n      swap1\n      tag_219\n      jump\t// in\n    tag_218:\n        /* \"MGAS/SafeMath.sol\":992:1009  uint256 c = a + b */\n      swap1\n      pop\n        /* \"MGAS/SafeMath.sol\":1033:1034  a */\n      dup4\n        /* \"MGAS/SafeMath.sol\":1028:1029  c */\n      dup2\n        /* \"MGAS/SafeMath.sol\":1028:1034  c >= a */\n      lt\n      iszero\n        /* \"MGAS/SafeMath.sol\":1020:1066  require(c >= a, \"SafeMath: addition overflow\") */\n      tag_220\n      jumpi\n      mload(0x40)\n      0x08c379a000000000000000000000000000000000000000000000000000000000\n      dup2\n      mstore\n      0x04\n      add\n      tag_221\n      swap1\n      tag_222\n      jump\t// in\n    tag_221:\n      mload(0x40)\n      dup1\n      swap2\n      sub\n      swap1\n      revert\n    tag_220:\n        /* \"MGAS/SafeMath.sol\":1086:1087  c */\n      dup1\n        /* \"MGAS/SafeMath.sol\":1079:1087  return c */\n      swap2\n      pop\n      pop\n        /* \"MGAS/SafeMath.sol\":914:1095  function add(uint256 a, uint256 b) internal pure returns (uint256) {... */\n      swap3\n      swap2\n      pop\n      pop\n      jump\t// out\n        /* \"MGAS/BEP20TokenImplementation.sol\":9872:10220  function _burn(address account, uint256 amount) internal {... */\n    tag_138:\n        /* \"MGAS/BEP20TokenImplementation.sol\":9967:9968  0 */\n      0x00\n        /* \"MGAS/BEP20TokenImplementation.sol\":9948:9969  account != address(0) */\n      0xffffffffffffffffffffffffffffffffffffffff\n      and\n        /* \"MGAS/BEP20TokenImplementation.sol\":9948:9955  account */\n      dup3\n        /* \"MGAS/BEP20TokenImplementation.sol\":9948:9969  account != address(0) */\n      0xffffffffffffffffffffffffffffffffffffffff\n      and\n      sub\n        /* \"MGAS/BEP20TokenImplementation.sol\":9940:10007  require(account != address(0), \"BEP20: burn from the zero address\") */\n      tag_224\n      jumpi\n      mload(0x40)\n      0x08c379a000000000000000000000000000000000000000000000000000000000\n      dup2\n      mstore\n      0x04\n      add\n      tag_225\n      swap1\n      tag_226\n      jump\t// in\n    tag_225:\n      mload(0x40)\n      dup1\n      swap2\n      sub\n      swap1\n      revert\n    tag_224:\n        /* \"MGAS/BEP20TokenImplementation.sol\":10041:10109  _balances[account].sub(amount, \"BEP20: burn amount exceeds balance\") */\n      tag_227\n        /* \"MGAS/BEP20TokenImplementation.sol\":10064:10070  amount */\n      dup2\n        /* \"MGAS/BEP20TokenImplementation.sol\":10041:10109  _balances[account].sub(amount, \"BEP20: burn amount exceeds balance\") */\n      mload(0x40)\n      dup1\n      0x60\n      add\n      0x40\n      mstore\n      dup1\n      0x22\n      dup2\n      mstore\n      0x20\n      add\n      data_deaa84b30175fd0578812c46240362b7914652a35e6707ad7e1556891e4ae032\n      0x22\n      swap2\n      codecopy\n        /* \"MGAS/BEP20TokenImplementation.sol\":10041:10050  _balances */\n      0x01\n        /* \"MGAS/BEP20TokenImplementation.sol\":10041:10059  _balances[account] */\n      0x00\n        /* \"MGAS/BEP20TokenImplementation.sol\":10051:10058  account */\n      dup7\n        /* \"MGAS/BEP20TokenImplementation.sol\":10041:10059  _balances[account] */\n      0xffffffffffffffffffffffffffffffffffffffff\n      and\n      0xffffffffffffffffffffffffffffffffffffffff\n      and\n      dup2\n      mstore\n      0x20\n      add\n      swap1\n      dup2\n      mstore\n      0x20\n      add\n      0x00\n      keccak256\n      sload\n        /* \"MGAS/BEP20TokenImplementation.sol\":10041:10063  _balances[account].sub */\n      tag_127\n      swap1\n        /* \"MGAS/BEP20TokenImplementation.sol\":10041:10109  _balances[account].sub(amount, \"BEP20: burn amount exceeds balance\") */\n      swap3\n      swap2\n      swap1\n      0xffffffff\n      and\n      jump\t// in\n    tag_227:\n        /* \"MGAS/BEP20TokenImplementation.sol\":10020:10029  _balances */\n      0x01\n        /* \"MGAS/BEP20TokenImplementation.sol\":10020:10038  _balances[account] */\n      0x00\n        /* \"MGAS/BEP20TokenImplementation.sol\":10030:10037  account */\n      dup5\n        /* \"MGAS/BEP20TokenImplementation.sol\":10020:10038  _balances[account] */\n      0xffffffffffffffffffffffffffffffffffffffff\n      and\n      0xffffffffffffffffffffffffffffffffffffffff\n      and\n      dup2\n      mstore\n      0x20\n      add\n      swap1\n      dup2\n      mstore\n      0x20\n      add\n      0x00\n      keccak256\n        /* \"MGAS/BEP20TokenImplementation.sol\":10020:10109  _balances[account] = _balances[account].sub(amount, \"BEP20: burn amount exceeds balance\") */\n      dup2\n      swap1\n      sstore\n      pop\n        /* \"MGAS/BEP20TokenImplementation.sol\":10135:10159  _totalSupply.sub(amount) */\n      tag_228\n        /* \"MGAS/BEP20TokenImplementation.sol\":10152:10158  amount */\n      dup2\n        /* \"MGAS/BEP20TokenImplementation.sol\":10135:10147  _totalSupply */\n      sload(0x03)\n        /* \"MGAS/BEP20TokenImplementation.sol\":10135:10151  _totalSupply.sub */\n      tag_229\n      swap1\n        /* \"MGAS/BEP20TokenImplementation.sol\":10135:10159  _totalSupply.sub(amount) */\n      swap2\n      swap1\n      0xffffffff\n      and\n      jump\t// in\n    tag_228:\n        /* \"MGAS/BEP20TokenImplementation.sol\":10120:10132  _totalSupply */\n      0x03\n        /* \"MGAS/BEP20TokenImplementation.sol\":10120:10159  _totalSupply = _totalSupply.sub(amount) */\n      dup2\n      swap1\n      sstore\n      pop\n        /* \"MGAS/BEP20TokenImplementation.sol\":10201:10202  0 */\n      0x00\n        /* \"MGAS/BEP20TokenImplementation.sol\":10175:10212  Transfer(account, address(0), amount) */\n      0xffffffffffffffffffffffffffffffffffffffff\n      and\n        /* \"MGAS/BEP20TokenImplementation.sol\":10184:10191  account */\n      dup3\n        /* \"MGAS/BEP20TokenImplementation.sol\":10175:10212  Transfer(account, address(0), amount) */\n      0xffffffffffffffffffffffffffffffffffffffff\n      and\n      0xddf252ad1be2c89b69c2b068fc378daa952ba7f163c4a11628f55a4df523b3ef\n        /* \"MGAS/BEP20TokenImplementation.sol\":10205:10211  amount */\n      dup4\n        /* \"MGAS/BEP20TokenImplementation.sol\":10175:10212  Transfer(account, address(0), amount) */\n      mload(0x40)\n      tag_230\n      swap2\n      swap1\n      tag_39\n      jump\t// in\n    tag_230:\n      mload(0x40)\n      dup1\n      swap2\n      sub\n      swap1\n      log3\n        /* \"MGAS/BEP20TokenImplementation.sol\":9872:10220  function _burn(address account, uint256 amount) internal {... */\n      pop\n      pop\n      jump\t// out\n        /* \"MGAS/BEP20TokenImplementation.sol\":9232:9540  function _mint(address account, uint256 amount) internal {... */\n    tag_164:\n        /* \"MGAS/BEP20TokenImplementation.sol\":9327:9328  0 */\n      0x00\n        /* \"MGAS/BEP20TokenImplementation.sol\":9308:9329  account != address(0) */\n      0xffffffffffffffffffffffffffffffffffffffff\n      and\n        /* \"MGAS/BEP20TokenImplementation.sol\":9308:9315  account */\n      dup3\n        /* \"MGAS/BEP20TokenImplementation.sol\":9308:9329  account != address(0) */\n      0xffffffffffffffffffffffffffffffffffffffff\n      and\n      sub\n        /* \"MGAS/BEP20TokenImplementation.sol\":9300:9365  require(account != address(0), \"BEP20: mint to the zero address\") */\n      tag_232\n      jumpi\n      mload(0x40)\n      0x08c379a000000000000000000000000000000000000000000000000000000000\n      dup2\n      mstore\n      0x04\n      add\n      tag_233\n      swap1\n      tag_234\n      jump\t// in\n    tag_233:\n      mload(0x40)\n      dup1\n      swap2\n      sub\n      swap1\n      revert\n    tag_232:\n        /* \"MGAS/BEP20TokenImplementation.sol\":9393:9417  _totalSupply.add(amount) */\n      tag_235\n        /* \"MGAS/BEP20TokenImplementation.sol\":9410:9416  amount */\n      dup2\n        /* \"MGAS/BEP20TokenImplementation.sol\":9393:9405  _totalSupply */\n      sload(0x03)\n        /* \"MGAS/BEP20TokenImplementation.sol\":9393:9409  _totalSupply.add */\n      tag_134\n      swap1\n        /* \"MGAS/BEP20TokenImplementation.sol\":9393:9417  _totalSupply.add(amount) */\n      swap2\n      swap1\n      0xffffffff\n      and\n      jump\t// in\n    tag_235:\n        /* \"MGAS/BEP20TokenImplementation.sol\":9378:9390  _totalSupply */\n      0x03\n        /* \"MGAS/BEP20TokenImplementation.sol\":9378:9417  _totalSupply = _totalSupply.add(amount) */\n      dup2\n      swap1\n      sstore\n      pop\n        /* \"MGAS/BEP20TokenImplementation.sol\":9449:9479  _balances[account].add(amount) */\n      tag_236\n        /* \"MGAS/BEP20TokenImplementation.sol\":9472:9478  amount */\n      dup2\n        /* \"MGAS/BEP20TokenImplementation.sol\":9449:9458  _balances */\n      0x01\n        /* \"MGAS/BEP20TokenImplementation.sol\":9449:9467  _balances[account] */\n      0x00\n        /* \"MGAS/BEP20TokenImplementation.sol\":9459:9466  account */\n      dup6\n        /* \"MGAS/BEP20TokenImplementation.sol\":9449:9467  _balances[account] */\n      0xffffffffffffffffffffffffffffffffffffffff\n      and\n      0xffffffffffffffffffffffffffffffffffffffff\n      and\n      dup2\n      mstore\n      0x20\n      add\n      swap1\n      dup2\n      mstore\n      0x20\n      add\n      0x00\n      keccak256\n      sload\n        /* \"MGAS/BEP20TokenImplementation.sol\":9449:9471  _balances[account].add */\n      tag_134\n      swap1\n        /* \"MGAS/BEP20TokenImplementation.sol\":9449:9479  _balances[account].add(amount) */\n      swap2\n      swap1\n      0xffffffff\n      and\n      jump\t// in\n    tag_236:\n        /* \"MGAS/BEP20TokenImplementation.sol\":9428:9437  _balances */\n      0x01\n        /* \"MGAS/BEP20TokenImplementation.sol\":9428:9446  _balances[account] */\n      0x00\n        /* \"MGAS/BEP20TokenImplementation.sol\":9438:9445  account */\n      dup5\n        /* \"MGAS/BEP20TokenImplementation.sol\":9428:9446  _balances[account] */\n      0xffffffffffffffffffffffffffffffffffffffff\n      and\n      0xffffffffffffffffffffffffffffffffffffffff\n      and\n      dup2\n      mstore\n      0x20\n      add\n      swap1\n      dup2\n      mstore\n      0x20\n      add\n      0x00\n      keccak256\n        /* \"MGAS/BEP20TokenImplementation.sol\":9428:9479  _balances[account] = _balances[account].add(amount) */\n      dup2\n      swap1\n      sstore\n      pop\n        /* \"MGAS/BEP20TokenImplementation.sol\":9516:9523  account */\n      dup2\n        /* \"MGAS/BEP20TokenImplementation.sol\":9495:9532  Transfer(address(0), account, amount) */\n      0xffffffffffffffffffffffffffffffffffffffff\n      and\n        /* \"MGAS/BEP20TokenImplementation.sol\":9512:9513  0 */\n      0x00\n        /* \"MGAS/BEP20TokenImplementation.sol\":9495:9532  Transfer(address(0), account, amount) */\n      0xffffffffffffffffffffffffffffffffffffffff\n      and\n      0xddf252ad1be2c89b69c2b068fc378daa952ba7f163c4a11628f55a4df523b3ef\n        /* \"MGAS/BEP20TokenImplementation.sol\":9525:9531  amount */\n      dup4\n        /* \"MGAS/BEP20TokenImplementation.sol\":9495:9532  Transfer(address(0), account, amount) */\n      mload(0x40)\n      tag_237\n      swap2\n      swap1\n      tag_39\n      jump\t// in\n    tag_237:\n      mload(0x40)\n      dup1\n      swap2\n      sub\n      swap1\n      log3\n        /* \"MGAS/BEP20TokenImplementation.sol\":9232:9540  function _mint(address account, uint256 amount) internal {... */\n      pop\n      pop\n      jump\t// out\n        /* \"MGAS/SafeMath.sol\":1378:1514  function sub(uint256 a, uint256 b) internal pure returns (uint256) {... */\n    tag_229:\n        /* \"MGAS/SafeMath.sol\":1436:1443  uint256 */\n      0x00\n        /* \"MGAS/SafeMath.sol\":1463:1506  sub(a, b, \"SafeMath: subtraction overflow\") */\n      tag_239\n        /* \"MGAS/SafeMath.sol\":1467:1468  a */\n      dup4\n        /* \"MGAS/SafeMath.sol\":1470:1471  b */\n      dup4\n        /* \"MGAS/SafeMath.sol\":1463:1506  sub(a, b, \"SafeMath: subtraction overflow\") */\n      mload(0x40)\n      dup1\n      0x40\n      add\n      0x40\n      mstore\n      dup1\n      0x1e\n      dup2\n      mstore\n      0x20\n      add\n      0x536166654d6174683a207375627472616374696f6e206f766572666c6f770000\n      dup2\n      mstore\n      pop\n        /* \"MGAS/SafeMath.sol\":1463:1466  sub */\n      tag_127\n        /* \"MGAS/SafeMath.sol\":1463:1506  sub(a, b, \"SafeMath: subtraction overflow\") */\n      jump\t// in\n    tag_239:\n        /* \"MGAS/SafeMath.sol\":1456:1506  return sub(a, b, \"SafeMath: subtraction overflow\") */\n      swap1\n      pop\n        /* \"MGAS/SafeMath.sol\":1378:1514  function sub(uint256 a, uint256 b) internal pure returns (uint256) {... */\n      swap3\n      swap2\n      pop\n      pop\n      jump\t// out\n        /* \"#utility.yul\":7:106   */\n    tag_240:\n        /* \"#utility.yul\":59:65   */\n      0x00\n        /* \"#utility.yul\":93:98   */\n      dup2\n        /* \"#utility.yul\":87:99   */\n      mload\n        /* \"#utility.yul\":77:99   */\n      swap1\n      pop\n        /* \"#utility.yul\":7:106   */\n      swap2\n      swap1\n      pop\n      jump\t// out\n        /* \"#utility.yul\":112:281   */\n    tag_241:\n        /* \"#utility.yul\":196:207   */\n      0x00\n        /* \"#utility.yul\":230:236   */\n      dup3\n        /* \"#utility.yul\":225:228   */\n      dup3\n        /* \"#utility.yul\":218:237   */\n      mstore\n        /* \"#utility.yul\":270:274   */\n      0x20\n        /* \"#utility.yul\":265:268   */\n      dup3\n        /* \"#utility.yul\":261:275   */\n      add\n        /* \"#utility.yul\":246:275   */\n      swap1\n      pop\n        /* \"#utility.yul\":112:281   */\n      swap3\n      swap2\n      pop\n      pop\n      jump\t// out\n        /* \"#utility.yul\":287:533   */\n    tag_242:\n        /* \"#utility.yul\":368:369   */\n      0x00\n        /* \"#utility.yul\":378:491   */\n    tag_287:\n        /* \"#utility.yul\":392:398   */\n      dup4\n        /* \"#utility.yul\":389:390   */\n      dup2\n        /* \"#utility.yul\":386:399   */\n      lt\n        /* \"#utility.yul\":378:491   */\n      iszero\n      tag_289\n      jumpi\n        /* \"#utility.yul\":477:478   */\n      dup1\n        /* \"#utility.yul\":472:475   */\n      dup3\n        /* \"#utility.yul\":468:479   */\n      add\n        /* \"#utility.yul\":462:480   */\n      mload\n        /* \"#utility.yul\":458:459   */\n      dup2\n        /* \"#utility.yul\":453:456   */\n      dup5\n        /* \"#utility.yul\":449:460   */\n      add\n        /* \"#utility.yul\":442:481   */\n      mstore\n        /* \"#utility.yul\":414:416   */\n      0x20\n        /* \"#utility.yul\":411:412   */\n      dup2\n        /* \"#utility.yul\":407:417   */\n      add\n        /* \"#utility.yul\":402:417   */\n      swap1\n      pop\n        /* \"#utility.yul\":378:491   */\n      jump(tag_287)\n    tag_289:\n        /* \"#utility.yul\":525:526   */\n      0x00\n        /* \"#utility.yul\":516:522   */\n      dup5\n        /* \"#utility.yul\":511:514   */\n      dup5\n        /* \"#utility.yul\":507:523   */\n      add\n        /* \"#utility.yul\":500:527   */\n      mstore\n        /* \"#utility.yul\":349:533   */\n      pop\n        /* \"#utility.yul\":287:533   */\n      pop\n      pop\n      pop\n      jump\t// out\n        /* \"#utility.yul\":539:641   */\n    tag_243:\n        /* \"#utility.yul\":580:586   */\n      0x00\n        /* \"#utility.yul\":631:633   */\n      0x1f\n        /* \"#utility.yul\":627:634   */\n      not\n        /* \"#utility.yul\":622:624   */\n      0x1f\n        /* \"#utility.yul\":615:620   */\n      dup4\n        /* \"#utility.yul\":611:625   */\n      add\n        /* \"#utility.yul\":607:635   */\n      and\n        /* \"#utility.yul\":597:635   */\n      swap1\n      pop\n        /* \"#utility.yul\":539:641   */\n      swap2\n      swap1\n      pop\n      jump\t// out\n        /* \"#utility.yul\":647:1024   */\n    tag_244:\n        /* \"#utility.yul\":735:738   */\n      0x00\n        /* \"#utility.yul\":763:802   */\n      tag_292\n        /* \"#utility.yul\":796:801   */\n      dup3\n        /* \"#utility.yul\":763:802   */\n      tag_240\n      jump\t// in\n    tag_292:\n        /* \"#utility.yul\":818:889   */\n      tag_293\n        /* \"#utility.yul\":882:888   */\n      dup2\n        /* \"#utility.yul\":877:880   */\n      dup6\n        /* \"#utility.yul\":818:889   */\n      tag_241\n      jump\t// in\n    tag_293:\n        /* \"#utility.yul\":811:889   */\n      swap4\n      pop\n        /* \"#utility.yul\":898:963   */\n      tag_294\n        /* \"#utility.yul\":956:962   */\n      dup2\n        /* \"#utility.yul\":951:954   */\n      dup6\n        /* \"#utility.yul\":944:948   */\n      0x20\n        /* \"#utility.yul\":937:942   */\n      dup7\n        /* \"#utility.yul\":933:949   */\n      add\n        /* \"#utility.yul\":898:963   */\n      tag_242\n      jump\t// in\n    tag_294:\n        /* \"#utility.yul\":988:1017   */\n      tag_295\n        /* \"#utility.yul\":1010:1016   */\n      dup2\n        /* \"#utility.yul\":988:1017   */\n      tag_243\n      jump\t// in\n    tag_295:\n        /* \"#utility.yul\":983:986   */\n      dup5\n        /* \"#utility.yul\":979:1018   */\n      add\n        /* \"#utility.yul\":972:1018   */\n      swap2\n      pop\n        /* \"#utility.yul\":739:1024   */\n      pop\n        /* \"#utility.yul\":647:1024   */\n      swap3\n      swap2\n      pop\n      pop\n      jump\t// out\n        /* \"#utility.yul\":1030:1343   */\n    tag_29:\n        /* \"#utility.yul\":1143:1147   */\n      0x00\n        /* \"#utility.yul\":1181:1183   */\n      0x20\n        /* \"#utility.yul\":1170:1179   */\n      dup3\n        /* \"#utility.yul\":1166:1184   */\n      add\n        /* \"#utility.yul\":1158:1184   */\n      swap1\n      pop\n        /* \"#utility.yul\":1230:1239   */\n      dup2\n        /* \"#utility.yul\":1224:1228   */\n      dup2\n        /* \"#utility.yul\":1220:1240   */\n      sub\n        /* \"#utility.yul\":1216:1217   */\n      0x00\n        /* \"#utility.yul\":1205:1214   */\n      dup4\n        /* \"#utility.yul\":1201:1218   */\n      add\n        /* \"#utility.yul\":1194:1241   */\n      mstore\n        /* \"#utility.yul\":1258:1336   */\n      tag_297\n        /* \"#utility.yul\":1331:1335   */\n      dup2\n        /* \"#utility.yul\":1322:1328   */\n      dup5\n        /* \"#utility.yul\":1258:1336   */\n      tag_244\n      jump\t// in\n    tag_297:\n        /* \"#utility.yul\":1250:1336   */\n      swap1\n      pop\n        /* \"#utility.yul\":1030:1343   */\n      swap3\n      swap2\n      pop\n      pop\n      jump\t// out\n        /* \"#utility.yul\":1430:1547   */\n    tag_246:\n        /* \"#utility.yul\":1539:1540   */\n      0x00\n        /* \"#utility.yul\":1536:1537   */\n      dup1\n        /* \"#utility.yul\":1529:1541   */\n      revert\n        /* \"#utility.yul\":1676:1802   */\n    tag_248:\n        /* \"#utility.yul\":1713:1720   */\n      0x00\n        /* \"#utility.yul\":1753:1795   */\n      0xffffffffffffffffffffffffffffffffffffffff\n        /* \"#utility.yul\":1746:1751   */\n      dup3\n        /* \"#utility.yul\":1742:1796   */\n      and\n        /* \"#utility.yul\":1731:1796   */\n      swap1\n      pop\n        /* \"#utility.yul\":1676:1802   */\n      swap2\n      swap1\n      pop\n      jump\t// out\n        /* \"#utility.yul\":1808:1904   */\n    tag_249:\n        /* \"#utility.yul\":1845:1852   */\n      0x00\n        /* \"#utility.yul\":1874:1898   */\n      tag_303\n        /* \"#utility.yul\":1892:1897   */\n      dup3\n        /* \"#utility.yul\":1874:1898   */\n      tag_248\n      jump\t// in\n    tag_303:\n        /* \"#utility.yul\":1863:1898   */\n      swap1\n      pop\n        /* \"#utility.yul\":1808:1904   */\n      swap2\n      swap1\n      pop\n      jump\t// out\n        /* \"#utility.yul\":1910:2032   */\n    tag_250:\n        /* \"#utility.yul\":1983:2007   */\n      tag_305\n        /* \"#utility.yul\":2001:2006   */\n      dup2\n        /* \"#utility.yul\":1983:2007   */\n      tag_249\n      jump\t// in\n    tag_305:\n        /* \"#utility.yul\":1976:1981   */\n      dup2\n        /* \"#utility.yul\":1973:2008   */\n      eq\n        /* \"#utility.yul\":1963:2026   */\n      tag_306\n      jumpi\n        /* \"#utility.yul\":2022:2023   */\n      0x00\n        /* \"#utility.yul\":2019:2020   */\n      dup1\n        /* \"#utility.yul\":2012:2024   */\n      revert\n        /* \"#utility.yul\":1963:2026   */\n    tag_306:\n        /* \"#utility.yul\":1910:2032   */\n      pop\n      jump\t// out\n        /* \"#utility.yul\":2038:2177   */\n    tag_251:\n        /* \"#utility.yul\":2084:2089   */\n      0x00\n        /* \"#utility.yul\":2122:2128   */\n      dup2\n        /* \"#utility.yul\":2109:2129   */\n      calldataload\n        /* \"#utility.yul\":2100:2129   */\n      swap1\n      pop\n        /* \"#utility.yul\":2138:2171   */\n      tag_308\n        /* \"#utility.yul\":2165:2170   */\n      dup2\n        /* \"#utility.yul\":2138:2171   */\n      tag_250\n      jump\t// in\n    tag_308:\n        /* \"#utility.yul\":2038:2177   */\n      swap3\n      swap2\n      pop\n      pop\n      jump\t// out\n        /* \"#utility.yul\":2183:2260   */\n    tag_252:\n        /* \"#utility.yul\":2220:2227   */\n      0x00\n        /* \"#utility.yul\":2249:2254   */\n      dup2\n        /* \"#utility.yul\":2238:2254   */\n      swap1\n      pop\n        /* \"#utility.yul\":2183:2260   */\n      swap2\n      swap1\n      pop\n      jump\t// out\n        /* \"#utility.yul\":2266:2388   */\n    tag_253:\n        /* \"#utility.yul\":2339:2363   */\n      tag_311\n        /* \"#utility.yul\":2357:2362   */\n      dup2\n        /* \"#utility.yul\":2339:2363   */\n      tag_252\n      jump\t// in\n    tag_311:\n        /* \"#utility.yul\":2332:2337   */\n      dup2\n        /* \"#utility.yul\":2329:2364   */\n      eq\n        /* \"#utility.yul\":2319:2382   */\n      tag_312\n      jumpi\n        /* \"#utility.yul\":2378:2379   */\n      0x00\n        /* \"#utility.yul\":2375:2376   */\n      dup1\n        /* \"#utility.yul\":2368:2380   */\n      revert\n        /* \"#utility.yul\":2319:2382   */\n    tag_312:\n        /* \"#utility.yul\":2266:2388   */\n      pop\n      jump\t// out\n        /* \"#utility.yul\":2394:2533   */\n    tag_254:\n        /* \"#utility.yul\":2440:2445   */\n      0x00\n        /* \"#utility.yul\":2478:2484   */\n      dup2\n        /* \"#utility.yul\":2465:2485   */\n      calldataload\n        /* \"#utility.yul\":2456:2485   */\n      swap1\n      pop\n        /* \"#utility.yul\":2494:2527   */\n      tag_314\n        /* \"#utility.yul\":2521:2526   */\n      dup2\n        /* \"#utility.yul\":2494:2527   */\n      tag_253\n      jump\t// in\n    tag_314:\n        /* \"#utility.yul\":2394:2533   */\n      swap3\n      swap2\n      pop\n      pop\n      jump\t// out\n        /* \"#utility.yul\":2539:3013   */\n    tag_32:\n        /* \"#utility.yul\":2607:2613   */\n      0x00\n        /* \"#utility.yul\":2615:2621   */\n      dup1\n        /* \"#utility.yul\":2664:2666   */\n      0x40\n        /* \"#utility.yul\":2652:2661   */\n      dup4\n        /* \"#utility.yul\":2643:2650   */\n      dup6\n        /* \"#utility.yul\":2639:2662   */\n      sub\n        /* \"#utility.yul\":2635:2667   */\n      slt\n        /* \"#utility.yul\":2632:2751   */\n      iszero\n      tag_316\n      jumpi\n        /* \"#utility.yul\":2670:2749   */\n      tag_317\n      tag_246\n      jump\t// in\n    tag_317:\n        /* \"#utility.yul\":2632:2751   */\n    tag_316:\n        /* \"#utility.yul\":2790:2791   */\n      0x00\n        /* \"#utility.yul\":2815:2868   */\n      tag_318\n        /* \"#utility.yul\":2860:2867   */\n      dup6\n        /* \"#utility.yul\":2851:2857   */\n      dup3\n        /* \"#utility.yul\":2840:2849   */\n      dup7\n        /* \"#utility.yul\":2836:2858   */\n      add\n        /* \"#utility.yul\":2815:2868   */\n      tag_251\n      jump\t// in\n    tag_318:\n        /* \"#utility.yul\":2805:2868   */\n      swap3\n      pop\n        /* \"#utility.yul\":2761:2878   */\n      pop\n        /* \"#utility.yul\":2917:2919   */\n      0x20\n        /* \"#utility.yul\":2943:2996   */\n      tag_319\n        /* \"#utility.yul\":2988:2995   */\n      dup6\n        /* \"#utility.yul\":2979:2985   */\n      dup3\n        /* \"#utility.yul\":2968:2977   */\n      dup7\n        /* \"#utility.yul\":2964:2986   */\n      add\n        /* \"#utility.yul\":2943:2996   */\n      tag_254\n      jump\t// in\n    tag_319:\n        /* \"#utility.yul\":2933:2996   */\n      swap2\n      pop\n        /* \"#utility.yul\":2888:3006   */\n      pop\n        /* \"#utility.yul\":2539:3013   */\n      swap3\n      pop\n      swap3\n      swap1\n      pop\n      jump\t// out\n        /* \"#utility.yul\":3019:3109   */\n    tag_255:\n        /* \"#utility.yul\":3053:3060   */\n      0x00\n        /* \"#utility.yul\":3096:3101   */\n      dup2\n        /* \"#utility.yul\":3089:3102   */\n      iszero\n        /* \"#utility.yul\":3082:3103   */\n      iszero\n        /* \"#utility.yul\":3071:3103   */\n      swap1\n      pop\n        /* \"#utility.yul\":3019:3109   */\n      swap2\n      swap1\n      pop\n      jump\t// out\n        /* \"#utility.yul\":3115:3224   */\n    tag_256:\n        /* \"#utility.yul\":3196:3217   */\n      tag_322\n        /* \"#utility.yul\":3211:3216   */\n      dup2\n        /* \"#utility.yul\":3196:3217   */\n      tag_255\n      jump\t// in\n    tag_322:\n        /* \"#utility.yul\":3191:3194   */\n      dup3\n        /* \"#utility.yul\":3184:3218   */\n      mstore\n        /* \"#utility.yul\":3115:3224   */\n      pop\n      pop\n      jump\t// out\n        /* \"#utility.yul\":3230:3440   */\n    tag_35:\n        /* \"#utility.yul\":3317:3321   */\n      0x00\n        /* \"#utility.yul\":3355:3357   */\n      0x20\n        /* \"#utility.yul\":3344:3353   */\n      dup3\n        /* \"#utility.yul\":3340:3358   */\n      add\n        /* \"#utility.yul\":3332:3358   */\n      swap1\n      pop\n        /* \"#utility.yul\":3368:3433   */\n      tag_324\n        /* \"#utility.yul\":3430:3431   */\n      0x00\n        /* \"#utility.yul\":3419:3428   */\n      dup4\n        /* \"#utility.yul\":3415:3432   */\n      add\n        /* \"#utility.yul\":3406:3412   */\n      dup5\n        /* \"#utility.yul\":3368:3433   */\n      tag_256\n      jump\t// in\n    tag_324:\n        /* \"#utility.yul\":3230:3440   */\n      swap3\n      swap2\n      pop\n      pop\n      jump\t// out\n        /* \"#utility.yul\":3446:3564   */\n    tag_257:\n        /* \"#utility.yul\":3533:3557   */\n      tag_326\n        /* \"#utility.yul\":3551:3556   */\n      dup2\n        /* \"#utility.yul\":3533:3557   */\n      tag_252\n      jump\t// in\n    tag_326:\n        /* \"#utility.yul\":3528:3531   */\n      dup3\n        /* \"#utility.yul\":3521:3558   */\n      mstore\n        /* \"#utility.yul\":3446:3564   */\n      pop\n      pop\n      jump\t// out\n        /* \"#utility.yul\":3570:3792   */\n    tag_39:\n        /* \"#utility.yul\":3663:3667   */\n      0x00\n        /* \"#utility.yul\":3701:3703   */\n      0x20\n        /* \"#utility.yul\":3690:3699   */\n      dup3\n        /* \"#utility.yul\":3686:3704   */\n      add\n        /* \"#utility.yul\":3678:3704   */\n      swap1\n      pop\n        /* \"#utility.yul\":3714:3785   */\n      tag_328\n        /* \"#utility.yul\":3782:3783   */\n      0x00\n        /* \"#utility.yul\":3771:3780   */\n      dup4\n        /* \"#utility.yul\":3767:3784   */\n      add\n        /* \"#utility.yul\":3758:3764   */\n      dup5\n        /* \"#utility.yul\":3714:3785   */\n      tag_257\n      jump\t// in\n    tag_328:\n        /* \"#utility.yul\":3570:3792   */\n      swap3\n      swap2\n      pop\n      pop\n      jump\t// out\n        /* \"#utility.yul\":3798:4417   */\n    tag_42:\n        /* \"#utility.yul\":3875:3881   */\n      0x00\n        /* \"#utility.yul\":3883:3889   */\n      dup1\n        /* \"#utility.yul\":3891:3897   */\n      0x00\n        /* \"#utility.yul\":3940:3942   */\n      0x60\n        /* \"#utility.yul\":3928:3937   */\n      dup5\n        /* \"#utility.yul\":3919:3926   */\n      dup7\n        /* \"#utility.yul\":3915:3938   */\n      sub\n        /* \"#utility.yul\":3911:3943   */\n      slt\n        /* \"#utility.yul\":3908:4027   */\n      iszero\n      tag_330\n      jumpi\n        /* \"#utility.yul\":3946:4025   */\n      tag_331\n      tag_246\n      jump\t// in\n    tag_331:\n        /* \"#utility.yul\":3908:4027   */\n    tag_330:\n        /* \"#utility.yul\":4066:4067   */\n      0x00\n        /* \"#utility.yul\":4091:4144   */\n      tag_332\n        /* \"#utility.yul\":4136:4143   */\n      dup7\n        /* \"#utility.yul\":4127:4133   */\n      dup3\n        /* \"#utility.yul\":4116:4125   */\n      dup8\n        /* \"#utility.yul\":4112:4134   */\n      add\n        /* \"#utility.yul\":4091:4144   */\n      tag_251\n      jump\t// in\n    tag_332:\n        /* \"#utility.yul\":4081:4144   */\n      swap4\n      pop\n        /* \"#utility.yul\":4037:4154   */\n      pop\n        /* \"#utility.yul\":4193:4195   */\n      0x20\n        /* \"#utility.yul\":4219:4272   */\n      tag_333\n        /* \"#utility.yul\":4264:4271   */\n      dup7\n        /* \"#utility.yul\":4255:4261   */\n      dup3\n        /* \"#utility.yul\":4244:4253   */\n      dup8\n        /* \"#utility.yul\":4240:4262   */\n      add\n        /* \"#utility.yul\":4219:4272   */\n      tag_251\n      jump\t// in\n    tag_333:\n        /* \"#utility.yul\":4209:4272   */\n      swap3\n      pop\n        /* \"#utility.yul\":4164:4282   */\n      pop\n        /* \"#utility.yul\":4321:4323   */\n      0x40\n        /* \"#utility.yul\":4347:4400   */\n      tag_334\n        /* \"#utility.yul\":4392:4399   */\n      dup7\n        /* \"#utility.yul\":4383:4389   */\n      dup3\n        /* \"#utility.yul\":4372:4381   */\n      dup8\n        /* \"#utility.yul\":4368:4390   */\n      add\n        /* \"#utility.yul\":4347:4400   */\n      tag_254\n      jump\t// in\n    tag_334:\n        /* \"#utility.yul\":4337:4400   */\n      swap2\n      pop\n        /* \"#utility.yul\":4292:4410   */\n      pop\n        /* \"#utility.yul\":3798:4417   */\n      swap3\n      pop\n      swap3\n      pop\n      swap3\n      jump\t// out\n        /* \"#utility.yul\":4423:4509   */\n    tag_258:\n        /* \"#utility.yul\":4458:4465   */\n      0x00\n        /* \"#utility.yul\":4498:4502   */\n      0xff\n        /* \"#utility.yul\":4491:4496   */\n      dup3\n        /* \"#utility.yul\":4487:4503   */\n      and\n        /* \"#utility.yul\":4476:4503   */\n      swap1\n      pop\n        /* \"#utility.yul\":4423:4509   */\n      swap2\n      swap1\n      pop\n      jump\t// out\n        /* \"#utility.yul\":4515:4627   */\n    tag_259:\n        /* \"#utility.yul\":4598:4620   */\n      tag_337\n        /* \"#utility.yul\":4614:4619   */\n      dup2\n        /* \"#utility.yul\":4598:4620   */\n      tag_258\n      jump\t// in\n    tag_337:\n        /* \"#utility.yul\":4593:4596   */\n      dup3\n        /* \"#utility.yul\":4586:4621   */\n      mstore\n        /* \"#utility.yul\":4515:4627   */\n      pop\n      pop\n      jump\t// out\n        /* \"#utility.yul\":4633:4847   */\n    tag_48:\n        /* \"#utility.yul\":4722:4726   */\n      0x00\n        /* \"#utility.yul\":4760:4762   */\n      0x20\n        /* \"#utility.yul\":4749:4758   */\n      dup3\n        /* \"#utility.yul\":4745:4763   */\n      add\n        /* \"#utility.yul\":4737:4763   */\n      swap1\n      pop\n        /* \"#utility.yul\":4773:4840   */\n      tag_339\n        /* \"#utility.yul\":4837:4838   */\n      0x00\n        /* \"#utility.yul\":4826:4835   */\n      dup4\n        /* \"#utility.yul\":4822:4839   */\n      add\n        /* \"#utility.yul\":4813:4819   */\n      dup5\n        /* \"#utility.yul\":4773:4840   */\n      tag_259\n      jump\t// in\n    tag_339:\n        /* \"#utility.yul\":4633:4847   */\n      swap3\n      swap2\n      pop\n      pop\n      jump\t// out\n        /* \"#utility.yul\":4853:5182   */\n    tag_55:\n        /* \"#utility.yul\":4912:4918   */\n      0x00\n        /* \"#utility.yul\":4961:4963   */\n      0x20\n        /* \"#utility.yul\":4949:4958   */\n      dup3\n        /* \"#utility.yul\":4940:4947   */\n      dup5\n        /* \"#utility.yul\":4936:4959   */\n      sub\n        /* \"#utility.yul\":4932:4964   */\n      slt\n        /* \"#utility.yul\":4929:5048   */\n      iszero\n      tag_341\n      jumpi\n        /* \"#utility.yul\":4967:5046   */\n      tag_342\n      tag_246\n      jump\t// in\n    tag_342:\n        /* \"#utility.yul\":4929:5048   */\n    tag_341:\n        /* \"#utility.yul\":5087:5088   */\n      0x00\n        /* \"#utility.yul\":5112:5165   */\n      tag_343\n        /* \"#utility.yul\":5157:5164   */\n      dup5\n        /* \"#utility.yul\":5148:5154   */\n      dup3\n        /* \"#utility.yul\":5137:5146   */\n      dup6\n        /* \"#utility.yul\":5133:5155   */\n      add\n        /* \"#utility.yul\":5112:5165   */\n      tag_254\n      jump\t// in\n    tag_343:\n        /* \"#utility.yul\":5102:5165   */\n      swap2\n      pop\n        /* \"#utility.yul\":5058:5175   */\n      pop\n        /* \"#utility.yul\":4853:5182   */\n      swap3\n      swap2\n      pop\n      pop\n      jump\t// out\n        /* \"#utility.yul\":5188:5517   */\n    tag_63:\n        /* \"#utility.yul\":5247:5253   */\n      0x00\n        /* \"#utility.yul\":5296:5298   */\n      0x20\n        /* \"#utility.yul\":5284:5293   */\n      dup3\n        /* \"#utility.yul\":5275:5282   */\n      dup5\n        /* \"#utility.yul\":5271:5294   */\n      sub\n        /* \"#utility.yul\":5267:5299   */\n      slt\n        /* \"#utility.yul\":5264:5383   */\n      iszero\n      tag_345\n      jumpi\n        /* \"#utility.yul\":5302:5381   */\n      tag_346\n      tag_246\n      jump\t// in\n    tag_346:\n        /* \"#utility.yul\":5264:5383   */\n    tag_345:\n        /* \"#utility.yul\":5422:5423   */\n      0x00\n        /* \"#utility.yul\":5447:5500   */\n      tag_347\n        /* \"#utility.yul\":5492:5499   */\n      dup5\n        /* \"#utility.yul\":5483:5489   */\n      dup3\n        /* \"#utility.yul\":5472:5481   */\n      dup6\n        /* \"#utility.yul\":5468:5490   */\n      add\n        /* \"#utility.yul\":5447:5500   */\n      tag_251\n      jump\t// in\n    tag_347:\n        /* \"#utility.yul\":5437:5500   */\n      swap2\n      pop\n        /* \"#utility.yul\":5393:5510   */\n      pop\n        /* \"#utility.yul\":5188:5517   */\n      swap3\n      swap2\n      pop\n      pop\n      jump\t// out\n        /* \"#utility.yul\":5523:5641   */\n    tag_260:\n        /* \"#utility.yul\":5610:5634   */\n      tag_349\n        /* \"#utility.yul\":5628:5633   */\n      dup2\n        /* \"#utility.yul\":5610:5634   */\n      tag_249\n      jump\t// in\n    tag_349:\n        /* \"#utility.yul\":5605:5608   */\n      dup3\n        /* \"#utility.yul\":5598:5635   */\n      mstore\n        /* \"#utility.yul\":5523:5641   */\n      pop\n      pop\n      jump\t// out\n        /* \"#utility.yul\":5647:5869   */\n    tag_74:\n        /* \"#utility.yul\":5740:5744   */\n      0x00\n        /* \"#utility.yul\":5778:5780   */\n      0x20\n        /* \"#utility.yul\":5767:5776   */\n      dup3\n        /* \"#utility.yul\":5763:5781   */\n      add\n        /* \"#utility.yul\":5755:5781   */\n      swap1\n      pop\n        /* \"#utility.yul\":5791:5862   */\n      tag_351\n        /* \"#utility.yul\":5859:5860   */\n      0x00\n        /* \"#utility.yul\":5848:5857   */\n      dup4\n        /* \"#utility.yul\":5844:5861   */\n      add\n        /* \"#utility.yul\":5835:5841   */\n      dup5\n        /* \"#utility.yul\":5791:5862   */\n      tag_260\n      jump\t// in\n    tag_351:\n        /* \"#utility.yul\":5647:5869   */\n      swap3\n      swap2\n      pop\n      pop\n      jump\t// out\n        /* \"#utility.yul\":5875:6349   */\n    tag_92:\n        /* \"#utility.yul\":5943:5949   */\n      0x00\n        /* \"#utility.yul\":5951:5957   */\n      dup1\n        /* \"#utility.yul\":6000:6002   */\n      0x40\n        /* \"#utility.yul\":5988:5997   */\n      dup4\n        /* \"#utility.yul\":5979:5986   */\n      dup6\n        /* \"#utility.yul\":5975:5998   */\n      sub\n        /* \"#utility.yul\":5971:6003   */\n      slt\n        /* \"#utility.yul\":5968:6087   */\n      iszero\n      tag_353\n      jumpi\n        /* \"#utility.yul\":6006:6085   */\n      tag_354\n      tag_246\n      jump\t// in\n    tag_354:\n        /* \"#utility.yul\":5968:6087   */\n    tag_353:\n        /* \"#utility.yul\":6126:6127   */\n      0x00\n        /* \"#utility.yul\":6151:6204   */\n      tag_355\n        /* \"#utility.yul\":6196:6203   */\n      dup6\n        /* \"#utility.yul\":6187:6193   */\n      dup3\n        /* \"#utility.yul\":6176:6185   */\n      dup7\n        /* \"#utility.yul\":6172:6194   */\n      add\n        /* \"#utility.yul\":6151:6204   */\n      tag_254\n      jump\t// in\n    tag_355:\n        /* \"#utility.yul\":6141:6204   */\n      swap3\n      pop\n        /* \"#utility.yul\":6097:6214   */\n      pop\n        /* \"#utility.yul\":6253:6255   */\n      0x20\n        /* \"#utility.yul\":6279:6332   */\n      tag_356\n        /* \"#utility.yul\":6324:6331   */\n      dup6\n        /* \"#utility.yul\":6315:6321   */\n      dup3\n        /* \"#utility.yul\":6304:6313   */\n      dup7\n        /* \"#utility.yul\":6300:6322   */\n      add\n        /* \"#utility.yul\":6279:6332   */\n      tag_251\n      jump\t// in\n    tag_356:\n        /* \"#utility.yul\":6269:6332   */\n      swap2\n      pop\n        /* \"#utility.yul\":6224:6342   */\n      pop\n        /* \"#utility.yul\":5875:6349   */\n      swap3\n      pop\n      swap3\n      swap1\n      pop\n      jump\t// out\n        /* \"#utility.yul\":6355:6829   */\n    tag_101:\n        /* \"#utility.yul\":6423:6429   */\n      0x00\n        /* \"#utility.yul\":6431:6437   */\n      dup1\n        /* \"#utility.yul\":6480:6482   */\n      0x40\n        /* \"#utility.yul\":6468:6477   */\n      dup4\n        /* \"#utility.yul\":6459:6466   */\n      dup6\n        /* \"#utility.yul\":6455:6478   */\n      sub\n        /* \"#utility.yul\":6451:6483   */\n      slt\n        /* \"#utility.yul\":6448:6567   */\n      iszero\n      tag_358\n      jumpi\n        /* \"#utility.yul\":6486:6565   */\n      tag_359\n      tag_246\n      jump\t// in\n    tag_359:\n        /* \"#utility.yul\":6448:6567   */\n    tag_358:\n        /* \"#utility.yul\":6606:6607   */\n      0x00\n        /* \"#utility.yul\":6631:6684   */\n      tag_360\n        /* \"#utility.yul\":6676:6683   */\n      dup6\n        /* \"#utility.yul\":6667:6673   */\n      dup3\n        /* \"#utility.yul\":6656:6665   */\n      dup7\n        /* \"#utility.yul\":6652:6674   */\n      add\n        /* \"#utility.yul\":6631:6684   */\n      tag_251\n      jump\t// in\n    tag_360:\n        /* \"#utility.yul\":6621:6684   */\n      swap3\n      pop\n        /* \"#utility.yul\":6577:6694   */\n      pop\n        /* \"#utility.yul\":6733:6735   */\n      0x20\n        /* \"#utility.yul\":6759:6812   */\n      tag_361\n        /* \"#utility.yul\":6804:6811   */\n      dup6\n        /* \"#utility.yul\":6795:6801   */\n      dup3\n        /* \"#utility.yul\":6784:6793   */\n      dup7\n        /* \"#utility.yul\":6780:6802   */\n      add\n        /* \"#utility.yul\":6759:6812   */\n      tag_251\n      jump\t// in\n    tag_361:\n        /* \"#utility.yul\":6749:6812   */\n      swap2\n      pop\n        /* \"#utility.yul\":6704:6822   */\n      pop\n        /* \"#utility.yul\":6355:6829   */\n      swap3\n      pop\n      swap3\n      swap1\n      pop\n      jump\t// out\n        /* \"#utility.yul\":6835:7015   */\n    tag_261:\n        /* \"#utility.yul\":6883:6960   */\n      0x4e487b7100000000000000000000000000000000000000000000000000000000\n        /* \"#utility.yul\":6880:6881   */\n      0x00\n        /* \"#utility.yul\":6873:6961   */\n      mstore\n        /* \"#utility.yul\":6980:6984   */\n      0x22\n        /* \"#utility.yul\":6977:6978   */\n      0x04\n        /* \"#utility.yul\":6970:6985   */\n      mstore\n        /* \"#utility.yul\":7004:7008   */\n      0x24\n        /* \"#utility.yul\":7001:7002   */\n      0x00\n        /* \"#utility.yul\":6994:7009   */\n      revert\n        /* \"#utility.yul\":7021:7341   */\n    tag_109:\n        /* \"#utility.yul\":7065:7071   */\n      0x00\n        /* \"#utility.yul\":7102:7103   */\n      0x02\n        /* \"#utility.yul\":7096:7100   */\n      dup3\n        /* \"#utility.yul\":7092:7104   */\n      div\n        /* \"#utility.yul\":7082:7104   */\n      swap1\n      pop\n        /* \"#utility.yul\":7149:7150   */\n      0x01\n        /* \"#utility.yul\":7143:7147   */\n      dup3\n        /* \"#utility.yul\":7139:7151   */\n      and\n        /* \"#utility.yul\":7170:7188   */\n      dup1\n        /* \"#utility.yul\":7160:7241   */\n      tag_364\n      jumpi\n        /* \"#utility.yul\":7226:7230   */\n      0x7f\n        /* \"#utility.yul\":7218:7224   */\n      dup3\n        /* \"#utility.yul\":7214:7231   */\n      and\n        /* \"#utility.yul\":7204:7231   */\n      swap2\n      pop\n        /* \"#utility.yul\":7160:7241   */\n    tag_364:\n        /* \"#utility.yul\":7288:7290   */\n      0x20\n        /* \"#utility.yul\":7280:7286   */\n      dup3\n        /* \"#utility.yul\":7277:7291   */\n      lt\n        /* \"#utility.yul\":7257:7275   */\n      dup2\n        /* \"#utility.yul\":7254:7292   */\n      sub\n        /* \"#utility.yul\":7251:7335   */\n      tag_365\n      jumpi\n        /* \"#utility.yul\":7307:7325   */\n      tag_366\n      tag_261\n      jump\t// in\n    tag_366:\n        /* \"#utility.yul\":7251:7335   */\n    tag_365:\n        /* \"#utility.yul\":7072:7341   */\n      pop\n        /* \"#utility.yul\":7021:7341   */\n      swap2\n      swap1\n      pop\n      jump\t// out\n        /* \"#utility.yul\":7347:7529   */\n    tag_262:\n        /* \"#utility.yul\":7487:7521   */\n      0x4f776e61626c653a2063616c6c6572206973206e6f7420746865206f776e6572\n        /* \"#utility.yul\":7483:7484   */\n      0x00\n        /* \"#utility.yul\":7475:7481   */\n      dup3\n        /* \"#utility.yul\":7471:7485   */\n      add\n        /* \"#utility.yul\":7464:7522   */\n      mstore\n        /* \"#utility.yul\":7347:7529   */\n      pop\n      jump\t// out\n        /* \"#utility.yul\":7535:7901   */\n    tag_263:\n        /* \"#utility.yul\":7677:7680   */\n      0x00\n        /* \"#utility.yul\":7698:7765   */\n      tag_369\n        /* \"#utility.yul\":7762:7764   */\n      0x20\n        /* \"#utility.yul\":7757:7760   */\n      dup4\n        /* \"#utility.yul\":7698:7765   */\n      tag_241\n      jump\t// in\n    tag_369:\n        /* \"#utility.yul\":7691:7765   */\n      swap2\n      pop\n        /* \"#utility.yul\":7774:7867   */\n      tag_370\n        /* \"#utility.yul\":7863:7866   */\n      dup3\n        /* \"#utility.yul\":7774:7867   */\n      tag_262\n      jump\t// in\n    tag_370:\n        /* \"#utility.yul\":7892:7894   */\n      0x20\n        /* \"#utility.yul\":7887:7890   */\n      dup3\n        /* \"#utility.yul\":7883:7895   */\n      add\n        /* \"#utility.yul\":7876:7895   */\n      swap1\n      pop\n        /* \"#utility.yul\":7535:7901   */\n      swap2\n      swap1\n      pop\n      jump\t// out\n        /* \"#utility.yul\":7907:8326   */\n    tag_145:\n        /* \"#utility.yul\":8073:8077   */\n      0x00\n        /* \"#utility.yul\":8111:8113   */\n      0x20\n        /* \"#utility.yul\":8100:8109   */\n      dup3\n        /* \"#utility.yul\":8096:8114   */\n      add\n        /* \"#utility.yul\":8088:8114   */\n      swap1\n      pop\n        /* \"#utility.yul\":8160:8169   */\n      dup2\n        /* \"#utility.yul\":8154:8158   */\n      dup2\n        /* \"#utility.yul\":8150:8170   */\n      sub\n        /* \"#utility.yul\":8146:8147   */\n      0x00\n        /* \"#utility.yul\":8135:8144   */\n      dup4\n        /* \"#utility.yul\":8131:8148   */\n      add\n        /* \"#utility.yul\":8124:8171   */\n      mstore\n        /* \"#utility.yul\":8188:8319   */\n      tag_372\n        /* \"#utility.yul\":8314:8318   */\n      dup2\n        /* \"#utility.yul\":8188:8319   */\n      tag_263\n      jump\t// in\n    tag_372:\n        /* \"#utility.yul\":8180:8319   */\n      swap1\n      pop\n        /* \"#utility.yul\":7907:8326   */\n      swap2\n      swap1\n      pop\n      jump\t// out\n        /* \"#utility.yul\":8332:8508   */\n    tag_264:\n        /* \"#utility.yul\":8472:8500   */\n      0x7468697320746f6b656e206973206e6f74206d696e7461626c65000000000000\n        /* \"#utility.yul\":8468:8469   */\n      0x00\n        /* \"#utility.yul\":8460:8466   */\n      dup3\n        /* \"#utility.yul\":8456:8470   */\n      add\n        /* \"#utility.yul\":8449:8501   */\n      mstore\n        /* \"#utility.yul\":8332:8508   */\n      pop\n      jump\t// out\n        /* \"#utility.yul\":8514:8880   */\n    tag_265:\n        /* \"#utility.yul\":8656:8659   */\n      0x00\n        /* \"#utility.yul\":8677:8744   */\n      tag_375\n        /* \"#utility.yul\":8741:8743   */\n      0x1a\n        /* \"#utility.yul\":8736:8739   */\n      dup4\n        /* \"#utility.yul\":8677:8744   */\n      tag_241\n      jump\t// in\n    tag_375:\n        /* \"#utility.yul\":8670:8744   */\n      swap2\n      pop\n        /* \"#utility.yul\":8753:8846   */\n      tag_376\n        /* \"#utility.yul\":8842:8845   */\n      dup3\n        /* \"#utility.yul\":8753:8846   */\n      tag_264\n      jump\t// in\n    tag_376:\n        /* \"#utility.yul\":8871:8873   */\n      0x20\n        /* \"#utility.yul\":8866:8869   */\n      dup3\n        /* \"#utility.yul\":8862:8874   */\n      add\n        /* \"#utility.yul\":8855:8874   */\n      swap1\n      pop\n        /* \"#utility.yul\":8514:8880   */\n      swap2\n      swap1\n      pop\n      jump\t// out\n        /* \"#utility.yul\":8886:9305   */\n    tag_161:\n        /* \"#utility.yul\":9052:9056   */\n      0x00\n        /* \"#utility.yul\":9090:9092   */\n      0x20\n        /* \"#utility.yul\":9079:9088   */\n      dup3\n        /* \"#utility.yul\":9075:9093   */\n      add\n        /* \"#utility.yul\":9067:9093   */\n      swap1\n      pop\n        /* \"#utility.yul\":9139:9148   */\n      dup2\n        /* \"#utility.yul\":9133:9137   */\n      dup2\n        /* \"#utility.yul\":9129:9149   */\n      sub\n        /* \"#utility.yul\":9125:9126   */\n      0x00\n        /* \"#utility.yul\":9114:9123   */\n      dup4\n        /* \"#utility.yul\":9110:9127   */\n      add\n        /* \"#utility.yul\":9103:9150   */\n      mstore\n        /* \"#utility.yul\":9167:9298   */\n      tag_378\n        /* \"#utility.yul\":9293:9297   */\n      dup2\n        /* \"#utility.yul\":9167:9298   */\n      tag_265\n      jump\t// in\n    tag_378:\n        /* \"#utility.yul\":9159:9298   */\n      swap1\n      pop\n        /* \"#utility.yul\":8886:9305   */\n      swap2\n      swap1\n      pop\n      jump\t// out\n        /* \"#utility.yul\":9311:9491   */\n    tag_266:\n        /* \"#utility.yul\":9359:9436   */\n      0x4e487b7100000000000000000000000000000000000000000000000000000000\n        /* \"#utility.yul\":9356:9357   */\n      0x00\n        /* \"#utility.yul\":9349:9437   */\n      mstore\n        /* \"#utility.yul\":9456:9460   */\n      0x11\n        /* \"#utility.yul\":9453:9454   */\n      0x04\n        /* \"#utility.yul\":9446:9461   */\n      mstore\n        /* \"#utility.yul\":9480:9484   */\n      0x24\n        /* \"#utility.yul\":9477:9478   */\n      0x00\n        /* \"#utility.yul\":9470:9485   */\n      revert\n        /* \"#utility.yul\":9497:9907   */\n    tag_183:\n        /* \"#utility.yul\":9537:9544   */\n      0x00\n        /* \"#utility.yul\":9560:9580   */\n      tag_381\n        /* \"#utility.yul\":9578:9579   */\n      dup3\n        /* \"#utility.yul\":9560:9580   */\n      tag_252\n      jump\t// in\n    tag_381:\n        /* \"#utility.yul\":9555:9580   */\n      swap2\n      pop\n        /* \"#utility.yul\":9594:9614   */\n      tag_382\n        /* \"#utility.yul\":9612:9613   */\n      dup4\n        /* \"#utility.yul\":9594:9614   */\n      tag_252\n      jump\t// in\n    tag_382:\n        /* \"#utility.yul\":9589:9614   */\n      swap3\n      pop\n        /* \"#utility.yul\":9649:9650   */\n      dup3\n        /* \"#utility.yul\":9646:9647   */\n      dup3\n        /* \"#utility.yul\":9642:9651   */\n      mul\n        /* \"#utility.yul\":9671:9701   */\n      tag_383\n        /* \"#utility.yul\":9689:9700   */\n      dup2\n        /* \"#utility.yul\":9671:9701   */\n      tag_252\n      jump\t// in\n    tag_383:\n        /* \"#utility.yul\":9660:9701   */\n      swap2\n      pop\n        /* \"#utility.yul\":9850:9851   */\n      dup3\n        /* \"#utility.yul\":9841:9848   */\n      dup3\n        /* \"#utility.yul\":9837:9852   */\n      div\n        /* \"#utility.yul\":9834:9835   */\n      dup5\n        /* \"#utility.yul\":9831:9853   */\n      eq\n        /* \"#utility.yul\":9811:9812   */\n      dup4\n        /* \"#utility.yul\":9804:9813   */\n      iszero\n        /* \"#utility.yul\":9784:9867   */\n      or\n        /* \"#utility.yul\":9761:9900   */\n      tag_384\n      jumpi\n        /* \"#utility.yul\":9880:9898   */\n      tag_385\n      tag_266\n      jump\t// in\n    tag_385:\n        /* \"#utility.yul\":9761:9900   */\n    tag_384:\n        /* \"#utility.yul\":9545:9907   */\n      pop\n        /* \"#utility.yul\":9497:9907   */\n      swap3\n      swap2\n      pop\n      pop\n      jump\t// out\n        /* \"#utility.yul\":9913:10138   */\n    tag_267:\n        /* \"#utility.yul\":10053:10087   */\n      0x4f776e61626c653a206e6577206f776e657220697320746865207a65726f2061\n        /* \"#utility.yul\":10049:10050   */\n      0x00\n        /* \"#utility.yul\":10041:10047   */\n      dup3\n        /* \"#utility.yul\":10037:10051   */\n      add\n        /* \"#utility.yul\":10030:10088   */\n      mstore\n        /* \"#utility.yul\":10122:10130   */\n      0x6464726573730000000000000000000000000000000000000000000000000000\n        /* \"#utility.yul\":10117:10119   */\n      0x20\n        /* \"#utility.yul\":10109:10115   */\n      dup3\n        /* \"#utility.yul\":10105:10120   */\n      add\n        /* \"#utility.yul\":10098:10131   */\n      mstore\n        /* \"#utility.yul\":9913:10138   */\n      pop\n      jump\t// out\n        /* \"#utility.yul\":10144:10510   */\n    tag_268:\n        /* \"#utility.yul\":10286:10289   */\n      0x00\n        /* \"#utility.yul\":10307:10374   */\n      tag_388\n        /* \"#utility.yul\":10371:10373   */\n      0x26\n        /* \"#utility.yul\":10366:10369   */\n      dup4\n        /* \"#utility.yul\":10307:10374   */\n      tag_241\n      jump\t// in\n    tag_388:\n        /* \"#utility.yul\":10300:10374   */\n      swap2\n      pop\n        /* \"#utility.yul\":10383:10476   */\n      tag_389\n        /* \"#utility.yul\":10472:10475   */\n      dup3\n        /* \"#utility.yul\":10383:10476   */\n      tag_267\n      jump\t// in\n    tag_389:\n        /* \"#utility.yul\":10501:10503   */\n      0x40\n        /* \"#utility.yul\":10496:10499   */\n      dup3\n        /* \"#utility.yul\":10492:10504   */\n      add\n        /* \"#utility.yul\":10485:10504   */\n      swap1\n      pop\n        /* \"#utility.yul\":10144:10510   */\n      swap2\n      swap1\n      pop\n      jump\t// out\n        /* \"#utility.yul\":10516:10935   */\n    tag_192:\n        /* \"#utility.yul\":10682:10686   */\n      0x00\n        /* \"#utility.yul\":10720:10722   */\n      0x20\n        /* \"#utility.yul\":10709:10718   */\n      dup3\n        /* \"#utility.yul\":10705:10723   */\n      add\n        /* \"#utility.yul\":10697:10723   */\n      swap1\n      pop\n        /* \"#utility.yul\":10769:10778   */\n      dup2\n        /* \"#utility.yul\":10763:10767   */\n      dup2\n        /* \"#utility.yul\":10759:10779   */\n      sub\n        /* \"#utility.yul\":10755:10756   */\n      0x00\n        /* \"#utility.yul\":10744:10753   */\n      dup4\n        /* \"#utility.yul\":10740:10757   */\n      add\n        /* \"#utility.yul\":10733:10780   */\n      mstore\n        /* \"#utility.yul\":10797:10928   */\n      tag_391\n        /* \"#utility.yul\":10923:10927   */\n      dup2\n        /* \"#utility.yul\":10797:10928   */\n      tag_268\n      jump\t// in\n    tag_391:\n        /* \"#utility.yul\":10789:10928   */\n      swap1\n      pop\n        /* \"#utility.yul\":10516:10935   */\n      swap2\n      swap1\n      pop\n      jump\t// out\n        /* \"#utility.yul\":10941:11164   */\n    tag_269:\n        /* \"#utility.yul\":11081:11115   */\n      0x42455032303a20617070726f76652066726f6d20746865207a65726f20616464\n        /* \"#utility.yul\":11077:11078   */\n      0x00\n        /* \"#utility.yul\":11069:11075   */\n      dup3\n        /* \"#utility.yul\":11065:11079   */\n      add\n        /* \"#utility.yul\":11058:11116   */\n      mstore\n        /* \"#utility.yul\":11150:11156   */\n      0x7265737300000000000000000000000000000000000000000000000000000000\n        /* \"#utility.yul\":11145:11147   */\n      0x20\n        /* \"#utility.yul\":11137:11143   */\n      dup3\n        /* \"#utility.yul\":11133:11148   */\n      add\n        /* \"#utility.yul\":11126:11157   */\n      mstore\n        /* \"#utility.yul\":10941:11164   */\n      pop\n      jump\t// out\n        /* \"#utility.yul\":11170:11536   */\n    tag_270:\n        /* \"#utility.yul\":11312:11315   */\n      0x00\n        /* \"#utility.yul\":11333:11400   */\n      tag_394\n        /* \"#utility.yul\":11397:11399   */\n      0x24\n        /* \"#utility.yul\":11392:11395   */\n      dup4\n        /* \"#utility.yul\":11333:11400   */\n      tag_241\n      jump\t// in\n    tag_394:\n        /* \"#utility.yul\":11326:11400   */\n      swap2\n      pop\n        /* \"#utility.yul\":11409:11502   */\n      tag_395\n        /* \"#utility.yul\":11498:11501   */\n      dup3\n        /* \"#utility.yul\":11409:11502   */\n      tag_269\n      jump\t// in\n    tag_395:\n        /* \"#utility.yul\":11527:11529   */\n      0x40\n        /* \"#utility.yul\":11522:11525   */\n      dup3\n        /* \"#utility.yul\":11518:11530   */\n      add\n        /* \"#utility.yul\":11511:11530   */\n      swap1\n      pop\n        /* \"#utility.yul\":11170:11536   */\n      swap2\n      swap1\n      pop\n      jump\t// out\n        /* \"#utility.yul\":11542:11961   */\n    tag_197:\n        /* \"#utility.yul\":11708:11712   */\n      0x00\n        /* \"#utility.yul\":11746:11748   */\n      0x20\n        /* \"#utility.yul\":11735:11744   */\n      dup3\n        /* \"#utility.yul\":11731:11749   */\n      add\n        /* \"#utility.yul\":11723:11749   */\n      swap1\n      pop\n        /* \"#utility.yul\":11795:11804   */\n      dup2\n        /* \"#utility.yul\":11789:11793   */\n      dup2\n        /* \"#utility.yul\":11785:11805   */\n      sub\n        /* \"#utility.yul\":11781:11782   */\n      0x00\n        /* \"#utility.yul\":11770:11779   */\n      dup4\n        /* \"#utility.yul\":11766:11783   */\n      add\n        /* \"#utility.yul\":11759:11806   */\n      mstore\n        /* \"#utility.yul\":11823:11954   */\n      tag_397\n        /* \"#utility.yul\":11949:11953   */\n      dup2\n        /* \"#utility.yul\":11823:11954   */\n      tag_270\n      jump\t// in\n    tag_397:\n        /* \"#utility.yul\":11815:11954   */\n      swap1\n      pop\n        /* \"#utility.yul\":11542:11961   */\n      swap2\n      swap1\n      pop\n      jump\t// out\n        /* \"#utility.yul\":11967:12188   */\n    tag_271:\n        /* \"#utility.yul\":12107:12141   */\n      0x42455032303a20617070726f766520746f20746865207a65726f206164647265\n        /* \"#utility.yul\":12103:12104   */\n      0x00\n        /* \"#utility.yul\":12095:12101   */\n      dup3\n        /* \"#utility.yul\":12091:12105   */\n      add\n        /* \"#utility.yul\":12084:12142   */\n      mstore\n        /* \"#utility.yul\":12176:12180   */\n      0x7373000000000000000000000000000000000000000000000000000000000000\n        /* \"#utility.yul\":12171:12173   */\n      0x20\n        /* \"#utility.yul\":12163:12169   */\n      dup3\n        /* \"#utility.yul\":12159:12174   */\n      add\n        /* \"#utility.yul\":12152:12181   */\n      mstore\n        /* \"#utility.yul\":11967:12188   */\n      pop\n      jump\t// out\n        /* \"#utility.yul\":12194:12560   */\n    tag_272:\n        /* \"#utility.yul\":12336:12339   */\n      0x00\n        /* \"#utility.yul\":12357:12424   */\n      tag_400\n        /* \"#utility.yul\":12421:12423   */\n      0x22\n        /* \"#utility.yul\":12416:12419   */\n      dup4\n        /* \"#utility.yul\":12357:12424   */\n      tag_241\n      jump\t// in\n    tag_400:\n        /* \"#utility.yul\":12350:12424   */\n      swap2\n      pop\n        /* \"#utility.yul\":12433:12526   */\n      tag_401\n        /* \"#utility.yul\":12522:12525   */\n      dup3\n        /* \"#utility.yul\":12433:12526   */\n      tag_271\n      jump\t// in\n    tag_401:\n        /* \"#utility.yul\":12551:12553   */\n      0x40\n        /* \"#utility.yul\":12546:12549   */\n      dup3\n        /* \"#utility.yul\":12542:12554   */\n      add\n        /* \"#utility.yul\":12535:12554   */\n      swap1\n      pop\n        /* \"#utility.yul\":12194:12560   */\n      swap2\n      swap1\n      pop\n      jump\t// out\n        /* \"#utility.yul\":12566:12985   */\n    tag_200:\n        /* \"#utility.yul\":12732:12736   */\n      0x00\n        /* \"#utility.yul\":12770:12772   */\n      0x20\n        /* \"#utility.yul\":12759:12768   */\n      dup3\n        /* \"#utility.yul\":12755:12773   */\n      add\n        /* \"#utility.yul\":12747:12773   */\n      swap1\n      pop\n        /* \"#utility.yul\":12819:12828   */\n      dup2\n        /* \"#utility.yul\":12813:12817   */\n      dup2\n        /* \"#utility.yul\":12809:12829   */\n      sub\n        /* \"#utility.yul\":12805:12806   */\n      0x00\n        /* \"#utility.yul\":12794:12803   */\n      dup4\n        /* \"#utility.yul\":12790:12807   */\n      add\n        /* \"#utility.yul\":12783:12830   */\n      mstore\n        /* \"#utility.yul\":12847:12978   */\n      tag_403\n        /* \"#utility.yul\":12973:12977   */\n      dup2\n        /* \"#utility.yul\":12847:12978   */\n      tag_272\n      jump\t// in\n    tag_403:\n        /* \"#utility.yul\":12839:12978   */\n      swap1\n      pop\n        /* \"#utility.yul\":12566:12985   */\n      swap2\n      swap1\n      pop\n      jump\t// out\n        /* \"#utility.yul\":12991:13215   */\n    tag_273:\n        /* \"#utility.yul\":13131:13165   */\n      0x42455032303a207472616e736665722066726f6d20746865207a65726f206164\n        /* \"#utility.yul\":13127:13128   */\n      0x00\n        /* \"#utility.yul\":13119:13125   */\n      dup3\n        /* \"#utility.yul\":13115:13129   */\n      add\n        /* \"#utility.yul\":13108:13166   */\n      mstore\n        /* \"#utility.yul\":13200:13207   */\n      0x6472657373000000000000000000000000000000000000000000000000000000\n        /* \"#utility.yul\":13195:13197   */\n      0x20\n        /* \"#utility.yul\":13187:13193   */\n      dup3\n        /* \"#utility.yul\":13183:13198   */\n      add\n        /* \"#utility.yul\":13176:13208   */\n      mstore\n        /* \"#utility.yul\":12991:13215   */\n      pop\n      jump\t// out\n        /* \"#utility.yul\":13221:13587   */\n    tag_274:\n        /* \"#utility.yul\":13363:13366   */\n      0x00\n        /* \"#utility.yul\":13384:13451   */\n      tag_406\n        /* \"#utility.yul\":13448:13450   */\n      0x25\n        /* \"#utility.yul\":13443:13446   */\n      dup4\n        /* \"#utility.yul\":13384:13451   */\n      tag_241\n      jump\t// in\n    tag_406:\n        /* \"#utility.yul\":13377:13451   */\n      swap2\n      pop\n        /* \"#utility.yul\":13460:13553   */\n      tag_407\n        /* \"#utility.yul\":13549:13552   */\n      dup3\n        /* \"#utility.yul\":13460:13553   */\n      tag_273\n      jump\t// in\n    tag_407:\n        /* \"#utility.yul\":13578:13580   */\n      0x40\n        /* \"#utility.yul\":13573:13576   */\n      dup3\n        /* \"#utility.yul\":13569:13581   */\n      add\n        /* \"#utility.yul\":13562:13581   */\n      swap1\n      pop\n        /* \"#utility.yul\":13221:13587   */\n      swap2\n      swap1\n      pop\n      jump\t// out\n        /* \"#utility.yul\":13593:14012   */\n    tag_205:\n        /* \"#utility.yul\":13759:13763   */\n      0x00\n        /* \"#utility.yul\":13797:13799   */\n      0x20\n        /* \"#utility.yul\":13786:13795   */\n      dup3\n        /* \"#utility.yul\":13782:13800   */\n      add\n        /* \"#utility.yul\":13774:13800   */\n      swap1\n      pop\n        /* \"#utility.yul\":13846:13855   */\n      dup2\n        /* \"#utility.yul\":13840:13844   */\n      dup2\n        /* \"#utility.yul\":13836:13856   */\n      sub\n        /* \"#utility.yul\":13832:13833   */\n      0x00\n        /* \"#utility.yul\":13821:13830   */\n      dup4\n        /* \"#utility.yul\":13817:13834   */\n      add\n        /* \"#utility.yul\":13810:13857   */\n      mstore\n        /* \"#utility.yul\":13874:14005   */\n      tag_409\n        /* \"#utility.yul\":14000:14004   */\n      dup2\n        /* \"#utility.yul\":13874:14005   */\n      tag_274\n      jump\t// in\n    tag_409:\n        /* \"#utility.yul\":13866:14005   */\n      swap1\n      pop\n        /* \"#utility.yul\":13593:14012   */\n      swap2\n      swap1\n      pop\n      jump\t// out\n        /* \"#utility.yul\":14018:14240   */\n    tag_275:\n        /* \"#utility.yul\":14158:14192   */\n      0x42455032303a207472616e7366657220746f20746865207a65726f2061646472\n        /* \"#utility.yul\":14154:14155   */\n      0x00\n        /* \"#utility.yul\":14146:14152   */\n      dup3\n        /* \"#utility.yul\":14142:14156   */\n      add\n        /* \"#utility.yul\":14135:14193   */\n      mstore\n        /* \"#utility.yul\":14227:14232   */\n      0x6573730000000000000000000000000000000000000000000000000000000000\n        /* \"#utility.yul\":14222:14224   */\n      0x20\n        /* \"#utility.yul\":14214:14220   */\n      dup3\n        /* \"#utility.yul\":14210:14225   */\n      add\n        /* \"#utility.yul\":14203:14233   */\n      mstore\n        /* \"#utility.yul\":14018:14240   */\n      pop\n      jump\t// out\n        /* \"#utility.yul\":14246:14612   */\n    tag_276:\n        /* \"#utility.yul\":14388:14391   */\n      0x00\n        /* \"#utility.yul\":14409:14476   */\n      tag_412\n        /* \"#utility.yul\":14473:14475   */\n      0x23\n        /* \"#utility.yul\":14468:14471   */\n      dup4\n        /* \"#utility.yul\":14409:14476   */\n      tag_241\n      jump\t// in\n    tag_412:\n        /* \"#utility.yul\":14402:14476   */\n      swap2\n      pop\n        /* \"#utility.yul\":14485:14578   */\n      tag_413\n        /* \"#utility.yul\":14574:14577   */\n      dup3\n        /* \"#utility.yul\":14485:14578   */\n      tag_275\n      jump\t// in\n    tag_413:\n        /* \"#utility.yul\":14603:14605   */\n      0x40\n        /* \"#utility.yul\":14598:14601   */\n      dup3\n        /* \"#utility.yul\":14594:14606   */\n      add\n        /* \"#utility.yul\":14587:14606   */\n      swap1\n      pop\n        /* \"#utility.yul\":14246:14612   */\n      swap2\n      swap1\n      pop\n      jump\t// out\n        /* \"#utility.yul\":14618:15037   */\n    tag_208:\n        /* \"#utility.yul\":14784:14788   */\n      0x00\n        /* \"#utility.yul\":14822:14824   */\n      0x20\n        /* \"#utility.yul\":14811:14820   */\n      dup3\n        /* \"#utility.yul\":14807:14825   */\n      add\n        /* \"#utility.yul\":14799:14825   */\n      swap1\n      pop\n        /* \"#utility.yul\":14871:14880   */\n      dup2\n        /* \"#utility.yul\":14865:14869   */\n      dup2\n        /* \"#utility.yul\":14861:14881   */\n      sub\n        /* \"#utility.yul\":14857:14858   */\n      0x00\n        /* \"#utility.yul\":14846:14855   */\n      dup4\n        /* \"#utility.yul\":14842:14859   */\n      add\n        /* \"#utility.yul\":14835:14882   */\n      mstore\n        /* \"#utility.yul\":14899:15030   */\n      tag_415\n        /* \"#utility.yul\":15025:15029   */\n      dup2\n        /* \"#utility.yul\":14899:15030   */\n      tag_276\n      jump\t// in\n    tag_415:\n        /* \"#utility.yul\":14891:15030   */\n      swap1\n      pop\n        /* \"#utility.yul\":14618:15037   */\n      swap2\n      swap1\n      pop\n      jump\t// out\n        /* \"#utility.yul\":15043:15237   */\n    tag_216:\n        /* \"#utility.yul\":15083:15087   */\n      0x00\n        /* \"#utility.yul\":15103:15123   */\n      tag_417\n        /* \"#utility.yul\":15121:15122   */\n      dup3\n        /* \"#utility.yul\":15103:15123   */\n      tag_252\n      jump\t// in\n    tag_417:\n        /* \"#utility.yul\":15098:15123   */\n      swap2\n      pop\n        /* \"#utility.yul\":15137:15157   */\n      tag_418\n        /* \"#utility.yul\":15155:15156   */\n      dup4\n        /* \"#utility.yul\":15137:15157   */\n      tag_252\n      jump\t// in\n    tag_418:\n        /* \"#utility.yul\":15132:15157   */\n      swap3\n      pop\n        /* \"#utility.yul\":15181:15182   */\n      dup3\n        /* \"#utility.yul\":15178:15179   */\n      dup3\n        /* \"#utility.yul\":15174:15183   */\n      sub\n        /* \"#utility.yul\":15166:15183   */\n      swap1\n      pop\n        /* \"#utility.yul\":15205:15206   */\n      dup2\n        /* \"#utility.yul\":15199:15203   */\n      dup2\n        /* \"#utility.yul\":15196:15207   */\n      gt\n        /* \"#utility.yul\":15193:15230   */\n      iszero\n      tag_419\n      jumpi\n        /* \"#utility.yul\":15210:15228   */\n      tag_420\n      tag_266\n      jump\t// in\n    tag_420:\n        /* \"#utility.yul\":15193:15230   */\n    tag_419:\n        /* \"#utility.yul\":15043:15237   */\n      swap3\n      swap2\n      pop\n      pop\n      jump\t// out\n        /* \"#utility.yul\":15243:15434   */\n    tag_219:\n        /* \"#utility.yul\":15283:15286   */\n      0x00\n        /* \"#utility.yul\":15302:15322   */\n      tag_422\n        /* \"#utility.yul\":15320:15321   */\n      dup3\n        /* \"#utility.yul\":15302:15322   */\n      tag_252\n      jump\t// in\n    tag_422:\n        /* \"#utility.yul\":15297:15322   */\n      swap2\n      pop\n        /* \"#utility.yul\":15336:15356   */\n      tag_423\n        /* \"#utility.yul\":15354:15355   */\n      dup4\n        /* \"#utility.yul\":15336:15356   */\n      tag_252\n      jump\t// in\n    tag_423:\n        /* \"#utility.yul\":15331:15356   */\n      swap3\n      pop\n        /* \"#utility.yul\":15379:15380   */\n      dup3\n        /* \"#utility.yul\":15376:15377   */\n      dup3\n        /* \"#utility.yul\":15372:15381   */\n      add\n        /* \"#utility.yul\":15365:15381   */\n      swap1\n      pop\n        /* \"#utility.yul\":15400:15403   */\n      dup1\n        /* \"#utility.yul\":15397:15398   */\n      dup3\n        /* \"#utility.yul\":15394:15404   */\n      gt\n        /* \"#utility.yul\":15391:15427   */\n      iszero\n      tag_424\n      jumpi\n        /* \"#utility.yul\":15407:15425   */\n      tag_425\n      tag_266\n      jump\t// in\n    tag_425:\n        /* \"#utility.yul\":15391:15427   */\n    tag_424:\n        /* \"#utility.yul\":15243:15434   */\n      swap3\n      swap2\n      pop\n      pop\n      jump\t// out\n        /* \"#utility.yul\":15440:15617   */\n    tag_277:\n        /* \"#utility.yul\":15580:15609   */\n      0x536166654d6174683a206164646974696f6e206f766572666c6f770000000000\n        /* \"#utility.yul\":15576:15577   */\n      0x00\n        /* \"#utility.yul\":15568:15574   */\n      dup3\n        /* \"#utility.yul\":15564:15578   */\n      add\n        /* \"#utility.yul\":15557:15610   */\n      mstore\n        /* \"#utility.yul\":15440:15617   */\n      pop\n      jump\t// out\n        /* \"#utility.yul\":15623:15989   */\n    tag_278:\n        /* \"#utility.yul\":15765:15768   */\n      0x00\n        /* \"#utility.yul\":15786:15853   */\n      tag_428\n        /* \"#utility.yul\":15850:15852   */\n      0x1b\n        /* \"#utility.yul\":15845:15848   */\n      dup4\n        /* \"#utility.yul\":15786:15853   */\n      tag_241\n      jump\t// in\n    tag_428:\n        /* \"#utility.yul\":15779:15853   */\n      swap2\n      pop\n        /* \"#utility.yul\":15862:15955   */\n      tag_429\n        /* \"#utility.yul\":15951:15954   */\n      dup3\n        /* \"#utility.yul\":15862:15955   */\n      tag_277\n      jump\t// in\n    tag_429:\n        /* \"#utility.yul\":15980:15982   */\n      0x20\n        /* \"#utility.yul\":15975:15978   */\n      dup3\n        /* \"#utility.yul\":15971:15983   */\n      add\n        /* \"#utility.yul\":15964:15983   */\n      swap1\n      pop\n        /* \"#utility.yul\":15623:15989   */\n      swap2\n      swap1\n      pop\n      jump\t// out\n        /* \"#utility.yul\":15995:16414   */\n    tag_222:\n        /* \"#utility.yul\":16161:16165   */\n      0x00\n        /* \"#utility.yul\":16199:16201   */\n      0x20\n        /* \"#utility.yul\":16188:16197   */\n      dup3\n        /* \"#utility.yul\":16184:16202   */\n      add\n        /* \"#utility.yul\":16176:16202   */\n      swap1\n      pop\n        /* \"#utility.yul\":16248:16257   */\n      dup2\n        /* \"#utility.yul\":16242:16246   */\n      dup2\n        /* \"#utility.yul\":16238:16258   */\n      sub\n        /* \"#utility.yul\":16234:16235   */\n      0x00\n        /* \"#utility.yul\":16223:16232   */\n      dup4\n        /* \"#utility.yul\":16219:16236   */\n      add\n        /* \"#utility.yul\":16212:16259   */\n      mstore\n        /* \"#utility.yul\":16276:16407   */\n      tag_431\n        /* \"#utility.yul\":16402:16406   */\n      dup2\n        /* \"#utility.yul\":16276:16407   */\n      tag_278\n      jump\t// in\n    tag_431:\n        /* \"#utility.yul\":16268:16407   */\n      swap1\n      pop\n        /* \"#utility.yul\":15995:16414   */\n      swap2\n      swap1\n      pop\n      jump\t// out\n        /* \"#utility.yul\":16420:16640   */\n    tag_279:\n        /* \"#utility.yul\":16560:16594   */\n      0x42455032303a206275726e2066726f6d20746865207a65726f20616464726573\n        /* \"#utility.yul\":16556:16557   */\n      0x00\n        /* \"#utility.yul\":16548:16554   */\n      dup3\n        /* \"#utility.yul\":16544:16558   */\n      add\n        /* \"#utility.yul\":16537:16595   */\n      mstore\n        /* \"#utility.yul\":16629:16632   */\n      0x7300000000000000000000000000000000000000000000000000000000000000\n        /* \"#utility.yul\":16624:16626   */\n      0x20\n        /* \"#utility.yul\":16616:16622   */\n      dup3\n        /* \"#utility.yul\":16612:16627   */\n      add\n        /* \"#utility.yul\":16605:16633   */\n      mstore\n        /* \"#utility.yul\":16420:16640   */\n      pop\n      jump\t// out\n        /* \"#utility.yul\":16646:17012   */\n    tag_280:\n        /* \"#utility.yul\":16788:16791   */\n      0x00\n        /* \"#utility.yul\":16809:16876   */\n      tag_434\n        /* \"#utility.yul\":16873:16875   */\n      0x21\n        /* \"#utility.yul\":16868:16871   */\n      dup4\n        /* \"#utility.yul\":16809:16876   */\n      tag_241\n      jump\t// in\n    tag_434:\n        /* \"#utility.yul\":16802:16876   */\n      swap2\n      pop\n        /* \"#utility.yul\":16885:16978   */\n      tag_435\n        /* \"#utility.yul\":16974:16977   */\n      dup3\n        /* \"#utility.yul\":16885:16978   */\n      tag_279\n      jump\t// in\n    tag_435:\n        /* \"#utility.yul\":17003:17005   */\n      0x40\n        /* \"#utility.yul\":16998:17001   */\n      dup3\n        /* \"#utility.yul\":16994:17006   */\n      add\n        /* \"#utility.yul\":16987:17006   */\n      swap1\n      pop\n        /* \"#utility.yul\":16646:17012   */\n      swap2\n      swap1\n      pop\n      jump\t// out\n        /* \"#utility.yul\":17018:17437   */\n    tag_226:\n        /* \"#utility.yul\":17184:17188   */\n      0x00\n        /* \"#utility.yul\":17222:17224   */\n      0x20\n        /* \"#utility.yul\":17211:17220   */\n      dup3\n        /* \"#utility.yul\":17207:17225   */\n      add\n        /* \"#utility.yul\":17199:17225   */\n      swap1\n      pop\n        /* \"#utility.yul\":17271:17280   */\n      dup2\n        /* \"#utility.yul\":17265:17269   */\n      dup2\n        /* \"#utility.yul\":17261:17281   */\n      sub\n        /* \"#utility.yul\":17257:17258   */\n      0x00\n        /* \"#utility.yul\":17246:17255   */\n      dup4\n        /* \"#utility.yul\":17242:17259   */\n      add\n        /* \"#utility.yul\":17235:17282   */\n      mstore\n        /* \"#utility.yul\":17299:17430   */\n      tag_437\n        /* \"#utility.yul\":17425:17429   */\n      dup2\n        /* \"#utility.yul\":17299:17430   */\n      tag_280\n      jump\t// in\n    tag_437:\n        /* \"#utility.yul\":17291:17430   */\n      swap1\n      pop\n        /* \"#utility.yul\":17018:17437   */\n      swap2\n      swap1\n      pop\n      jump\t// out\n        /* \"#utility.yul\":17443:17624   */\n    tag_281:\n        /* \"#utility.yul\":17583:17616   */\n      0x42455032303a206d696e7420746f20746865207a65726f206164647265737300\n        /* \"#utility.yul\":17579:17580   */\n      0x00\n        /* \"#utility.yul\":17571:17577   */\n      dup3\n        /* \"#utility.yul\":17567:17581   */\n      add\n        /* \"#utility.yul\":17560:17617   */\n      mstore\n        /* \"#utility.yul\":17443:17624   */\n      pop\n      jump\t// out\n        /* \"#utility.yul\":17630:17996   */\n    tag_282:\n        /* \"#utility.yul\":17772:17775   */\n      0x00\n        /* \"#utility.yul\":17793:17860   */\n      tag_440\n        /* \"#utility.yul\":17857:17859   */\n      0x1f\n        /* \"#utility.yul\":17852:17855   */\n      dup4\n        /* \"#utility.yul\":17793:17860   */\n      tag_241\n      jump\t// in\n    tag_440:\n        /* \"#utility.yul\":17786:17860   */\n      swap2\n      pop\n        /* \"#utility.yul\":17869:17962   */\n      tag_441\n        /* \"#utility.yul\":17958:17961   */\n      dup3\n        /* \"#utility.yul\":17869:17962   */\n      tag_281\n      jump\t// in\n    tag_441:\n        /* \"#utility.yul\":17987:17989   */\n      0x20\n        /* \"#utility.yul\":17982:17985   */\n      dup3\n        /* \"#utility.yul\":17978:17990   */\n      add\n        /* \"#utility.yul\":17971:17990   */\n      swap1\n      pop\n        /* \"#utility.yul\":17630:17996   */\n      swap2\n      swap1\n      pop\n      jump\t// out\n        /* \"#utility.yul\":18002:18421   */\n    tag_234:\n        /* \"#utility.yul\":18168:18172   */\n      0x00\n        /* \"#utility.yul\":18206:18208   */\n      0x20\n        /* \"#utility.yul\":18195:18204   */\n      dup3\n        /* \"#utility.yul\":18191:18209   */\n      add\n        /* \"#utility.yul\":18183:18209   */\n      swap1\n      pop\n        /* \"#utility.yul\":18255:18264   */\n      dup2\n        /* \"#utility.yul\":18249:18253   */\n      dup2\n        /* \"#utility.yul\":18245:18265   */\n      sub\n        /* \"#utility.yul\":18241:18242   */\n      0x00\n        /* \"#utility.yul\":18230:18239   */\n      dup4\n        /* \"#utility.yul\":18226:18243   */\n      add\n        /* \"#utility.yul\":18219:18266   */\n      mstore\n        /* \"#utility.yul\":18283:18414   */\n      tag_443\n        /* \"#utility.yul\":18409:18413   */\n      dup2\n        /* \"#utility.yul\":18283:18414   */\n      tag_282\n      jump\t// in\n    tag_443:\n        /* \"#utility.yul\":18275:18414   */\n      swap1\n      pop\n        /* \"#utility.yul\":18002:18421   */\n      swap2\n      swap1\n      pop\n      jump\t// out\n    stop\n    data_4f3506f4ba71c79c3cbd442a3afeb30e9b27af2d84e116a4385b34e267d2287e 42455032303a207472616e7366657220616d6f756e74206578636565647320616c6c6f77616e6365\n    data_a91efd7a65ef5b4ae4d6568d674798b78a5a89184dd296c100513251c22d3e73 42455032303a207472616e7366657220616d6f756e7420657863656564732062616c616e6365\n    data_b7060b3538dcd3ddc8a941c91636a8115a1aa46914747fd9809d543bbb46cd22 42455032303a2064656372656173656420616c6c6f77616e63652062656c6f77207a65726f\n    data_deaa84b30175fd0578812c46240362b7914652a35e6707ad7e1556891e4ae032 42455032303a206275726e20616d6f756e7420657863656564732062616c616e6365\n\n    auxdata: 0xa26469706673582212200110a97291153d418dc892aa50f359ba38d4dea447b7a61b71fb18965f821a8864736f6c63430008120033\n}\n",
				"bytecode": {
					"linkReferences": {},
					"object": "60806040526a52b7d2dcc80cd2e40000006003556040518060400160405280600481526020017f4d4741530000000000000000000000000000000000000000000000000000000081525060049081620000599190620003ee565b506040518060400160405280600481526020017f4d4741530000000000000000000000000000000000000000000000000000000081525060059081620000a09190620003ee565b506012600660006101000a81548160ff021916908360ff16021790555073ced67d1115f1503e6de2464c378f446b2bd8298c600860006101000a81548173ffffffffffffffffffffffffffffffffffffffff021916908373ffffffffffffffffffffffffffffffffffffffff1602179055503480156200011f57600080fd5b50600354600160003373ffffffffffffffffffffffffffffffffffffffff1673ffffffffffffffffffffffffffffffffffffffff168152602001908152602001600020819055506005600781905550620004d5565b600081519050919050565b7f4e487b7100000000000000000000000000000000000000000000000000000000600052604160045260246000fd5b7f4e487b7100000000000000000000000000000000000000000000000000000000600052602260045260246000fd5b60006002820490506001821680620001f657607f821691505b6020821081036200020c576200020b620001ae565b5b50919050565b60008190508160005260206000209050919050565b60006020601f8301049050919050565b600082821b905092915050565b600060088302620002767fffffffffffffffffffffffffffffffffffffffffffffffffffffffffffffffff8262000237565b62000282868362000237565b95508019841693508086168417925050509392505050565b6000819050919050565b6000819050919050565b6000620002cf620002c9620002c3846200029a565b620002a4565b6200029a565b9050919050565b6000819050919050565b620002eb83620002ae565b62000303620002fa82620002d6565b84845462000244565b825550505050565b600090565b6200031a6200030b565b62000327818484620002e0565b505050565b5b818110156200034f576200034360008262000310565b6001810190506200032d565b5050565b601f8211156200039e57620003688162000212565b620003738462000227565b8101602085101562000383578190505b6200039b620003928562000227565b8301826200032c565b50505b505050565b600082821c905092915050565b6000620003c360001984600802620003a3565b1980831691505092915050565b6000620003de8383620003b0565b9150826002028217905092915050565b620003f98262000174565b67ffffffffffffffff8111156200041557620004146200017f565b5b620004218254620001dd565b6200042e82828562000353565b600060209050601f83116001811462000466576000841562000451578287015190505b6200045d8582620003d0565b865550620004cd565b601f198416620004768662000212565b60005b82811015620004a05784890151825560018201915060208501945060208101905062000479565b86831015620004c05784890151620004bc601f891682620003b0565b8355505b6001600288020188555050505b505050505050565b6121a780620004e56000396000f3fe608060405234801561001057600080fd5b506004361061012c5760003560e01c80637b1b1de6116100ad578063a9059cbb11610071578063a9059cbb1461035d578063b723b34e1461038d578063d5bda32d146103bd578063dd62ed3e146103ed578063f2fde38b1461041d5761012c565b80637b1b1de6146102a3578063893d20e8146102c157806395d89b41146102df578063a0712d68146102fd578063a457c2d71461032d5761012c565b806339509351116100f457806339509351146101eb57806342966c681461021b5780634bf365df1461024b57806370a0823114610269578063715018a6146102995761012c565b806306fdde0314610131578063095ea7b31461014f57806318160ddd1461017f57806323b872dd1461019d578063313ce567146101cd575b600080fd5b610139610439565b604051610146919061179e565b60405180910390f35b61016960048036038101906101649190611859565b6104cb565b60405161017691906118b4565b60405180910390f35b6101876104e9565b60405161019491906118de565b60405180910390f35b6101b760048036038101906101b291906118f9565b6104f3565b6040516101c491906118b4565b60405180910390f35b6101d56105cc565b6040516101e29190611968565b60405180910390f35b61020560048036038101906102009190611859565b6105e3565b60405161021291906118b4565b60405180910390f35b61023560048036038101906102309190611983565b610696565b60405161024291906118b4565b60405180910390f35b6102536106b2565b60405161026091906118b4565b60405180910390f35b610283600480360381019061027e91906119b0565b6106c9565b60405161029091906118de565b60405180910390f35b6102a1610712565b005b6102ab61086a565b6040516102b891906118de565b60405180910390f35b6102c9610870565b6040516102d691906119ec565b60405180910390f35b6102e761089a565b6040516102f4919061179e565b60405180910390f35b61031760048036038101906103129190611983565b61092c565b60405161032491906118b4565b60405180910390f35b61034760048036038101906103429190611859565b610a2e565b60405161035491906118b4565b60405180910390f35b61037760048036038101906103729190611859565b610afb565b60405161038491906118b4565b60405180910390f35b6103a760048036038101906103a29190611a07565b610b19565b6040516103b491906118b4565b60405180910390f35b6103d760048036038101906103d29190611983565b610c15565b6040516103e491906118de565b60405180910390f35b61040760048036038101906104029190611a47565b610c2c565b60405161041491906118de565b60405180910390f35b610437600480360381019061043291906119b0565b610cb3565b005b60606004805461044890611ab6565b80601f016020809104026020016040519081016040528092919081815260200182805461047490611ab6565b80156104c15780601f10610496576101008083540402835291602001916104c1565b820191906000526020600020905b8154815290600101906020018083116104a457829003601f168201915b5050505050905090565b60006104df6104d8610e79565b8484610e81565b6001905092915050565b6000600354905090565b600061050084848461104a565b6105c18461050c610e79565b6105bc856040518060600160405280602881526020016120dd60289139600260008b73ffffffffffffffffffffffffffffffffffffffff1673ffffffffffffffffffffffffffffffffffffffff1681526020019081526020016000206000610572610e79565b73ffffffffffffffffffffffffffffffffffffffff1673ffffffffffffffffffffffffffffffffffffffff168152602001908152602001600020546112d69092919063ffffffff16565b610e81565b600190509392505050565b6000600660009054906101000a900460ff16905090565b600061068c6105f0610e79565b846106878560026000610601610e79565b73ffffffffffffffffffffffffffffffffffffffff1673ffffffffffffffffffffffffffffffffffffffff16815260200190815260200160002060008973ffffffffffffffffffffffffffffffffffffffff1673ffffffffffffffffffffffffffffffffffffffff1681526020019081526020016000205461133a90919063ffffffff16565b610e81565b6001905092915050565b60006106a96106a3610e79565b83611398565b60019050919050565b6000600860149054906101000a900460ff16905090565b6000600160008373ffffffffffffffffffffffffffffffffffffffff1673ffffffffffffffffffffffffffffffffffffffff168152602001908152602001600020549050919050565b61071a610e79565b73ffffffffffffffffffffffffffffffffffffffff16600860009054906101000a900473ffffffffffffffffffffffffffffffffffffffff1673ffffffffffffffffffffffffffffffffffffffff16146107a9576040517f08c379a00000000000000000000000000000000000000000000000000000000081526004016107a090611b33565b60405180910390fd5b600073ffffffffffffffffffffffffffffffffffffffff16600860009054906101000a900473ffffffffffffffffffffffffffffffffffffffff1673ffffffffffffffffffffffffffffffffffffffff167f8be0079c531659141344cd1fd0a4f28419497f9722a3daafe3b4186f6b6457e060405160405180910390a36000600860006101000a81548173ffffffffffffffffffffffffffffffffffffffff021916908373ffffffffffffffffffffffffffffffffffffffff160217905550565b60075481565b6000600860009054906101000a900473ffffffffffffffffffffffffffffffffffffffff16905090565b6060600580546108a990611ab6565b80601f01602080910402602001604051908101604052809291908181526020018280546108d590611ab6565b80156109225780601f106108f757610100808354040283529160200191610922565b820191906000526020600020905b81548152906001019060200180831161090557829003601f168201915b5050505050905090565b6000610936610e79565b73ffffffffffffffffffffffffffffffffffffffff16600860009054906101000a900473ffffffffffffffffffffffffffffffffffffffff1673ffffffffffffffffffffffffffffffffffffffff16146109c5576040517f08c379a00000000000000000000000000000000000000000000000000000000081526004016109bc90611b33565b60405180910390fd5b600860149054906101000a900460ff16610a14576040517f08c379a0000000000000000000000000000000000000000000000000000000008152600401610a0b90611b9f565b60405180910390fd5b610a25610a1f610e79565b8361153b565b60019050919050565b6000610af1610a3b610e79565b84610aec8560405180606001604052806025815260200161212b6025913960026000610a65610e79565b73ffffffffffffffffffffffffffffffffffffffff1673ffffffffffffffffffffffffffffffffffffffff16815260200190815260200160002060008a73ffffffffffffffffffffffffffffffffffffffff1673ffffffffffffffffffffffffffffffffffffffff168152602001908152602001600020546112d69092919063ffffffff16565b610e81565b6001905092915050565b6000610b0f610b08610e79565b848461104a565b6001905092915050565b6000610b23610e79565b73ffffffffffffffffffffffffffffffffffffffff16600860009054906101000a900473ffffffffffffffffffffffffffffffffffffffff1673ffffffffffffffffffffffffffffffffffffffff1614610bb2576040517f08c379a0000000000000000000000000000000000000000000000000000000008152600401610ba990611b33565b60405180910390fd5b600860149054906101000a900460ff16610c01576040517f08c379a0000000000000000000000000000000000000000000000000000000008152600401610bf890611b9f565b60405180910390fd5b610c0b828461153b565b6001905092915050565b600060075482610c259190611bee565b9050919050565b6000600260008473ffffffffffffffffffffffffffffffffffffffff1673ffffffffffffffffffffffffffffffffffffffff16815260200190815260200160002060008373ffffffffffffffffffffffffffffffffffffffff1673ffffffffffffffffffffffffffffffffffffffff16815260200190815260200160002054905092915050565b610cbb610e79565b73ffffffffffffffffffffffffffffffffffffffff16600860009054906101000a900473ffffffffffffffffffffffffffffffffffffffff1673ffffffffffffffffffffffffffffffffffffffff1614610d4a576040517f08c379a0000000000000000000000000000000000000000000000000000000008152600401610d4190611b33565b60405180910390fd5b600073ffffffffffffffffffffffffffffffffffffffff168173ffffffffffffffffffffffffffffffffffffffff1603610db9576040517f08c379a0000000000000000000000000000000000000000000000000000000008152600401610db090611ca2565b60405180910390fd5b8073ffffffffffffffffffffffffffffffffffffffff16600860009054906101000a900473ffffffffffffffffffffffffffffffffffffffff1673ffffffffffffffffffffffffffffffffffffffff167f8be0079c531659141344cd1fd0a4f28419497f9722a3daafe3b4186f6b6457e060405160405180910390a380600860006101000a81548173ffffffffffffffffffffffffffffffffffffffff021916908373ffffffffffffffffffffffffffffffffffffffff16021790555050565b600033905090565b600073ffffffffffffffffffffffffffffffffffffffff168373ffffffffffffffffffffffffffffffffffffffff1603610ef0576040517f08c379a0000000000000000000000000000000000000000000000000000000008152600401610ee790611d34565b60405180910390fd5b600073ffffffffffffffffffffffffffffffffffffffff168273ffffffffffffffffffffffffffffffffffffffff1603610f5f576040517f08c379a0000000000000000000000000000000000000000000000000000000008152600401610f5690611dc6565b60405180910390fd5b80600260008573ffffffffffffffffffffffffffffffffffffffff1673ffffffffffffffffffffffffffffffffffffffff16815260200190815260200160002060008473ffffffffffffffffffffffffffffffffffffffff1673ffffffffffffffffffffffffffffffffffffffff168152602001908152602001600020819055508173ffffffffffffffffffffffffffffffffffffffff168373ffffffffffffffffffffffffffffffffffffffff167f8c5be1e5ebec7d5bd14f71427d1e84f3dd0314c0f7b2291e5b200ac8c7c3b9258360405161103d91906118de565b60405180910390a3505050565b600073ffffffffffffffffffffffffffffffffffffffff168373ffffffffffffffffffffffffffffffffffffffff16036110b9576040517f08c379a00000000000000000000000000000000000000000000000000000000081526004016110b090611e58565b60405180910390fd5b600073ffffffffffffffffffffffffffffffffffffffff168273ffffffffffffffffffffffffffffffffffffffff1603611128576040517f08c379a000000000000000000000000000000000000000000000000000000000815260040161111f90611eea565b60405180910390fd5b6111948160405180606001604052806026815260200161210560269139600160008773ffffffffffffffffffffffffffffffffffffffff1673ffffffffffffffffffffffffffffffffffffffff168152602001908152602001600020546112d69092919063ffffffff16565b600160008573ffffffffffffffffffffffffffffffffffffffff1673ffffffffffffffffffffffffffffffffffffffff1681526020019081526020016000208190555061122981600160008573ffffffffffffffffffffffffffffffffffffffff1673ffffffffffffffffffffffffffffffffffffffff1681526020019081526020016000205461133a90919063ffffffff16565b600160008473ffffffffffffffffffffffffffffffffffffffff1673ffffffffffffffffffffffffffffffffffffffff168152602001908152602001600020819055508173ffffffffffffffffffffffffffffffffffffffff168373ffffffffffffffffffffffffffffffffffffffff167fddf252ad1be2c89b69c2b068fc378daa952ba7f163c4a11628f55a4df523b3ef836040516112c991906118de565b60405180910390a3505050565b600083831115829061131e576040517f08c379a0000000000000000000000000000000000000000000000000000000008152600401611315919061179e565b60405180910390fd5b506000838561132d9190611f0a565b9050809150509392505050565b60008082846113499190611f3e565b90508381101561138e576040517f08c379a000000000000000000000000000000000000000000000000000000000815260040161138590611fbe565b60405180910390fd5b8091505092915050565b600073ffffffffffffffffffffffffffffffffffffffff168273ffffffffffffffffffffffffffffffffffffffff1603611407576040517f08c379a00000000000000000000000000000000000000000000000000000000081526004016113fe90612050565b60405180910390fd5b6114738160405180606001604052806022815260200161215060229139600160008673ffffffffffffffffffffffffffffffffffffffff1673ffffffffffffffffffffffffffffffffffffffff168152602001908152602001600020546112d69092919063ffffffff16565b600160008473ffffffffffffffffffffffffffffffffffffffff1673ffffffffffffffffffffffffffffffffffffffff168152602001908152602001600020819055506114cb816003546116c490919063ffffffff16565b600381905550600073ffffffffffffffffffffffffffffffffffffffff168273ffffffffffffffffffffffffffffffffffffffff167fddf252ad1be2c89b69c2b068fc378daa952ba7f163c4a11628f55a4df523b3ef8360405161152f91906118de565b60405180910390a35050565b600073ffffffffffffffffffffffffffffffffffffffff168273ffffffffffffffffffffffffffffffffffffffff16036115aa576040517f08c379a00000000000000000000000000000000000000000000000000000000081526004016115a1906120bc565b60405180910390fd5b6115bf8160035461133a90919063ffffffff16565b60038190555061161781600160008573ffffffffffffffffffffffffffffffffffffffff1673ffffffffffffffffffffffffffffffffffffffff1681526020019081526020016000205461133a90919063ffffffff16565b600160008473ffffffffffffffffffffffffffffffffffffffff1673ffffffffffffffffffffffffffffffffffffffff168152602001908152602001600020819055508173ffffffffffffffffffffffffffffffffffffffff16600073ffffffffffffffffffffffffffffffffffffffff167fddf252ad1be2c89b69c2b068fc378daa952ba7f163c4a11628f55a4df523b3ef836040516116b891906118de565b60405180910390a35050565b600061170683836040518060400160405280601e81526020017f536166654d6174683a207375627472616374696f6e206f766572666c6f7700008152506112d6565b905092915050565b600081519050919050565b600082825260208201905092915050565b60005b8381101561174857808201518184015260208101905061172d565b60008484015250505050565b6000601f19601f8301169050919050565b60006117708261170e565b61177a8185611719565b935061178a81856020860161172a565b61179381611754565b840191505092915050565b600060208201905081810360008301526117b88184611765565b905092915050565b600080fd5b600073ffffffffffffffffffffffffffffffffffffffff82169050919050565b60006117f0826117c5565b9050919050565b611800816117e5565b811461180b57600080fd5b50565b60008135905061181d816117f7565b92915050565b6000819050919050565b61183681611823565b811461184157600080fd5b50565b6000813590506118538161182d565b92915050565b600080604083850312156118705761186f6117c0565b5b600061187e8582860161180e565b925050602061188f85828601611844565b9150509250929050565b60008115159050919050565b6118ae81611899565b82525050565b60006020820190506118c960008301846118a5565b92915050565b6118d881611823565b82525050565b60006020820190506118f360008301846118cf565b92915050565b600080600060608486031215611912576119116117c0565b5b60006119208682870161180e565b93505060206119318682870161180e565b925050604061194286828701611844565b9150509250925092565b600060ff82169050919050565b6119628161194c565b82525050565b600060208201905061197d6000830184611959565b92915050565b600060208284031215611999576119986117c0565b5b60006119a784828501611844565b91505092915050565b6000602082840312156119c6576119c56117c0565b5b60006119d48482850161180e565b91505092915050565b6119e6816117e5565b82525050565b6000602082019050611a0160008301846119dd565b92915050565b60008060408385031215611a1e57611a1d6117c0565b5b6000611a2c85828601611844565b9250506020611a3d8582860161180e565b9150509250929050565b60008060408385031215611a5e57611a5d6117c0565b5b6000611a6c8582860161180e565b9250506020611a7d8582860161180e565b9150509250929050565b7f4e487b7100000000000000000000000000000000000000000000000000000000600052602260045260246000fd5b60006002820490506001821680611ace57607f821691505b602082108103611ae157611ae0611a87565b5b50919050565b7f4f776e61626c653a2063616c6c6572206973206e6f7420746865206f776e6572600082015250565b6000611b1d602083611719565b9150611b2882611ae7565b602082019050919050565b60006020820190508181036000830152611b4c81611b10565b9050919050565b7f7468697320746f6b656e206973206e6f74206d696e7461626c65000000000000600082015250565b6000611b89601a83611719565b9150611b9482611b53565b602082019050919050565b60006020820190508181036000830152611bb881611b7c565b9050919050565b7f4e487b7100000000000000000000000000000000000000000000000000000000600052601160045260246000fd5b6000611bf982611823565b9150611c0483611823565b9250828202611c1281611823565b91508282048414831517611c2957611c28611bbf565b5b5092915050565b7f4f776e61626c653a206e6577206f776e657220697320746865207a65726f206160008201527f6464726573730000000000000000000000000000000000000000000000000000602082015250565b6000611c8c602683611719565b9150611c9782611c30565b604082019050919050565b60006020820190508181036000830152611cbb81611c7f565b9050919050565b7f42455032303a20617070726f76652066726f6d20746865207a65726f2061646460008201527f7265737300000000000000000000000000000000000000000000000000000000602082015250565b6000611d1e602483611719565b9150611d2982611cc2565b604082019050919050565b60006020820190508181036000830152611d4d81611d11565b9050919050565b7f42455032303a20617070726f766520746f20746865207a65726f20616464726560008201527f7373000000000000000000000000000000000000000000000000000000000000602082015250565b6000611db0602283611719565b9150611dbb82611d54565b604082019050919050565b60006020820190508181036000830152611ddf81611da3565b9050919050565b7f42455032303a207472616e736665722066726f6d20746865207a65726f20616460008201527f6472657373000000000000000000000000000000000000000000000000000000602082015250565b6000611e42602583611719565b9150611e4d82611de6565b604082019050919050565b60006020820190508181036000830152611e7181611e35565b9050919050565b7f42455032303a207472616e7366657220746f20746865207a65726f206164647260008201527f6573730000000000000000000000000000000000000000000000000000000000602082015250565b6000611ed4602383611719565b9150611edf82611e78565b604082019050919050565b60006020820190508181036000830152611f0381611ec7565b9050919050565b6000611f1582611823565b9150611f2083611823565b9250828203905081811115611f3857611f37611bbf565b5b92915050565b6000611f4982611823565b9150611f5483611823565b9250828201905080821115611f6c57611f6b611bbf565b5b92915050565b7f536166654d6174683a206164646974696f6e206f766572666c6f770000000000600082015250565b6000611fa8601b83611719565b9150611fb382611f72565b602082019050919050565b60006020820190508181036000830152611fd781611f9b565b9050919050565b7f42455032303a206275726e2066726f6d20746865207a65726f2061646472657360008201527f7300000000000000000000000000000000000000000000000000000000000000602082015250565b600061203a602183611719565b915061204582611fde565b604082019050919050565b600060208201905081810360008301526120698161202d565b9050919050565b7f42455032303a206d696e7420746f20746865207a65726f206164647265737300600082015250565b60006120a6601f83611719565b91506120b182612070565b602082019050919050565b600060208201905081810360008301526120d581612099565b905091905056fe42455032303a207472616e7366657220616d6f756e74206578636565647320616c6c6f77616e636542455032303a207472616e7366657220616d6f756e7420657863656564732062616c616e636542455032303a2064656372656173656420616c6c6f77616e63652062656c6f77207a65726f42455032303a206275726e20616d6f756e7420657863656564732062616c616e6365a26469706673582212200110a97291153d418dc892aa50f359ba38d4dea447b7a61b71fb18965f821a8864736f6c63430008120033",
					"opcodes": "PUSH1 0x80 PUSH1 0x40 MSTORE PUSH11 0x52B7D2DCC80CD2E4000000 PUSH1 0x3 SSTORE PUSH1 0x40 MLOAD DUP1 PUSH1 0x40 ADD PUSH1 0x40 MSTORE DUP1 PUSH1 0x4 DUP2 MSTORE PUSH1 0x20 ADD PUSH32 0x4D47415300000000000000000000000000000000000000000000000000000000 DUP2 MSTORE POP PUSH1 0x4 SWAP1 DUP2 PUSH3 0x59 SWAP2 SWAP1 PUSH3 0x3EE JUMP JUMPDEST POP PUSH1 0x40 MLOAD DUP1 PUSH1 0x40 ADD PUSH1 0x40 MSTORE DUP1 PUSH1 0x4 DUP2 MSTORE PUSH1 0x20 ADD PUSH32 0x4D47415300000000000000000000000000000000000000000000000000000000 DUP2 MSTORE POP PUSH1 0x5 SWAP1 DUP2 PUSH3 0xA0 SWAP2 SWAP1 PUSH3 0x3EE JUMP JUMPDEST POP PUSH1 0x12 PUSH1 0x6 PUSH1 0x0 PUSH2 0x100 EXP DUP2 SLOAD DUP2 PUSH1 0xFF MUL NOT AND SWAP1 DUP4 PUSH1 0xFF AND MUL OR SWAP1 SSTORE POP PUSH20 0xCED67D1115F1503E6DE2464C378F446B2BD8298C PUSH1 0x8 PUSH1 0x0 PUSH2 0x100 EXP DUP2 SLOAD DUP2 PUSH20 0xFFFFFFFFFFFFFFFFFFFFFFFFFFFFFFFFFFFFFFFF MUL NOT AND SWAP1 DUP4 PUSH20 0xFFFFFFFFFFFFFFFFFFFFFFFFFFFFFFFFFFFFFFFF AND MUL OR SWAP1 SSTORE POP CALLVALUE DUP1 ISZERO PUSH3 0x11F JUMPI PUSH1 0x0 DUP1 REVERT JUMPDEST POP PUSH1 0x3 SLOAD PUSH1 0x1 PUSH1 0x0 CALLER PUSH20 0xFFFFFFFFFFFFFFFFFFFFFFFFFFFFFFFFFFFFFFFF AND PUSH20 0xFFFFFFFFFFFFFFFFFFFFFFFFFFFFFFFFFFFFFFFF AND DUP2 MSTORE PUSH1 0x20 ADD SWAP1 DUP2 MSTORE PUSH1 0x20 ADD PUSH1 0x0 KECCAK256 DUP2 SWAP1 SSTORE POP PUSH1 0x5 PUSH1 0x7 DUP2 SWAP1 SSTORE POP PUSH3 0x4D5 JUMP JUMPDEST PUSH1 0x0 DUP2 MLOAD SWAP1 POP SWAP2 SWAP1 POP JUMP JUMPDEST PUSH32 0x4E487B7100000000000000000000000000000000000000000000000000000000 PUSH1 0x0 MSTORE PUSH1 0x41 PUSH1 0x4 MSTORE PUSH1 0x24 PUSH1 0x0 REVERT JUMPDEST PUSH32 0x4E487B7100000000000000000000000000000000000000000000000000000000 PUSH1 0x0 MSTORE PUSH1 0x22 PUSH1 0x4 MSTORE PUSH1 0x24 PUSH1 0x0 REVERT JUMPDEST PUSH1 0x0 PUSH1 0x2 DUP3 DIV SWAP1 POP PUSH1 0x1 DUP3 AND DUP1 PUSH3 0x1F6 JUMPI PUSH1 0x7F DUP3 AND SWAP2 POP JUMPDEST PUSH1 0x20 DUP3 LT DUP2 SUB PUSH3 0x20C JUMPI PUSH3 0x20B PUSH3 0x1AE JUMP JUMPDEST JUMPDEST POP SWAP2 SWAP1 POP JUMP JUMPDEST PUSH1 0x0 DUP2 SWAP1 POP DUP2 PUSH1 0x0 MSTORE PUSH1 0x20 PUSH1 0x0 KECCAK256 SWAP1 POP SWAP2 SWAP1 POP JUMP JUMPDEST PUSH1 0x0 PUSH1 0x20 PUSH1 0x1F DUP4 ADD DIV SWAP1 POP SWAP2 SWAP1 POP JUMP JUMPDEST PUSH1 0x0 DUP3 DUP3 SHL SWAP1 POP SWAP3 SWAP2 POP POP JUMP JUMPDEST PUSH1 0x0 PUSH1 0x8 DUP4 MUL PUSH3 0x276 PUSH32 0xFFFFFFFFFFFFFFFFFFFFFFFFFFFFFFFFFFFFFFFFFFFFFFFFFFFFFFFFFFFFFFFF DUP3 PUSH3 0x237 JUMP JUMPDEST PUSH3 0x282 DUP7 DUP4 PUSH3 0x237 JUMP JUMPDEST SWAP6 POP DUP1 NOT DUP5 AND SWAP4 POP DUP1 DUP7 AND DUP5 OR SWAP3 POP POP POP SWAP4 SWAP3 POP POP POP JUMP JUMPDEST PUSH1 0x0 DUP2 SWAP1 POP SWAP2 SWAP1 POP JUMP JUMPDEST PUSH1 0x0 DUP2 SWAP1 POP SWAP2 SWAP1 POP JUMP JUMPDEST PUSH1 0x0 PUSH3 0x2CF PUSH3 0x2C9 PUSH3 0x2C3 DUP5 PUSH3 0x29A JUMP JUMPDEST PUSH3 0x2A4 JUMP JUMPDEST PUSH3 0x29A JUMP JUMPDEST SWAP1 POP SWAP2 SWAP1 POP JUMP JUMPDEST PUSH1 0x0 DUP2 SWAP1 POP SWAP2 SWAP1 POP JUMP JUMPDEST PUSH3 0x2EB DUP4 PUSH3 0x2AE JUMP JUMPDEST PUSH3 0x303 PUSH3 0x2FA DUP3 PUSH3 0x2D6 JUMP JUMPDEST DUP5 DUP5 SLOAD PUSH3 0x244 JUMP JUMPDEST DUP3 SSTORE POP POP POP POP JUMP JUMPDEST PUSH1 0x0 SWAP1 JUMP JUMPDEST PUSH3 0x31A PUSH3 0x30B JUMP JUMPDEST PUSH3 0x327 DUP2 DUP5 DUP5 PUSH3 0x2E0 JUMP JUMPDEST POP POP POP JUMP JUMPDEST JUMPDEST DUP2 DUP2 LT ISZERO PUSH3 0x34F JUMPI PUSH3 0x343 PUSH1 0x0 DUP3 PUSH3 0x310 JUMP JUMPDEST PUSH1 0x1 DUP2 ADD SWAP1 POP PUSH3 0x32D JUMP JUMPDEST POP POP JUMP JUMPDEST PUSH1 0x1F DUP3 GT ISZERO PUSH3 0x39E JUMPI PUSH3 0x368 DUP2 PUSH3 0x212 JUMP JUMPDEST PUSH3 0x373 DUP5 PUSH3 0x227 JUMP JUMPDEST DUP2 ADD PUSH1 0x20 DUP6 LT ISZERO PUSH3 0x383 JUMPI DUP2 SWAP1 POP JUMPDEST PUSH3 0x39B PUSH3 0x392 DUP6 PUSH3 0x227 JUMP JUMPDEST DUP4 ADD DUP3 PUSH3 0x32C JUMP JUMPDEST POP POP JUMPDEST POP POP POP JUMP JUMPDEST PUSH1 0x0 DUP3 DUP3 SHR SWAP1 POP SWAP3 SWAP2 POP POP JUMP JUMPDEST PUSH1 0x0 PUSH3 0x3C3 PUSH1 0x0 NOT DUP5 PUSH1 0x8 MUL PUSH3 0x3A3 JUMP JUMPDEST NOT DUP1 DUP4 AND SWAP2 POP POP SWAP3 SWAP2 POP POP JUMP JUMPDEST PUSH1 0x0 PUSH3 0x3DE DUP4 DUP4 PUSH3 0x3B0 JUMP JUMPDEST SWAP2 POP DUP3 PUSH1 0x2 MUL DUP3 OR SWAP1 POP SWAP3 SWAP2 POP POP JUMP JUMPDEST PUSH3 0x3F9 DUP3 PUSH3 0x174 JUMP JUMPDEST PUSH8 0xFFFFFFFFFFFFFFFF DUP2 GT ISZERO PUSH3 0x415 JUMPI PUSH3 0x414 PUSH3 0x17F JUMP JUMPDEST JUMPDEST PUSH3 0x421 DUP3 SLOAD PUSH3 0x1DD JUMP JUMPDEST PUSH3 0x42E DUP3 DUP3 DUP6 PUSH3 0x353 JUMP JUMPDEST PUSH1 0x0 PUSH1 0x20 SWAP1 POP PUSH1 0x1F DUP4 GT PUSH1 0x1 DUP2 EQ PUSH3 0x466 JUMPI PUSH1 0x0 DUP5 ISZERO PUSH3 0x451 JUMPI DUP3 DUP8 ADD MLOAD SWAP1 POP JUMPDEST PUSH3 0x45D DUP6 DUP3 PUSH3 0x3D0 JUMP JUMPDEST DUP7 SSTORE POP PUSH3 0x4CD JUMP JUMPDEST PUSH1 0x1F NOT DUP5 AND PUSH3 0x476 DUP7 PUSH3 0x212 JUMP JUMPDEST PUSH1 0x0 JUMPDEST DUP3 DUP2 LT ISZERO PUSH3 0x4A0 JUMPI DUP5 DUP10 ADD MLOAD DUP3 SSTORE PUSH1 0x1 DUP3 ADD SWAP2 POP PUSH1 0x20 DUP6 ADD SWAP5 POP PUSH1 0x20 DUP2 ADD SWAP1 POP PUSH3 0x479 JUMP JUMPDEST DUP7 DUP4 LT ISZERO PUSH3 0x4C0 JUMPI DUP5 DUP10 ADD MLOAD PUSH3 0x4BC PUSH1 0x1F DUP10 AND DUP3 PUSH3 0x3B0 JUMP JUMPDEST DUP4 SSTORE POP JUMPDEST PUSH1 0x1 PUSH1 0x2 DUP9 MUL ADD DUP9 SSTORE POP POP POP JUMPDEST POP POP POP POP POP POP JUMP JUMPDEST PUSH2 0x21A7 DUP1 PUSH3 0x4E5 PUSH1 0x0 CODECOPY PUSH1 0x0 RETURN INVALID PUSH1 0x80 PUSH1 0x40 MSTORE CALLVALUE DUP1 ISZERO PUSH2 0x10 JUMPI PUSH1 0x0 DUP1 REVERT JUMPDEST POP PUSH1 0x4 CALLDATASIZE LT PUSH2 0x12C JUMPI PUSH1 0x0 CALLDATALOAD PUSH1 0xE0 SHR DUP1 PUSH4 0x7B1B1DE6 GT PUSH2 0xAD JUMPI DUP1 PUSH4 0xA9059CBB GT PUSH2 0x71 JUMPI DUP1 PUSH4 0xA9059CBB EQ PUSH2 0x35D JUMPI DUP1 PUSH4 0xB723B34E EQ PUSH2 0x38D JUMPI DUP1 PUSH4 0xD5BDA32D EQ PUSH2 0x3BD JUMPI DUP1 PUSH4 0xDD62ED3E EQ PUSH2 0x3ED JUMPI DUP1 PUSH4 0xF2FDE38B EQ PUSH2 0x41D JUMPI PUSH2 0x12C JUMP JUMPDEST DUP1 PUSH4 0x7B1B1DE6 EQ PUSH2 0x2A3 JUMPI DUP1 PUSH4 0x893D20E8 EQ PUSH2 0x2C1 JUMPI DUP1 PUSH4 0x95D89B41 EQ PUSH2 0x2DF JUMPI DUP1 PUSH4 0xA0712D68 EQ PUSH2 0x2FD JUMPI DUP1 PUSH4 0xA457C2D7 EQ PUSH2 0x32D JUMPI PUSH2 0x12C JUMP JUMPDEST DUP1 PUSH4 0x39509351 GT PUSH2 0xF4 JUMPI DUP1 PUSH4 0x39509351 EQ PUSH2 0x1EB JUMPI DUP1 PUSH4 0x42966C68 EQ PUSH2 0x21B JUMPI DUP1 PUSH4 0x4BF365DF EQ PUSH2 0x24B JUMPI DUP1 PUSH4 0x70A08231 EQ PUSH2 0x269 JUMPI DUP1 PUSH4 0x715018A6 EQ PUSH2 0x299 JUMPI PUSH2 0x12C JUMP JUMPDEST DUP1 PUSH4 0x6FDDE03 EQ PUSH2 0x131 JUMPI DUP1 PUSH4 0x95EA7B3 EQ PUSH2 0x14F JUMPI DUP1 PUSH4 0x18160DDD EQ PUSH2 0x17F JUMPI DUP1 PUSH4 0x23B872DD EQ PUSH2 0x19D JUMPI DUP1 PUSH4 0x313CE567 EQ PUSH2 0x1CD JUMPI JUMPDEST PUSH1 0x0 DUP1 REVERT JUMPDEST PUSH2 0x139 PUSH2 0x439 JUMP JUMPDEST PUSH1 0x40 MLOAD PUSH2 0x146 SWAP2 SWAP1 PUSH2 0x179E JUMP JUMPDEST PUSH1 0x40 MLOAD DUP1 SWAP2 SUB SWAP1 RETURN JUMPDEST PUSH2 0x169 PUSH1 0x4 DUP1 CALLDATASIZE SUB DUP2 ADD SWAP1 PUSH2 0x164 SWAP2 SWAP1 PUSH2 0x1859 JUMP JUMPDEST PUSH2 0x4CB JUMP JUMPDEST PUSH1 0x40 MLOAD PUSH2 0x176 SWAP2 SWAP1 PUSH2 0x18B4 JUMP JUMPDEST PUSH1 0x40 MLOAD DUP1 SWAP2 SUB SWAP1 RETURN JUMPDEST PUSH2 0x187 PUSH2 0x4E9 JUMP JUMPDEST PUSH1 0x40 MLOAD PUSH2 0x194 SWAP2 SWAP1 PUSH2 0x18DE JUMP JUMPDEST PUSH1 0x40 MLOAD DUP1 SWAP2 SUB SWAP1 RETURN JUMPDEST PUSH2 0x1B7 PUSH1 0x4 DUP1 CALLDATASIZE SUB DUP2 ADD SWAP1 PUSH2 0x1B2 SWAP2 SWAP1 PUSH2 0x18F9 JUMP JUMPDEST PUSH2 0x4F3 JUMP JUMPDEST PUSH1 0x40 MLOAD PUSH2 0x1C4 SWAP2 SWAP1 PUSH2 0x18B4 JUMP JUMPDEST PUSH1 0x40 MLOAD DUP1 SWAP2 SUB SWAP1 RETURN JUMPDEST PUSH2 0x1D5 PUSH2 0x5CC JUMP JUMPDEST PUSH1 0x40 MLOAD PUSH2 0x1E2 SWAP2 SWAP1 PUSH2 0x1968 JUMP JUMPDEST PUSH1 0x40 MLOAD DUP1 SWAP2 SUB SWAP1 RETURN JUMPDEST PUSH2 0x205 PUSH1 0x4 DUP1 CALLDATASIZE SUB DUP2 ADD SWAP1 PUSH2 0x200 SWAP2 SWAP1 PUSH2 0x1859 JUMP JUMPDEST PUSH2 0x5E3 JUMP JUMPDEST PUSH1 0x40 MLOAD PUSH2 0x212 SWAP2 SWAP1 PUSH2 0x18B4 JUMP JUMPDEST PUSH1 0x40 MLOAD DUP1 SWAP2 SUB SWAP1 RETURN JUMPDEST PUSH2 0x235 PUSH1 0x4 DUP1 CALLDATASIZE SUB DUP2 ADD SWAP1 PUSH2 0x230 SWAP2 SWAP1 PUSH2 0x1983 JUMP JUMPDEST PUSH2 0x696 JUMP JUMPDEST PUSH1 0x40 MLOAD PUSH2 0x242 SWAP2 SWAP1 PUSH2 0x18B4 JUMP JUMPDEST PUSH1 0x40 MLOAD DUP1 SWAP2 SUB SWAP1 RETURN JUMPDEST PUSH2 0x253 PUSH2 0x6B2 JUMP JUMPDEST PUSH1 0x40 MLOAD PUSH2 0x260 SWAP2 SWAP1 PUSH2 0x18B4 JUMP JUMPDEST PUSH1 0x40 MLOAD DUP1 SWAP2 SUB SWAP1 RETURN JUMPDEST PUSH2 0x283 PUSH1 0x4 DUP1 CALLDATASIZE SUB DUP2 ADD SWAP1 PUSH2 0x27E SWAP2 SWAP1 PUSH2 0x19B0 JUMP JUMPDEST PUSH2 0x6C9 JUMP JUMPDEST PUSH1 0x40 MLOAD PUSH2 0x290 SWAP2 SWAP1 PUSH2 0x18DE JUMP JUMPDEST PUSH1 0x40 MLOAD DUP1 SWAP2 SUB SWAP1 RETURN JUMPDEST PUSH2 0x2A1 PUSH2 0x712 JUMP JUMPDEST STOP JUMPDEST PUSH2 0x2AB PUSH2 0x86A JUMP JUMPDEST PUSH1 0x40 MLOAD PUSH2 0x2B8 SWAP2 SWAP1 PUSH2 0x18DE JUMP JUMPDEST PUSH1 0x40 MLOAD DUP1 SWAP2 SUB SWAP1 RETURN JUMPDEST PUSH2 0x2C9 PUSH2 0x870 JUMP JUMPDEST PUSH1 0x40 MLOAD PUSH2 0x2D6 SWAP2 SWAP1 PUSH2 0x19EC JUMP JUMPDEST PUSH1 0x40 MLOAD DUP1 SWAP2 SUB SWAP1 RETURN JUMPDEST PUSH2 0x2E7 PUSH2 0x89A JUMP JUMPDEST PUSH1 0x40 MLOAD PUSH2 0x2F4 SWAP2 SWAP1 PUSH2 0x179E JUMP JUMPDEST PUSH1 0x40 MLOAD DUP1 SWAP2 SUB SWAP1 RETURN JUMPDEST PUSH2 0x317 PUSH1 0x4 DUP1 CALLDATASIZE SUB DUP2 ADD SWAP1 PUSH2 0x312 SWAP2 SWAP1 PUSH2 0x1983 JUMP JUMPDEST PUSH2 0x92C JUMP JUMPDEST PUSH1 0x40 MLOAD PUSH2 0x324 SWAP2 SWAP1 PUSH2 0x18B4 JUMP JUMPDEST PUSH1 0x40 MLOAD DUP1 SWAP2 SUB SWAP1 RETURN JUMPDEST PUSH2 0x347 PUSH1 0x4 DUP1 CALLDATASIZE SUB DUP2 ADD SWAP1 PUSH2 0x342 SWAP2 SWAP1 PUSH2 0x1859 JUMP JUMPDEST PUSH2 0xA2E JUMP JUMPDEST PUSH1 0x40 MLOAD PUSH2 0x354 SWAP2 SWAP1 PUSH2 0x18B4 JUMP JUMPDEST PUSH1 0x40 MLOAD DUP1 SWAP2 SUB SWAP1 RETURN JUMPDEST PUSH2 0x377 PUSH1 0x4 DUP1 CALLDATASIZE SUB DUP2 ADD SWAP1 PUSH2 0x372 SWAP2 SWAP1 PUSH2 0x1859 JUMP JUMPDEST PUSH2 0xAFB JUMP JUMPDEST PUSH1 0x40 MLOAD PUSH2 0x384 SWAP2 SWAP1 PUSH2 0x18B4 JUMP JUMPDEST PUSH1 0x40 MLOAD DUP1 SWAP2 SUB SWAP1 RETURN JUMPDEST PUSH2 0x3A7 PUSH1 0x4 DUP1 CALLDATASIZE SUB DUP2 ADD SWAP1 PUSH2 0x3A2 SWAP2 SWAP1 PUSH2 0x1A07 JUMP JUMPDEST PUSH2 0xB19 JUMP JUMPDEST PUSH1 0x40 MLOAD PUSH2 0x3B4 SWAP2 SWAP1 PUSH2 0x18B4 JUMP JUMPDEST PUSH1 0x40 MLOAD DUP1 SWAP2 SUB SWAP1 RETURN JUMPDEST PUSH2 0x3D7 PUSH1 0x4 DUP1 CALLDATASIZE SUB DUP2 ADD SWAP1 PUSH2 0x3D2 SWAP2 SWAP1 PUSH2 0x1983 JUMP JUMPDEST PUSH2 0xC15 JUMP JUMPDEST PUSH1 0x40 MLOAD PUSH2 0x3E4 SWAP2 SWAP1 PUSH2 0x18DE JUMP JUMPDEST PUSH1 0x40 MLOAD DUP1 SWAP2 SUB SWAP1 RETURN JUMPDEST PUSH2 0x407 PUSH1 0x4 DUP1 CALLDATASIZE SUB DUP2 ADD SWAP1 PUSH2 0x402 SWAP2 SWAP1 PUSH2 0x1A47 JUMP JUMPDEST PUSH2 0xC2C JUMP JUMPDEST PUSH1 0x40 MLOAD PUSH2 0x414 SWAP2 SWAP1 PUSH2 0x18DE JUMP JUMPDEST PUSH1 0x40 MLOAD DUP1 SWAP2 SUB SWAP1 RETURN JUMPDEST PUSH2 0x437 PUSH1 0x4 DUP1 CALLDATASIZE SUB DUP2 ADD SWAP1 PUSH2 0x432 SWAP2 SWAP1 PUSH2 0x19B0 JUMP JUMPDEST PUSH2 0xCB3 JUMP JUMPDEST STOP JUMPDEST PUSH1 0x60 PUSH1 0x4 DUP1 SLOAD PUSH2 0x448 SWAP1 PUSH2 0x1AB6 JUMP JUMPDEST DUP1 PUSH1 0x1F ADD PUSH1 0x20 DUP1 SWAP2 DIV MUL PUSH1 0x20 ADD PUSH1 0x40 MLOAD SWAP1 DUP2 ADD PUSH1 0x40 MSTORE DUP1 SWAP3 SWAP2 SWAP1 DUP2 DUP2 MSTORE PUSH1 0x20 ADD DUP3 DUP1 SLOAD PUSH2 0x474 SWAP1 PUSH2 0x1AB6 JUMP JUMPDEST DUP1 ISZERO PUSH2 0x4C1 JUMPI DUP1 PUSH1 0x1F LT PUSH2 0x496 JUMPI PUSH2 0x100 DUP1 DUP4 SLOAD DIV MUL DUP4 MSTORE SWAP2 PUSH1 0x20 ADD SWAP2 PUSH2 0x4C1 JUMP JUMPDEST DUP3 ADD SWAP2 SWAP1 PUSH1 0x0 MSTORE PUSH1 0x20 PUSH1 0x0 KECCAK256 SWAP1 JUMPDEST DUP2 SLOAD DUP2 MSTORE SWAP1 PUSH1 0x1 ADD SWAP1 PUSH1 0x20 ADD DUP1 DUP4 GT PUSH2 0x4A4 JUMPI DUP3 SWAP1 SUB PUSH1 0x1F AND DUP3 ADD SWAP2 JUMPDEST POP POP POP POP POP SWAP1 POP SWAP1 JUMP JUMPDEST PUSH1 0x0 PUSH2 0x4DF PUSH2 0x4D8 PUSH2 0xE79 JUMP JUMPDEST DUP5 DUP5 PUSH2 0xE81 JUMP JUMPDEST PUSH1 0x1 SWAP1 POP SWAP3 SWAP2 POP POP JUMP JUMPDEST PUSH1 0x0 PUSH1 0x3 SLOAD SWAP1 POP SWAP1 JUMP JUMPDEST PUSH1 0x0 PUSH2 0x500 DUP5 DUP5 DUP5 PUSH2 0x104A JUMP JUMPDEST PUSH2 0x5C1 DUP5 PUSH2 0x50C PUSH2 0xE79 JUMP JUMPDEST PUSH2 0x5BC DUP6 PUSH1 0x40 MLOAD DUP1 PUSH1 0x60 ADD PUSH1 0x40 MSTORE DUP1 PUSH1 0x28 DUP2 MSTORE PUSH1 0x20 ADD PUSH2 0x20DD PUSH1 0x28 SWAP2 CODECOPY PUSH1 0x2 PUSH1 0x0 DUP12 PUSH20 0xFFFFFFFFFFFFFFFFFFFFFFFFFFFFFFFFFFFFFFFF AND PUSH20 0xFFFFFFFFFFFFFFFFFFFFFFFFFFFFFFFFFFFFFFFF AND DUP2 MSTORE PUSH1 0x20 ADD SWAP1 DUP2 MSTORE PUSH1 0x20 ADD PUSH1 0x0 KECCAK256 PUSH1 0x0 PUSH2 0x572 PUSH2 0xE79 JUMP JUMPDEST PUSH20 0xFFFFFFFFFFFFFFFFFFFFFFFFFFFFFFFFFFFFFFFF AND PUSH20 0xFFFFFFFFFFFFFFFFFFFFFFFFFFFFFFFFFFFFFFFF AND DUP2 MSTORE PUSH1 0x20 ADD SWAP1 DUP2 MSTORE PUSH1 0x20 ADD PUSH1 0x0 KECCAK256 SLOAD PUSH2 0x12D6 SWAP1 SWAP3 SWAP2 SWAP1 PUSH4 0xFFFFFFFF AND JUMP JUMPDEST PUSH2 0xE81 JUMP JUMPDEST PUSH1 0x1 SWAP1 POP SWAP4 SWAP3 POP POP POP JUMP JUMPDEST PUSH1 0x0 PUSH1 0x6 PUSH1 0x0 SWAP1 SLOAD SWAP1 PUSH2 0x100 EXP SWAP1 DIV PUSH1 0xFF AND SWAP1 POP SWAP1 JUMP JUMPDEST PUSH1 0x0 PUSH2 0x68C PUSH2 0x5F0 PUSH2 0xE79 JUMP JUMPDEST DUP5 PUSH2 0x687 DUP6 PUSH1 0x2 PUSH1 0x0 PUSH2 0x601 PUSH2 0xE79 JUMP JUMPDEST PUSH20 0xFFFFFFFFFFFFFFFFFFFFFFFFFFFFFFFFFFFFFFFF AND PUSH20 0xFFFFFFFFFFFFFFFFFFFFFFFFFFFFFFFFFFFFFFFF AND DUP2 MSTORE PUSH1 0x20 ADD SWAP1 DUP2 MSTORE PUSH1 0x20 ADD PUSH1 0x0 KECCAK256 PUSH1 0x0 DUP10 PUSH20 0xFFFFFFFFFFFFFFFFFFFFFFFFFFFFFFFFFFFFFFFF AND PUSH20 0xFFFFFFFFFFFFFFFFFFFFFFFFFFFFFFFFFFFFFFFF AND DUP2 MSTORE PUSH1 0x20 ADD SWAP1 DUP2 MSTORE PUSH1 0x20 ADD PUSH1 0x0 KECCAK256 SLOAD PUSH2 0x133A SWAP1 SWAP2 SWAP1 PUSH4 0xFFFFFFFF AND JUMP JUMPDEST PUSH2 0xE81 JUMP JUMPDEST PUSH1 0x1 SWAP1 POP SWAP3 SWAP2 POP POP JUMP JUMPDEST PUSH1 0x0 PUSH2 0x6A9 PUSH2 0x6A3 PUSH2 0xE79 JUMP JUMPDEST DUP4 PUSH2 0x1398 JUMP JUMPDEST PUSH1 0x1 SWAP1 POP SWAP2 SWAP1 POP JUMP JUMPDEST PUSH1 0x0 PUSH1 0x8 PUSH1 0x14 SWAP1 SLOAD SWAP1 PUSH2 0x100 EXP SWAP1 DIV PUSH1 0xFF AND SWAP1 POP SWAP1 JUMP JUMPDEST PUSH1 0x0 PUSH1 0x1 PUSH1 0x0 DUP4 PUSH20 0xFFFFFFFFFFFFFFFFFFFFFFFFFFFFFFFFFFFFFFFF AND PUSH20 0xFFFFFFFFFFFFFFFFFFFFFFFFFFFFFFFFFFFFFFFF AND DUP2 MSTORE PUSH1 0x20 ADD SWAP1 DUP2 MSTORE PUSH1 0x20 ADD PUSH1 0x0 KECCAK256 SLOAD SWAP1 POP SWAP2 SWAP1 POP JUMP JUMPDEST PUSH2 0x71A PUSH2 0xE79 JUMP JUMPDEST PUSH20 0xFFFFFFFFFFFFFFFFFFFFFFFFFFFFFFFFFFFFFFFF AND PUSH1 0x8 PUSH1 0x0 SWAP1 SLOAD SWAP1 PUSH2 0x100 EXP SWAP1 DIV PUSH20 0xFFFFFFFFFFFFFFFFFFFFFFFFFFFFFFFFFFFFFFFF AND PUSH20 0xFFFFFFFFFFFFFFFFFFFFFFFFFFFFFFFFFFFFFFFF AND EQ PUSH2 0x7A9 JUMPI PUSH1 0x40 MLOAD PUSH32 0x8C379A000000000000000000000000000000000000000000000000000000000 DUP2 MSTORE PUSH1 0x4 ADD PUSH2 0x7A0 SWAP1 PUSH2 0x1B33 JUMP JUMPDEST PUSH1 0x40 MLOAD DUP1 SWAP2 SUB SWAP1 REVERT JUMPDEST PUSH1 0x0 PUSH20 0xFFFFFFFFFFFFFFFFFFFFFFFFFFFFFFFFFFFFFFFF AND PUSH1 0x8 PUSH1 0x0 SWAP1 SLOAD SWAP1 PUSH2 0x100 EXP SWAP1 DIV PUSH20 0xFFFFFFFFFFFFFFFFFFFFFFFFFFFFFFFFFFFFFFFF AND PUSH20 0xFFFFFFFFFFFFFFFFFFFFFFFFFFFFFFFFFFFFFFFF AND PUSH32 0x8BE0079C531659141344CD1FD0A4F28419497F9722A3DAAFE3B4186F6B6457E0 PUSH1 0x40 MLOAD PUSH1 0x40 MLOAD DUP1 SWAP2 SUB SWAP1 LOG3 PUSH1 0x0 PUSH1 0x8 PUSH1 0x0 PUSH2 0x100 EXP DUP2 SLOAD DUP2 PUSH20 0xFFFFFFFFFFFFFFFFFFFFFFFFFFFFFFFFFFFFFFFF MUL NOT AND SWAP1 DUP4 PUSH20 0xFFFFFFFFFFFFFFFFFFFFFFFFFFFFFFFFFFFFFFFF AND MUL OR SWAP1 SSTORE POP JUMP JUMPDEST PUSH1 0x7 SLOAD DUP2 JUMP JUMPDEST PUSH1 0x0 PUSH1 0x8 PUSH1 0x0 SWAP1 SLOAD SWAP1 PUSH2 0x100 EXP SWAP1 DIV PUSH20 0xFFFFFFFFFFFFFFFFFFFFFFFFFFFFFFFFFFFFFFFF AND SWAP1 POP SWAP1 JUMP JUMPDEST PUSH1 0x60 PUSH1 0x5 DUP1 SLOAD PUSH2 0x8A9 SWAP1 PUSH2 0x1AB6 JUMP JUMPDEST DUP1 PUSH1 0x1F ADD PUSH1 0x20 DUP1 SWAP2 DIV MUL PUSH1 0x20 ADD PUSH1 0x40 MLOAD SWAP1 DUP2 ADD PUSH1 0x40 MSTORE DUP1 SWAP3 SWAP2 SWAP1 DUP2 DUP2 MSTORE PUSH1 0x20 ADD DUP3 DUP1 SLOAD PUSH2 0x8D5 SWAP1 PUSH2 0x1AB6 JUMP JUMPDEST DUP1 ISZERO PUSH2 0x922 JUMPI DUP1 PUSH1 0x1F LT PUSH2 0x8F7 JUMPI PUSH2 0x100 DUP1 DUP4 SLOAD DIV MUL DUP4 MSTORE SWAP2 PUSH1 0x20 ADD SWAP2 PUSH2 0x922 JUMP JUMPDEST DUP3 ADD SWAP2 SWAP1 PUSH1 0x0 MSTORE PUSH1 0x20 PUSH1 0x0 KECCAK256 SWAP1 JUMPDEST DUP2 SLOAD DUP2 MSTORE SWAP1 PUSH1 0x1 ADD SWAP1 PUSH1 0x20 ADD DUP1 DUP4 GT PUSH2 0x905 JUMPI DUP3 SWAP1 SUB PUSH1 0x1F AND DUP3 ADD SWAP2 JUMPDEST POP POP POP POP POP SWAP1 POP SWAP1 JUMP JUMPDEST PUSH1 0x0 PUSH2 0x936 PUSH2 0xE79 JUMP JUMPDEST PUSH20 0xFFFFFFFFFFFFFFFFFFFFFFFFFFFFFFFFFFFFFFFF AND PUSH1 0x8 PUSH1 0x0 SWAP1 SLOAD SWAP1 PUSH2 0x100 EXP SWAP1 DIV PUSH20 0xFFFFFFFFFFFFFFFFFFFFFFFFFFFFFFFFFFFFFFFF AND PUSH20 0xFFFFFFFFFFFFFFFFFFFFFFFFFFFFFFFFFFFFFFFF AND EQ PUSH2 0x9C5 JUMPI PUSH1 0x40 MLOAD PUSH32 0x8C379A000000000000000000000000000000000000000000000000000000000 DUP2 MSTORE PUSH1 0x4 ADD PUSH2 0x9BC SWAP1 PUSH2 0x1B33 JUMP JUMPDEST PUSH1 0x40 MLOAD DUP1 SWAP2 SUB SWAP1 REVERT JUMPDEST PUSH1 0x8 PUSH1 0x14 SWAP1 SLOAD SWAP1 PUSH2 0x100 EXP SWAP1 DIV PUSH1 0xFF AND PUSH2 0xA14 JUMPI PUSH1 0x40 MLOAD PUSH32 0x8C379A000000000000000000000000000000000000000000000000000000000 DUP2 MSTORE PUSH1 0x4 ADD PUSH2 0xA0B SWAP1 PUSH2 0x1B9F JUMP JUMPDEST PUSH1 0x40 MLOAD DUP1 SWAP2 SUB SWAP1 REVERT JUMPDEST PUSH2 0xA25 PUSH2 0xA1F PUSH2 0xE79 JUMP JUMPDEST DUP4 PUSH2 0x153B JUMP JUMPDEST PUSH1 0x1 SWAP1 POP SWAP2 SWAP1 POP JUMP JUMPDEST PUSH1 0x0 PUSH2 0xAF1 PUSH2 0xA3B PUSH2 0xE79 JUMP JUMPDEST DUP5 PUSH2 0xAEC DUP6 PUSH1 0x40 MLOAD DUP1 PUSH1 0x60 ADD PUSH1 0x40 MSTORE DUP1 PUSH1 0x25 DUP2 MSTORE PUSH1 0x20 ADD PUSH2 0x212B PUSH1 0x25 SWAP2 CODECOPY PUSH1 0x2 PUSH1 0x0 PUSH2 0xA65 PUSH2 0xE79 JUMP JUMPDEST PUSH20 0xFFFFFFFFFFFFFFFFFFFFFFFFFFFFFFFFFFFFFFFF AND PUSH20 0xFFFFFFFFFFFFFFFFFFFFFFFFFFFFFFFFFFFFFFFF AND DUP2 MSTORE PUSH1 0x20 ADD SWAP1 DUP2 MSTORE PUSH1 0x20 ADD PUSH1 0x0 KECCAK256 PUSH1 0x0 DUP11 PUSH20 0xFFFFFFFFFFFFFFFFFFFFFFFFFFFFFFFFFFFFFFFF AND PUSH20 0xFFFFFFFFFFFFFFFFFFFFFFFFFFFFFFFFFFFFFFFF AND DUP2 MSTORE PUSH1 0x20 ADD SWAP1 DUP2 MSTORE PUSH1 0x20 ADD PUSH1 0x0 KECCAK256 SLOAD PUSH2 0x12D6 SWAP1 SWAP3 SWAP2 SWAP1 PUSH4 0xFFFFFFFF AND JUMP JUMPDEST PUSH2 0xE81 JUMP JUMPDEST PUSH1 0x1 SWAP1 POP SWAP3 SWAP2 POP POP JUMP JUMPDEST PUSH1 0x0 PUSH2 0xB0F PUSH2 0xB08 PUSH2 0xE79 JUMP JUMPDEST DUP5 DUP5 PUSH2 0x104A JUMP JUMPDEST PUSH1 0x1 SWAP1 POP SWAP3 SWAP2 POP POP JUMP JUMPDEST PUSH1 0x0 PUSH2 0xB23 PUSH2 0xE79 JUMP JUMPDEST PUSH20 0xFFFFFFFFFFFFFFFFFFFFFFFFFFFFFFFFFFFFFFFF AND PUSH1 0x8 PUSH1 0x0 SWAP1 SLOAD SWAP1 PUSH2 0x100 EXP SWAP1 DIV PUSH20 0xFFFFFFFFFFFFFFFFFFFFFFFFFFFFFFFFFFFFFFFF AND PUSH20 0xFFFFFFFFFFFFFFFFFFFFFFFFFFFFFFFFFFFFFFFF AND EQ PUSH2 0xBB2 JUMPI PUSH1 0x40 MLOAD PUSH32 0x8C379A000000000000000000000000000000000000000000000000000000000 DUP2 MSTORE PUSH1 0x4 ADD PUSH2 0xBA9 SWAP1 PUSH2 0x1B33 JUMP JUMPDEST PUSH1 0x40 MLOAD DUP1 SWAP2 SUB SWAP1 REVERT JUMPDEST PUSH1 0x8 PUSH1 0x14 SWAP1 SLOAD SWAP1 PUSH2 0x100 EXP SWAP1 DIV PUSH1 0xFF AND PUSH2 0xC01 JUMPI PUSH1 0x40 MLOAD PUSH32 0x8C379A000000000000000000000000000000000000000000000000000000000 DUP2 MSTORE PUSH1 0x4 ADD PUSH2 0xBF8 SWAP1 PUSH2 0x1B9F JUMP JUMPDEST PUSH1 0x40 MLOAD DUP1 SWAP2 SUB SWAP1 REVERT JUMPDEST PUSH2 0xC0B DUP3 DUP5 PUSH2 0x153B JUMP JUMPDEST PUSH1 0x1 SWAP1 POP SWAP3 SWAP2 POP POP JUMP JUMPDEST PUSH1 0x0 PUSH1 0x7 SLOAD DUP3 PUSH2 0xC25 SWAP2 SWAP1 PUSH2 0x1BEE JUMP JUMPDEST SWAP1 POP SWAP2 SWAP1 POP JUMP JUMPDEST PUSH1 0x0 PUSH1 0x2 PUSH1 0x0 DUP5 PUSH20 0xFFFFFFFFFFFFFFFFFFFFFFFFFFFFFFFFFFFFFFFF AND PUSH20 0xFFFFFFFFFFFFFFFFFFFFFFFFFFFFFFFFFFFFFFFF AND DUP2 MSTORE PUSH1 0x20 ADD SWAP1 DUP2 MSTORE PUSH1 0x20 ADD PUSH1 0x0 KECCAK256 PUSH1 0x0 DUP4 PUSH20 0xFFFFFFFFFFFFFFFFFFFFFFFFFFFFFFFFFFFFFFFF AND PUSH20 0xFFFFFFFFFFFFFFFFFFFFFFFFFFFFFFFFFFFFFFFF AND DUP2 MSTORE PUSH1 0x20 ADD SWAP1 DUP2 MSTORE PUSH1 0x20 ADD PUSH1 0x0 KECCAK256 SLOAD SWAP1 POP SWAP3 SWAP2 POP POP JUMP JUMPDEST PUSH2 0xCBB PUSH2 0xE79 JUMP JUMPDEST PUSH20 0xFFFFFFFFFFFFFFFFFFFFFFFFFFFFFFFFFFFFFFFF AND PUSH1 0x8 PUSH1 0x0 SWAP1 SLOAD SWAP1 PUSH2 0x100 EXP SWAP1 DIV PUSH20 0xFFFFFFFFFFFFFFFFFFFFFFFFFFFFFFFFFFFFFFFF AND PUSH20 0xFFFFFFFFFFFFFFFFFFFFFFFFFFFFFFFFFFFFFFFF AND EQ PUSH2 0xD4A JUMPI PUSH1 0x40 MLOAD PUSH32 0x8C379A000000000000000000000000000000000000000000000000000000000 DUP2 MSTORE PUSH1 0x4 ADD PUSH2 0xD41 SWAP1 PUSH2 0x1B33 JUMP JUMPDEST PUSH1 0x40 MLOAD DUP1 SWAP2 SUB SWAP1 REVERT JUMPDEST PUSH1 0x0 PUSH20 0xFFFFFFFFFFFFFFFFFFFFFFFFFFFFFFFFFFFFFFFF AND DUP2 PUSH20 0xFFFFFFFFFFFFFFFFFFFFFFFFFFFFFFFFFFFFFFFF AND SUB PUSH2 0xDB9 JUMPI PUSH1 0x40 MLOAD PUSH32 0x8C379A000000000000000000000000000000000000000000000000000000000 DUP2 MSTORE PUSH1 0x4 ADD PUSH2 0xDB0 SWAP1 PUSH2 0x1CA2 JUMP JUMPDEST PUSH1 0x40 MLOAD DUP1 SWAP2 SUB SWAP1 REVERT JUMPDEST DUP1 PUSH20 0xFFFFFFFFFFFFFFFFFFFFFFFFFFFFFFFFFFFFFFFF AND PUSH1 0x8 PUSH1 0x0 SWAP1 SLOAD SWAP1 PUSH2 0x100 EXP SWAP1 DIV PUSH20 0xFFFFFFFFFFFFFFFFFFFFFFFFFFFFFFFFFFFFFFFF AND PUSH20 0xFFFFFFFFFFFFFFFFFFFFFFFFFFFFFFFFFFFFFFFF AND PUSH32 0x8BE0079C531659141344CD1FD0A4F28419497F9722A3DAAFE3B4186F6B6457E0 PUSH1 0x40 MLOAD PUSH1 0x40 MLOAD DUP1 SWAP2 SUB SWAP1 LOG3 DUP1 PUSH1 0x8 PUSH1 0x0 PUSH2 0x100 EXP DUP2 SLOAD DUP2 PUSH20 0xFFFFFFFFFFFFFFFFFFFFFFFFFFFFFFFFFFFFFFFF MUL NOT AND SWAP1 DUP4 PUSH20 0xFFFFFFFFFFFFFFFFFFFFFFFFFFFFFFFFFFFFFFFF AND MUL OR SWAP1 SSTORE POP POP JUMP JUMPDEST PUSH1 0x0 CALLER SWAP1 POP SWAP1 JUMP JUMPDEST PUSH1 0x0 PUSH20 0xFFFFFFFFFFFFFFFFFFFFFFFFFFFFFFFFFFFFFFFF AND DUP4 PUSH20 0xFFFFFFFFFFFFFFFFFFFFFFFFFFFFFFFFFFFFFFFF AND SUB PUSH2 0xEF0 JUMPI PUSH1 0x40 MLOAD PUSH32 0x8C379A000000000000000000000000000000000000000000000000000000000 DUP2 MSTORE PUSH1 0x4 ADD PUSH2 0xEE7 SWAP1 PUSH2 0x1D34 JUMP JUMPDEST PUSH1 0x40 MLOAD DUP1 SWAP2 SUB SWAP1 REVERT JUMPDEST PUSH1 0x0 PUSH20 0xFFFFFFFFFFFFFFFFFFFFFFFFFFFFFFFFFFFFFFFF AND DUP3 PUSH20 0xFFFFFFFFFFFFFFFFFFFFFFFFFFFFFFFFFFFFFFFF AND SUB PUSH2 0xF5F JUMPI PUSH1 0x40 MLOAD PUSH32 0x8C379A000000000000000000000000000000000000000000000000000000000 DUP2 MSTORE PUSH1 0x4 ADD PUSH2 0xF56 SWAP1 PUSH2 0x1DC6 JUMP JUMPDEST PUSH1 0x40 MLOAD DUP1 SWAP2 SUB SWAP1 REVERT JUMPDEST DUP1 PUSH1 0x2 PUSH1 0x0 DUP6 PUSH20 0xFFFFFFFFFFFFFFFFFFFFFFFFFFFFFFFFFFFFFFFF AND PUSH20 0xFFFFFFFFFFFFFFFFFFFFFFFFFFFFFFFFFFFFFFFF AND DUP2 MSTORE PUSH1 0x20 ADD SWAP1 DUP2 MSTORE PUSH1 0x20 ADD PUSH1 0x0 KECCAK256 PUSH1 0x0 DUP5 PUSH20 0xFFFFFFFFFFFFFFFFFFFFFFFFFFFFFFFFFFFFFFFF AND PUSH20 0xFFFFFFFFFFFFFFFFFFFFFFFFFFFFFFFFFFFFFFFF AND DUP2 MSTORE PUSH1 0x20 ADD SWAP1 DUP2 MSTORE PUSH1 0x20 ADD PUSH1 0x0 KECCAK256 DUP2 SWAP1 SSTORE POP DUP2 PUSH20 0xFFFFFFFFFFFFFFFFFFFFFFFFFFFFFFFFFFFFFFFF AND DUP4 PUSH20 0xFFFFFFFFFFFFFFFFFFFFFFFFFFFFFFFFFFFFFFFF AND PUSH32 0x8C5BE1E5EBEC7D5BD14F71427D1E84F3DD0314C0F7B2291E5B200AC8C7C3B925 DUP4 PUSH1 0x40 MLOAD PUSH2 0x103D SWAP2 SWAP1 PUSH2 0x18DE JUMP JUMPDEST PUSH1 0x40 MLOAD DUP1 SWAP2 SUB SWAP1 LOG3 POP POP POP JUMP JUMPDEST PUSH1 0x0 PUSH20 0xFFFFFFFFFFFFFFFFFFFFFFFFFFFFFFFFFFFFFFFF AND DUP4 PUSH20 0xFFFFFFFFFFFFFFFFFFFFFFFFFFFFFFFFFFFFFFFF AND SUB PUSH2 0x10B9 JUMPI PUSH1 0x40 MLOAD PUSH32 0x8C379A000000000000000000000000000000000000000000000000000000000 DUP2 MSTORE PUSH1 0x4 ADD PUSH2 0x10B0 SWAP1 PUSH2 0x1E58 JUMP JUMPDEST PUSH1 0x40 MLOAD DUP1 SWAP2 SUB SWAP1 REVERT JUMPDEST PUSH1 0x0 PUSH20 0xFFFFFFFFFFFFFFFFFFFFFFFFFFFFFFFFFFFFFFFF AND DUP3 PUSH20 0xFFFFFFFFFFFFFFFFFFFFFFFFFFFFFFFFFFFFFFFF AND SUB PUSH2 0x1128 JUMPI PUSH1 0x40 MLOAD PUSH32 0x8C379A000000000000000000000000000000000000000000000000000000000 DUP2 MSTORE PUSH1 0x4 ADD PUSH2 0x111F SWAP1 PUSH2 0x1EEA JUMP JUMPDEST PUSH1 0x40 MLOAD DUP1 SWAP2 SUB SWAP1 REVERT JUMPDEST PUSH2 0x1194 DUP2 PUSH1 0x40 MLOAD DUP1 PUSH1 0x60 ADD PUSH1 0x40 MSTORE DUP1 PUSH1 0x26 DUP2 MSTORE PUSH1 0x20 ADD PUSH2 0x2105 PUSH1 0x26 SWAP2 CODECOPY PUSH1 0x1 PUSH1 0x0 DUP8 PUSH20 0xFFFFFFFFFFFFFFFFFFFFFFFFFFFFFFFFFFFFFFFF AND PUSH20 0xFFFFFFFFFFFFFFFFFFFFFFFFFFFFFFFFFFFFFFFF AND DUP2 MSTORE PUSH1 0x20 ADD SWAP1 DUP2 MSTORE PUSH1 0x20 ADD PUSH1 0x0 KECCAK256 SLOAD PUSH2 0x12D6 SWAP1 SWAP3 SWAP2 SWAP1 PUSH4 0xFFFFFFFF AND JUMP JUMPDEST PUSH1 0x1 PUSH1 0x0 DUP6 PUSH20 0xFFFFFFFFFFFFFFFFFFFFFFFFFFFFFFFFFFFFFFFF AND PUSH20 0xFFFFFFFFFFFFFFFFFFFFFFFFFFFFFFFFFFFFFFFF AND DUP2 MSTORE PUSH1 0x20 ADD SWAP1 DUP2 MSTORE PUSH1 0x20 ADD PUSH1 0x0 KECCAK256 DUP2 SWAP1 SSTORE POP PUSH2 0x1229 DUP2 PUSH1 0x1 PUSH1 0x0 DUP6 PUSH20 0xFFFFFFFFFFFFFFFFFFFFFFFFFFFFFFFFFFFFFFFF AND PUSH20 0xFFFFFFFFFFFFFFFFFFFFFFFFFFFFFFFFFFFFFFFF AND DUP2 MSTORE PUSH1 0x20 ADD SWAP1 DUP2 MSTORE PUSH1 0x20 ADD PUSH1 0x0 KECCAK256 SLOAD PUSH2 0x133A SWAP1 SWAP2 SWAP1 PUSH4 0xFFFFFFFF AND JUMP JUMPDEST PUSH1 0x1 PUSH1 0x0 DUP5 PUSH20 0xFFFFFFFFFFFFFFFFFFFFFFFFFFFFFFFFFFFFFFFF AND PUSH20 0xFFFFFFFFFFFFFFFFFFFFFFFFFFFFFFFFFFFFFFFF AND DUP2 MSTORE PUSH1 0x20 ADD SWAP1 DUP2 MSTORE PUSH1 0x20 ADD PUSH1 0x0 KECCAK256 DUP2 SWAP1 SSTORE POP DUP2 PUSH20 0xFFFFFFFFFFFFFFFFFFFFFFFFFFFFFFFFFFFFFFFF AND DUP4 PUSH20 0xFFFFFFFFFFFFFFFFFFFFFFFFFFFFFFFFFFFFFFFF AND PUSH32 0xDDF252AD1BE2C89B69C2B068FC378DAA952BA7F163C4A11628F55A4DF523B3EF DUP4 PUSH1 0x40 MLOAD PUSH2 0x12C9 SWAP2 SWAP1 PUSH2 0x18DE JUMP JUMPDEST PUSH1 0x40 MLOAD DUP1 SWAP2 SUB SWAP1 LOG3 POP POP POP JUMP JUMPDEST PUSH1 0x0 DUP4 DUP4 GT ISZERO DUP3 SWAP1 PUSH2 0x131E JUMPI PUSH1 0x40 MLOAD PUSH32 0x8C379A000000000000000000000000000000000000000000000000000000000 DUP2 MSTORE PUSH1 0x4 ADD PUSH2 0x1315 SWAP2 SWAP1 PUSH2 0x179E JUMP JUMPDEST PUSH1 0x40 MLOAD DUP1 SWAP2 SUB SWAP1 REVERT JUMPDEST POP PUSH1 0x0 DUP4 DUP6 PUSH2 0x132D SWAP2 SWAP1 PUSH2 0x1F0A JUMP JUMPDEST SWAP1 POP DUP1 SWAP2 POP POP SWAP4 SWAP3 POP POP POP JUMP JUMPDEST PUSH1 0x0 DUP1 DUP3 DUP5 PUSH2 0x1349 SWAP2 SWAP1 PUSH2 0x1F3E JUMP JUMPDEST SWAP1 POP DUP4 DUP2 LT ISZERO PUSH2 0x138E JUMPI PUSH1 0x40 MLOAD PUSH32 0x8C379A000000000000000000000000000000000000000000000000000000000 DUP2 MSTORE PUSH1 0x4 ADD PUSH2 0x1385 SWAP1 PUSH2 0x1FBE JUMP JUMPDEST PUSH1 0x40 MLOAD DUP1 SWAP2 SUB SWAP1 REVERT JUMPDEST DUP1 SWAP2 POP POP SWAP3 SWAP2 POP POP JUMP JUMPDEST PUSH1 0x0 PUSH20 0xFFFFFFFFFFFFFFFFFFFFFFFFFFFFFFFFFFFFFFFF AND DUP3 PUSH20 0xFFFFFFFFFFFFFFFFFFFFFFFFFFFFFFFFFFFFFFFF AND SUB PUSH2 0x1407 JUMPI PUSH1 0x40 MLOAD PUSH32 0x8C379A000000000000000000000000000000000000000000000000000000000 DUP2 MSTORE PUSH1 0x4 ADD PUSH2 0x13FE SWAP1 PUSH2 0x2050 JUMP JUMPDEST PUSH1 0x40 MLOAD DUP1 SWAP2 SUB SWAP1 REVERT JUMPDEST PUSH2 0x1473 DUP2 PUSH1 0x40 MLOAD DUP1 PUSH1 0x60 ADD PUSH1 0x40 MSTORE DUP1 PUSH1 0x22 DUP2 MSTORE PUSH1 0x20 ADD PUSH2 0x2150 PUSH1 0x22 SWAP2 CODECOPY PUSH1 0x1 PUSH1 0x0 DUP7 PUSH20 0xFFFFFFFFFFFFFFFFFFFFFFFFFFFFFFFFFFFFFFFF AND PUSH20 0xFFFFFFFFFFFFFFFFFFFFFFFFFFFFFFFFFFFFFFFF AND DUP2 MSTORE PUSH1 0x20 ADD SWAP1 DUP2 MSTORE PUSH1 0x20 ADD PUSH1 0x0 KECCAK256 SLOAD PUSH2 0x12D6 SWAP1 SWAP3 SWAP2 SWAP1 PUSH4 0xFFFFFFFF AND JUMP JUMPDEST PUSH1 0x1 PUSH1 0x0 DUP5 PUSH20 0xFFFFFFFFFFFFFFFFFFFFFFFFFFFFFFFFFFFFFFFF AND PUSH20 0xFFFFFFFFFFFFFFFFFFFFFFFFFFFFFFFFFFFFFFFF AND DUP2 MSTORE PUSH1 0x20 ADD SWAP1 DUP2 MSTORE PUSH1 0x20 ADD PUSH1 0x0 KECCAK256 DUP2 SWAP1 SSTORE POP PUSH2 0x14CB DUP2 PUSH1 0x3 SLOAD PUSH2 0x16C4 SWAP1 SWAP2 SWAP1 PUSH4 0xFFFFFFFF AND JUMP JUMPDEST PUSH1 0x3 DUP2 SWAP1 SSTORE POP PUSH1 0x0 PUSH20 0xFFFFFFFFFFFFFFFFFFFFFFFFFFFFFFFFFFFFFFFF AND DUP3 PUSH20 0xFFFFFFFFFFFFFFFFFFFFFFFFFFFFFFFFFFFFFFFF AND PUSH32 0xDDF252AD1BE2C89B69C2B068FC378DAA952BA7F163C4A11628F55A4DF523B3EF DUP4 PUSH1 0x40 MLOAD PUSH2 0x152F SWAP2 SWAP1 PUSH2 0x18DE JUMP JUMPDEST PUSH1 0x40 MLOAD DUP1 SWAP2 SUB SWAP1 LOG3 POP POP JUMP JUMPDEST PUSH1 0x0 PUSH20 0xFFFFFFFFFFFFFFFFFFFFFFFFFFFFFFFFFFFFFFFF AND DUP3 PUSH20 0xFFFFFFFFFFFFFFFFFFFFFFFFFFFFFFFFFFFFFFFF AND SUB PUSH2 0x15AA JUMPI PUSH1 0x40 MLOAD PUSH32 0x8C379A000000000000000000000000000000000000000000000000000000000 DUP2 MSTORE PUSH1 0x4 ADD PUSH2 0x15A1 SWAP1 PUSH2 0x20BC JUMP JUMPDEST PUSH1 0x40 MLOAD DUP1 SWAP2 SUB SWAP1 REVERT JUMPDEST PUSH2 0x15BF DUP2 PUSH1 0x3 SLOAD PUSH2 0x133A SWAP1 SWAP2 SWAP1 PUSH4 0xFFFFFFFF AND JUMP JUMPDEST PUSH1 0x3 DUP2 SWAP1 SSTORE POP PUSH2 0x1617 DUP2 PUSH1 0x1 PUSH1 0x0 DUP6 PUSH20 0xFFFFFFFFFFFFFFFFFFFFFFFFFFFFFFFFFFFFFFFF AND PUSH20 0xFFFFFFFFFFFFFFFFFFFFFFFFFFFFFFFFFFFFFFFF AND DUP2 MSTORE PUSH1 0x20 ADD SWAP1 DUP2 MSTORE PUSH1 0x20 ADD PUSH1 0x0 KECCAK256 SLOAD PUSH2 0x133A SWAP1 SWAP2 SWAP1 PUSH4 0xFFFFFFFF AND JUMP JUMPDEST PUSH1 0x1 PUSH1 0x0 DUP5 PUSH20 0xFFFFFFFFFFFFFFFFFFFFFFFFFFFFFFFFFFFFFFFF AND PUSH20 0xFFFFFFFFFFFFFFFFFFFFFFFFFFFFFFFFFFFFFFFF AND DUP2 MSTORE PUSH1 0x20 ADD SWAP1 DUP2 MSTORE PUSH1 0x20 ADD PUSH1 0x0 KECCAK256 DUP2 SWAP1 SSTORE POP DUP2 PUSH20 0xFFFFFFFFFFFFFFFFFFFFFFFFFFFFFFFFFFFFFFFF AND PUSH1 0x0 PUSH20 0xFFFFFFFFFFFFFFFFFFFFFFFFFFFFFFFFFFFFFFFF AND PUSH32 0xDDF252AD1BE2C89B69C2B068FC378DAA952BA7F163C4A11628F55A4DF523B3EF DUP4 PUSH1 0x40 MLOAD PUSH2 0x16B8 SWAP2 SWAP1 PUSH2 0x18DE JUMP JUMPDEST PUSH1 0x40 MLOAD DUP1 SWAP2 SUB SWAP1 LOG3 POP POP JUMP JUMPDEST PUSH1 0x0 PUSH2 0x1706 DUP4 DUP4 PUSH1 0x40 MLOAD DUP1 PUSH1 0x40 ADD PUSH1 0x40 MSTORE DUP1 PUSH1 0x1E DUP2 MSTORE PUSH1 0x20 ADD PUSH32 0x536166654D6174683A207375627472616374696F6E206F766572666C6F770000 DUP2 MSTORE POP PUSH2 0x12D6 JUMP JUMPDEST SWAP1 POP SWAP3 SWAP2 POP POP JUMP JUMPDEST PUSH1 0x0 DUP2 MLOAD SWAP1 POP SWAP2 SWAP1 POP JUMP JUMPDEST PUSH1 0x0 DUP3 DUP3 MSTORE PUSH1 0x20 DUP3 ADD SWAP1 POP SWAP3 SWAP2 POP POP JUMP JUMPDEST PUSH1 0x0 JUMPDEST DUP4 DUP2 LT ISZERO PUSH2 0x1748 JUMPI DUP1 DUP3 ADD MLOAD DUP2 DUP5 ADD MSTORE PUSH1 0x20 DUP2 ADD SWAP1 POP PUSH2 0x172D JUMP JUMPDEST PUSH1 0x0 DUP5 DUP5 ADD MSTORE POP POP POP POP JUMP JUMPDEST PUSH1 0x0 PUSH1 0x1F NOT PUSH1 0x1F DUP4 ADD AND SWAP1 POP SWAP2 SWAP1 POP JUMP JUMPDEST PUSH1 0x0 PUSH2 0x1770 DUP3 PUSH2 0x170E JUMP JUMPDEST PUSH2 0x177A DUP2 DUP6 PUSH2 0x1719 JUMP JUMPDEST SWAP4 POP PUSH2 0x178A DUP2 DUP6 PUSH1 0x20 DUP7 ADD PUSH2 0x172A JUMP JUMPDEST PUSH2 0x1793 DUP2 PUSH2 0x1754 JUMP JUMPDEST DUP5 ADD SWAP2 POP POP SWAP3 SWAP2 POP POP JUMP JUMPDEST PUSH1 0x0 PUSH1 0x20 DUP3 ADD SWAP1 POP DUP2 DUP2 SUB PUSH1 0x0 DUP4 ADD MSTORE PUSH2 0x17B8 DUP2 DUP5 PUSH2 0x1765 JUMP JUMPDEST SWAP1 POP SWAP3 SWAP2 POP POP JUMP JUMPDEST PUSH1 0x0 DUP1 REVERT JUMPDEST PUSH1 0x0 PUSH20 0xFFFFFFFFFFFFFFFFFFFFFFFFFFFFFFFFFFFFFFFF DUP3 AND SWAP1 POP SWAP2 SWAP1 POP JUMP JUMPDEST PUSH1 0x0 PUSH2 0x17F0 DUP3 PUSH2 0x17C5 JUMP JUMPDEST SWAP1 POP SWAP2 SWAP1 POP JUMP JUMPDEST PUSH2 0x1800 DUP2 PUSH2 0x17E5 JUMP JUMPDEST DUP2 EQ PUSH2 0x180B JUMPI PUSH1 0x0 DUP1 REVERT JUMPDEST POP JUMP JUMPDEST PUSH1 0x0 DUP2 CALLDATALOAD SWAP1 POP PUSH2 0x181D DUP2 PUSH2 0x17F7 JUMP JUMPDEST SWAP3 SWAP2 POP POP JUMP JUMPDEST PUSH1 0x0 DUP2 SWAP1 POP SWAP2 SWAP1 POP JUMP JUMPDEST PUSH2 0x1836 DUP2 PUSH2 0x1823 JUMP JUMPDEST DUP2 EQ PUSH2 0x1841 JUMPI PUSH1 0x0 DUP1 REVERT JUMPDEST POP JUMP JUMPDEST PUSH1 0x0 DUP2 CALLDATALOAD SWAP1 POP PUSH2 0x1853 DUP2 PUSH2 0x182D JUMP JUMPDEST SWAP3 SWAP2 POP POP JUMP JUMPDEST PUSH1 0x0 DUP1 PUSH1 0x40 DUP4 DUP6 SUB SLT ISZERO PUSH2 0x1870 JUMPI PUSH2 0x186F PUSH2 0x17C0 JUMP JUMPDEST JUMPDEST PUSH1 0x0 PUSH2 0x187E DUP6 DUP3 DUP7 ADD PUSH2 0x180E JUMP JUMPDEST SWAP3 POP POP PUSH1 0x20 PUSH2 0x188F DUP6 DUP3 DUP7 ADD PUSH2 0x1844 JUMP JUMPDEST SWAP2 POP POP SWAP3 POP SWAP3 SWAP1 POP JUMP JUMPDEST PUSH1 0x0 DUP2 ISZERO ISZERO SWAP1 POP SWAP2 SWAP1 POP JUMP JUMPDEST PUSH2 0x18AE DUP2 PUSH2 0x1899 JUMP JUMPDEST DUP3 MSTORE POP POP JUMP JUMPDEST PUSH1 0x0 PUSH1 0x20 DUP3 ADD SWAP1 POP PUSH2 0x18C9 PUSH1 0x0 DUP4 ADD DUP5 PUSH2 0x18A5 JUMP JUMPDEST SWAP3 SWAP2 POP POP JUMP JUMPDEST PUSH2 0x18D8 DUP2 PUSH2 0x1823 JUMP JUMPDEST DUP3 MSTORE POP POP JUMP JUMPDEST PUSH1 0x0 PUSH1 0x20 DUP3 ADD SWAP1 POP PUSH2 0x18F3 PUSH1 0x0 DUP4 ADD DUP5 PUSH2 0x18CF JUMP JUMPDEST SWAP3 SWAP2 POP POP JUMP JUMPDEST PUSH1 0x0 DUP1 PUSH1 0x0 PUSH1 0x60 DUP5 DUP7 SUB SLT ISZERO PUSH2 0x1912 JUMPI PUSH2 0x1911 PUSH2 0x17C0 JUMP JUMPDEST JUMPDEST PUSH1 0x0 PUSH2 0x1920 DUP7 DUP3 DUP8 ADD PUSH2 0x180E JUMP JUMPDEST SWAP4 POP POP PUSH1 0x20 PUSH2 0x1931 DUP7 DUP3 DUP8 ADD PUSH2 0x180E JUMP JUMPDEST SWAP3 POP POP PUSH1 0x40 PUSH2 0x1942 DUP7 DUP3 DUP8 ADD PUSH2 0x1844 JUMP JUMPDEST SWAP2 POP POP SWAP3 POP SWAP3 POP SWAP3 JUMP JUMPDEST PUSH1 0x0 PUSH1 0xFF DUP3 AND SWAP1 POP SWAP2 SWAP1 POP JUMP JUMPDEST PUSH2 0x1962 DUP2 PUSH2 0x194C JUMP JUMPDEST DUP3 MSTORE POP POP JUMP JUMPDEST PUSH1 0x0 PUSH1 0x20 DUP3 ADD SWAP1 POP PUSH2 0x197D PUSH1 0x0 DUP4 ADD DUP5 PUSH2 0x1959 JUMP JUMPDEST SWAP3 SWAP2 POP POP JUMP JUMPDEST PUSH1 0x0 PUSH1 0x20 DUP3 DUP5 SUB SLT ISZERO PUSH2 0x1999 JUMPI PUSH2 0x1998 PUSH2 0x17C0 JUMP JUMPDEST JUMPDEST PUSH1 0x0 PUSH2 0x19A7 DUP5 DUP3 DUP6 ADD PUSH2 0x1844 JUMP JUMPDEST SWAP2 POP POP SWAP3 SWAP2 POP POP JUMP JUMPDEST PUSH1 0x0 PUSH1 0x20 DUP3 DUP5 SUB SLT ISZERO PUSH2 0x19C6 JUMPI PUSH2 0x19C5 PUSH2 0x17C0 JUMP JUMPDEST JUMPDEST PUSH1 0x0 PUSH2 0x19D4 DUP5 DUP3 DUP6 ADD PUSH2 0x180E JUMP JUMPDEST SWAP2 POP POP SWAP3 SWAP2 POP POP JUMP JUMPDEST PUSH2 0x19E6 DUP2 PUSH2 0x17E5 JUMP JUMPDEST DUP3 MSTORE POP POP JUMP JUMPDEST PUSH1 0x0 PUSH1 0x20 DUP3 ADD SWAP1 POP PUSH2 0x1A01 PUSH1 0x0 DUP4 ADD DUP5 PUSH2 0x19DD JUMP JUMPDEST SWAP3 SWAP2 POP POP JUMP JUMPDEST PUSH1 0x0 DUP1 PUSH1 0x40 DUP4 DUP6 SUB SLT ISZERO PUSH2 0x1A1E JUMPI PUSH2 0x1A1D PUSH2 0x17C0 JUMP JUMPDEST JUMPDEST PUSH1 0x0 PUSH2 0x1A2C DUP6 DUP3 DUP7 ADD PUSH2 0x1844 JUMP JUMPDEST SWAP3 POP POP PUSH1 0x20 PUSH2 0x1A3D DUP6 DUP3 DUP7 ADD PUSH2 0x180E JUMP JUMPDEST SWAP2 POP POP SWAP3 POP SWAP3 SWAP1 POP JUMP JUMPDEST PUSH1 0x0 DUP1 PUSH1 0x40 DUP4 DUP6 SUB SLT ISZERO PUSH2 0x1A5E JUMPI PUSH2 0x1A5D PUSH2 0x17C0 JUMP JUMPDEST JUMPDEST PUSH1 0x0 PUSH2 0x1A6C DUP6 DUP3 DUP7 ADD PUSH2 0x180E JUMP JUMPDEST SWAP3 POP POP PUSH1 0x20 PUSH2 0x1A7D DUP6 DUP3 DUP7 ADD PUSH2 0x180E JUMP JUMPDEST SWAP2 POP POP SWAP3 POP SWAP3 SWAP1 POP JUMP JUMPDEST PUSH32 0x4E487B7100000000000000000000000000000000000000000000000000000000 PUSH1 0x0 MSTORE PUSH1 0x22 PUSH1 0x4 MSTORE PUSH1 0x24 PUSH1 0x0 REVERT JUMPDEST PUSH1 0x0 PUSH1 0x2 DUP3 DIV SWAP1 POP PUSH1 0x1 DUP3 AND DUP1 PUSH2 0x1ACE JUMPI PUSH1 0x7F DUP3 AND SWAP2 POP JUMPDEST PUSH1 0x20 DUP3 LT DUP2 SUB PUSH2 0x1AE1 JUMPI PUSH2 0x1AE0 PUSH2 0x1A87 JUMP JUMPDEST JUMPDEST POP SWAP2 SWAP1 POP JUMP JUMPDEST PUSH32 0x4F776E61626C653A2063616C6C6572206973206E6F7420746865206F776E6572 PUSH1 0x0 DUP3 ADD MSTORE POP JUMP JUMPDEST PUSH1 0x0 PUSH2 0x1B1D PUSH1 0x20 DUP4 PUSH2 0x1719 JUMP JUMPDEST SWAP2 POP PUSH2 0x1B28 DUP3 PUSH2 0x1AE7 JUMP JUMPDEST PUSH1 0x20 DUP3 ADD SWAP1 POP SWAP2 SWAP1 POP JUMP JUMPDEST PUSH1 0x0 PUSH1 0x20 DUP3 ADD SWAP1 POP DUP2 DUP2 SUB PUSH1 0x0 DUP4 ADD MSTORE PUSH2 0x1B4C DUP2 PUSH2 0x1B10 JUMP JUMPDEST SWAP1 POP SWAP2 SWAP1 POP JUMP JUMPDEST PUSH32 0x7468697320746F6B656E206973206E6F74206D696E7461626C65000000000000 PUSH1 0x0 DUP3 ADD MSTORE POP JUMP JUMPDEST PUSH1 0x0 PUSH2 0x1B89 PUSH1 0x1A DUP4 PUSH2 0x1719 JUMP JUMPDEST SWAP2 POP PUSH2 0x1B94 DUP3 PUSH2 0x1B53 JUMP JUMPDEST PUSH1 0x20 DUP3 ADD SWAP1 POP SWAP2 SWAP1 POP JUMP JUMPDEST PUSH1 0x0 PUSH1 0x20 DUP3 ADD SWAP1 POP DUP2 DUP2 SUB PUSH1 0x0 DUP4 ADD MSTORE PUSH2 0x1BB8 DUP2 PUSH2 0x1B7C JUMP JUMPDEST SWAP1 POP SWAP2 SWAP1 POP JUMP JUMPDEST PUSH32 0x4E487B7100000000000000000000000000000000000000000000000000000000 PUSH1 0x0 MSTORE PUSH1 0x11 PUSH1 0x4 MSTORE PUSH1 0x24 PUSH1 0x0 REVERT JUMPDEST PUSH1 0x0 PUSH2 0x1BF9 DUP3 PUSH2 0x1823 JUMP JUMPDEST SWAP2 POP PUSH2 0x1C04 DUP4 PUSH2 0x1823 JUMP JUMPDEST SWAP3 POP DUP3 DUP3 MUL PUSH2 0x1C12 DUP2 PUSH2 0x1823 JUMP JUMPDEST SWAP2 POP DUP3 DUP3 DIV DUP5 EQ DUP4 ISZERO OR PUSH2 0x1C29 JUMPI PUSH2 0x1C28 PUSH2 0x1BBF JUMP JUMPDEST JUMPDEST POP SWAP3 SWAP2 POP POP JUMP JUMPDEST PUSH32 0x4F776E61626C653A206E6577206F776E657220697320746865207A65726F2061 PUSH1 0x0 DUP3 ADD MSTORE PUSH32 0x6464726573730000000000000000000000000000000000000000000000000000 PUSH1 0x20 DUP3 ADD MSTORE POP JUMP JUMPDEST PUSH1 0x0 PUSH2 0x1C8C PUSH1 0x26 DUP4 PUSH2 0x1719 JUMP JUMPDEST SWAP2 POP PUSH2 0x1C97 DUP3 PUSH2 0x1C30 JUMP JUMPDEST PUSH1 0x40 DUP3 ADD SWAP1 POP SWAP2 SWAP1 POP JUMP JUMPDEST PUSH1 0x0 PUSH1 0x20 DUP3 ADD SWAP1 POP DUP2 DUP2 SUB PUSH1 0x0 DUP4 ADD MSTORE PUSH2 0x1CBB DUP2 PUSH2 0x1C7F JUMP JUMPDEST SWAP1 POP SWAP2 SWAP1 POP JUMP JUMPDEST PUSH32 0x42455032303A20617070726F76652066726F6D20746865207A65726F20616464 PUSH1 0x0 DUP3 ADD MSTORE PUSH32 0x7265737300000000000000000000000000000000000000000000000000000000 PUSH1 0x20 DUP3 ADD MSTORE POP JUMP JUMPDEST PUSH1 0x0 PUSH2 0x1D1E PUSH1 0x24 DUP4 PUSH2 0x1719 JUMP JUMPDEST SWAP2 POP PUSH2 0x1D29 DUP3 PUSH2 0x1CC2 JUMP JUMPDEST PUSH1 0x40 DUP3 ADD SWAP1 POP SWAP2 SWAP1 POP JUMP JUMPDEST PUSH1 0x0 PUSH1 0x20 DUP3 ADD SWAP1 POP DUP2 DUP2 SUB PUSH1 0x0 DUP4 ADD MSTORE PUSH2 0x1D4D DUP2 PUSH2 0x1D11 JUMP JUMPDEST SWAP1 POP SWAP2 SWAP1 POP JUMP JUMPDEST PUSH32 0x42455032303A20617070726F766520746F20746865207A65726F206164647265 PUSH1 0x0 DUP3 ADD MSTORE PUSH32 0x7373000000000000000000000000000000000000000000000000000000000000 PUSH1 0x20 DUP3 ADD MSTORE POP JUMP JUMPDEST PUSH1 0x0 PUSH2 0x1DB0 PUSH1 0x22 DUP4 PUSH2 0x1719 JUMP JUMPDEST SWAP2 POP PUSH2 0x1DBB DUP3 PUSH2 0x1D54 JUMP JUMPDEST PUSH1 0x40 DUP3 ADD SWAP1 POP SWAP2 SWAP1 POP JUMP JUMPDEST PUSH1 0x0 PUSH1 0x20 DUP3 ADD SWAP1 POP DUP2 DUP2 SUB PUSH1 0x0 DUP4 ADD MSTORE PUSH2 0x1DDF DUP2 PUSH2 0x1DA3 JUMP JUMPDEST SWAP1 POP SWAP2 SWAP1 POP JUMP JUMPDEST PUSH32 0x42455032303A207472616E736665722066726F6D20746865207A65726F206164 PUSH1 0x0 DUP3 ADD MSTORE PUSH32 0x6472657373000000000000000000000000000000000000000000000000000000 PUSH1 0x20 DUP3 ADD MSTORE POP JUMP JUMPDEST PUSH1 0x0 PUSH2 0x1E42 PUSH1 0x25 DUP4 PUSH2 0x1719 JUMP JUMPDEST SWAP2 POP PUSH2 0x1E4D DUP3 PUSH2 0x1DE6 JUMP JUMPDEST PUSH1 0x40 DUP3 ADD SWAP1 POP SWAP2 SWAP1 POP JUMP JUMPDEST PUSH1 0x0 PUSH1 0x20 DUP3 ADD SWAP1 POP DUP2 DUP2 SUB PUSH1 0x0 DUP4 ADD MSTORE PUSH2 0x1E71 DUP2 PUSH2 0x1E35 JUMP JUMPDEST SWAP1 POP SWAP2 SWAP1 POP JUMP JUMPDEST PUSH32 0x42455032303A207472616E7366657220746F20746865207A65726F2061646472 PUSH1 0x0 DUP3 ADD MSTORE PUSH32 0x6573730000000000000000000000000000000000000000000000000000000000 PUSH1 0x20 DUP3 ADD MSTORE POP JUMP JUMPDEST PUSH1 0x0 PUSH2 0x1ED4 PUSH1 0x23 DUP4 PUSH2 0x1719 JUMP JUMPDEST SWAP2 POP PUSH2 0x1EDF DUP3 PUSH2 0x1E78 JUMP JUMPDEST PUSH1 0x40 DUP3 ADD SWAP1 POP SWAP2 SWAP1 POP JUMP JUMPDEST PUSH1 0x0 PUSH1 0x20 DUP3 ADD SWAP1 POP DUP2 DUP2 SUB PUSH1 0x0 DUP4 ADD MSTORE PUSH2 0x1F03 DUP2 PUSH2 0x1EC7 JUMP JUMPDEST SWAP1 POP SWAP2 SWAP1 POP JUMP JUMPDEST PUSH1 0x0 PUSH2 0x1F15 DUP3 PUSH2 0x1823 JUMP JUMPDEST SWAP2 POP PUSH2 0x1F20 DUP4 PUSH2 0x1823 JUMP JUMPDEST SWAP3 POP DUP3 DUP3 SUB SWAP1 POP DUP2 DUP2 GT ISZERO PUSH2 0x1F38 JUMPI PUSH2 0x1F37 PUSH2 0x1BBF JUMP JUMPDEST JUMPDEST SWAP3 SWAP2 POP POP JUMP JUMPDEST PUSH1 0x0 PUSH2 0x1F49 DUP3 PUSH2 0x1823 JUMP JUMPDEST SWAP2 POP PUSH2 0x1F54 DUP4 PUSH2 0x1823 JUMP JUMPDEST SWAP3 POP DUP3 DUP3 ADD SWAP1 POP DUP1 DUP3 GT ISZERO PUSH2 0x1F6C JUMPI PUSH2 0x1F6B PUSH2 0x1BBF JUMP JUMPDEST JUMPDEST SWAP3 SWAP2 POP POP JUMP JUMPDEST PUSH32 0x536166654D6174683A206164646974696F6E206F766572666C6F770000000000 PUSH1 0x0 DUP3 ADD MSTORE POP JUMP JUMPDEST PUSH1 0x0 PUSH2 0x1FA8 PUSH1 0x1B DUP4 PUSH2 0x1719 JUMP JUMPDEST SWAP2 POP PUSH2 0x1FB3 DUP3 PUSH2 0x1F72 JUMP JUMPDEST PUSH1 0x20 DUP3 ADD SWAP1 POP SWAP2 SWAP1 POP JUMP JUMPDEST PUSH1 0x0 PUSH1 0x20 DUP3 ADD SWAP1 POP DUP2 DUP2 SUB PUSH1 0x0 DUP4 ADD MSTORE PUSH2 0x1FD7 DUP2 PUSH2 0x1F9B JUMP JUMPDEST SWAP1 POP SWAP2 SWAP1 POP JUMP JUMPDEST PUSH32 0x42455032303A206275726E2066726F6D20746865207A65726F20616464726573 PUSH1 0x0 DUP3 ADD MSTORE PUSH32 0x7300000000000000000000000000000000000000000000000000000000000000 PUSH1 0x20 DUP3 ADD MSTORE POP JUMP JUMPDEST PUSH1 0x0 PUSH2 0x203A PUSH1 0x21 DUP4 PUSH2 0x1719 JUMP JUMPDEST SWAP2 POP PUSH2 0x2045 DUP3 PUSH2 0x1FDE JUMP JUMPDEST PUSH1 0x40 DUP3 ADD SWAP1 POP SWAP2 SWAP1 POP JUMP JUMPDEST PUSH1 0x0 PUSH1 0x20 DUP3 ADD SWAP1 POP DUP2 DUP2 SUB PUSH1 0x0 DUP4 ADD MSTORE PUSH2 0x2069 DUP2 PUSH2 0x202D JUMP JUMPDEST SWAP1 POP SWAP2 SWAP1 POP JUMP JUMPDEST PUSH32 0x42455032303A206D696E7420746F20746865207A65726F206164647265737300 PUSH1 0x0 DUP3 ADD MSTORE POP JUMP JUMPDEST PUSH1 0x0 PUSH2 0x20A6 PUSH1 0x1F DUP4 PUSH2 0x1719 JUMP JUMPDEST SWAP2 POP PUSH2 0x20B1 DUP3 PUSH2 0x2070 JUMP JUMPDEST PUSH1 0x20 DUP3 ADD SWAP1 POP SWAP2 SWAP1 POP JUMP JUMPDEST PUSH1 0x0 PUSH1 0x20 DUP3 ADD SWAP1 POP DUP2 DUP2 SUB PUSH1 0x0 DUP4 ADD MSTORE PUSH2 0x20D5 DUP2 PUSH2 0x2099 JUMP JUMPDEST SWAP1 POP SWAP2 SWAP1 POP JUMP INVALID TIMESTAMP GASLIMIT POP ORIGIN ADDRESS GASPRICE KECCAK256 PUSH21 0x72616E7366657220616D6F756E7420657863656564 PUSH20 0x20616C6C6F77616E636542455032303A20747261 PUSH15 0x7366657220616D6F756E7420657863 PUSH6 0x656473206261 PUSH13 0x616E636542455032303A206465 PUSH4 0x72656173 PUSH6 0x6420616C6C6F PUSH24 0x616E63652062656C6F77207A65726F42455032303A206275 PUSH19 0x6E20616D6F756E742065786365656473206261 PUSH13 0x616E6365A26469706673582212 KECCAK256 ADD LT 0xA9 PUSH19 0x91153D418DC892AA50F359BA38D4DEA447B7A6 SHL PUSH18 0xFB18965F821A8864736F6C63430008120033 "
				},
				"gasEstimates": {
					"creation": {
						"codeDepositCost": "1723000",
						"executionCost": "infinite",
						"totalCost": "infinite"
					},
					"external": {
						"allowance(address,address)": "infinite",
						"approve(address,uint256)": "infinite",
						"balanceOf(address)": "2930",
						"burn(uint256)": "infinite",
						"decimals()": "2591",
						"decreaseAllowance(address,uint256)": "infinite",
						"getETHValue(uint256)": "infinite",
						"getOwner()": "2567",
						"increaseAllowance(address,uint256)": "infinite",
						"mint(uint256)": "infinite",
						"mintTo(uint256,address)": "infinite",
						"mintable()": "2596",
						"name()": "infinite",
						"pricePerToken()": "2452",
						"renounceOwnership()": "30408",
						"symbol()": "infinite",
						"totalSupply()": "2505",
						"transfer(address,uint256)": "infinite",
						"transferFrom(address,address,uint256)": "infinite",
						"transferOwnership(address)": "30753"
					},
					"internal": {
						"_approve(address,address,uint256)": "infinite",
						"_burn(address,uint256)": "infinite",
						"_burnFrom(address,uint256)": "infinite",
						"_mint(address,uint256)": "infinite",
						"_transfer(address,address,uint256)": "infinite"
					}
				},
				"methodIdentifiers": {
					"allowance(address,address)": "dd62ed3e",
					"approve(address,uint256)": "095ea7b3",
					"balanceOf(address)": "70a08231",
					"burn(uint256)": "42966c68",
					"decimals()": "313ce567",
					"decreaseAllowance(address,uint256)": "a457c2d7",
					"getETHValue(uint256)": "d5bda32d",
					"getOwner()": "893d20e8",
					"increaseAllowance(address,uint256)": "39509351",
					"mint(uint256)": "a0712d68",
					"mintTo(uint256,address)": "b723b34e",
					"mintable()": "4bf365df",
					"name()": "06fdde03",
					"pricePerToken()": "7b1b1de6",
					"renounceOwnership()": "715018a6",
					"symbol()": "95d89b41",
					"totalSupply()": "18160ddd",
					"transfer(address,uint256)": "a9059cbb",
					"transferFrom(address,address,uint256)": "23b872dd",
					"transferOwnership(address)": "f2fde38b"
				}
			},
			"storageLayout": {
				"storage": [
					{
						"astId": 818,
						"contract": "MGAS/BEP20TokenImplementation.sol:BEP20TokenImplementation",
						"label": "_initialized",
						"offset": 0,
						"slot": "0",
						"type": "t_bool"
					},
					{
						"astId": 821,
						"contract": "MGAS/BEP20TokenImplementation.sol:BEP20TokenImplementation",
						"label": "_initializing",
						"offset": 1,
						"slot": "0",
						"type": "t_bool"
					},
					{
						"astId": 21,
						"contract": "MGAS/BEP20TokenImplementation.sol:BEP20TokenImplementation",
						"label": "_balances",
						"offset": 0,
						"slot": "1",
						"type": "t_mapping(t_address,t_uint256)"
					},
					{
						"astId": 27,
						"contract": "MGAS/BEP20TokenImplementation.sol:BEP20TokenImplementation",
						"label": "_allowances",
						"offset": 0,
						"slot": "2",
						"type": "t_mapping(t_address,t_mapping(t_address,t_uint256))"
					},
					{
						"astId": 30,
						"contract": "MGAS/BEP20TokenImplementation.sol:BEP20TokenImplementation",
						"label": "_totalSupply",
						"offset": 0,
						"slot": "3",
						"type": "t_uint256"
					},
					{
						"astId": 33,
						"contract": "MGAS/BEP20TokenImplementation.sol:BEP20TokenImplementation",
						"label": "_name",
						"offset": 0,
						"slot": "4",
						"type": "t_string_storage"
					},
					{
						"astId": 36,
						"contract": "MGAS/BEP20TokenImplementation.sol:BEP20TokenImplementation",
						"label": "_symbol",
						"offset": 0,
						"slot": "5",
						"type": "t_string_storage"
					},
					{
						"astId": 39,
						"contract": "MGAS/BEP20TokenImplementation.sol:BEP20TokenImplementation",
						"label": "_decimals",
						"offset": 0,
						"slot": "6",
						"type": "t_uint8"
					},
					{
						"astId": 41,
						"contract": "MGAS/BEP20TokenImplementation.sol:BEP20TokenImplementation",
						"label": "pricePerToken",
						"offset": 0,
						"slot": "7",
						"type": "t_uint256"
					},
					{
						"astId": 44,
						"contract": "MGAS/BEP20TokenImplementation.sol:BEP20TokenImplementation",
						"label": "_owner",
						"offset": 0,
						"slot": "8",
						"type": "t_address"
					},
					{
						"astId": 52,
						"contract": "MGAS/BEP20TokenImplementation.sol:BEP20TokenImplementation",
						"label": "_mintable",
						"offset": 20,
						"slot": "8",
						"type": "t_bool"
					}
				],
				"types": {
					"t_address": {
						"encoding": "inplace",
						"label": "address",
						"numberOfBytes": "20"
					},
					"t_bool": {
						"encoding": "inplace",
						"label": "bool",
						"numberOfBytes": "1"
					},
					"t_mapping(t_address,t_mapping(t_address,t_uint256))": {
						"encoding": "mapping",
						"key": "t_address",
						"label": "mapping(address => mapping(address => uint256))",
						"numberOfBytes": "32",
						"value": "t_mapping(t_address,t_uint256)"
					},
					"t_mapping(t_address,t_uint256)": {
						"encoding": "mapping",
						"key": "t_address",
						"label": "mapping(address => uint256)",
						"numberOfBytes": "32",
						"value": "t_uint256"
					},
					"t_string_storage": {
						"encoding": "bytes",
						"label": "string",
						"numberOfBytes": "32"
					},
					"t_uint256": {
						"encoding": "inplace",
						"label": "uint256",
						"numberOfBytes": "32"
					},
					"t_uint8": {
						"encoding": "inplace",
						"label": "uint8",
						"numberOfBytes": "1"
					}
				}
			},
			"userdoc": {
				"kind": "user",
				"methods": {},
				"version": 1
			}
		}
	}
}